:0200000270008C
:10500000807F0020359D07005D9D07005F9D0700A4
:10501000619D0700639D0700659D0700000000007B
:10502000000000000000000000000000679D070075
:10503000699D0700000000006B9D07006D9D070043
:105040006F9D07006F9D07006F9D07006F9D070014
:105050006F9D07006F9D07006F9D07006F9D070004
:105060006F9D07006F9D07006F9D07006F9D0700F4
:105070006F9D07006F9D07006F9D07006F9D0700E4
:105080006F9D07007D7F07006F9D07006F9D0700E4
:10509000898007006F9D07002D7107006F9D070035
:1050A0006F9D07006F9D07006F9D07006F9D0700B4
:1050B0006F9D07006F9D07000000000000000000CA
:1050C0006F9D07006F9D07006F9D07006F9D070094
:1050D0006F9D07006F9D07006F9D07000000000097
:1050E00000000000000000000000000000000000C0
:1050F00000000000000000000000000000000000B0
:10510000000000000000000000000000000000009F
:10511000000000000000000000000000000000008F
:1054000010B5054C237833B9044B13B10448AFF3FE
:1054100000800123237010BD902C002000000000AC
:1054200098D30700084B10B51BB108480849AFF3E3
:1054300000800848036803B910BD074B002BFBD060
:10544000BDE81040184700BF0000000098D30700D7
:10545000942C0020742C002000000000154B002B21
:1054600008BF134B9D46A3F5803A00218B460F469B
:105470001348144A121A00F065F80F4B002B00D0A5
:1054800098470E4B002B00D09847002000210400C5
:105490000D000D48002802D00C48AFF3008000F04A
:1054A0002BF82000290003F059F800F011F800BF94
:1054B00000000800807F00200000000000000000C5
:1054C000902C0020403D0020000000000000000063
:1054D00008B5074B044613B10021AFF30080054B1C
:1054E0001868836A03B19847204600F033F800BF7C
:1054F00000000000A4B8070070B50E4B0E4CE41A73
:10550000A41000251E46A54204D056F82530984721
:105510000135F8E706F0B8F9084C094BE41AA41075
:1055200000251E46A54204D056F82530984701357F
:10553000F8E770BD6C2C00206C2C0020702C002033
:105540006C2C002002440346934202D003F8011B56
:10555000FAE77047FEE700BF08B502F0F5FF30B587
:1055600087B004460D46ADF8062002A8102200219F
:10557000FFF7E8FF01238DF80A300DF106030493CD
:105580002046044BADF8085002A9059303F0EFFE46
:1055900007B030BD0C3D00202DE9F041C04D2C6816
:1055A00014F00204A0B040F004822146102206A8A4
:1055B000FFF7C8FF01264FF6596312A8214638228B
:1055C000ADF80C308DF80E60FFF7BCFF02238DF8AC
:1055D000483003AB15939DF875308DF84A404FF075
:1055E00006088DF84B80ADF85060ADF80A4023B93D
:1055F0009DF84A30002B59D032E004A803F05DFD3D
:10560000002840F0E381BDF80A0020AB03440822E3
:1056100003F8582C431C20AA12FA83F302301B22F1
:1056200003F8582C80B20AABADF80A000DF1110155
:105630001844424605F0F4FCBDF80A309DF81010FD
:105640009A1D11F0FE0F20A911FA82F203F107034F
:105650000CBF02F8584C02F8586CADF80A30C7E796
:10566000BDF80A3004331F2B00F2A58104A803F013
:1056700020FD002840F0AA81BDF80A3020AA1A4473
:10568000032102F8581C5A1C20A911FA82F2192190
:1056900002F8581C991CBDF810200AA889B24618B7
:1056A00042540433120A7270ADF80A309DF84B0070
:1056B000C8B1BDF80A30D91C1F2900F27C8120AA8C
:1056C0001A44022602F8586C5A1C20AE16FA82F2CE
:1056D000012602F8586C023320AA12FA83F3ADF8BF
:1056E0000A1003F8580C139BD3B11878BDF80A3090
:1056F000D91C1F2900F25F8120AA1A44022602F851
:10570000586C5A1C20AE16FA82F20A2602F8586C1F
:10571000023320AA12FA83F3ADF80A1003F8580CEA
:10572000BDF850301BB9BDF85830E3B10DE00DF1B4
:105730000A0300931F23019314A8022106220AAB37
:1057400001F0EEFE0028EED040E10DF10A030093D7
:105750001F23019316A8032107220AAB01F0E0FEE4
:10576000002840F03381BDF860306BB10DF10A03C1
:1057700000931F23019318A8142115220AAB01F0EE
:10578000CFFE002840F022811A9A002A48D0BDF8A6
:105790000A30981D1F2800F20E811688052E40F24F
:1057A0000C816FF4486E06EB0E0189B24FF27D3E1C
:1057B000714540F202815188052940F2FE806FF464
:1057C0004867CF19BFB2774540F2F7804FF6FF77B1
:1057D000BE4204D0B94202D08E4200F2EE8020A92F
:1057E0001944052601F8586C591C20AE16FA81F1AF
:1057F000122601F8586C991C89B2ADF80A10178866
:10580000ADF80A000AAE06EB010E77543F0A8EF897
:105810000170043352889BB2F118F254120A4A7094
:105820001B9E9EB3B188BDF80A30881C9A1C1718BD
:105830001F2F00F2C080FE2800F2BD8020A818446F
:10584000033100F8581C591C20A810FA81F192B2BB
:10585000FF2001F8580CADF80A2031880AA88718F3
:105860008154090A79700433B2889BB2ADF80A30CA
:1058700062B1B168002900F0A080184405F0D0FBA7
:10588000BDF80A30B2881344ADF80A309DF8743080
:1058900043B99DF84830002B00F0918041E000BFF3
:1058A000083D00201C9B002B00F087809DF8742091
:1058B000E3B29A42EDD90C201C9F00FB03F2BE1804
:1058C000B1888B1CFE2B00F28180BDF80A3020A825
:1058D0001844033100F8581C591C20A810FA81F113
:1058E000162001F8580C991C89B2ADF80A10BA5A62
:1058F0000AA847184254120A7A700433B2889BB23D
:10590000ADF80A305AB1B168002956D0184405F0F4
:1059100087FBBDF80A30B2881344ADF80A30013471
:10592000C4E7BDF84820012A47D0BDF80A40A01CB2
:105930001F2840D8012B05D19DF84930234402335C
:105940001F2B38D8C4F11D040AABA4B2184404A913
:10595000ADF8104003F0ABFBC0BB9DF84830022B04
:1059600004D1BDF81030A3420DD908E0012B06D1B7
:105970009DF84930A34202D8ADF8103001E0ADF8EF
:105980001040082100E00921BDF81030FE2B12D88C
:10599000BDF80A2020A810440133013200F8583C19
:1059A00092B220A81044134400F8581CADF80A30F5
:1059B00005E000242AE00C2008E0072006E0002291
:1059C0000AA89DF80A10134603F075FB0446ECB9CB
:1059D000282306A88DF8184007948DF82040ADF8CC
:1059E0002230ADF8244003F0D6FC70B94FF0A0434C
:1059F0004FF40032C3F80C254FF40022C3F80825F9
:105A00002B6843F002032B6000E00446204620B0E0
:105A1000BDE8F0812DE9F0430388112B89B00446DD
:105A200018D002D8102B05D03BE0122B31D0502BD0
:105A30001DD036E0AD4B82881A8000F1100303CBF5
:105A4000AB4AAC4B1060516000221A70AA4BDB8944
:105A50003BBB24E0A54B4FF6FF721A80A54B0022FA
:105A60001A7003F0E3FFE0B1A34B9B690EE0A24D77
:105A7000C288EB899A4214D1038A022B11D1837C0C
:105A8000D9070CD403F0D2FF58B1AB694BB198479A
:105A900007E000F1080303CB954A1060516001F064
:105AA000C9FC2388142B00F0978118D8102B26D01E
:105AB00008D8022B40F0D581904B0021188803F0C4
:105AC0004CFCCBE1112B2DD0132B40F0CA818B4B1A
:105AD000002218888521134603F053FCBEE1522BA7
:105AE00000F0818105D8502B00F08481512B2DD0FE
:105AF000B7E1552B00F0AE81562B1DD0B1E14FF030
:105B0000A0434FF40022C3F80C254FF40032C3F831
:105B100008257A4BA2881A80794A136823F0020379
:105B200013609EE1FFF738FD002840F09881734B29
:105B30004FF6FF721A8094E1A379002B40F0918117
:105B40006E4B1321188803F022FC87E1A579002D04
:105B500000F0878104A800211022FFF7F3FC022D3A
:105B600040F07F81674E2289B3899A4240F0798163
:105B7000A37B043B022B40F274819DF816305F4FEB
:105B8000318A3888CDF808D043F001038DF81630FB
:105B9000238AADF81830638AADF81A3004F1140383
:105BA0000222079300238DF810200193ADF8042002
:105BB00001AA03F0DEFB3D4660B99DF80030DA072C
:105BC00008D440F2FD133888ADF8143004A903F06E
:105BD000CCFB46E100272888ADF8147004A903F037
:105BE000C4FB002840F03D8139460C2204A8FFF791
:105BF000A9FC01A839460C22FFF7A4FC237D013B38
:105C0000052B00F2D780DFE813F006003F005200BA
:105C10003100D5006800638A062B01D00120CEE058
:105C20003949032002F035FC384BE17D5A881A804F
:105C3000227E637D0293120442EA0122A17D0A437F
:105C4000617E42EA01620392012293428DF80420B0
:105C500001D0022B07D12E4A04A901A8137000F02D
:105C6000DBF9014600E007210120A9E003202949D2
:105C700002F00FFC032304A901A88DF8043000F002
:105C8000CBF9014604209BE00320234902F001FCEC
:105C9000638A032B01D0022091E0A27D637D43EA59
:105CA00002231A4A022053801380012188E0032036
:105CB0001A4902F0EEFB042304A90DEB03008DF852
:105CC000043000F0A9F90128014604D1059806998D
:105CD00003F00AFF76E0032072E00320104902F08F
:105CE000D8FB638A022B1DD0062068E0E432002036
:105CF00084340020E6320020E8320020662C0020A8
:105D0000083D00201C3D0020A8B80700AC2C002056
:105D1000642C0020C7B80700E7B8070001B90700E6
:105D200020B90700637D02930622012B8DF8042021
:105D300001D0022B3BD14C4A04A901A8137000F0FA
:105D40006BF901280446014632D1DDF81090DDF8E8
:105D50001480069F454842463B46494603F056FD9F
:105D60002A884FF6FF739A4230D0414B1B68DB07FD
:105D70002CD5404D60232B70E91C062348466B70E0
:105D8000AC7003F0DFFA033084B22919404603F007
:105D9000D9FA204484B22919384603F0D3FA364B95
:105DA000B189221892B21888FFF7D9FB0AE00721BF
:105DB000062005E00320314902F06BFB207D032122
:105DC00003F068FE024600284BD000E008220120C4
:105DD0002B4902F053FB44E00021A0880A460B4601
:105DE00003F0CDFA3AE00021A0880A460B4603F002
:105DF000BAFA33E0234BE2889B889A4231D10021E2
:105E00000C2204A8FFF79EFB00210C2201A8FFF73B
:105E100099FB02238DF8043004F11203029301A8C8
:105E2000238A039304A900F0F7F8012803D0032084
:105E3000154902F02EFB154C638893B12388013B72
:105E40009BB223806BB90598069903F04DFE6388D9
:105E5000238006E0A088172103F083FA08B102F03E
:105E600073FB09B0BDE8F083642C00203FB9070044
:105E7000083D00200C3D0020662C002090B9070052
:105E8000B5B907001C3D0020F2B90700AC2C00207A
:105E90005B689A68074B9A420AD143688268064950
:105EA000013A01330B604A600320044902F0E6BA6C
:105EB000704700BF18BA0700B03C002051BB070074
:105EC0002DE9F74F82460F464FF00A094FF00008C0
:105ED000344BDA6A012A0AEB080C9B4617D005D32B
:105EE000022A52D15E6A00243B4621E0996A5A6A2E
:105EF00091429CBF1B6AC91801398A1ABA4244D31D
:105F0000294861463A4603F0DAF83C463EE09C6A8E
:105F10005A6A254894429CBF1B6AE418013CA41AA3
:105F2000BC4228BF3C466146224603F0C8F82DE03B
:105F3000DBF82850DBF81C000193B54298BF194AE2
:105F4000CDF800C09CBF116A6D18013DAA1BDBF89B
:105F50002050AD1B9D4228BF1D46954228BF1546C7
:105F6000304461462A4605F05BF8DBF82020019BAF
:105F7000DDF800C02E44964208BF00265B1B2C446F
:105F8000AC44CBF82460D3D100E00024A0443F1BF4
:105F900014B9B9F1010901D0002F99D1012003B042
:105FA000BDE8F08FB02C0020C82C002010B5134B9A
:105FB000134C9A6B1349A1675C33E367124BC4F827
:105FC0008430124BC4F8802004F18801002210486C
:105FD0001A605A6003F0C3FA04F1780004F18802F1
:105FE0000B4903F0E8F9044628B90320094902F0F7
:105FF00050FA204610BD012010BD00BF503B0020CC
:10600000B02C002059750700915E0700B03C0020BD
:1060100090BA07006FBB07002DE9F347BD4B1B7813
:10602000012B04460E4604D0022B00F0628100F0E2
:1060300037BC0378013B0320052B00F25881DFE8D1
:1060400013F006002B005300230056014B01B24908
:1060500002F01FFAA368002B2FD0B3F5807F00F267
:10606000AC810320AD4902F014FA0025AC4BAD48D9
:1060700083F8B45120222946FFF764FAAA4B1D6326
:10608000A2689A6300F004BCA84902F002FAA84B87
:10609000DA6B72601B6C25E0A54DA64902F0F9F998
:1060A000A268E86BAB6B8118994209D970602B6CC0
:1060B000A149B360032002F0ECF9032400F0D2BC44
:1060C000284461685C3004F0ABFFEB6BA7681F44A9
:1060D000EF636068A16805F1400201F0F3FD2864F8
:1060E00077602B6CB360D3E3914D944902F0D1F902
:1060F000EA6BAB6B9A424FF0030001D0904964E128
:10610000874C904902F0C5F994F8B4312646002B2B
:1061100040F0BE8305F15C00298F03F045FC0320AD
:10612000894902F0B6F9FFF741FF012840F0968453
:1061300094F8FC30002B00F0C7800320834902F064
:10614000A8F994F80231002B00F08884804B93E882
:1061500080019946002F00F08384B8F1000F00F011
:106160007F8494F8633113B194F86431A3BB96F83B
:106170000C216B4B002A00F07384D3F81021342AD1
:1061800040F06E8493F81411002203F58A738A425A
:1061900080F2668443F20C0053F8044F0088844276
:1061A00000F085830132F2E796F80431002B00F00D
:1061B0005784AC686749D6F80821DFF864A1234604
:1061C000032002F051F996F82931002B00F0878363
:1061D000023B012B40F2898396F87031504C002B22
:1061E00040F03E8404F5DC73C9F80030032020231E
:1061F0005949C9F8043002F04CF95848298FDFF8A2
:1062000050A103F0D1FB03204F4902F042F90320D3
:10621000534902F03EF938461FFA88F103F0C4FBF7
:106220000320494902F035F9D9F80430202B40F019
:1062300017843846414603F0F6FA002840F01084EF
:1062400004F5EC7594F8712104F5B971284604F051
:10625000E7FE0320434902F01CF904F5B97094F8F5
:10626000711103F0A1FB0320374902F012F994F8F1
:1062700071213D49C4F818520320C4F81C2202F0D1
:10628000FDF8D4F81C32402B40F0E2839AE800037A
:10629000D4F81872B8F1000F00F0DA83002F00F084
:1062A000D78347EA080010F0030540F0D18304F0DB
:1062B00039FD414600904A462C483B4604F036FDE5
:1062C000002800F0C5834FE394F8883003200BB119
:1062D000274941E22749E5E2274902F0DAF8144B61
:1062E0001A6CB260DB6B73604FF48073CFE22349AA
:1062F000D2E200283FF4E1AE0378013B052B00F227
:10630000C982DFE813F03D00A400BD019301C7027C
:10631000B90200BF642C00209FBB0700C0BB070070
:10632000B02C0020883B0020503B0020DDBB070044
:10633000503B0020F7BB070017BC07004ABC070012
:106340006CBC07008FBC0700ADBC0700B6BC0700E3
:10635000B03C0020F5BC07001ABD0700AC3B002094
:1063600030BD070048BD07005ABD0700F8C207004E
:1063700037BE070059BE070089BE0700B9BE070037
:10638000AF49032002F085F8A16800293FF495AEDB
:10639000C1F30B0353B1AB4BAB4A5B6DD2F8202278
:1063A0000B44934202D00120A84984E6B1F5805FF6
:1063B00005D90320A64902F06CF8042452E3A24E4A
:1063C00096F8B43123B9A349032002F062F86CE2D5
:1063D0009C4DD6F820326A6D5018984203D99E48D9
:1063E00003F014FA61E203209C4902F052F8EB6CCE
:1063F000AB64A3686B6496F824326A6D2A65013336
:1064000003F0030386F824320023A6F82632D6F8D8
:1064100028322A630133C6F82832914BA1681868E4
:1064200001F6FF711044090B8E4A00F037FC38B1B9
:10643000D6F828328C49013BC6F82832032031E2D5
:106440008A48696C2A6DAB6C03F0E0F920E27D4B61
:106450007D4D1A6D4A609A6C8A6095F8B4211F468A
:10646000002A00F022828168B1F5807FA5D8D3F898
:1064700050805A6D5B6C08EB0100821A9A4202D977
:1064800003207B4917E6606807F1480201F01AFC17
:10649000B864A368B5F8260295F8241243443B6516
:1064A0007360BB6CB360A2688318FF2B05F50B7893
:1064B0000CD800EB01204044616804F0B1FDB5F850
:1064C0002632A2681344A5F8263263E0C0F5807333
:1064D0001FFA83F900EB01204A466168404404F04A
:1064E0009FFDA368B5F82622C9EB0303A360636888
:1064F0004B4463605A4B396B1B684A4401EB0309F8
:10650000D5F8283295F8241292B2A5F82622013344
:106510000332C5F828329210484608EB0121514B4E
:1065200000F074FCB5F8262250B94B4603205149BF
:1065300001F09AFF3B6BB5F8262213443B6310E051
:10654000D5F828324C49013BC5F8283203204B4688
:1065500001F08AFFFB6CBB647B6D3B657360FB6C79
:10656000B36095F82402A268DFF8DC90013000F0F7
:106570000300002385F82402A5F8263252B108EB67
:106580000020616804F04CFDB9F82632A26813447B
:10659000A9F82632B5F82622DFF8AC90002A00F0E0
:1065A0007781796D3B6B786C264C511A1944814286
:1065B000C0F06E812A490F6899F824121F44D9F857
:1065C000283203320133C9F828329210384608EBDA
:1065D0000121244B00F01AFCB9F8262250B93B46A1
:1065E0000320244901F040FF236BB9F8262213440D
:1065F000236310E0D9F828321F49013BC9F828323B
:1066000003203B4601F030FFE36CA364636D236518
:106610007360E36CB36095F82432013303F0030335
:1066200085F824320023A5F8263231E103201349EE
:1066300001F02FFF034B1A6D72609B6C52E500BF97
:10664000DBBE0700503B0020B02C0020F4BE07004A
:106650003DBF070069BF0700A9BF07000AC00700C8
:10666000AC3C00209984070024C0070043C0070009
:1066700086C00700A5C00700C5C00700F8C0070016
:106680009F4DA049032001F004FF2B6D696D6A6CDA
:106690005B1A9A424FF0030003D09B4901F0E4FEDD
:1066A00003E19A499A4E01F0F4FE2B6D6B650020D0
:1066B000AB6CEB64686400F05BFC2A6DD6F82032AA
:1066C0009A4240F0E58003209249D6F8282201F052
:1066D000D5FED6F828328E4F13B101F093FEF8E7BD
:1066E00003208D4901F0D5FE97F84191B9F1030FD0
:1066F00021D1DFF87082D7F8201207F5DC73C8F8D3
:106700000030864B4FF0200A1868C8F804A003F048
:106710008AF807F2431100285246D8F800000CBF4F
:1067200001240A2404F06CFC30B148467C4901F095
:10673000B0FE052400E00A246B69032023B97949DF
:10674000794F01F0A6FE0BE0012B04D17749784F79
:1067500001F09FFE04E0774901F09BFE0A2481E1ED
:10676000012C30D10320744901F093FE96F82931B1
:10677000032B10D8DFE803F002040609012202E02F
:10678000A52203E0AA22BA6006E0AC22BA60D6F8DD
:106790002C216A6300E00A2496F863211AB15C4A4E
:1067A00092F8642152B933B1023B012B06D8D6F8D6
:1067B0000831EB6002E0D6F80831AB60AB6C7B606F
:1067C000D6F8203202E00023BB607B603B600021F2
:1067D00020225A48FEF7B6FE5948FF21B222FEF7A2
:1067E000B1FE00232B63574800F0C2FB112840F094
:1067F0003981554B55491A68554B00BF00BF00BF42
:1068000000BF00BF00BF00BF00BF8A422FD000BF43
:1068100000BF00BF00BF00BF00BF00BF00BF00BF80
:1068200000BF00BF00BF00BF00BF00BF00BF00BF70
:1068300000BF00BF00BF00BF00BF00BF00BF00BF60
:1068400000BF00BF00BF00BF00BF00BF00BF00BF50
:1068500000BF00BF00BF00BF00BF00BF00BF00BF40
:1068600000BF00BF00BF00BF00BF00BF00BF013BB3
:10687000C3D101F0C7FDB6E70320364901F009FE98
:106880001F4B9A6CB2601B6D73604FF48053336082
:106890000124E7E03049032001F0FBFD0224E1E0A0
:1068A0002E49032001F0F5FDD8E00824DAE096F83F
:1068B0002931032B1FD801A252F823F0A961070048
:1068C000DB680700CD680700CD68070096F8043143
:1068D000002B00F0C580EC686CE400246AE4DAF870
:1068E0000831A342C0F0BC8076E4DAF80831A34254
:1068F00040F2B68070E40320194901F0CAFDAFE010
:10690000503B00200EC1070028C1070054C10700FA
:10691000B02C00206FC10700BAC10700AC3C0020BA
:10692000D5C10700EAC10700683B002009C2070083
:10693000743B002028C2070055C20700883B002096
:10694000AC3B0020A9840700682C00200024F40040
:10695000A086010088C20700A5C20700C4C20700C4
:10696000D6BC0700B03C00200320404901F091FD57
:1069700094F82931C4F82052032BBCD8DFE803F087
:10698000021A0A2496F83821394B002A68D0D3F825
:106990003C2116E096F83021354B002A60D0D3F820
:1069A0003421C3F82022334BC3F5FC239A4221D96A
:1069B00004244EE096F82A212D4B002A50D0D3F81B
:1069C0002C21C3F8202215E096F83021284B002A0C
:1069D00046D093F82A21002A42D0D3F82C11D3F8BC
:1069E00034215018C3F8200209B9032431E0002AE9
:1069F000FBD0D8E71E4D202205F5DC7005F24311CF
:106A000004F00EFBD6F820020028EED002F02CFE97
:106A100004460028CCD1184B18491A68032001F00D
:106A20002DFD0320164901F034FD0320154901F026
:106A300030FD1549032001F02CFD204600F098FAA6
:106A400001240320114901F024FD85F8B44109E037
:106A5000052403200E4901F01CFD03E0052401E09C
:106A60000A24F6E7204602B0BDE8F087E1C207003D
:106A7000B02C002000500700AC3C002074BD070083
:106A800098BD0700BCBD0700D4BD0700F3BD0700DB
:106A90001BBE0700034B01B919705B6803B11847AF
:106AA000704700BFDC320020F0B50346186880F361
:106AB00008885868FF2464B2EFF30585002D01D1E2
:106AC000A64600472546064621273FBAF0B40024D3
:106AD000002500260027F0B4F92040B2004700BF8F
:106AE000F0BD13DF704761DF704748DF704776DF26
:106AF000704775DF704737B5144C20894FF6FF7328
:106B00009842254620D0A37A227E0133DBB29A42F6
:106B1000A37207D304F12801FFF7EBFFA0B1636A6A
:106B20008BB911E00023A372237F33B13B21FFF720
:106B3000DEFF10B1636A03B198472B6A23B102A844
:106B4000002200F8042D984703B030BDDC3200204D
:106B500070B50D4C236B23F00102064622630D46EF
:106B600011B923F0030306E00320084901F091FC6A
:106B7000236B43F002032363736823B13046294635
:106B8000BDE87040184770BDDC32002038C30700F4
:106B90002DE9F3411F4B5D6B9C6BB5FA85F5B4FA9B
:106BA00084F46D0964091F4675BB97F83C306BBBD4
:106BB00001A8FFF79AFF052805D0B8B9154B019831
:106BC0005B6B984700E00125E4B997F83C30114E23
:106BD000E3B902A9D6F84080F38F21F8043D40467E
:106BE000FFF781FF0528044606D008B101F0ACFC90
:106BF000B36B4046984700E00124002DD5D0002C0F
:106C0000D2D003E015B9D0E7002CDED002B0BDE849
:106C1000F08100BFDC32002008B511B1002001F086
:106C200093FC044B93F8443013B1BDE80840AFE740
:106C300008BD00BFDC32002000200146014A01F0FF
:106C40008BBB00BF196C070008B502460B4601203C
:106C5000024901F009FC01F065FC00BF53C30700C5
:106C600008B50C220021FEF76DFC034B00221A63CD
:106C70005A631A615A6108BD503B002018DF704703
:106C80001FB5002110226846FEF75CFC022368460F
:106C90000093FFF7F3FF05B05DF804FB2DE9FF411A
:106CA00005460E46504F51493346144603202A46A6
:106CB00001F0DAFB3B6B590722D59A0705D5032073
:106CC0004B4901F0E6FB0A248AE043F001033B63F1
:106CD00097F84530DB0740F18180464B464A9342A6
:106CE000984602D3454A934249D30224032044499B
:106CF000224601F0C3FB3B6B23F001033B636FE0D3
:106D0000C5F30B032BB103203E4901F0C2FB06245F
:106D100066E037462A463C4B0221C3F80415D3F8F7
:106D200000140029FBD03849C1F80825D3F8001415
:106D30000029FBD0344B0021C3F80415324BD3F8A3
:106D40000034002BFAD0013F02F58052E3D105EB6D
:106D50000636002C44D0394610226846FEF7F2FB76
:106D60002D0B0123360B01948DF80030ADF808503F
:106D7000ADF80A6068463946A0473C4630E05DB34E
:106D8000C5F30B0303BBD8F800309D421ED3B6B247
:106D9000D8F8042005EB06339A4217D3C6B16846EB
:106DA00000F068FFB0B1009B5C60C3F80080009BFE
:106DB00002222D0B1A729D811E8200F077FF3B6B21
:106DC000002443F0010399E706248FE705248DE7AB
:106DD00004248BE7072489E7032487E7012485E758
:106DE000204604B0BDE8F081DC32002085C30700F6
:106DF000A6C30700782C0020782C0020882C0020C7
:106E0000C8C30700E1C3070000E001402DE9F043DB
:106E10000E464F491C460B6B13F0040F85B0054618
:106E200088461DD09F0705D503204A4901F031FB54
:106E30000A2489E043F001030B6391F84530D80739
:106E400078D5454B45498B421F4602D344498B4276
:106E500043D3022403204349224601F00FFB73E091
:106E6000002E36D0002834D040EA06039B0732D1EA
:106E70002AB903203C4901F00CFB042464E03B4B9D
:106E80000121C3F80415D3F800140029FBD0002118
:106E900056F8213045F82130344BD3F8000400284F
:106EA000FAD001319142F3D10021C3F80415D3F88F
:106EB00000140029FBD00026002C45D001948DF849
:106EC00000600295ADF80C2068463146A047344674
:106ED0003AE0032438E0062436E06EB365B345EAB1
:106EE000060399072AD13B68AB4229D81FFA82F9D9
:106EF0007A6805EB89039A4222D3B9F1000F21D0B9
:106F0000684600F0B7FE98B1009B5C601F60009B74
:106F100001221A72DE601D61A3F8149000F0C6FE13
:106F2000D8F8303043F001030024C8F830300BE0CB
:106F300007248FE701248DE703248BE7062489E7E4
:106F4000052487E7042485E7204605B0BDE8F083E3
:106F5000DC320020F9C30700782C0020782C0020B8
:106F6000882C00201BC4070034C4070000E0014047
:106F700070B5214D2149224A0646032001F07EFAD0
:106F80002C7814B103201F492CE001211C486E60AD
:106F900022462970FFF782FE064618B12C700320A6
:106FA00019491FE0194C58212046324600F08AFE4C
:106FB000174944F8040C5722032001F05FFA211FFF
:106FC0004FF4AE7205F1480004F02AF80C48114B5A
:106FD00005F148015722FFF719FF044630B10E4969
:106FE0002E70032001F055FA112070BD03200B49CB
:106FF00001F04FFA204670BDDC3200205AC4070071
:1070000000F0070082C40700B2C40700543B002010
:10701000DEC40700956A0700FBC4070027C5070008
:107020002DE9F043204B0E685C6B43F20803361BDE
:10703000044485B01D48224689461968334602F04B
:10704000E5FB03271A4B00974FEA96086846019321
:107050000294CDF80C80FFF711FE054638464DB975
:10706000144901F016FA4846FFF7FAFD2846FFF7E3
:107070007FFF15E033461049224601F0F5F9002163
:1070800010226846FEF75EFA68460194CDF8088043
:10709000FFF7F4FD054618B13846084901F0F9F943
:1070A000284605B0BDE8F083503B002043C50700EB
:1070B0000050070080C50700A0C50700E3C5070012
:1070C00010B5044613490320224601F0D7F9FFF713
:1070D000D7FD10B10320104913E003200F4901F040
:1070E000D8F90F4B0F494FF0FF32C3F8802003202F
:1070F000224601F0C3F92046FFF7F3FC28B10A4904
:107100000320BDE8104001F0C4B92046BDE810409E
:10711000CAE400BF05C6070043C607006EC60700E5
:1071200000E100E08BC60700B8C6070008B5074BB2
:10713000D3F8A4211AB1904738B101F005FA93F8B9
:10714000443013B1BDE8084022E508BDDC32002020
:1071500060DF704710DF7047A34B1B78062B0AD106
:10716000A24B1B68190706D1A14B1B6803F0F00363
:10717000302B00F0C1809C4B1B78062B0FD19B4B12
:107180001B681A070BD19A4B1B6803F0F002302AD8
:1071900000F0B68003F0E003402B00F0B180924B8A
:1071A0001B78062B0AD1914B1B681B0706D1904B0D
:1071B0001B6803F0F003302B00F0A9808A4B1B788A
:1071C000062B0FD1894B1B6818070BD1884B1B6806
:1071D00003F0F002302A00F0A08003F0E003402B1F
:1071E00000F09B80804B1B78062B0AD17F4B1B68DD
:1071F000190706D17E4B1B6803F0F003302B00F01B
:107200009680794B1B78062B0BD1784B1B6813F0BB
:107210000F0306D1764A126802F0F002302A00F01D
:107220008A80714B1B78062B0AD1704B1B681A079A
:1072300006D16F4B1B6803F0F003502B00F08580E4
:10724000694B1B78062B0FD1684B1B681B070BD1B2
:10725000674B1B6803F0F002302A00F0BE8003F099
:10726000E003402B00F0B980624AD2F8883043F442
:107270007003C2F88830BFF34F8FBFF36F8F4FF0AA
:107280001023D3F80022002A03DBD3F80432002BAA
:107290002EDA594B0122C3F80425D3F80024002A22
:1072A000FBD04FF010221521C2F80012D3F80024B1
:1072B000002AFBD04FF010231522C3F804224E4BB6
:1072C000D3F80024002AFAD00022C3F80425D3F80A
:1072D0000024002AFBD0BFF34F8F4649474BCA68B2
:1072E00002F4E0621343CB60BFF34F8F00BFFDE7B2
:1072F000434B444A1A607047434B444A1A603AE78A
:10730000434B444A1B68C3F34233136047E7424A86
:10731000D36823F08073D36050E74FF0804300229E
:10732000C3F80C21C3F81021C3F838255AE73B4BAA
:1073300003221A6065E73A4A05211160012191672D
:107340009360384B3F221A606BE74FF08052364B08
:10735000D2F80414C3F82015D2F80814C3F8241581
:10736000D2F80C14C3F82815D2F81014C3F82C1551
:10737000D2F81414C3F83015D2F81814C3F8341521
:10738000D2F81C14C3F84015D2F82014C3F84415E1
:10739000D2F82414C3F84815D2F82814C3F84C15B1
:1073A000D2F82C14C3F85015D2F83014C3F8541581
:1073B000D2F83414C3F86015D2F83814C3F8641541
:1073C000D2F83C14C3F86815D2F84014C3F86C1511
:1073D000D2F84424C3F8702532E7144B144A1B68D2
:1073E00003F04F0313603FE7E00F00F0E40F00F0FD
:1073F000E80F00F000ED00E000E001400400FA05B5
:10740000682C00200090D00374C007400DF0ADBA86
:10741000440200103C050040F0ED00E0A0050040F3
:10742000105600401456004000C0004058020010A2
:10743000E40E00402DE9F743324DB5F8AA312A8D0C
:107440009A420FD86A8D9A420CD32B6A23B102A8B4
:10745000012200F8042D9847002385F8B03103B0CD
:10746000BDE8F08395F8B041264B2CB11B6A002B88
:10747000F2D002A80022ECE71E695A69DFF8948076
:107480009B7A002B18BF1646D8F80430002B37D053
:10749000042E33D91C4F7B6993B37B7C02A8012B4C
:1074A00000F8044D0CBFB1464FF0000902F094FA09
:1074B0000DF1030000F0B0FD78B101230370134B10
:1074C0004760D3F8043583609DF80330C660C0F888
:1074D0001090446188F8013000E004249DF8040015
:1074E00000F00CFC2CB90A4B4FF48012C3F80021B9
:1074F000B2E720466B6A002BADD1ADE70720F9E774
:107500000820F7E7DC320020E83C002000100140B2
:1075100000E100E0E03C00207BDF70477ADF70474D
:107520002DE9F341089DBDF82440009517460194CC
:10753000022280461E4601F063FD50B9404639469E
:10754000102233460895099402B0BDE8F04101F0DD
:1075500057BD02B0BDE8F08143681A44426039B1BA
:107560000139934204D013F8010B01F8010FF8E739
:1075700001207047084B5A6E013A5A6622B90749F2
:107580000A7822F002020A701B6E034A0133042BB0
:1075900008BF002313667047903400202133002079
:1075A00028DF704729DF704730B5044685B00D46A7
:1075B000684600211022FDF7C5FF237A012B0CD06D
:1075C000022B12D10123A2898DF80030E389ADF896
:1075D0000A20D31AADF8083007E000238DF80030F8
:1075E00023690293A38AADF80C3063680193236882
:1075F00068469B682946984705B030BD38B51B4A98
:10760000516E146E134681B3182505FB04252A7AA2
:10761000012A05D0022A23D1A889FFF7C1FF14E06F
:10762000182000FB0433E98A1869AA8A0833521A21
:107630005B68B2F5806F4FEA81010844B4BF92B233
:107640004FF480621944FFF7ADFF112807D1084AB3
:10765000137823F0020343F00403137038BD20B104
:1076600028460921BDE838409EE738BD9034002007
:107670002133002070B52C492C4A0B78146E13F07E
:10768000020F0646154642D01820022E00FB0420A9
:1076900002D0032E29D044E0037A0021012B82F886
:1076A000681000F1080202D0022B13D039E0C28A20
:1076B000818A8B1AB3F5806FB4BF9BB24FF480639D
:1076C000134418229BB202FB04548B42E38228D15C
:1076D000002117E0938801339380D38801339BB254
:1076E000D38012899A421CD10CE092F868300133A1
:1076F000DBB2032B02D882F8683012E0002382F854
:1077000068300821FFF750FFFFF734FF09E0580702
:1077100007D5526E03F0FB030B7012B143F0020366
:107720000B70BDE8704069E72133002090340020E1
:10773000082910B502D0002000F006FF0368406859
:10774000BDE81040184707B5074B1B88072B8DE88D
:10775000030005D968460821044A00F0FDFD00E059
:10776000092003B05DF804FB8E3400203177070058
:107770002DE9F34781468A46002600270024D9F8E0
:1077800008300BB900251EE048460DF1070101F055
:1077900008FE05460028F5D09DF8078008F07F0018
:1077A0002246C0B2002102F0B9FA18F0800F46EA72
:1077B000000647EA010704F1070402D0462CDED197
:1077C000E0E7CAE90067284602B0BDE8F0872DE986
:1077D000F3418368074688460BB9002626E00DF181
:1077E000070101F0DEFD06460028F6D09DF80740AF
:1077F000220619D504F07F040725BB68002BECD0C6
:1078000038460DF1070101F0CCFD0028E5D09DF8C8
:10781000072002F07F03AB401C43130605F1070568
:1078200002D5232DE9D1D8E7C8F80040304602B090
:10783000BDE8F08173B50D4601A90446FFF7C7FF07
:10784000064608B900260AE094E80F0085E80F0014
:1078500001998A42F6D3A960A3685B1AA3603046F7
:1078600002B070BD30B5044685B0154689B90268CE
:10787000104B9A420DD0102D2046694605D9102292
:10788000FFF7F0FF98B1103DF5E72A46FFF7EAFF52
:107890000DE0A368AB4201D2002008E02368204637
:1078A0002A4698470028F7D0A3685D1BA56005B05D
:1078B00030BD00BF5975070013B50446052920D80F
:1078C000DFE801F0070F121F1F1C9DF90430002B89
:1078D00018DA204601A90122FFF7C4FF0028F4D1DD
:1078E00010E00021082206E001A9FFF770FF48B16F
:1078F000019A20460021FFF7B5FF03E00021042292
:10790000F9E7002002B010BD2DE9F04357687B78FD
:1079100013F0C00C89B006468E46144603D0BCF165
:10792000400F66D0B0E003F00F02594903F0300376
:10793000102B51F822500AD004D8002B40F0A4801C
:10794000394608E0202B09D0302B40D09CE06369F9
:1079500001221A7061682269A84796E0BEF1020F01
:10796000D4F8148023D1042A21D804A9FFF762FF98
:10797000002800F08980069B93B1616898F8002088
:107980004B7993420CD90F79236904A807FB023283
:10799000A84730B198F80030013388F80030EAE7A2
:1079A0000120059B7360069B002B6ED06CE098F85D
:1079B00000307979226997F804E0994264D9591C1A
:1079C00088F80010304661680EFB0322C4E7636943
:1079D00039781970072A0AD1636820691A796146D3
:1079E000FDF7B0FD63682169986801F0B8FD304685
:1079F000B0E717693B6807F1040913B9FFF75CFFAB
:107A000043E0022911D104A9FFF714FF00283BD05D
:107A10003B68616804A84A469847002834D0069B12
:107A2000002BF5D1059B73602FE0012919D007D3F6
:107A3000052929D101A90422FFF714FF042515E027
:107A400000250DF1040801350B2D1DD030464146AF
:107A50000122FFF707FFB8B118F9013B002BF2DB59
:107A600005E001A90822FFF7FDFE082568B1094BD2
:107A7000049301AB05930023069507933B68616867
:107A800004A84A46984700E0002009B0BDE8F0830A
:107A9000F4C60700597507000023C2600160416009
:107AA00083608B781A44026191F903301A44426171
:107AB0000878003018BF0120704710B5426811786F
:107AC000034600293AD002F10C014160147B2CB925
:107AD0000168C268FFF7E0FF204610BD51781079B9
:107AE00001F03004302C0AD1547B04F03004302CE7
:107AF00005D190781969091A196100200CE001F08C
:107B0000F004202C03D1517911FB00F004E001F0C6
:107B1000C001802908BF0420517811F0300F02BF46
:107B2000996801319960917B014418690144196198
:107B300092F90F2011445961012010BD084610BD73
:107B40002DE9F04F0022C9B00C468D5CE37843EA82
:107B50000563657843EA0543A57843EA052308AD44
:107B60000434AB500432402AEFD12A463023916BC3
:107B7000576A92E860004FEA714484EAF14484EA6B
:107B800091242F443D194FEAF61484EAB64484EA5E
:107B9000D6012944013B116402F10402E7D1426D90
:107BA0000192826D0292C26D0392026E0492426E45
:107BB0000592826E0692C26E0792924604AA92E8DD
:107BC0000450D0F85080DDF80CB0029E019F44466E
:107BD000274951F8235008A951F8231005EB010952
:107BE0004FEAB21585EAF22585EA726109EB0105D3
:107BF0002EEA02090CEA020189EA01010D4486EA33
:107C00000701AA44214006EA07054D404FEAB401A6
:107C100081EA743181EAB45101332944402B0BEBE2
:107C20000A0901EB0A05B346F24606D0E6463E468F
:107C3000944627464A462C46CAE7019B1C44029BB1
:107C400044651F44039B87651E44049BC6654B44E3
:107C50000366059B1A44069B426663448366079B42
:107C6000454473440565C36649B0BDE8F08F00BF65
:107C700018C7070038B50C4C616E0429054610D0B2
:107C8000226E8B18032B88BF043B182201316166DA
:107C900002FB034420460021FDF754FC2C60012028
:107CA00038BD002038BD00BF90340020044A13784E
:107CB00013F0060F03D143F0020313709EE47047E4
:107CC0002133002030B512B11368DB4301E04FF0DF
:107CD000FF33014488420DD010F8012B5340082295
:107CE000054D13F0010418BF2C46013A84EA5303F2
:107CF000F6D1EFE7D84330BD2083B8ED10B5084B7F
:107D00009A685AB150B9EFF3108272B605491C68EF
:107D10000C605C684C60986002B962B6002010BDCF
:107D2000D43C002000E100E02DE9F04FC1B01C463A
:107D30004B9E4D9B4C9F914606EB03080D46002938
:107D40006FD1002C6BD12546484603F0A1F9C2281B
:107D500028BFC220824649460DEB0400524603F07C
:107D60005FF90AEB04000024411901F1310E684467
:107D7000EE4400EB050C604503D0202300F8013BE6
:107D8000F9E70CF103030EF101090CF1330B444543
:107D900009D3202203F8032C03F8022C03F8012C4A
:107DA00009F8012C23E0B4422BBFA21B4A9ABA5C0B
:107DB000125D4FEA221A5FFA8AF0BAF1090FD4BFB6
:107DC0003030373003F8030C02F00F00092894BF5D
:107DD0003030373003F8020C202003F8010CA2F1F8
:107DE00020005E2888BF2E2209F8012C01340333BD
:107DF0005B4509F10109CAD10D238EF810300A2321
:107E00008EF8113020238CF8303068464331FEF76D
:107E100057F8A0B144454FF00000A5D30FE0084645
:107E2000A2E74CB9684608492A6803F005F900281A
:107E300005DB04460A2587E70A25002094E720464B
:107E400041B0BDE8F08F00BF18C80700F0B5C5B05D
:107E50001D4616464A9F0B46002977D004A846497E
:107E60001A6803F0E9F8002801DA002082E00446ED
:107E7000062F60D8DFE807F005141C25303D4C00C4
:107E80000024304603F004F90319FF2B05464FD8B0
:107E900004AB181931462A4603F0C2F848E0002422
:107EA00004AB181931462A6803F0C6F83FE00024F5
:107EB00004AB1819314695E80C0003F0BDF836E024
:107EC0000024AB68009304AB1819314695E80C0008
:107ED00003F0B2F82BE00024AB680093EB68019349
:107EE00004AB1819314695E80C0003F0A5F81EE024
:107EF0000024AB680093EB6801932B69029304ABF9
:107F00001819314695E80C0003F096F80FE00024AC
:107F1000AB680093EB6801932B6902936B69039341
:107F200004AB1819314695E80C0003F085F80546B6
:107F3000002D01DA99E700252919B1F5807F94D841
:107F400000E0002104A8FDF7BBFF13E0062FF8D8DE
:107F500001A353F827F000BF817E07009F7E070032
:107F6000AF7E0700C17E0700D77E0700F17E0700C5
:107F70000F7F070045B0F0BD18C80700F8B5234AC9
:107F8000234C0021C2F84011C2F84411C2F8481134
:107F9000C2F84C11C2F80011C2F804112368002B7A
:107FA00032D0D2F804256568551B25F07F450E4672
:107FB0001A68954214D3AD1A16441A7CDF6962B16F
:107FC00000221A74A2682AB158699969904720B1B1
:107FD00000F0BAFA5A69986990470FB13B46E7E753
:107FE000217B637B0A4A8B4205D10133DBB2022B32
:107FF00008BF00235373637B04EB8304054B2661A6
:108000004FF48012C3F80021F8BD00BF00100140FA
:10801000FC34002000E100E010B50A494A788C7871
:10802000531CDBB29C4208BF00230C789C421FBF4C
:108030000370486802EB420200EBC20008BF002058
:1080400010BD00BFE03C002038B50C4B0C4C4FF489
:108050000032C3F8802001254FF48033C4F8483340
:10806000C4F80833656001F08BFBA560054C002562
:10807000656001F085FB257638BD00BF00E100E0BA
:1080800000100140FC3400202DE9F047AD4C237B6B
:10809000627BD4F804E09A4210D00133DBB2022BA9
:1080A00008BF00232373237B04EB83030122196998
:1080B00001EB0E0323F07F43636001E000210A46D9
:1080C000A148D4F800C00378667E82469AF8017011
:1080D0009D4D9F4226D003EB43086F68AD78013376
:1080E000DBB29D4208BF002317F83850022D07EB82
:1080F000C80903D0032DE9D127680CE02568D9F819
:1081000004902F46A846002FE0D04F4500F0038191
:10811000B846FF69F7E71FB100253D74FF69FAE72C
:108120002760D3E76676256812B10022164615E06F
:10813000B5EB0C0518BF012518E0824F491B2E44F2
:1081400000251D60DD693D60DF683FB106EB0E056F
:1081500025F07F45DA615D609F601A46236823B190
:108160001D68A942E9D2691A196001252668677E4F
:1081700012B11346D2692BE09AF800309AF801E068
:1081800071499E4575D003EB430891F80290D1F8F0
:1081900004C00133DBB299450B7008BF0A701CF8AC
:1081A00038100CEBC80E0129DEF80430E4D1197C3C
:1081B0000029E1D1DEF808005860DEF80C00986074
:1081C000DEF81000D860DEF81400986107B159603D
:1081D000D3F80480D4F804E0CEEB080121F07F4C02
:1081E0005A498C45996801D8614408E0C8EB0E0EE5
:1081F0002EF07F4E71458CBFCEEB0101002119603E
:10820000D4F800C000214FF0010E83F810E059604F
:108210009960D961DFF82CE1BCF1000F0BD0D3F8E5
:108220000080DCF80010884508D8C8EB0101CCF8C4
:108230000010C3F81CC0CEF8003099E76146D1F8B1
:1082400000E0F04509D9CEEB0808D1F81CE08C46D7
:10825000BEF1000F07D07146F1E7C8EB0E0EC1F872
:1082600000E08E466146C3F80080C3F81CE0CB6195
:108270007EE72368B34201D1002D48D0002B44D0C3
:10828000334E6568D6F80485D3F800A0237EC5EB8D
:10829000080727F07F470337A3B94FF48032C6F8A9
:1082A0004423C6F804232B4A4FF400314FF0010950
:1082B000C2F880111160C6F8009001F061FA214BFC
:1082C00083F8189057452CBFEB1905EB0A0323F0F0
:1082D0007F45C6F84055D6F804351D4AC8EB030360
:1082E00023F07F43C8EB0505033325F07F45AB4200
:1082F0000DD9D2F80435C2F8403501F041FA154BDA
:108300004FF40032C3F8002101E0FFF79DFE002387
:108310006376BDE8F087C84507D1ED69256025B9CA
:108320000B4F0126BE60074F7D60D9F81C70D9F84D
:108330000050C8F81C70002F3FF4C8AE38680544E0
:108340003D60C3E6FC340020E03C0020FEFF7F00DF
:108350000010014000E100E02DE9F347064602A8C5
:108360004FF00008254C00F8018D0D46174601F02E
:1083700033FBA17EE27ED3B2A28B934238BF01339E
:10838000C9B238BF5FFA83F888450AD094F81B80D9
:10839000E37EDBB293423ABF0133DBB20023E376E4
:1083A00001E04FF6FF789DF80700FFF7A7FC4FF6B6
:1083B000FF7398451ED0236ADFF840A043F8387059
:1083C0004FEAC80903EB09028EB185B10C4B18883E
:1083D000DAF82430314600FB08302A4602F020FE4D
:1083E000DAF8203099440020A9F8045003E0002076
:1083F000908000E0042002B0BDE8F087FC3400204B
:108400008E34002070B50F4CA37EE27E9A4218D0C5
:10841000A37E226A0C48DBB219B20688606A02EBBE
:10842000C10506FB030052F83120A9889047A37EBE
:10843000A28BDBB29A4286BF0133DBB20023A37664
:10844000E1E770BDFC3400208E34002073B500934A
:10845000044B0E4615465C69002132462B46A04768
:1084600002B070BDB83C002007B58DE80C006A462C
:108470000223FFF7EBFF03B05DF804FB07B502AB87
:1084800043F8042D1A460123FFF7E0FF03B05DF81F
:1084900004FB00221346D9E7024A1368013B13602C
:1084A000704700BFD82E0020164E174C174908B54C
:1084B0000320A41BFFF7EDFFE40803201449FFF796
:1084C000E8FF032013492246FFF7D8FF0025A54205
:1084D00004D006EBC5035B68984778B103200E49CA
:1084E000FFF7D7FFBFF34F8F0C490D4BCA6802F45B
:1084F000E0621343CB60BFF34F8F01E00135E6E745
:1085000000BFFDE7882C0020902C00201FC807002A
:108510003AC807005EC8070079C8070000ED00E010
:108520000400FA05BFF34F8F0549064BCA6802F4F1
:10853000E0621343CB60BFF34F8F00BFFDE700BF86
:1085400000ED00E00400FA05024608B501200249EA
:10855000FFF794FFFFF7E6FF9FC807002DE9F04FF4
:10856000B84D2B7887B013B16B78002B32D1B64C55
:108570002378F3B9022222616261B44AE2614FF4C6
:1085800080600244B249E2641022A362E362636243
:10859000E365A365A16163652062A1642265AD49BD
:1085A000E01D02F06DFD2046AB4902F069FD20237D
:1085B000A37123699BB1EFF311834FF0800181F325
:1085C0001188A14A01930123D362019A82F3118891
:1085D0002B706B70A14BA24A5A61A24A9A61032088
:1085E000A149A24DFFF755FF4FF0A04303244FF4DC
:1085F0002022C3F84447C3F84847C3F84C47C3F8A0
:1086000008254FF40032C3F80C25994AC3F83427E3
:108610004FF48072C3F820472046C3F808259549D7
:10862000C3F82047C3F80825FFF733FF20469249D7
:10863000FFF72FFF20469149FFF72BFF904B914901
:108640004FF4AE72002628461E7002F0E9FC2C683A
:10865000621C06D0281D58213246FFF733FBA0428A
:108660000ED003208849FFF714FF804800214FF403
:10867000AE72FCF767FF012300206B60FEF778FC09
:1086800043F20803032081491C68784EFFF701FF7D
:108690002B69012B0BD073694BB1B36903F6FF73E0
:1086A00023F47F6323F00F031C44243600E01836C4
:1086B000B368A52B00F0898002D8012B07D0BCE05D
:1086C000AA2B00F09580AC2B00F09D80B5E0032034
:1086D0006F49FFF7DEFE6A69644B012A40F0B381FF
:1086E0001E6BD3F824B06B4943F2080303201F68C4
:1086F0003744C6EB0B06FFF7CCFEB6F5805F384675
:108700004FF001014FF00002B04628BF4FF48058EF
:10871000FEF7C4FA0346002840F0D88038462146C8
:108720004246FEF773FB002840F0D0804FEA9803E2
:108730004FF0030902A8CDF808900397049405931D
:10874000FEF79CFA024630B1484653493A46234662
:10875000FFF78AFEBAE020460121FEF79FFA28B112
:1087600048464E492246FFF789FEAFE02B6BDFF803
:10877000FCA043442B63FEF7FBFBB6EB0806474423
:108780004444BAD143F20803324618685946FFF709
:1087900099FADAF828200446944248460AD140491A
:1087A000FFF777FE0123CAF82030CAF81C40CAF848
:1087B00018B003E03B492346FFF756FE3A48FEF760
:1087C0004FFA0020FEF7D4FB3DE103203749FFF7C5
:1087D00060FE204601F0C6F9044610B1032034497A
:1087E00028E03046FEF73CFA2046FEF7C1FB71E078
:1087F00003203049FFF74DFE20463146FEF710FCBE
:10880000002863D167E003202B49FFF742FE0320D5
:108810002A49FFF73EFE204601F0A4F910B10320DB
:10882000274907E020463146FEF7FAFB002851D0E1
:1088300024490320FFF72DFE48E003202249FFF7DB
:1088400028FE00E124350020B02C00202635002031
:10885000C3C80700CCC80700D0C80700B83C002038
:108860004D7E0700297D0700D7C80700503B002038
:108870000C000300EBC807000AC9070027C907005E
:10888000DC32002000F007004DC907008FC9070047
:10889000AEC90700C0C90700E3C9070024CA070022
:1088A0005DCA07007ACA0700743B0020C9CA0700E6
:1088B000DACA070000CB070011CB07002FCB070057
:1088C00054CB070072CB070090CB070003206C4904
:1088D000FFF7DFFD01204FF0A043D3F810359B04D4
:1088E00040F1B380AB6D012B05D1664B002098653C
:1088F000FEF73EFBA9E020B901F0E2F9002840F0C4
:108900009480FFF7A1FB604B604A1A60604A614F98
:10891000614E052393700024604B147054705360B3
:108920005F4A14605F4A14705F4A14705F4A4FF4E4
:108930008011C020C2F8801182F81403116001F187
:108940008041A1F56F21F61BC1F8084582F811039B
:10895000574AD1F804151160564A03F178011160A5
:10896000554A564903F590731360554B1C70554B8F
:108970001C70554B08221A80544B14220320F60811
:108980001A80FFF786FD032051493246FFF776FD36
:10899000B44206D057F834309847804618B90134AD
:1089A000F6E74FF0000803204A49FFF772FD032065
:1089B000B8F1000F05D04849FFF76BFD4046FFF7BF
:1089C000C3FD46492F4CFFF764FD454A137843F039
:1089D00001031370434B444A1A60444B04221A604B
:1089E000434BC3F80080AB6BC3B1FDF7DFFAA8B10E
:1089F000236A23B9A36913B13E4A136007E0EA6A08
:108A0000204B5AB99A694AB15A6A3A4B1A60394BA3
:108A1000186800F029FE384B01221A7003203749EC
:108A2000FFF737FDFFF7EEFCFCE701F049F988B1ED
:108A300043F20804032032492268FFF71FFD206833
:108A4000FEF73EFB06E0002045E703202D49FFF737
:108A500020FD56E703202C49FFF71BFD2B4903207F
:108A6000FFF717FD43F208031868FEF729FB032000
:108A70002749FFF70EFD002007B0BDE8F08F00BFCB
:108A8000ADCB0700503B002004350020477707009E
:108A9000E03C0020882C0020902C00203839002059
:108AA000FC340020083500200935002000E100E0FA
:108AB000003500201C35002020350020DECB0700CB
:108AC00017350020163500208E3400201835002080
:108AD0005EC8070079C8070001CC070033CC070047
:108AE0002133002010330020757607000C3300205E
:108AF000D82E0020D02E0020642E00205DCC070050
:108B000078CC0700E8CC070093CC0700B3CC070073
:108B1000D5CC070065DF704738B5394C236813F0B2
:108B2000040568D143F00403032036492360FFF7AE
:108B3000B0FC354B35491A68354B00BF00BF00BF4C
:108B400000BF00BF00BF00BF00BF8A422FD000BFE0
:108B500000BF00BF00BF00BF00BF00BF00BF00BF1D
:108B600000BF00BF00BF00BF00BF00BF00BF00BF0D
:108B700000BF00BF00BF00BF00BF00BF00BF00BFFD
:108B800000BF00BF00BF00BF00BF00BF00BF00BFED
:108B900000BF00BF00BF00BF00BF00BF00BF00BFDD
:108BA00000BF00BF00BF00BF00BF00BF00BF013B50
:108BB000C3D103201749FFF76CFC174B18884FF6F9
:108BC000FF73984204D0132100F0E1FB80B114E060
:108BD00023689B070CD500F0DCFB70B94FF0A04375
:108BE0004FF40032C3F80825236843F002032360E2
:108BF00000F01CFF02E0002500E00546284638BDD5
:108C0000083D002027CD0700682C00200024F40038
:108C1000C0D4010063CD0700662C00202DE9F0438D
:108C20004FF0A04303254FF40032C3F84457C3F874
:108C30004C57C3F808254FF40022C3F80825A84B69
:108C400095B018680490FEF71BF840BB2846A5496C
:108C5000A54AFFF713FCA44800F072FBF8B9A34B38
:108C6000A34A1A60A34BA44950221A80A34BA44ADA
:108C70001A6004A8FEF76EFA78B9A24B01221A70A6
:108C8000A14A92F816335B09991E052903D8043BC3
:108C9000012B00F21B8142F20200FFF755FC044653
:108CA000002C40F09F81994B994A1A609DF8103032
:108CB0000D94012262F3030362F3071308A80E94D4
:108CC0008DF8103000F069FB38B99DF8213008A804
:108CD00001338DF8213000F062FB0446002840F09B
:108CE00081818C4802F0D4F98A4982B204A800F04C
:108CF0004AFB70B90C23ADF834301823ADF8363088
:108D00000DA84FF4C873ADF83840ADF83A3000F014
:108D10003CFB0446002840F065817F4B4FF6FF7214
:108D200014A91A804FF65963012021F8483D7B4A67
:108D30008DF80A0000F021FB002840F08F80784B6E
:108D400004AC03F1100518685968224603C20833C1
:108D5000AB421446F7D1734E04A8314600F0FFFA37
:108D6000044600287BD121461C224FF014090DA88F
:108D7000FCF7E8FB21464A4608A8FCF7E3FB9DF810
:108D80003430ADF80040374643F004038DF83430FA
:108D900017F802398DF80E3002234FF00108ADF8B4
:108DA0000C30230A68F3030368F3420468F30713E3
:108DB000E4B28DF8013044EA080403AD36F8020C41
:108DC0008DF802400DA908AA3B1D0895CDF824D0C6
:108DD000ADF82C9000F0CFFA0446002840F0028154
:108DE00021461C220DA8FCF7ADFB21464A4608A8E7
:108DF000FCF7A8FB9DF83430ADF8004043F01803B1
:108E00008DF83430BB788DF80E30230A204668F395
:108E1000030368F3071368F342008DF80130C4B20E
:108E2000172344F01104ADF82C3036F8020C8DF8FD
:108E300002400DA908AA07F10C03ADF80C800895B3
:108E4000CDF824D000F097FA0446002840F0CA80FC
:108E5000354A136843EA0803136003E00446002C14
:108E600040F0C08000211C220DA8FCF76BFB40F6EF
:108E7000CD430E934FF480430F9303238DF840307E
:108E80002A4B13930DAD0FCD294E0FC695E8070061
:108E9000284B86E8070028481C70FEF73DFB88B980
:108EA000264B4FF6FF721A80254B1C70254B5B68D2
:108EB00053B1254B1A7C3AB9244A1C745C745A612C
:108EC000FCF76AFB04468DE008248BE0204B996890
:108ED00000293FD01A6842F480021A603DE000BFCA
:108EE00013CD070079CD0700005007001C33002088
:108EF000003B00201A330020496C0700803400201A
:108F0000396C07002033002000E100E0143300201A
:108F1000155A070034CE0700662C00201C3D0020A7
:108F200017CD07001E3D0020083D002059550700C1
:108F3000E83200208C34002004330020E43200208A
:108F4000E6320020E03C0020E83C0020F76A070001
:108F5000D43C00204FF48003136000211C220DA894
:108F6000FCF7F0FA9DF848302049002262F3000334
:108F70008DF848301723ADF844301D4B019314ACE5
:108F80001392019A44F8302D01250320ADF8345096
:108F90008DF83C508DF83D508DF83E50FFF76EFA3D
:108FA00021460DA8FEF7D4F8089A019B9A42044680
:108FB0000FD002200F49FFF761FA4FF080530220D3
:108FC000D3F80C21089B0C49C3EB822202F100521A
:108FD00005E0002C3FF464AE084928462246FFF71E
:108FE0004DFA5DE6204615B0BDE8F0833ECE0700A1
:108FF000002C002096CD0700DBCD07000ECE070029
:109000002DE9F04F85B000240E9DBDF83CA02E88C0
:109010000191834690461F46A146BBF8002091452A
:1090200035DADBF8042052F8290003900DF10B012A
:1090300003A80022FFF76EFD002835D19DF80B2014
:10904000424521D12A88002C14BF0021022102EBC5
:1090500008000144514526DC44B9013292B29DF822
:1090600004302A80BB542A8801322A802A8803A827
:109070000DF10B013A44FFF74DFDA8B92A889DF880
:109080000B100A442A80012409F10109C5E744B103
:109090002A88013A921B92B2FF2A04D8BA550020BE
:1090A00002E0204600E00C2005B0BDE8F08F7DDF37
:1090B000704779DF704772DF70476DDF70472DE9C9
:1090C000F041C76886680446F61B406896428846A9
:1090D0001546384403D901F0A3FF3D4409E0324668
:1090E000AD1B01F09DFF606808EB06012A4601F008
:1090F00097FFE560BDE8F0812DE9D34F144669463E
:109100000822FEF7AFFB90B39DF801609DF8028046
:109110009DF805A00027002332023B434FEA084692
:10912000002732433B439DF800609DF803800027F1
:109130003B439DF804704FEA0A2932439DF806A08C
:109140004FEA086632433B43002643EA09033243B1
:109150004FEA0A499DF807A0324343EA0903324324
:109160004FEA0A69324343EA0903C4E9002302B023
:10917000BDE8D08F13B5144601A90422FEF772FB97
:1091800070B19DF806309DF805201B0443EA0223C8
:109190009DF8042013439DF8072043EA02632360EF
:1091A00002B010BD73B50D4601A906461446FEF780
:1091B0000EFB98B1019A511C0FD26B7803F0C003DB
:1091C000802B0AD02B79994207D830462146FEF7EA
:1091D00049FB019B0022E25400E0002002B070BD78
:1091E00073B50D4601A906461446FEF7F0FAA8B17C
:1091F000019BFF2B11D8591C0FD26A7802F0C002D4
:10920000802A0AD02A79914207D82146304601F8AF
:10921000013B1A46FEF726FB00E0002002B070BDBD
:10922000F7B50F4669461646FEF7A2FA50B3DDE9D8
:109230000045002304F001026D084FEA3404134393
:109240001CBFE443ED43E8B13B79082B02D1C6E9EA
:10925000004517E0042B02D1346022460AE0022BBD
:1092600003D1A3B233801AB204E0012B09D1E3B2D7
:1092700033705AB2D317AB4206BFA242012000207E
:1092800000E0002003B0F0BD37B50D466946144636
:10929000FEF76EFA20B32B79082B04D1DDE900012B
:1092A000C4E9000113E0042B03D1DDE900012060D3
:1092B0000CE0022B03D10098208080B206E0012B45
:1092C0000DD1DDE90001207000F0FF000021DDE993
:1092D0000023994206BF90420120002000E00020B8
:1092E00003B030BD37B50D4669461446FEF740FA67
:1092F00020B32A79082A04D1DDE90023C4E9002338
:109300001CE0009B042A18464FEAE37103D1236056
:109310001A460B460BE0022A03D19BB223801AB2F5
:1093200004E0012A09D1DBB223705AB2D3178B4271
:1093300006BF82420120002000E0002003B030BDC3
:1093400013DF7047C0F3072308704B70C0F3074367
:10935000000EC8708B700420704767DF704763DFB2
:109360007047ADDF7047A9DF7047A8DF7047A6DF01
:109370007047A5DF7047A2DF7047A0DF704786DF28
:1093800070477FDF70477CDF70477ADF704776DF9A
:10939000704774DF704773DF70476DDF70476CDFB5
:1093A000704710B5012203680446984710B1A368BE
:1093B000013BA36010BD2DE9F0478EB000270446A5
:1093C00002A800970197FEF767FBA368002B44D023
:1093D000204608A9FEF7FBF918B9A368002B3CD07A
:1093E00033E0089E002E38D0039D4FEAD60806F0E1
:1093F0000706039B1A78424529D002A8FEF75DFBB9
:10940000039BAB42F5D1B8455CD3039A537803F084
:109410000F03082B4BD11778B84553D3069BD4F8CC
:1094200008901D68A368002D4AD0994548D12B6843
:10943000D3F800C0BCF1000F6CD02046294642464C
:109440003346E047002840F08580002084E05B78C8
:1094500003F00F02082AD0D039E0039B049C5D780A
:1094600002A8FEF72AFB0028F7D115F0300F03D130
:10947000039B1B7803B10134BCB162090023934202
:1094800005D05DF823100131DFD10133F7E70EAAD3
:1094900002EB830304F01F04C4F120044FF0FF32F9
:1094A00053F8383CE2409342CFD1012054E002A867
:1094B000FEF703FB039BAB42A7D14FF0FF3701E060
:1094C000994582D120463146FEF7F6F91EE013F0A9
:1094D000300F0FD1049B3F2B0CD85A090EA901EB7A
:1094E000820203F01F030121994052F8383C0B43DC
:1094F00042F8383CE56825B120464146324602AB89
:10950000A8472046314602AAFEF7FEF900287FF45C
:109510005CAF9AE7D3F808A09AF80030434519D118
:1095200051466A6808A8FEF7B7FA6B680C9305F114
:109530000C030D939AF8013003F0C003802B04BF95
:109540002B1D0C9301232B732046314608AAFEF7EE
:10955000DBF977E7AD6865E70EB0BDE8F0877FB56A
:1095600003460A4668461946FEF796FA30B1684641
:1095700000F025F86846FEF7A0FAF7E707B05DF8B7
:1095800004FBF0B585B00F468D6869460646144663
:10959000FEF750F988B1B86878B17B7803F03003F2
:1095A000202B03D128462146FFF7D9FF68462946DC
:1095B0002246FFF700FF019B736005B0F0BD30B598
:1095C0004268527802F00F01082987B003461ED185
:1095D00003691C68002C45D000232373236862684C
:1095E0009D6868462946FEF757FA6368049304F1BC
:1095F0000C0305936B7803F0C003802B08BF231D79
:10960000684608BF0493FFF7DAFFA468E2E712F0A8
:10961000C00109D102F03000102802D15A6911703E
:109620000CE090060AD506E080291BD100690021D4
:109630009206016016D55B69197013E05A6851787B
:1096400001F00F01072904D190681969FFF787FF1E
:1096500008E091681869127911B101F0E1FC01E0AC
:10966000FBF770FF07B030BDF8B5384B38491D68BF
:1096700043F20807A5F540533D6806465D1B0320ED
:10968000FEF707FFB5424FF0030004D23149FEF761
:1096900000FF0420F8BD304C3049FEF7FAFE0320ED
:1096A0002F492269FEF7EAFE03202E49226AA369A8
:1096B000FEF7DAFE636A2C49E26A0320FEF7D4FE65
:1096C0003B68276AC4F85C31012F2FD12A4603205A
:1096D0002649FEF7D3FEA269254902F6FF7222F45D
:1096E0007F6222F00F02AD1A334603202A46FEF7AE
:1096F000BBFEAE424FF0000304D927616361032033
:109700001C4918E02361A369D4F85C211A496761F8
:1097100003F6FF7323F47F6323F00F031344032046
:10972000C4F85C31FEF7B5FE243407E0002313498A
:10973000236163610320FEF7ACFE1834204600214C
:109740000C22FBF7FFFE26600020F8BD141000106D
:109750006ACE07008BCE0700503B0020BCCE07002E
:10976000D1CE0700E7CE07000DCF070033CF0700AB
:109770005CCF070080CF07009ECF0700B8CF07005F
:10978000204B21491A682F2300BF00BF00BF00BF34
:1097900000BF00BF00BF00BF8A422FD000BF00BF84
:1097A00000BF00BF00BF00BF00BF00BF00BF00BFC1
:1097B00000BF00BF00BF00BF00BF00BF00BF00BFB1
:1097C00000BF00BF00BF00BF00BF00BF00BF00BFA1
:1097D00000BF00BF00BF00BF00BF00BF00BF00BF91
:1097E00000BF00BF00BF00BF00BF00BF00BF00BF81
:1097F00000BF00BF00BF00BF00BF00BF013BC3D11F
:10980000704700BF682C00200024F4001FB50446F8
:109810000320019102920393214601AA0346FEF719
:1098200015FE04B010BD70B59CB00023109300224B
:109830000023CDE91223544B1493544B1593544BEE
:109840001693544B1793544B1893544B1993544BF2
:109850001A9303F17453A3F52303A3F692431B93C6
:1098600011B9044645181BE00028FAD11EE0109BF0
:1098700014F8011B1CAA1A440133402B02F8701C77
:1098800010930DD168466946FEF75AF9DDE91223B7
:1098900012F5007243F10003CDE912230023109367
:1098A000AC42E4D13F4CD4F860510DB90E2068E0D1
:1098B000109B1CAA1A44372B4FF0800103F10103BF
:1098C0006E4602F8701C6B4406D89A1B382A13D0D7
:1098D000002203F8012BF8E79A1B3F2A03D8002245
:1098E00003F8012BF8E730463146FEF729F93046F8
:1098F00000213822FBF726FEDDE91223109808210B
:10990000E1FB002322FA01F1CDE912238DF83F207B
:109910008DF83E10110C120E8DF83C201A0A8DF8AD
:109920003D108DF83B308DF83A2030461A0C314608
:109930001B0E8DF839208DF83830FEF701F92A46D4
:1099400000231B99D94011701A99D94011711999A6
:10995000D94011721899D94011731799D9401174CF
:109960001699D94011751599D94011761499D94095
:109970000833202B117702F10102E2D1C4F86431DF
:1099800000201CB070BD00BF67E6096A85AE67BBEA
:1099900072F36E3C3AF54FA57F520E518C68059BD1
:1099A000ABD9831F503B00207FB506460C460023F1
:1099B0000021074A0096019402910391D2F8805148
:1099C000044A0320A847A0420346F1D304B070BD67
:1099D000503B0020ADBC070070B5EFF3108572B6A8
:1099E0000F4AD2F88C410123ACB9C2F88C310D4B2F
:1099F0000D49D3F880603140C2F884110A49C3F898
:109A00008010D3F88410C2F888114FF0FF32C3F8E9
:109A10008420047000E0037005B962B6002070BDB8
:109A2000503B002000E100E0FC06FFBC37B5174DBD
:109A3000D5F8943133B3D5F8AC311BB302A8002468
:109A400000F8014D85F8A841FFF7C6FF0DF10600AB
:109A5000FEF7E2FA48B10223037005F5CC734360C8
:109A60009DF8063085F8913100E004249DF8070048
:109A7000FEF744F924B9064B4FF48012C3F80021D5
:109A8000204600E0082003B030BD00BF503B00205E
:109A900000E100E038B505460C46032023460F4997
:109AA0002A46FEF7E1FC0E4B18884FF6FF739842EA
:109AB00012D00C4BD3F8B821D2070DD5602283F811
:109AC000BC2183F8BD5183F8BE41B3F8D8110322FD
:109AD000BDE83840FBF743BD082038BDDACF0700AA
:109AE000662C0020503B00202DE9F04105460F4632
:109AF0003B46032018492A46FEF7B6FC174B1E8842
:109B00004FF6FF739E4224D0154CD4F8B831DB07D2
:109B10001FD5602384F8BC31032384F8BD3104F2DF
:109B2000BF110123284684F8BE31FFF70BFC033038
:109B300085B204F5DE7808EB05013846FFF702FC34
:109B40002A18B4F8D811304692B2BDE8F041FBF7BC
:109B500006BD0820BDE8F08105D00700662C002076
:109B6000503B00202DE9F04F4B4F4C497B6B3C6B39
:109B700003F6FF7304F580561C1B24F47F6424F065
:109B80000F044FEA940C05460CF6FF7C032089B0C5
:109B90002CF47F6BFEF77DFC3A6B7B6B2BF00F0B8D
:109BA0001544032033B19A4204D13D49FEF771FCBC
:109BB00000206DE043F20C033A491A88FEF75EFC80
:109BC0004FEA9B03009303203749039503AA05231B
:109BD00005EB0B0906EB0B08CDF810900596CDF8B8
:109BE0001880CDF81CB0FEF731FC0123039303A8C5
:109BF000009B049505960693FDF740F8824608B150
:109C00002A481BE003202A49039503AA0523CDF81F
:109C100010900596CDF81880CDF81CB0FEF716FC14
:109C200003230393019303A8009B069304960595D1
:109C3000FDF724F8019B824638B11E4831462A467A
:109C40005B46FFF7E3FD504622E0184603AA0523D2
:109C5000194903950596CDF81090CDF81880CDF8E8
:109C60001CB0FEF7F3FBA3454FF00300134994BF6C
:109C7000CBEB04045446FEF70CFC7B6B00201B1B53
:109C80003B634D46FDF774F94646002C9BD12046B8
:109C900009B0BDE8F08F00BF503B002042D0070064
:109CA0006FD0070089D00700B1D00700F1D00700BE
:109CB00035D107007ED10700C5D1070004D20700C7
:109CC00010B503201049FEF7E4FB104B1A6A012A75
:109CD00002D003200E490CE0DC6974B143F20802A3
:109CE000996910680022FDF7EDFFA04205D00949EF
:109CF0000320FEF7CEFB002010BD03200649FEF72F
:109D0000C8FB012010BD00BF29D20700503B002036
:109D10004CD2070074D2070090D207009140031C78
:109D200090409C46203A9340194352426346D340A8
:109D3000194370470649074A074B9B1A03DD043B4A
:109D4000C858D050FBDCFDF707FAFBF787FB000093
:109D5000A4D30700002C0020902C0020FEE7FEE793
:109D6000FEE7FEE7FEE7FEE7FEE7FEE7FEE7FEE7CB
:109D70001AB1013A8B5C8354FAE7704710B5013A87
:109D8000D2B253B2002B09DB1BB250F8234051F87A
:109D900023309C4204D8F2D2FF2002E0002000E0F1
:109DA000012040B210BD00000000000000000000D3
:109DB000C3F10803DB0070B501330446002003A59E
:109DC0005B1920C940CAAD1920C4184720C940CA30
:109DD000754120C420C940CA754120C420C940CA69
:109DE000754120C420C940CA754120C420C940CA59
:109DF000754120C420C940CA754120C420C940CA49
:109E0000754120C4404170BD00000000000000000A
:109E1000C3F10803DB0070B50133002403A500BFC4
:109E20005B1920C940CAAD1B20C0184720C940CAD1
:109E3000B54120C020C940CAB54120C020C940CA90
:109E4000B54120C020C940CAB54120C020C940CA80
:109E5000B54120C020C940CAB54120C020C940CA70
:109E6000B54120C06441B4FA84F0400970BD00BF20
:109E70002DE9F04F08B4F8CA04B451F8042BA3FB41
:109E8000028940F8048B4FF0000AE4FB629A4FF01D
:109E9000000BE5FB62AB4FF0000CE6FB62BC4FF041
:109EA000000EE7FB62CE51F8042B4FF00008E3FBF5
:109EB000628940F8048BE4FB629AE5FB62ABE6FB47
:109EC00062BCE7FB62CE51F8042B4FF00008E3FBC5
:109ED000628940F8048BE4FB629AE5FB62ABE6FB27
:109EE00062BCE7FB62CE51F8042B4FF00008E3FBA5
:109EF000628940F8048BE4FB629AE5FB62ABE6FB07
:109F000062BCE7FB62CE51F8042B4FF00008E3FB84
:109F1000628940F8048BE4FB629AE5FB62ABE6FBE6
:109F200062BCE7FB62CE40F8049B40F804AB40F80B
:109F300004BB40F804CB40F804EB0CBC052B00F04C
:109F40001E810C68A0F11400A1F11401A2F1140209
:109F500052F804EB4FF0000550F8046BE4FB6E562A
:109F600052F804EB50F8047BE4FB6E6752F804EB04
:109F700050F8048BE4FB6E7852F804EB50F8049B25
:109F8000E4FB6E8952F804EB50F804ABE4FB6E9AE4
:109F9000A0F1140052F8044B51F804EB4FF0000C00
:109FA000E4FB6EC540F804CB51F804EBE4FB6E56BD
:109FB00040F8045B51F804EBE4FB6E6740F8046B77
:109FC00051F804EBE4FB6E7840F8047B51F804EBA5
:109FD000E4FB6E8940F8048B51F804EBE4FB6E9AC5
:109FE000A0E80006062B00F0CA800C68A0F118005B
:109FF000A1F11801A2F1180252F804EB4FF000058C
:10A0000050F8046BE4FB6E5652F804EB50F8047BF6
:10A01000E4FB6E6752F804EB50F8048BE4FB6E78B7
:10A0200052F804EB50F8049BE4FB6E8952F804EB01
:10A0300050F804ABE4FB6E9A52F804EB50F804BB02
:10A04000E4FB6EABA0F1180052F8044B51F804EB9E
:10A050004FF0000CE4FB6EC540F804CB51F804EB64
:10A06000E4FB6E5640F8045B51F804EBE4FB6E67CA
:10A0700040F8046B51F804EBE4FB6E7840F8047B85
:10A0800051F804EBE4FB6E8940F8048B51F804EBC3
:10A09000E4FB6E9A40F8049B51F804EBE4FB6EABD2
:10A0A000A0E8000C072B6AD008B40C68A0F11C00D3
:10A0B000A1F11C01A2F11C0252F804EB4FF00005C3
:10A0C00050F8046BE4FB6E5652F804EB50F8047B36
:10A0D000E4FB6E6752F804EB50F8048BE4FB6E78F7
:10A0E00052F804EB50F8049BE4FB6E8952F804EB41
:10A0F00050F804ABE4FB6E9A52F804EB50F804BB42
:10A10000E4FB6EAB52F804EB50F804CBE4FB6EBCFE
:10A11000A0F11C0052F8044B51F804EB4FF000037F
:10A12000E4FB6E3540F8043B51F804EBE4FB6E565B
:10A1300040F8045B51F804EBE4FB6E6740F8046BF5
:10A1400051F804EBE4FB6E7840F8047B51F804EB23
:10A15000E4FB6E8940F8048B51F804EBE4FB6E9A43
:10A1600040F8049B51F804EBE4FB6EAB40F804AB01
:10A1700051F804EBE4FB6EBCA0E8001808BCBDE895
:10A18000F08F2DE9F04FB1E8005E06B4AAFB09128A
:10A190004FF00003EBFB69234FF00004ECFB693444
:10A1A0004FF00005EEFB69454FF00006EBFB6A63DC
:10A1B000ECFB6A344918524176415B41A9FB0978AE
:10A1C0004FF0000949F1000918EB0108A0E88001EF
:10A1D000AAFB0A78574158EB0608A0E88001EEFB7D
:10A1E0006A454FF0000A4AF1000A4FF00001ECFB0B
:10A1F0006B14EEFB6B454FF00002EEFB6C255FEA43
:10A2000059094941644152416D4149F10009EBFB53
:10A210006B3A1AEB010AA0E80804ACFB0C6A664131
:10A220005AEB020AA0E84004AEFB0E6A6E415AEBFC
:10A23000090AA0E8400406BC052A00F0E680A0F167
:10A240001400A1F11401B1E8E043A5FB0E344FF076
:10A250000005E6FB6E454FF00006E7FB6E564FF03B
:10A260000007E8FB6E674FF00008E9FB6E784FF0DF
:10A270000009DB1864416D4176417F4158EB0808C5
:10A2800059F1000950F804CB13EB0C0350F804CB40
:10A2900054EB0C0450F804CB55EB0C0550F804CBF0
:10A2A00056EB0C0650F804CB57EB0C0758F100089E
:10A2B00059F10009A0F11400EEFB0E89A0E8F803A3
:10A2C000062A00F0A280A0F11800A1F11801B1E85F
:10A2D000E047A5FB0E344FF00005E6FB6E454FF05E
:10A2E0000006E7FB6E564FF00007E8FB6E674FF085
:10A2F0000008E9FB6E784FF00009EAFB6E894FF029
:10A30000000ADB1864416D4176417F4158EB080833
:10A3100059EB09095AF1000A50F804CB13EB0C036E
:10A3200050F804CB54EB0C0450F804CB55EB0C055F
:10A3300050F804CB56EB0C0650F804CB57EB0C0747
:10A3400050F804CB58EB0C0859F100095AF1000AF7
:10A35000A0F11800EEFB0E9AA0E8F807072A54D0E7
:10A36000A0F11C00A1F11C01B1E8E04FA5FB0E34E7
:10A370004FF00005E6FB6E454FF00006E7FB6E561A
:10A380004FF00007E8FB6E674FF00008E9FB6E78BE
:10A390004FF00009EAFB6E894FF0000AEBFB6E9A62
:10A3A0004FF0000BDB1864416D4176417F4158EB63
:10A3B000080859EB09095AEB0A0A5BF1000B50F83F
:10A3C00004CB13EB0C0350F804CB54EB0C0450F803
:10A3D00004CB55EB0C0550F804CB56EB0C0650F8AB
:10A3E00004CB57EB0C0750F804CB58EB0C0850F893
:10A3F00004CB59EB0C095AF1000A5BF1000BA0F1F8
:10A400001C00EEFB0EABA0E8F80FBDE8F08F10B516
:10A41000002253B28B4205DA1BB2002440F82340DD
:10A420000132F6E710BD2DE9F0478846B3F9021076
:10A430001F460825CB1D202493FBF5F51F319542BF
:10A4400091FBF4F44FFA84F928BF154606464946B5
:10A45000FFF7DDFF2A4630464146FFF789FCB7F992
:10A460000230ED009D4220D9ED1A06EB8401002256
:10A470008E420AD251F8040D20FA05F313430B6003
:10A48000C5F1200300FA03F2F2E7243738463146DB
:10A490004A46FFF773FC012807D0304631463A465A
:10A4A0004B46BDE8F047FFF7B3BCBDE8F08710B5F9
:10A4B00000231A465CB28C4204DA50F8244001337F
:10A4C0002243F7E7B2FA82F0400910BD4A11012396
:10A4D00001F01F0150F822008B40184070470139ED
:10A4E000C9B24BB2002B0BDA013111F0FF0315D0CA
:10A4F00059B201F18043013B50F82320002304E0CE
:10A5000050F82330002BEAD0EEE712B152080133A5
:10A51000FBE7481E03EB401080B200E0184600B293
:10A52000704730B5002463B2934206DA1BB201349F
:10A5300051F8235040F82350F5E730BDF0B50C46F4
:10A5400089B008220646FFF7ECFFE36A0393236B0A
:10A550000493636B0593A36B0693E36B0793002748
:10A5600069466A4608236846029701970097FFF7F5
:10A570001FFC314605466A4608233046FFF718FCA3
:10A58000236B0393636B0493A36B0593E36B0693B5
:10A59000054469466A46082368460797FFF708FCA2
:10A5A000314605446A4608233046FFF701FC236A1A
:10A5B0000093636A0193A36A0293A36B0693E36B10
:10A5C0000793054431466A460823304605970497A9
:10A5D0000397FFF7EDFB636A0093A36A0193E36AB5
:10A5E000A26B0293636B039304920693E26B236A5C
:10A5F00005920544079331466A4608233046FFF723
:10A60000D7FBE36A0093236B0193636B0293236A86
:10A610000693A36A0793054431466A4608233046E9
:10A62000059704970397FFF7F3FB236B0093636B86
:10A630000193A36B0293E36B0393636A0693E36A4C
:10A6400007932D1A31466A4608233046059704972A
:10A65000FFF7DEFB636B0093A36B0193E36B029345
:10A66000236A0393636A0493A36A0593236B079396
:10A670002D1A31466A46082330460697FFF7C8FB75
:10A68000A36B0093E36B0193636A0393A36A049340
:10A69000E36A0593636B07932D1A314630466A4689
:10A6A000082302970697FFF7B3FB2D1A16D53046FD
:10A6B00031460D4A0823FFF77BFB4519F7D410E01C
:10A6C000094831460822FFF759FB012809D03046D6
:10A6D0003146054A0823FFF79BFB2D1A002DEFD0CA
:10A6E000F5E709B0F0BD00BFB8D20700013A30B5B8
:10A6F000D2B2002453B2002B09DB1BB2013A51F84D
:10A70000235050F823306B401C43D2B2F2E7B4FA26
:10A7100084F0400930BD00EB81010023884206D25D
:10A7200051F8042D43EA52030B60D307F6E7704754
:10A73000F8B5036813F0010506460F46144605D028
:10A7400001463A462346FFF733FB0546304621468D
:10A75000FFF7E1FF45B104F18042013A56F822309B
:10A7600043F0004346F82230F8BD70B59DF9104023
:10A770001D4623460646FFF71BFB30B928463146E7
:10A780002246FFF7FBFA012807D0304631462A4619
:10A790002346BDE87040FFF73BBB70BD70B59DF927
:10A7A00010401D4623460646FFF732FB38B13046BF
:10A7B00031462A462346BDE87040FFF7F9BA70BD1E
:10A7C0002DE9F043A3B09846019112AB41460746EC
:10A7D000104691460093FFF782FEC0EB881086B2C8
:10A7E000454C33B21C40002CBEBF04F1FF3464F072
:10A7F0001F040134202593FBF5F5EDB26DB2A4B230
:10A8000002A8294624B2FFF702FE28B202AB002CB0
:10A8100003EB800010DD00221346434510D259F8A7
:10A82000235005FA04F10A4340F82320C4F1200222
:10A8300025FA02F20133F0E749464246FFF771FE7E
:10A840000FFA88F502AB4FEA4509012403EB8505B1
:10A85000330444D40022114653B24B4522DA0DF1A1
:10A86000880E0EEB840E0DF1880C18B25EF888ECA1
:10A870000CEB83035EF820E053F8803CC3EB0E033F
:10A880005B1A734502D08CBF01210021C4F1010E77
:10A890000DF1880C0CEB8E0E01325EF888EC4EF850
:10A8A0002030D9E7621A544202A841465441FFF7CA
:10A8B00032FF22AA08F1FF3302EB830302EB880286
:10A8C000284652F8801C53F8802C013E42EAC1729F
:10A8D000414643F8802CB6B2FFF71DFFB8E722AB24
:10A8E00003EB8404384654F8881C4246FFF719FEEF
:10A8F00023B0BDE8F08300BF1F00008070B590B0AA
:10A9000006469DF950401D4668462346FFF7B0FABB
:10A91000304669462A462346FFF752FF10B070BD05
:10A9200030B51C4691B0054693F900306846FFF7F4
:10A930009FFAD4F8AC3028466946984711B030BD2C
:10A9400030B5144691B0054692F900206846FFF7ED
:10A9500018FCD4F8AC3028466946984711B030BD91
:10A960002DE9F04115468AB00446884602A8002128
:10A970002022FAF7E7FD2E780323204641462A4697
:10A980002F1D76B20293FFF7DBFF2046214602AA75
:10A990003B460096FFF702FF2046214642462B46E3
:10A9A000FFF7BEFF00962046214605F184023B4694
:10A9B000FFF7DBFE0AB0BDE8F0812DE9F04793F91F
:10A9C000006092B0044689461046314615469846C6
:10A9D000FFF76DFD002840F0978002A849464246E7
:10A9E000FFF7AEFF43460AA8214602AAFFF798FFE9
:10A9F00002A801464246FFF7A3FF434648464946A0
:10AA00002A46FFF78DFF08F10407284629464246EB
:10AA1000FFF796FF204621462A463B460096FFF761
:10AA2000A4FE284629462A463B460096FFF79DFE8F
:10AA3000284621462A463B460096FFF7AFFE2046B1
:10AA400021462A464346FFF76BFF28462146224609
:10AA50003B460096FFF789FE20463B46009621467E
:10AA60002A46FFF782FE2368DB07204613D53346CC
:10AA700021463A46FFF79CF9314682462046FFF7C9
:10AA80004AFE06F18043013B54F8230040EACA70B5
:10AA900044F8230002E03146FFF73DFE28462146F8
:10AAA0004246FFF74DFF284629460AAA3B46009634
:10AAB000FFF774FE284629460AAA3B460096FFF790
:10AAC0006DFE0AA801462A463B460096FFF766FE41
:10AAD000204621460AAA4346FFF722FF02A8024663
:10AAE0003B4621460096FFF759FE2046294632464E
:10AAF000FFF717FD284649463246FFF712FD484644
:10AB000002A93246FFF70DFD12B0BDE8F0872DE92E
:10AB1000F0438BB08046129D15F9046B00961446E5
:10AB20001F4689462B4602A811464246FFF736FECD
:10AB300002A80146129AFFF703FF4046414602AAC7
:10AB4000129BFFF7EDFE2046214602AA129BFFF75B
:10AB5000E7FE2B46384639464A460096FFF71EFE6A
:10AB600002A83946129AFFF7EBFE02A801464246B8
:10AB70002B460096FFF712FE02A8014622462B46FE
:10AB80000096FFF70BFE2046214642462B460096D4
:10AB9000FFF704FE484649462246129BFFF7C0FED7
:10ABA0002046414602AA2B460096FFF7F7FD38469D
:10ABB00039462246129BFFF7B3FE384639464A46CD
:10ABC0002B460096FFF7EAFD204602A93246FFF722
:10ABD000A8FC0BB0BDE8F083F0B589B01C46074671
:10ABE0000E461546684611461A46FFF7A9FE384636
:10ABF00039466A462346FFF793FE684669462A4669
:10AC00002346FFF78DFE304631466A462346FFF75E
:10AC100087FE09B0F0BDF0B50646A1B00F46084664
:10AC2000194615461C46FFF742FC20B13046214626
:10AC3000FFF7EDFB73E0684639462246FFF771FCEB
:10AC400008A829462246FFF76CFC10A82146FFF70A
:10AC5000DEFB012318A821461093FFF7D8FB6846B6
:10AC600008A92246FFF78AF8002853D0009BDA078C
:10AC700004D468462146FFF74EFD26E0089BDB071B
:10AC800004D408A82146FFF746FD3DE000281EDD5C
:10AC900008AA234669466846FFF7BAF8684621467F
:10ACA000FFF739FD10A818A92246FFF767F800281A
:10ACB00005DA10A801462A462346FFF779F810A8BE
:10ACC000014618AA2346FFF7A3F810A81DE008A81C
:10ACD0006A4623460146FFF79BF808A82146FFF77E
:10ACE0001AFD18A810A92246FFF748F8002805DA2F
:10ACF00018A801462A462346FFF75AF818A8014625
:10AD000010AA2346FFF784F818A829462246FFF721
:10AD10000FFDA4E7304610A92246FFF702FC21B040
:10AD2000F0BD000000487047B4D207002DE9F04F95
:10AD3000EFB01E46789C059023780493B4F9023056
:10AD400092461F33202293FBF2F3DBB206939DF968
:10AD5000187094F9012007F1FF3926AB002543F85C
:10AD600029506EAB03EB89034EA88B46314643F85E
:10AD7000805C43F8605CFEF7FBFF94F9012056A865
:10AD8000B118FEF7F5FF9DF910604EA83146FFF7A8
:10AD90008EFB8046002840F02F8156A83146FFF7F1
:10ADA00086FB0546002840F0258104F12408404632
:10ADB0004EA93A46FEF7E2FF012840F01D814046C9
