:020000021000EC
:10F0000000000120612A0200892A02008B2A0200E6
:10F010008D2A02008F2A0200912A020000000000BF
:10F02000000000000000000000000000932A020021
:10F03000952A020000000000972A0200992A020087
:10F04000E51402009B2A020039190200A1180200EF
:10F050009B2A02009B2A02009B2A02009B2A020094
:10F060009B2A02009B2A02009B2A02009B2A020084
:10F070009B2A02009B2A02009B2A02009B2A020074
:10F080009B2A0200111E02009B2A02009B2A0200FA
:10F09000D51E02009B2A0200E12902009B2A0200E1
:10F0A0009B2A02009B2A02009B2A02009B2A020044
:10F0B0009B2A02009B2A02000000000000000000C2
:10F0C0009B2A02009B2A02009B2A02009B2A020024
:10F0D0009B2A02009B2A02009B2A020000000000DB
:10F0E0000000000000000000000000000000000020
:10F0F0000000000000000000000000000000000010
:10F1000000000000000000000000000000000000FF
:10F1100000000000000000000000000000000000EF
:10F4000010B5054C237833B9044B13B10448AFF35E
:10F4100000800123237010BDD019002000000000DF
:10F42000E03F0200084B10B51BB108480849AFF394
:10F4300000800848036803B910BD074B002BFBD0C0
:10F44000BDE81040184700BF00000000E03F020088
:10F45000D4190020CC19002000000000154B002B0F
:10F4600008BF134B9D46A3F5803A00218B460F46FB
:10F470001348144A121A00F065F80F4B002B00D005
:10F4800098470E4B002B00D0984700200021040025
:10F490000D000D48002802D00C48AFF3008000F0AA
:10F4A0002BF82000290001F005FA00F011F800BF48
:10F4B0000000080000000120000000000000000023
:10F4C000D01900202C1E00200000000000000000C9
:10F4D00008B5074B044613B10021AFF30080054B7C
:10F4E0001868836A03B19847204600F033F800BFDC
:10F4F00000000000503F020070B50E4B0E4CE41AA5
:10F50000A41000251E46A54204D056F82530984781
:10F510000135F8E704F00EFD084C094BE41AA4107D
:10F5200000251E46A54204D056F8253098470135DF
:10F53000F8E770BDC4190020C4190020C8190020C4
:10F54000C419002002440346934202D003F8011B71
:10F55000FAE77047FEE700BF0020704708B501F0EA
:10F5600077F8003018BF012008BD00BF30B583B068
:10F570000C460190154608200A211A4A02F05AFB4F
:10F5800068BB00201121184A184B02F083FF18BBFA
:10F590002A4601A8012103F061F8D0B94FF40043D5
:10F5A0004FF4FA700021E3FB04014FF47A72002358
:10F5B00004F0E0F9019C01460022204603F060F8C7
:10F5C000044608B103F004F9201C18BF012003B061
:10F5D00030BD03F0FDF8E1E703F0FAF8D8E703F0F7
:10F5E000F7F8CEE7841B0020EC190020F51D02007F
:10F5F0004FF0A04310B403224FF400344FF4002125
:10F60000C3F84427C3F80845C3F84C27C3F80815C6
:10F6100000205DF8044B70474FF0A043024AC3F846
:10F6200034270020704700BF0C000300002110B5F4
:10F630000A46042000F042FE044600F0B7F808B184
:10F64000012010BD201C18BF012010BDF0B54FF0E7
:10F65000A0444FF40032504BC4F80C251F684F4EA5
:10F66000DFF83CE1DFF83CC145000023002D4BD022
:10F67000D4F80425D14301F4003102F40032C4F877
:10F6800008157146C4F80C2500BF00BF00BF00BFBD
:10F6900000BF00BF00BF00BFB7422FD000BF00BFF8
:10F6A00000BF00BF00BF00BF00BF00BF00BF00BF62
:10F6B00000BF00BF00BF00BF00BF00BF00BF00BF52
:10F6C00000BF00BF00BF00BF00BF00BF00BF00BF42
:10F6D00000BF00BF00BF00BF00BF00BF00BF00BF32
:10F6E00000BF00BF00BF00BF00BF00BF00BF00BF22
:10F6F00000BF00BF00BF00BF00BF00BF0139C3D1C2
:10F700000133DBB2AB42B3DB634600BF00BF00BFD7
:10F7100000BF00BF00BF00BF00BFB7422FD000BF77
:10F7200000BF00BF00BF00BF00BF00BF00BF00BFE1
:10F7300000BF00BF00BF00BF00BF00BF00BF00BFD1
:10F7400000BF00BF00BF00BF00BF00BF00BF00BFC1
:10F7500000BF00BF00BF00BF00BF00BF00BF00BFB1
:10F7600000BF00BF00BF00BF00BF00BF00BF00BFA1
:10F7700000BF00BF00BF00BF00BF00BF00BF013B14
:10F78000C3D100287FF471AF4FF0A0434FF4003293
:10F79000C3F80825F0BD00BFBC1900200024F40008
:10F7A00090D00300C0C62D00704700BF70B582B076
:10F7B00000F05EFEB0B10024D023684601AA022109
:10F7C0008DF80030ADF804408DF8014000F056FE91
:10F7D0009DF80530054D602B2C7018BF082007D010
:10F7E00002B070BD00F000FEE5E700BFE41D0020A0
:10F7F000012319460448054A2B7002F02FFF002808
:10F8000040F02A8204E000BF543F0200A9F7010043
:10F8100000248823022101AA68468DF80030ADF843
:10F8200004408DF8014000F029FE9DF80560AE828D
:10F830008923022101AA68468DF800308DF8014025
:10F84000ADF8044000F01AFE9DF80520AB8A8DF853
:10F85000014043EA02238A26022101AA6846AB82BC
:10F860008DF80060ADF8044000F008FE9DF80560DA
:10F87000EE828B23022101AA68468DF800308DF8B4
:10F880000140ADF8044000F0F9FD9DF80520EB8A39
:10F890008DF8014043EA02238C26022101AA684622
:10F8A000EB828DF80060ADF8044000F0E7FD9DF8B4
:10F8B00005602E838D23022101AA68468DF8003051
:10F8C0008DF80140ADF8044000F0D8FD9DF805200A
:10F8D0002B8B8DF8014043EA02238E26022101AAD8
:10F8E00068462B838DF80060ADF8044000F0C6FD3B
:10F8F0009DF805606E838F23022101AA68468DF86A
:10F9000000308DF80140ADF8044000F0B7FD9DF8DF
:10F9100005206B8B8DF8014043EA022390260221DB
:10F9200001AA68466B838DF80060ADF8044000F0D2
:10F93000A5FD9DF80560AE839123022101AA6846CA
:10F940008DF800308DF80140ADF8044000F096FDD0
:10F950009DF80520AB8B8DF8014043EA02239226E7
:10F96000022101AA6846AB838DF80060ADF804401F
:10F9700000F084FD9DF80560EE839323022101AA27
:10F9800068468DF800308DF80140ADF8044000F075
:10F9900075FD9DF80520EB8B8DF8014043EA0223AD
:10F9A0009426022101AA6846EB838DF80060ADF829
:10F9B000044000F063FD9DF805602E84952302212C
:10F9C00001AA68468DF800308DF80140ADF804407A
:10F9D00000F054FD9DF805202B8C8DF8014043EA82
:10F9E00002239626022101AA68462B848DF8006026
:10F9F000ADF8044000F042FD9DF805606E84972349
:10FA0000022101AA68468DF800308DF80140ADF85A
:10FA1000044000F033FD9DF805206B8C8DF801400B
:10FA200043EA02239826022101AA68466B848DF8D6
:10FA30000060ADF8044000F021FD9DF80560AE8443
:10FA40009923022101AA68468DF800308DF8014003
:10FA5000ADF8044000F012FD9DF80520AB8C8DF848
:10FA6000014043EA02239A26022101AA6846AB8498
:10FA70008DF80060ADF8044000F000FD9DF80560D1
:10FA8000EE849B23022101AA68468DF800308DF890
:10FA90000140ADF8044000F0F1FC9DF80520EB8C2E
:10FAA0008DF8014043EA02239C26022101AA684600
:10FAB000EB848DF80060ADF8044000F0DFFC9DF8A9
:10FAC00005602E859D23022101AA68468DF800302D
:10FAD0008DF80140ADF8044000F0D0FC9DF8052001
:10FAE0002B8D8DF8014043EA02239E26022101AAB4
:10FAF00068462B858DF80060ADF8044000F0BEFC30
:10FB00009DF805606E859F23022101AA68468DF845
:10FB100000308DF80140ADF8044000F0AFFC9DF8D6
:10FB200005206B8D8DF8014043EA0223A1260221B6
:10FB300001AA68466B858DF80060ADF8044000F0BE
:10FB40009DFC9DF8056085F82C60E123022101AA47
:10FB500068468DF800308DF80140ADF8044000F0A3
:10FB60008DFC9DF80560EE85E223022101AA68461E
:10FB70008DF800308DF80140ADF8044000F07EFCB7
:10FB80009DF80520EB8D8DF8014043EA0223E32622
:10FB9000022101AA6846EB858DF80060ADF80440AB
:10FBA00000F06CFC9DF8056085F83060E4230221CC
:10FBB00001AA68468DF800308DF80140ADF8044088
:10FBC00000F05CFC9DF805308DF801401B01E52636
:10FBD000022101AA68466B868DF80060ADF80440EA
:10FBE00000F04CFC9DF805306A8E8DF8006003F043
:10FBF0000F031343022101AA68466B868DF801406A
:10FC0000ADF8044000F03AFC9DF805308DF8014055
:10FC10001B09E626022101AA6846AB868DF8006022
:10FC2000ADF8044000F02AFC9DF80510AB8E8DF86D
:10FC3000014043EA0113684601AAE7260221AB8688
:10FC4000ADF804408DF8006000F018FC9DF8053018
:10FC500085F836302046C3E502F0BAFDD8E500BF8E
:10FC600010B582B000248DF801007223684602218D
:10FC700001AAADF804408DF8003000F0FFFBA0426F
:10FC800014BF1020204602B010BD00BF30B583B0B5
:10FC90000024054601AAF42368460221ADF8044079
:10FCA0008DF801408DF8003000F0E8FB9DF805303C
:10FCB000ADF8044003F01F0343EA4513684601AA68
:10FCC000742402218DF801308DF8004000F0D6FB3D
:10FCD000002814BF1020002003B030BD30B583B021
:10FCE0000024054601AAF42368460221ADF8044029
:10FCF0008DF801408DF8003000F0C0FB9DF8053014
:10FD0000ADF8044023F01C0343EA8503684601AACA
:10FD1000742402218DF801308DF8004000F0AEFB14
:10FD2000002814BF1020002003B030BDF0B585B00E
:10FD30000DF107050DF10F07F72400266846022193
:10FD400001AA8DF80040ADF804608DF8016000F064
:10FD500095FB9DF8053005F8013F0134BD42E4B242
:10FD6000ECD19DF80D109DF80A209DF80CE09DF84F
:10FD700009309DF80B709DF80E609DF80F409DF8BE
:10FD8000085009481209090941EA0E1142EA031311
:10FD900043EA053341EA073204EB06218260416001
:10FDA000C360002005B0F0BDE41D002070B582B036
:10FDB0000646F423002501AA684602218DF800308A
:10FDC000ADF804508DF8015000F058FB9DF8053057
:10FDD000012E03F0FC0346EA030427D01ED3032EB2
:10FDE00002D0102002B070BD2A461A484FF40041DC
:10FDF00002F046FCB8B900257423684601AA022126
:10FE00008DF80140ADF804508DF8003000F036FB5D
:10FE1000A8420CBF2846102002B070BD0D4802F069
:10FE200087FC0028E7D002F0D3FCE4E7FFF77EFF71
:10FE30007423684601AA0221ADF804508DF80140F0
:10FE40008DF8003000F01AFB00280CBF00201020B5
:10FE500002B070BD341C002030B40E4CA568A08ADE
:10FE6000B4F91810B4F91630C0EB251202FB02F2F7
:10FE700012134000C0EBE50001FB02F203FB00F0AF
:10FE8000921302EBE02303EB830080302361001226
:10FE900030BC7047E41D00202DE9F04F784C2669F6
:10FEA000628CB4F91C00E368B4F824C087B0F7177B
:10FEB000B6F5FA3647F1FF370292B4F91E200593E2
:10FEC000A6FB06AB06FB07F30BEB430BC117D317DF
:10FED0000AFB03FE06FB01F500FB075502FB0BEED8
:10FEE000A6FB0001AAFB0223734429444FEA12280F
:10FEF00048EA03684FEA232902030B0312EB0802C6
:10FF000043EA1053B4F81A8043EB0903003243F577
:10FF10000043A2FB080108FB03114B100093CB1711
:10FF20000193DDE9002352EA0305218C00F0A38050
:10FF3000BDF908804FEAE87906FB09F0A6FB082323
:10FF400008FB0700C518CDE902230395DDE902236C
:10FF50000FFA8CF60598F717C0F580150AFB07FE17
:10FF60004FEA434906FB0BEE49EAD239AAFB066782
:10FF70000AB2AA4602994FEAE57BCDE902AB4FEA05
:10FF80004148039B16EB080677444FF0000047EB0F
:10FF900009074FEAC57A80194FEAC2014FEAC37BCD
:10FFA0004BEA550B7941BAEB00006BEB010110EB0A
:10FFB000000841EB010918EB000849EB01094FEA81
:10FFC00089174FEA881647EA986718EB060849EB45
:10FFD00007094FEA89054FEA880645EA987516EB46
:10FFE000000845EB01094FEA88064FEA89058019A8
:10FFF00045EA9875DDE90023694103F09FFCB4F9F7
:020000022000DC
:100000002A20B4F928804E13450B45EAC14502FB6E
:1000100006F7D31705FB0377A2FB05233B4405FB3B
:1000200003F34FEAE87906FB0236A5FB022300FB47
:1000300009F5334408FB0155560EA0FB0889A94475
:1000400046EAC3164FEAD84A80194FEA63674AEA7C
:10005000493A79414FEAE94B1AEB000AB4F92620F4
:100060004BEB010B4FEA1A2040EA0B6012011044DF
:1000700007B0BDE8F08F002007B0BDE8F08F00BFEB
:10008000E41D0020F0B51F48056990F8302090F974
:100090003640B0F932E04368B0F93470B0F92E1050
:1000A00090F82C60A5F5963502FB05F204FB05F0EF
:1000B000D21202F50044821204FB02F24FEA0E5003
:1000C0009212C0EB833302F5001207FB153301FBDC
:1000D00002F203F5804302F500529213DB1302FB98
:1000E00003F3D81300FB00F0C01106FB00F0A3EBF4
:1000F000201020EAE070B0F1C85FA8BF4FF0C850F0
:100100000013F0BDE41D002030B585B0002300933E
:10011000ADF804308DF806300293ADF80C308DF850
:100120000E300324E8256846072102AA8DF8005006
:1001300000F0DAF9012804F1FF3304D113F0FF04D1
:10014000F1D105B030BD0028FBD10DF10901062227
:10015000064803F0E3FE064B064A1B6801211170B6
:10016000002BEED0984705B030BD00BF7C1C0020AE
:10017000541C0020581C00202DE9F0414A4B4B4AEA
:100180001B7805460021180182B0C6B21170042DFB
:100190004ED8DFE805F0646C755B030000273B4632
:1001A000002120228DF80530ADF800108DF80420D4
:1001B000032401A802216A4600F096F9012804F1FF
:1001C000FF346AD114F0FF04F3D14FF0100800227D
:1001D00023238DF80560ADF800208DF8043003244A
:1001E00001A802216A4600F07FF9012804F1FF33DB
:1001F0004ED113F0FF04F3D110242D4B44EA080430
:100200001D70C7B14FF400434FF4FA700021E3FBB7
:1002100007014FF47A72002303F0ACFB0022014681
:10022000244802F02DFA58B9204602B0BDE8F0810A
:100230001F4B10241D701F4802F07AFA0028F3D0DB
:1002400002F0C6FA204602B0BDE8F08101271A4A42
:1002500007FA03F3137046F008069723A0E7042279
:10026000154902FA03F30B700A27572398E7042273
:10027000114902FA03F30B704FF47A7717238FE7D3
:1002800010220D4902FA03F30B7001278F2387E731
:1002900000280CBF00241024AFE700280CBF4FF04B
:1002A00000084FF0100892E7591C0020581C00204D
:1002B000951900205C1C002094190020F0B5244BF7
:1002C00087B007460E461A6000F0D2F848B32148BE
:1002D000214A012102F0C2F930BB00238DF804301D
:1002E0000293ADF80C308DF80E300493ADF8143055
:1002F0008DF816300324CF2502A8022104AA8DF818
:10030000085000F0F1F8012804F1FF3316D113F082
:10031000FF04F1D19DF80430332B08D0102007B032
:10032000F0BD00F061F8D2E702F052FAD5E73846A6
:10033000FFF722FF094B1E7007B0F0BD0028E9D17E
:1003400001A80DF11101012203F0E8FDE2E700BF71
:10035000541C0020583F020009010200591C0020D3
:10036000A0B399B392B3F0B4194B1A4E1F78B6F9F3
:1003700000404FF47A751023BB4094FBF3F405FB67
:1003800004F4002CB8BF04F2FF34A41204604FF44C
:100390007A74B6F9020090FBF3F004FB00F0002839
:1003A000B8BF00F2FF30801208604FF47A71B6F9DE
:1003B000040090FBF3F301FB03F3002BB8BF03F23F
:1003C000FF339B1200201360F0BC7047042070477D
:1003D000591C00207C1C00203EDF7047014B01228D
:1003E0001A7070471C1E00202DE9F0471B4B0FCBE5
:1003F00084B04FF0A0444FF0080E03274FF48076EE
:100400004FF01D0A4FF01C094FF019084FF0804CB7
:100410008DE80F008DF800A08DF802908DF8018016
:10042000CDF808C06946C4F818E50D48C4F80C7743
:100430000C4AC4F808E5C4F81865C4F82077C4F875
:10044000086501F0F5F808B102F0C2F90649074A5B
:1004500001230B70137004B0BDE8F0875C3F02000D
:100460006C3F0200DD0302001C1E0020821C0020E5
:10047000014B1878704700BF821C002058B352B35C
:10048000F0B5174C237883B013B34FF0A0460D4658
:1004900013460827002222700146C6F80C752A462A
:1004A0001048009501F058F938B102F091F923781D
:1004B00033B9FFF791FF0028F7D12378002BF8D04C
:1004C0004FF0A04308220020C3F8082503B0F0BD78
:1004D000012003B0F0BD024B01201B78704700BF24
:1004E0001C1E00206C3F020040B33AB3F0B5174C1D
:1004F000237883B0FBB14FF0A0460D4613464FF46E
:100500008077002222700146C6F80C752A460095B5
:100510000F4801F021F902E0FFF75EFF90B9237860
:10052000002BF9D04FF0A0434FF480720020C3F8A5
:10053000082503B0F0BD012003B0F0BD034B01203E
:100540001B78704702F044F9E9E700BF1C1E002049
:100550006C3F02002DE9F04FDFF88CC0DFF88CE033
:100560000A4400274FF05B0A914211D0466811F807
:10057000014B0568B44006F108082C43B8F10D0F93
:10058000C4F30C05046006D89142C0F80480EDD194
:100590003846BDE8F08F582D21D9640B053EA5FBE8
:1005A0000E89C9EB050809EB5809AEFB05B8C8EB85
:1005B000050B4FEA991908EB5B080AFB19554FEA3E
:1005C000981807F101091CF805B01CF8085080E8DC
:1005D000500003F807B003F809500237C4E7C4F32A
:1005E0000D05063EA40BDAE7743F02006981166828
:1005F00030B403464068D8B11D681348134CA0FBC3
:100600000502A81A02EB500290095B2202FB10526D
:10061000A25C0A7093E80500072A11D90A4AA2FBD6
:100620000052801A02EB500292090220A25C4A702A
:1006300000224FF0FF311A605A60996030BC704759
:100640005A28EBD80120F3E769811668743F02004D
:1006500010B5104B1049186888B050220090002344
:10066000684602F071F990B9002001AA014602F033
:10067000CFF948B901A802F0E3F9044608B102F045
:10068000A7F8204608B010BD02F0A2F8F2E702F089
:100690009FF8E9E7D03F0200841C002073DF704719
:1006A000F0B5714A714C93B0034610680090102564
:1006B000EE20032225706070A270002950D004F152
:1006C0000B06B34234BF0020012003F10802E51CF1
:1006D000AA428CBF024640F001020A2994BF0022C0
:1006E00002F00102002A7BD043EA0502520777D1CB
:1006F000A1F10800C00801305A681F68C4F80370EF
:100700000128C4F807204FEAC00205D09D68DF68C1
:10071000C4F80F70C4F80B50914221D0A51813F8FB
:100720003000E870501C81421ADD185C2871901C62
:10073000814215DD185C6871D01C814210DD185CA7
:10074000A871101D81420BDD185CE871501D8142BB
:1007500006DD0632185C2872914201DD9B5C6B72EB
:10076000CD1C4FF6AA630021382204A8ADF808502A
:100770000394ADF80430FEF7E5FE002201230625C0
:1007800001AC04A811468DF810208DF81350ADF877
:1007900020308DF83C30CDF824D00E9400F072FC5F
:1007A00008B102F015F8324C324D002110222046DB
:1007B000FEF7C8FE2A78002303204FF4047120704E
:1007C000618163602372A3810AB113B0F0BD20463A
:1007D000FFF764FF002844D101232B7013B0F0BD54
:1007E0001A78E2700129214ABAD05878107102298A
:1007F000B6D0987850710329B2D0D8789071042976
:10080000AED01879D0710529AAD05879107206296E
:10081000A6D0987950720729A2D0D8799072082969
:100820009ED0187AD07209299AD0587A10730A2962
:1008300096D09A7A62730B290C4A91D0D87A907329
:100840000C298DD0187BD0730D2989D0587B10745A
:100850000E2985D0987B50740F2981D0DB7B93744F
:100860007EE701F0B5FFB7E7D43F020098190020FA
:10087000D81C0020D41C002032DF70473EDF7047B8
:1008800008B5094B1B784BB1084B1B680B2B01D9E2
:10089000FFF7F2FF064B01221A7008BD034A1368E6
:1008A00001331360F2E700BF141D0020101D00206B
:1008B000321D00202DE9F04F87B0FEF799FE4FF072
:1008C000A0464FF40035C6F80C550446FEF744FE2A
:1008D0002044C4B2FEF7A0FE2044C4B2FEF73EFEA0
:1008E00041F288319E4ADFF8AC8204449D48FEF70D
:1008F0003DFEE4B22044C4B2FEF798FE2044C0B2EC
:10090000FEF7A4FE3446C6F808554FF40025D4F887
:10091000102592044FF0A04314D501F021FAC4F839
:100920000855FFF7ABFF08B101F052FF98F800300F
:10093000002BECD0C4F80C55D4F8102592044FF0DD
:10094000A043EAD4009301204FF0010388F800305F
:10095000FFF786F90120FFF799F90120FFF7BEF9AB
:10096000814F824CDFF830B2DFF830A2DFF83092EE
:100970007F4E804D0120FFF719FA4FF001033B70C5
:10098000009B4FF40022C3F80C253B78CBB901F053
:10099000E7F94FF0A0434FF40022C3F80825FFF712
:1009A0006DFF002840F0CC8098F80030002BECD090
:1009B0004FF0A0434FF40022C3F80C253B78002BE6
:1009C000E5D0694B4FF0000C04A905AA03A883F8F1
:1009D00000C0CDF800C0FFF7C3FCBDF81010BAF995
:1009E00000E0BDF80C30BBF90000AAF800100AB214
:1009F000BDF81410ABF80030CEEB02021BB2B9F90F
:100A000000E0A9F8001002FB02F2181A09B200FB7C
:100A10000023CEEB010000FB003002F067FC41EC4C
:100A2000100B02F0AFF951EC100B02F05FFFC82879
:100A3000DDF800C005DCB4F806C00CF1050C1FFAA7
:100A40008CFCA4F806C0FFF707FA0190FFF724FA20
:100A50000090FFF717FB019B009A002B014672DB09
:100A600000200090120A02F572524348303292B2CE
:100A7000A0FB020E40481B0280FB03C0DB17C3EB48
:100A800060134FEA5E1E642000FB1E2ECEEB020EAA
:100A9000C90A009A3948A4F804E0890003F4FE4327
:100AA00013436170102200216380FEF74BFD2F4934
:100AB000324B33480822FFF74DFD304A03461118E8
:100AC0002F483360FFF794FD3368002103440C2264
:100AD0002B483360FEF736FD752172202E2223232A
:100AE0004FF0760C4FF0690E28706970A970EA70AB
:100AF000224932682348AB7185F804C085F805E0C7
:100B000003F00CFA0120FFF751F91F4B62781B78B4
:100B10009A4205D1154B5A881C4B1B889A4217D014
:100B2000316814480631C9B2FFF7BAFD164861783A
:100B30000170164962880A80154AA388138026E747
:100B400001F046FE30E74FF400405B42009089E739
:100B5000064B9A880E4B1B889A42E1D117E700BFDB
:100B600081080200EC1C0020321D0020281D0020FE
:100B7000341D0020AC1900201F85EB51181D0020EA
:100B80003C1D0020B3190020E81C0020301D00206F
:100B9000EA1C0020141D0020381D00203A1D0020F2
:100BA0000C1D00206DDF704772DF704779DF7047E2
:100BB0007DDF704765DF7047F0B50488012C83B096
:100BC00007D0148804F1020E9E4505D90C2003B00D
:100BD000F0BD072003B0F0BD0578012D04D14578A4
:100BE00002352544AB42F1D3023B0F461C1B02A940
:100BF000A4B2054621F8024D07EB0E001646FFF79A
:100C0000D7FF0028E3D12B78022B17D0012B11D06E
:100C100023460821FE2BD9D83288581CB854328874
:100C2000013292B23280B954328801321344338097
:100C30000020CCE76B789C42EBD2E9E7BDF80630A8
:100C40009C42E5D30921E5E72DE9F04F85B08346C5
:100C50000E9D00882C880194BDF83C9000284ED051
:100C600000278A46164698463C4604E0BBF800300A
:100C70000134A34226DDDBF8043053F8240003904E
:100C80000DF10B0103A80022FFF794FF18BB9DF89C
:100C90000B30B342EAD10FB32A8893194B4519DCC4
:100CA000424403A80DF10B010127FFF783FF90B920
:100CB0002B889DF80B2013442B80BBF800300134A7
:100CC000A342D8DCDFB12B88019A013B9B1A9BB26F
:100CD000FF2B12D90C2005B0BDE8F08F2B885A1CD1
:100CE000334402334B4592B2F4DC2A8008F802A068
:100CF0002A88013292B22A80D2E708F80230002016
:100D000005B0BDE8F08F00BF2DE9F047002317883C
:100D1000138090F82D3086B0144605460E46002B01
:100D200040F0C880AA78002A40F0F080EA78002AD3
:100D30002CD1696899B1DA1CBA42097822D802220A
:100D4000F254238801339BB20A222380F254238871
:100D500001339BB22380F1542388013323802B89F4
:100D6000002B40F0F7802B8A002B40F00C812B8B5E
:100D7000002B40F021812B6A002B5CD02288911D32
:100D8000B94218D90C2006B0BDE8F087D91CB94289
:100D9000F8D80221F154238801339BB2012123802A
:100DA000F15423880B449BB22380F25423880B44D4
:100DB0009BB22380BDE71988052940F2C9806FF4F2
:100DC000486801EB080080B24FF27D3E704540F26A
:100DD000BF805888052840F2BB806FF4486C84447B
:100DE0001FFA8CFCF44540F2B3804FF6FF7E71454C
:100DF00004D0704502D0814200F2AA800521B1548E
:100E00002288013292B212212280B154228801320A
:100E100092B222801988B1543244090A5170228852
:100E2000023292B222805B88B35432441B0A537060
:100E30002388023323806B6A002B2BD0998820886B
:100E40000A1D0244BA429DD88A1CFE2A9AD8033150
:100E500031542288013292B2FF212280B15422887B
:100E6000013292B222801988B1543244090A517079
:100E70002088023080B220809A885AB19968039302
:100E8000002965D0304403F049F8039B22889B88F1
:100E90001344238095F82C30002B40F0A68028784E
:100EA00000283FF470AF2846314622463B46FFF704
:100EB00083FE68E7082F7FF665AF04A8FFF772FE90
:100EC00000287FF460AF23880822F254238801337E
:100ED0009BB21B222380F2542088013080B22080F4
:100EE000062230440DF1110103F018F823889DF813
:100EF000102006339BB212F0FE0218BF012223809D
:100F0000F254238801339BB223800BE70433BB42A6
:100F10003FF638AF04A8FFF749FE00287FF433AF4F
:100F20002388BDF810200321F154238801339BB29C
:100F300019212380F154238801339BB2F1182380B7
:100F4000100AF2544870238802339BB22380EDE6E6
:100F5000072018E705F1080802218DE890004046B7
:100F60000A463346FFF770FE00287FF40CAF8DE889
:100F700090004046062110223346FFF765FE002808
:100F80007FF401AFEFE605F110088DE890004046D0
:100F9000032102223346FFF757FE00287FF4F3AE09
:100FA0008DE890004046072110223346FFF74CFEA3
:100FB00000287FF4E8AEDAE605F118088DE8900025
:100FC0004046142102223346FFF73EFE00287FF4FC
:100FD000DAAE8DE890004046152110223346FFF727
:100FE00033FE00287FF4CFAEC5E6D5F82880B8F1EF
:100FF000000FADD0B8F804200232FE2A3FF6C2AE90
:1010000023884FF000094FF0160A0132F25423886A
:1010100001339BB2238006F803A0238801339BB2DF
:101020002380B8F80020F2543344120A5A702388FF
:1010300002339BB22380B8F80410F0180A4661B15D
:10104000D8F808301946002B82D002F067FFB8F8B4
:101050000430228813449BB2238009F1010995F8DA
:101060002C205FFA89F94A4509EB49087FF617AF4A
:10107000AA6A02EB8808B8F804200232FE2AC4D912
:1010800080E600BF2DE9F04794B01F230D46ADF870
:101090000E30044600285AD0C278530753D590F832
:1010A0002D300021ADF80C10002B6BD18378002B74
:1010B00040F0AB801846032114AE5F1C023330446D
:1010C00016FA87F716FA83F64FF0020E8BB201215B
:1010D00000F840ECADF80C3007F8401C06F8402C46
:1010E0006268B2B1D91C1F29167828D814AF581CD1
:1010F0009A1C17FA80F03B4417FA82F24FF0020E66
:101100000A2703F840ECADF80C1000F8407C02F818
:10111000406C2389002B40F08581238A002B40F00E
:101120009F81238B002B40F0B981236A002B00F0B4
:10113000D880BDF80C20911D1F2940F28F800C2013
:1011400014B0BDE8F087072014B0BDE8F087ADF813
:101150000C00002D00F00481EB78002BF3D1284621
:101160000CA90DF10E02FFF7CFFD0028ECD19DF880
:101170000E300CAA20469DF80C10FFF715FD14B098
:10118000BDE8F0870CAF3846FFF70CFD0028DBD137
:10119000BDF80C3014AA03F1010C12FA8CFC03F117
:1011A000020E13441FFA8EFE04AE4FF008094FF0F2
:1011B0001B0803F8409C0DF13101062206EB0E00DE
:1011C0000CF8408CADF80CE002F0A8FEBDF80C2045
:1011D0009DF83010931D11F0FE019BB240F07C8110
:1011E00014A8034403F8401CD31DA2789BB2ADF8A9
:1011F0000C30002A40F01181E278002A3FF470AFF1
:10120000D91C1F2918469AD856E70CAF3846FFF765
:10121000CDFC002898D1BDF80C30BDF83070E278D4
:10122000991C0DF1500E581C89B204AE0EEB030947
:101230001EFA80F0043306EB010E4FF0030A4FF064
:1012400019089BB24FEA172C09F840ACADF80C30E6
:1012500000F8408C77548EF801C0CEE71888052836
:101260007FF671AF6FF4486C00EB0C06B6B24FF22C
:101270007D37BE427FF667AF5E88052E7FF663AF8F
:101280006FF4486EB6441FFA8EFEBE457FF65BAF24
:101290004FF6FF77B84204D0BE4202D0B0423FF6CC
:1012A00052AF14A8561C10FA86F600EB020E901CE2
:1012B00080B212274FF0050C0EF840CCADF80C00B0
:1012C00006F8407C1F88ADF80C1004AE3118375476
:1012D00004323F0A4F7092B25B88B35432441B0A07
:1012E0005370676A9FB3B888BDF80C30811C9A1C94
:1012F00056181F2E3FF623AFFE293FF620AF14AE3F
:10130000591C06EB030E16FA81F192B20330FF2648
:101310000EF8400CADF80C2001F8406C398804AE92
:10132000B018B154090A41700433BA8898B2ADF8C4
:101330000C0062B1B96800293FF405AF304402F0F7
:10134000EDFDBDF80C30BA881344ADF80C3094F8BC
:101350002C3053B904AE2378002B53D13446F8E631
:101360002B46ADF80E502A4604E7A76A002F3FF43B
:10137000EAAEB9880231FE293FF6E1AE9E46BDF8DD
:101380000C304FF0000804AE4FF0160914AA581C98
:1013900002EB030C12FA80F09A1C92B201310CF8A5
:1013A000401CADF80C2000F8409C3988B154324400
:1013B000090A51700433B9889BB20A46F018ADF897
:1013C0000C3079B1BB681946002B3FF4BCAE02F07B
:1013D000A5FDBDF80C30BA8894F82CE013449BB2FC
:1013E000ADF80C3008F101085FFA88F8F04508EB19
:1013F0004802B0D2A76A07EB8207B9880231FE29FA
:10140000C4D99CE62046314603AA1F23FFF7D4FB2C
:1014100000287FF499AE34469BE604331F2B3FF639
:101420008EAEF3E603AA04F1080704AE4FF01F08DE
:1014300002218DE80401384633460A46FFF704FCD2
:1014400000287FF481AE03AB8DE8080138463346AF
:1014500006211022FFF7F8FB00287FF475AE5CE64A
:1014600003AA04F1100704AE4FF01F088DE8040131
:101470003846334603210222FFF7E6FB00287FF4BB
:1014800063AE03AB8DE808013846334607211022CE
:10149000FFF7DAFB00287FF457AE42E603AA04F117
:1014A000180704AE4FF01F088DE804013846334694
:1014B00014210222FFF7C8FB00287FF445AE03ABDE
:1014C0008DE808013846334615211022FFF7BCFB92
:1014D00000287FF439AE28E614A90B44012103F853
:1014E000401C81E610B51D4B1A6882B0F2B91C4B46
:1014F0001A680AB902B010BD00221A601B68019375
:101500004FF080430222174C0199C3F80823236946
:101510000122A270002BEDD01A6822615B680120C5
:1015200098472369002BF7D102B010BD00221A6042
:101530001B6800934FF0804301220A4C0099C3F8C6
:101540000823A3686270002BD1D01A68A2605B6880
:1015500000209847A368002BF7D1C8E7000100409E
:1015600004010040481D002000B1704710B5064C32
:10157000A3683BB11A68A2605B6800209847A36823
:10158000002BF7D110BD00BF481D002010B582B060
:1015900002A80023114C00F8013D01F029F923783D
:1015A0008BB9184606216360A3602361E36000F0F5
:1015B00017F801F0C3F920B94FF080430122C3F8B6
:1015C000182501232370E3689DF8070001330122E9
:1015D000E360A27001F034F902B010BD481D002094
:1015E000002810B418DB00F1604303F561434901A2
:1015F000C9B283F80013C3B24009800000F1604013
:1016000000F5614003F01F0201239340C0F88031D0
:1016100003605DF8044B7047C3B2044A03F00F0443
:1016200049012244C9B21176E6E700BFFCEC00E0B4
:10163000F8B54479474D64012B191B7E0BB1082086
:10164000F8BD2A510B7B0F78012B4FF0A0464FF0CD
:10165000010303FA07F394BFC6F80C35C6F8083542
:101660000E784FF0A04706F5E076012347F82630C4
:101670004E78FF2E64D006F5E07EB3404FF0030CA9
:10168000C7F80C3547F82EC08F78FF2F55D007F5D7
:10169000E07E4FF0A0434FF0000C43F82EC0CB7813
:1016A000FF2B0FD04FF0010E4FF0A04C0EFA03F3BA
:1016B000CCF80835CB7803F5E0734FF0030E4CF807
:1016C00023E0CB7890F805E005EB4E1E8EF81A303B
:1016D000036891F800E0C3F808E5C3F80C65C3F8A7
:1016E00010758E68C3F824654E7B0F7B003618BFDB
:1016F0000126022F27D0032F1CD0012F01D146F045
:101700000206C3F8546546794F7905EB4616F7761D
:10171000E2B104260122C3F80463C3F8002590F95E
:1017200004000979FFF75CFF2C4401220020227697
:101730006076F8BD46F00606E3E74FF0FF37AEE708
:101740004FF0FF36A0E746F00406DAE70122C3F8BF
:101750000025E9E75C1D00202DE9F04145794F4E59
:101760006D01741984B0677E9DF828E018341FB1AC
:10177000112004B0BDE8F08177591FB14FF0010C82
:1017800084F801C006EB0508C8F8103098F81D3041
:1017900098F81AC0C8F8081003F0FE036FF341036D
:1017A000BCF1FF0F88F80C2088F814E088F81D3091
:1017B00006D001234FF0A04403FA0CF3C4F80C3513
:1017C000006804230024C0F80833C0F808417319E6
:1017D000D0F808C1CDF80CC01833DDF80CC01C716E
:1017E0008AB9DB78C0F81C35BEF1010F03D9731933
:1017F000DB7EC0F81C357FB10423C0F80433002021
:1018000004B0BDE8F0810B78C0F81C35012AEBD993
:101810004B78C0F81C35EEE7731919461A7FD0F8DB
:101820000831002BFBD0C0F80871D0F808310293C2
:10183000029B0E7DD0F818359642DBB201F11804F8
:101840008DF8073003D90B699DF807509D54227914
:101850000D7B0132D2B2531CAB42227111D30E7DEB
:10186000B34214D3AA42DAD3B242D8D3A278FF2A21
:1018700011D001234FF0A0419340C1F8083500205A
:1018800077E78A68D35CC0F81C350A7FC7E7E3783E
:10189000C0F81C35F9E700206BE700BF5C1D002095
:1018A00030B5224B224A0021C3F8081183B0D3F887
:1018B000081101910199107DD3F81815137FC9B251
:1018C00098428DF8031004D911699DF80300C8549B
:1018D000137F147B16480133DBB2591CA1421377E6
:1018E0001DD3057DA94214D3A34216D3AB4214D312
:1018F000817EFF2905D001234FF0A0408B40C0F826
:1019000008350023537613710A481368984703B0CB
:1019100030BD064BC27EC3F81C2503B030BD8268C3
:10192000024B525CC3F81C2503B030BD00300040B0
:101930005C1D0020601D0020F0B59B4C237F8FB004
:10194000002B75D1994AD2F80413890548D4974BD6
:10195000D3F80423520704D5D3F80821002A40F015
:10196000CA80924BD3F81C21C2B1A28AA07D8E49B5
:1019700092B282424FF00002C3F81C2180F0A9808D
:10198000D3F81C210692069A888A8A8A8D6880B2CA
:101990000132285C92B28A82C3F81C05834BD3F8CB
:1019A0004421DAB10022C3F84421D3F84411A27EC5
:1019B00004910499002A40F08980E27D7A4B6AB153
:1019C0000022587ED968DA7501228DF830000B911B
:1019D0008DF828200AA893E8060090470FB0F0BDC4
:1019E000D2F824110029B2D0C2F82431D2F824113F
:1019F000A37E07914FF401710798C2F808130BB941
:101A000001235360694A02238DF82830D2F88034CC
:101A1000C2F88034E07DE2680D9300238DF8300039
:101A2000E375237621680B9263680AA8984798E7C4
:101A30005E4BD3F82421002A40F09380D3F8101194
:101A400061B1C3F81021D3F8101103910399D3F8B1
:101A50003C15E07DC9B2884200F0AA80534BD3F810
:101A60004421B2B10022C3F84421D3F84411E07DEF
:101A7000019101994C4960B1D3F83C35C8688DF8A3
:101A800030300123CA750B908DF828300AA80AC996
:101A90009847464BD3F82021002A9FD00022C3F854
:101AA0002021D3F82011A07D009100993E49002803
:101AB00094D0D3F84C058B688DF830008A750B9361
:101AC0008DF828200AC90AA8984787E701221A60DA
:101AD00073E7D3F81C310593059B00283FF45EAFF4
:101AE0008B688DF830008A750B938DF828200AC911
:101AF0000AA8984752E7E17D2B4A002970D00021BF
:101B0000C3F80811D3F8081108910899D068517EDC
:101B1000D3F818354354537ED17D0133DBB253766D
:101B2000627E214B8A427FF41CAF1A7E002A6DD15F
:101B30009B7E13B91D4B01225A601C4AE068636802
:101B40004FF40171C2F80813627E8DF83020002531
:101B500001220B902168E5758DF828200AA8984786
:101B6000FFE60022C3F82421D3F8241102910221B8
:101B70008DF828100299D3F88014C3F880140D91C1
:101B8000D3F83C15E368E27522768DF830100B939C
:101B9000216863680AA89847044BD3F84421002AB7
:101BA0003FF477AF5EE700BF7C1D002000200040BF
:101BB000217EF1B1D3F80072E17527F02001E668CB
:101BC0002569C3F8001201238DF830008DF8283004
:101BD000227621680B96E56063680AA898473DE77E
:101BE000C3F80811D3F808210992099AD3F81835D7
:101BF00096E7E268E17501238DF830008DF8283012
:101C00000B9294E80A000AA8984727E7DE685D7EF1
:101C10001869DA7501210022D8601A765A768DF893
:101C200028100B968DF8305093E806000AA89047CC
:101C300097E600BF12F0030301D0072070472DE99B
:101C4000F0414C1C0546DFF83C800B480B4F0C4E16
:101C5000DFF834C0DFF834E088F80030E400A4B2E4
:101C6000144403703D803180CCF80040CEF8002051
:101C70001846BDE8F08100BFA61D0020A41D00206D
:101C8000A81D0020A71D0020A01D00209C1D0020D5
:101C90002DE9F0472C4D2B888B4282B00C4603D2A5
:101CA000092002B0BDE8F087064602A84FF0000800
:101CB00000F8018D174600F09BFD244B244A25486F
:101CC000197813780088DBB2834238BF0133C9B278
:101CD00038BF5FFA83F841451FD092F8008013782F
:101CE000DFF87890DBB283423ABF0133DBB20023E6
:101CF0005FFA88F89DF80700137000F0A1FDD9F88D
:101D000000300FFA88F24FEAC20A43F832705344A7
:101D100006B144B900209880C3E79DF8070000F0A1
:101D20008FFD0420BDE70C4B28881B68314600FB63
:101D30000830224602F0F2F8D9F800309A44002028
:101D4000AAF80440ADE700BFA41D0020A61D002096
:101D5000A71D0020A81D0020A01D00209C1D002004
:101D60002DE9F047174F184C3A7823789A4226D03D
:101D7000DFF85C90DFF85C80144EDFF85CA03B7805
:101D8000D9F800203088D8F80050DBB20FFA83FC75
:101D900002EBCC0100FB0350898852F83C30984795
:101DA0003B78BAF80020DBB29A4203F101038CBF02
:101DB000DBB200233B703A7823789A42DFD1BDE84A
:101DC000F08700BFA61D0020A71D0020A41D002035
:101DD0009C1D0020A01D0020A81D0020082910B572
:101DE000044602D0002000F0F3FC23686068BDE8E0
:101DF0001040184700B583B08DE80300034A6846D9
:101E00000821FFF745FF03B05DF804FBDD1D02006C
:101E10002DE9F041274A284B0025C2F84051C2F86D
:101E20004451C2F84851C2F84C51C2F80051C2F8AE
:101E300004511B681BB32149D2F804250C68204FBC
:101E4000141B1A6824F07F44A242A84609D8197CC2
:101E5000DE69A41A1544A1B91EB133461A68A2421C
:101E6000F5D9184B18491A780B789A421BD01749A4
:101E7000174A41F823504FF48013C2F80031BDE8EF
:101E8000F081D3F814C083F810803A689B696046EB
:101E900019462AB190470028DED000F099FCDBE714
:101EA0001846E047D8E7531CDBB2022B08BF0023DB
:101EB0000B70DCE700100140B01D0020AC1D0020BD
:101EC000B41D0020B81D0020B91D0020C41D002035
:101ED00000E100E02DE9F04F884A8949137809783C
:101EE0008848994287B0D0F8009000F014820133FE
:101EF000DBB2022B08BF00231370834A52F8237011
:101F0000804A07EB090323F07F4313604FF0010B76
:101F10007E4BCDF80C90D3F800807D4B19785B7820
:101F200001931E467A4B5C6893F802E0794B93F874
:101F300000A0744B1B680293424643460020BC46F7
:101F4000B14217D001EB4105013114F83570C9B227
:101F5000714508BF0021022F04EBC50576D0032F81
:101F6000EED1002BECD0DA6918741346002AFAD1AE
:101F7000B142E7D16749029881F800A06149DDF8D4
:101F80000C900860614967460A60BBF1000F40F0A1
:101F9000A281B8EB030218BF0122059203935D46AC
:101FA0001E46584BDFF87091D3F800C0574BD3F85A
:101FB00000A0574BD3F804B093F800E09B7802934D
:101FC000544B1B78049300274FF0010835B3696820
:101FD000A8682C46ED69CCEB010222F07F424A450D
:101FE00056D8131823606760A76084F81080E761F3
:101FF000002E7FD0316899425CD2304603E01168F0
:1020000099425ED21046C2695B1A002AF7D123605A
:10201000E2613346C4611E46002DD8D1019B9E4526
:102020007CD00EEB4E020BEBC2030EF1010E1BF83F
:10203000322002995C685FFA8EFE8E4508BF4FF031
:10204000000E012A44D033461E46E5E7D5F8049039
:10205000002B3FF475AF4B4500F038811F4600E080
:102060002F46FD69002D3FF46BAFA945F8D1B94665
:10207000A9452F4600F02A81FD693F68C9F81C5028
:10208000002D3FF45DAF2B683B442B60134657E7B0
:10209000C1EB0C0121F07F41814202D2431A23603F
:1020A000A1E727606760A76084F81080E7610EB33E
:1020B00031680023CB1A33602346E661A2461E46F0
:1020C000AAE7C91A11602360E2613346C461A2E73E
:1020D000227C002AB7D199686160D868A0601A692B
:1020E000E2605B69A361049B002B3FF474AF656001
:1020F000294670E72346A2461E468DE7B81D0020FC
:10210000B91D0020AC1D0020C41D0020B01D002002
:10211000BC1D0020BA1D0020FEFF7F00854B83F808
:1021200000E0854BC3F800A0039BB34200F0C480DD
:10213000002E00F01181814C814BD4F804051B68FE
:10214000804DD6F800C02978C21A22F07F420332AF
:10215000002952D17C4FDFF8F491DFF8F4814FF47D
:1021600080314FF4003E0126C4F84413C4F8041330
:10217000C7F880E1C7F800E026602F21D9F80040B9
:1021800000BF00BF00BF00BF00BF00BF00BF00BF57
:1021900044452FD000BF00BF00BF00BF00BF00BF3D
:1021A00000BF00BF00BF00BF00BF00BF00BF00BF37
:1021B00000BF00BF00BF00BF00BF00BF00BF00BF27
:1021C00000BF00BF00BF00BF00BF00BF00BF00BF17
:1021D00000BF00BF00BF00BF00BF00BF00BF00BF07
:1021E00000BF00BF00BF00BF00BF00BF00BF00BFF7
:1021F00000BF00BF0139C3D12E7062452CBF9A18B1
:1022000003EB0C024D4922F07F43C1F84035D1F871
:102210000425121A1B1A22F07F4223F07F43033257
:102220009A424DD9D1F80435484AC1F84035126870
:1022300047492F2300BF00BF00BF00BF00BF00BF42
:1022400000BF00BF8A422FD000BF00BF00BF00BF49
:1022500000BF00BF00BF00BF00BF00BF00BF00BF86
:1022600000BF00BF00BF00BF00BF00BF00BF00BF76
:1022700000BF00BF00BF00BF00BF00BF00BF00BF66
:1022800000BF00BF00BF00BF00BF00BF00BF00BF56
:1022900000BF00BF00BF00BF00BF00BF00BF00BF46
:1022A00000BF00BF00BF00BF013BC3D1264B4FF4AE
:1022B0000032C3F8002103E0059B002B7FF438AF08
:1022C000244A0023137007B0BDE8F08FDA6942B3E7
:1022D00013464F46D0E6002528462C46A3B1196880
:1022E000B9421BD8DA681C607F1A0844D9693AB130
:1022F00000EB090626F07F46DD619A605E601D46B0
:102300000B460A46002BEAD10B49039301230A60CE
:102310000593039E45E60027BB46F9E5C91B1960F6
:10232000F2E7064B01259D604F4613460292AA46EE
:10233000A2E600BFBC1D0020B01D0020001001401F
:10234000AC1D0020CC1D002000E100E0BC190020E5
:102350000024F400BA1D0020484A494B494D4A4820
:102360004FF480314FF400370124C3F88070C2F875
:1023700048132F23C2F80813546029681D4600BF74
:1023800000BF00BF00BF00BF00BF00BF00BF814251
:102390002FD000BF00BF00BF00BF00BF00BF00BF05
:1023A00000BF00BF00BF00BF00BF00BF00BF00BF35
:1023B00000BF00BF00BF00BF00BF00BF00BF00BF25
:1023C00000BF00BF00BF00BF00BF00BF00BF00BF15
:1023D00000BF00BF00BF00BF00BF00BF00BF00BF05
:1023E00000BF00BF00BF00BF00BF00BF00BF00BFF5
:1023F00000BF013DC3D19460244A166000BF00BFF6
:1024000000BF00BF00BF00BF00BF00BF81422FD090
:1024100000BF00BF00BF00BF00BF00BF00BF00BFC4
:1024200000BF00BF00BF00BF00BF00BF00BF00BFB4
:1024300000BF00BF00BF00BF00BF00BF00BF00BFA4
:1024400000BF00BF00BF00BF00BF00BF00BF00BF94
:1024500000BF00BF00BF00BF00BF00BF00BF00BF84
:1024600000BF00BF00BF00BF00BF00BF00BF00BF74
:10247000013BC3D1064B1E7022E700BF0010014094
:1024800000E100E0BC1900200024F400AC1D002095
:10249000CC1D00202DE9F04F12F0030402D00720DC
:1024A000BDE8F08F002AFAD0614D624EDFF88CC192
:1024B000DFF88C814FF4803E4FF400374FF0010974
:1024C000C6F88070C5F848E32F27C5F808E3C5F8BB
:1024D0000490DCF800C0BE4600BF00BF00BF00BFD4
:1024E00000BF00BF00BF00BFC4452FD000BF00BF6A
:1024F00000BF00BF00BF00BF00BF00BF00BF00BFE4
:1025000000BF00BF00BF00BF00BF00BF00BF00BFD3
:1025100000BF00BF00BF00BF00BF00BF00BF00BFC3
:1025200000BF00BF00BF00BF00BF00BF00BF00BFB3
:1025300000BF00BF00BF00BF00BF00BF00BF00BFA3
:1025400000BF00BF00BF00BF00BF00BFBEF1010E53
:10255000C2D1DFF8F0E0C5F80890CEF8004000BF27
:1025600000BF00BF00BF00BF00BF00BF00BFC44529
:102570002FD000BF00BF00BF00BF00BF00BF00BF23
:1025800000BF00BF00BF00BF00BF00BF00BF00BF53
:1025900000BF00BF00BF00BF00BF00BF00BF00BF43
:1025A00000BF00BF00BF00BF00BF00BF00BF00BF33
:1025B00000BF00BF00BF00BF00BF00BF00BF00BF23
:1025C00000BF00BF00BF00BF00BF00BF00BF00BF13
:1025D00000BF013FC3D1DFF870C0DFF870B0164F05
:1025E000DFF86CA0DFF86C90DFF86C808CF80040AE
:1025F000CBF800304FF4801CC023B9703C707C7065
:10260000CAF8004089F8004088F80040C6F880C148
:1026100086F81433C6F800C0C5F8080586F81133EB
:10262000D5F80435CEF800307A602046BDE8F08F4A
:102630000010014000E100E0BC1D0020BC1900209A
:102640000024F400AC1D0020CC1D0020B41D00208F
:10265000B01D0020B81D0020B91D0020074B5B688D
:1026600023B12AB120B10368187C18B10820704743
:102670000720704759745A61704700BFBC1D002085
:102680002DE9F043274C636883B033B128B10429A6
:1026900007D8072003B0BDE8F083082003B0BDE8E9
:1026A000F0834369002BF8D0054602A86B7C002616
:1026B000012B00F8016D0CBF8946B14690460F46CC
:1026C00000F096F86378A07821785A1CD2B2904234
:1026D00008BF324691421FD003EB43036068DB0022
:1026E000C11819D04FF0010E00F803E00E4B4D60F9
:1026F000D3F804358B609DF80700CF60C1F81090C7
:10270000C1F81480627000F09BF8084B4FF48012FF
:102710003046C3F80021C1E79DF8070000F090F8AB
:102720000420BBE7BC1D00200010014000E100E0D8
:10273000F0B51C4D6B6883B053B348B343693BB3EA
:10274000044602A8002600F8016D267400F050F837
:102750006B78A87829785A1CD2B2904208BF3246CA
:10276000914218D003EB43036968DB00CF1812D005
:102770000220C8547C609DF807006A7000F060F881
:10278000094B4FF480123046C3F8002103B0F0BD6E
:10279000082003B0F0BD9DF8070000F051F80420B8
:1027A000F7E700BFBC1D002000E100E0BFF34F8F42
:1027B0000549064BCA6802F4E0621343CB60BFF3DD
:1027C0004F8F00BFFDE700BF00ED00E00400FA05F9
:1027D00000B585B000230390194644F2010001AA18
:1027E000ADF804300293FFF7E1FF05B05DF804FB9C
:1027F000F0B4EFF3108472B60E4B9A68B2B90E497A
:1028000001259D60D1F880700C4D2E463D401D6025
:10281000C1F88060D1F884505D604FF0FF33C1F89B
:102820008430027004B962B6F0BC704701230370B3
:10283000F8E700BF201E002000E100E0FC06FFBC1E
:10284000094B9A6872B168B910B4EFF3108272B68E
:1028500006491C680C605C684C60986002B962B6FE
:102860005DF8044B704700BF201E002000E100E02F
:1028700048DF704710DF704760DF704761DF7047E7
:10288000FFF794BF2DE9F047DFF8A890264EDFF858
:10289000A880264FD9F80040B4FA84F482B000250D
:1028A00064097DB93378DFF880A063B901A8FFF728
:1028B000DFFF05280AD018B3FFF78AFF4CB10124C7
:1028C0000025EFE7CCB102B0BDE8F087002CFAD1CB
:1028D00001259AF80030002BF5D102A93C68B8F820
:1028E000003021F8043D2046FFF7C8FF052816D028
:1028F00080B1FFF76DFF0024D3E7DFF82CA0E8E7F5
:102900000198FEF731FE0A4B1B68002BD6D00198C8
:102910009847D3E72046D9F800309847EBE7002DD9
:10292000CDD002B0BDE8F087CD1D0020D41D002021
:10293000D81D0020DC1D0020D01D0020014B187880
:10294000704700BFCE1D002011B111F0030F01D060
:1029500007207047F8B51B4F1B4E1C4D1C4C3960AF
:1029600032802B602368DB0708D50125C4F880502E
:102970001849FFF77FFF30B12560F8BD1549FFF713
:1029800079FF00B1F8BD144B01221A70FEF7FEFD6D
:102990000F4A92F816335B09991E052909D8043BA2
:1029A000012B06D90D4B986830B94FF480031360A2
:1029B000F8BD42F20200F8BD1A6842F480021A60C3
:1029C0000020F8BDD41D0020D01D0020E01D0020F7
:1029D00000E100E081280200CE1D0020201E002022
:1029E00008B5094B1B6833B1984700B908BDBDE86D
:1029F0000840FFF7EDBE054B1B78002BF6D0BDE875
:102A00000840FFF73FBF00BFE01D0020CE1D0020A3
:102A100070B5144605460E46104600211C22FCF7F0
:102A200091FD227D2672002363F30002012165726D
:102A30002275A361218005B1A172002070BD00BF85
:102A400000B583B0054B019302A9019B41F8083DF5
:102A5000FFF712FF019B03B05DF804FB3019002063
:102A60000649074A074B9B1A03DD043BC858D05060
:102A7000FBDC00F013F8FCF7F1FC0000EC3F020077
:102A800030190020D0190020FEE7FEE7FEE7FEE740
:102A9000FEE7FEE7FEE7FEE7FEE7FEE7F0B5A44B44
:102AA0001B78062B1AD0A34AD2F8883043F470035F
:102AB000C2F88830BFF34F8FBFF36F8F4FF01023F2
:102AC000D3F80022002AC0F20281D3F80432002B8E
:102AD000C0F2FD80984B994A1A60F0BD984B1B6874
:102AE0001E07E0D1974B1B6803F0F003302B62D038
:102AF000944B1B6803F0F002302A4BD003F0E00344
:102B0000402B47D08F4B1B6803F0F003302B00F0B5
:102B1000CF808C4B1B6803F0F002302A28D003F0E2
:102B2000E003402B24D0874B1B6803F0F003302BCD
:102B300000F0B080834B1B6803F0F003302B00F0F3
:102B40009080804B1B6803F0F003502B37D07D4BF7
:102B50001B6803F0F002302A03D003F0E003402B9F
:102B6000A1D1794B794A1B6803F04F0313609AE7B0
:102B70006F4B1B784FF080420021062BC2F80C11DE
:102B8000C2F81011C2F838158DD16D4B1B681807AB
:102B900089D1C8E76E4B664A1B6812786D49C3F34A
:102BA0004233062A0B607FF47EAF654B1B681D071E
:102BB0007FF479AFA6E7684B684A1A6098E74FF050
:102BC0008052674BD2F80414C3F82015D2F80814C9
:102BD000C3F82415D2F80C14C3F82815D2F8101431
:102BE000C3F82C15D2F81414C3F83015D2F8181401
:102BF000C3F83415D2F81C14C3F84015D2F82014C9
:102C0000C3F84415D2F82414C3F84815D2F8281490
:102C1000C3F84C15D2F82C14C3F85015D2F8301460
:102C2000C3F85415D2F83414C3F86015D2F8381428
:102C3000C3F86415D2F83C14C3F86815D2F84014F0
:102C4000C3F86C15D2F84424C3F87025384B1B78B0
:102C5000062B7FF428AF3A4B1B681B077FF423AF8A
:102C600075E7334B3F4F1A783F4D4048404B4FF08C
:102C7000050E012600243F21062AC7F800E02E6039
:102C8000046019607FF40FAF2D4B1B681A077FF4A7
:102C90000AAF56E7264B374A1B780321062B1160F3
:102CA0007FF401AF264B1B6819077FF4FCAE41E7A8
:102CB000314A1F49D368097823F080730629D3600D
:102CC000C4D11F4B1B681C077FF4EDAE21E72B4BD3
:102CD0000122C3F80425D3F80024002AFBD04FF0CA
:102CE000102315222549C3F80022D1F80034002B07
:102CF000FBD04FF0102315222049C3F80422D1F84D
:102D000000241E4B002AFAD00022C3F80425D3F871
:102D10000024002AFBD0BFF34F8F0649184BCA6826
:102D200002F4E0621343CB60BFF34F8F00BFFDE7B7
:102D3000E00F00F000ED00E0BC1900200090D0038F
:102D4000E40F00F0E80F00F058020010E40E00401D
:102D5000440200103C05004074C007400DF0ADBABD
:102D600000C00040105600408856004018560040F1
:102D700014560040A0050040F0ED00E000E00140E6
:102D80000400FA05D0B52DED048BB0EE409AF0EEBC
:102D9000609A294C8AB000F053F894F90030B0EEF4
:102DA000408AF0EE608A01330FD0B0EE490AF0EEAF
:102DB000690A00F019F940B10026002751EC190BFF
:102DC00032463B4600F06AFD38B9B0EE480AF0EEF4
:102DD000680A0AB0BDEC048BD0BD184B247801936F
:102DE000012200238DED049B8DED029B0092089340
:102DF0006CB9CDE90667684600F024F988B1089BF4
:102E0000A3B99DED060B0AB0BDEC048BD0BD3046D6
:102E1000394632463B4600F0F9FB022CCDE906016B
:102E2000E9D101F075F821230360E8E701F070F8BB
:102E3000089B0360E5E700BFC0190020D83F0200EF
:102E40002DE9F041674955EC104B0E462940B1423F
:102E50002B4610EE100A00F09880002D224677DDF8
:102E60002F1500F08280A7F2FF37C3F31303F90791
:102E700043F4801367D4D10F002601EB43037F1086
:102E80005200B64616204FF400110EEB01049C428E
:102E90004FEAD2754FEA420203DC1B1B04EB010E22
:102EA0000E44013805EB43034FEA5101EDD184464E
:102EB00020254FF000410AE0734521D0D40F013D99
:102EC0004FEA510104EB43034FEA420221D09E45F1
:102ED0000CEB0104F0DA002C04EB010C0ADBF046E9
:102EE000CEEB0303944288BF03F1FF33121B084467
:102EF000C646E3E7BCF1000FF1DB0EF10108EFE796
:102F000094421ED8002C04EB010C4EDB98460023A3
:102F1000ECE7134304D0421C4DD000F001031844E9
:102F200040087110F30701F17F5101F5001148BF0E
:102F300040F0004001EB0753024643EC102BBDE884
:102F4000F0819E46BAE7D10F01EB4303520092E7AE
:102F500025F00041214326D0A5BB2F46D30A153FBB
:102F60005205002BFAD0DC0228D400215B00D802E5
:102F700001F10101FAD5C1F10100C1F1200422FAE9
:102F800004F4234307448A406DE710EE102A2B46D1
:102F9000294600F011FA22462B4600F05BF841EC7E
:102FA000100BBDE8F081BDE8F081BCF1000FA4DAA0
:102FB000F04600239AE701362846B2E72024012094
:102FC0000021DCE710EE100A22462B46294600F0CD
:102FD0003FF802460B4600F019FB41EC100BBDE830
:102FE000F08100BF0000F07F53EC102B10B433F0E1
:102FF000004408D01149A3F58010884208D8042065
:103000005DF8044B70471AB902205DF8044B704715
:1030100003F1FF43094903F5E0038B42EFD9B4F50F
:10302000801F01D20320EBE7054B9C4201D000201A
:10303000E6E7B2FA82F04009E2E700BFFFFFDF7F78
:103040000000F07F0020704781F0004102E000BFE7
:1030500083F0004330B54FEA41044FEA430594EA58
:10306000050F08BF90EA020F1FBF54EA000C55EA93
:10307000020C7FEA645C7FEA655C00F0E2804FEA64
:103080005454D4EB5555B8BF6D420CDD2C4480EA46
:10309000020281EA030382EA000083EA010180EA76
:1030A000020281EA0303362D88BF30BD11F0004FC4
:1030B0004FEA01314FF4801C4CEA113102D04042FA
:1030C00061EB410113F0004F4FEA03334CEA133335
:1030D00002D0524263EB430394EA050F00F0A7804D
:1030E000A4F10104D5F1200E0DDB02FA0EFC22FA48
:1030F00005F2801841F1000103FA0EF2801843FA3C
:1031000005F359410EE0A5F120050EF1200E012A2C
:1031100003FA0EFC28BF4CF0020C43FA05F3C0186A
:1031200051EBE37101F0004507D54FF0000EDCF1E3
:10313000000C7EEB00006EEB0101B1F5801F1BD38C
:10314000B1F5001F0CD349085FEA30004FEA3C0C90
:1031500004F101044FEA445212F5800F80F09A8086
:10316000BCF1004F08BF5FEA500C50F1000041EB8A
:10317000045141EA050130BD5FEA4C0C404141EB8E
:10318000010111F4801FA4F10104E9D191F0000FB5
:1031900004BF01460020B1FA81F308BF2033A3F138
:1031A0000B03B3F120020CDA0C3208DD02F1140C2F
:1031B000C2F10C0201FA0CF021FA02F10CE002F16A
:1031C0001402D8BFC2F1200C01FA02F120FA0CFC63
:1031D000DCBF41EA0C019040E41AA2BF01EB0451AC
:1031E000294330BD6FEA04041F3C1CDA0C340EDCAA
:1031F00004F11404C4F1200220FA04F001FA02F3ED
:1032000040EA030021FA04F345EA030130BDC4F1AA
:103210000C04C4F1200220FA02F001FA04F340EA9F
:103220000300294630BD21FA04F0294630BD94F050
:10323000000F83F4801306BF81F480110134013D37
:103240004EE77FEA645C18BF7FEA655C29D094EAA8
:10325000050F08BF90EA020F05D054EA000C04BF26
:103260001946104630BD91EA030F1EBF0021002011
:1032700030BD5FEA545C05D14000494128BF41F0B0
:10328000004130BD14F580043CBF01F5801130BD14
:1032900001F0004545F0FE4141F470014FF000009F
:1032A00030BD7FEA645C1ABF194610467FEA655C50
:1032B0001CBF0B46024650EA013406BF52EA0335F2
:1032C00091EA030F41F4002130BD00BF90F0000FE0
:1032D00004BF0021704730B54FF4806404F132041C
:1032E0004FF000054FF0000150E700BF90F0000FD5
:1032F00004BF0021704730B54FF4806404F13204FC
:1033000010F0004548BF40424FF000013EE700BFCB
:1033100042004FEAE2014FEA31014FEA02701FBF5B
:1033200012F07F4393F07F4F81F06051704792F02D
:10333000000F14BF93F07F4F704730B54FF46074A7
:1033400001F0004521F0004120E700BF50EA0102F2
:1033500008BF704730B54FF000050AE050EA01029F
:1033600008BF704730B511F0004502D5404261EB0F
:1033700041014FF4806404F132045FEA915C3FF450
:10338000DCAE4FF003025FEADC0C18BF03325FEAE9
:10339000DC0C18BF033202EBDC02C2F1200300FA9E
:1033A00003FC20FA02F001FA03FE40EA0E0021FAC3
:1033B00002F11444C1E600BF70B54FF0FF0C4CF4AD
:1033C000E06C1CEA11541DBF1CEA135594EA0C0F63
:1033D00095EA0C0F00F0DEF82C4481EA030621EA9E
:1033E0004C5123EA4C5350EA013518BF52EA0335D9
:1033F00041F4801143F4801338D0A0FB02CE4FF08B
:103400000005E1FB02E506F00042E0FB03E54FF0BA
:103410000006E1FB03569CF0000F18BF4EF0010EB2
:10342000A4F1FF04B6F5007F64F5407404D25FEAAE
:103430004E0E6D4146EB060642EAC62141EA555161
:103440004FEAC52040EA5E504FEACE2EB4F1FD0CA3
:1034500088BFBCF5E06F1ED8BEF1004F08BF5FEA21
:10346000500E50F1000041EB045170BD06F00046D3
:1034700046EA010140EA020081EA0301B4EB5C0480
:10348000C2BFD4EB0C0541EA045170BD41F4801178
:103490004FF0000E013C00F3AB8014F1360FDEBF9D
:1034A000002001F0004170BDC4F10004203C35DA79
:1034B0000C341BDC04F11404C4F1200500FA05F3FC
:1034C00020FA04F001FA05F240EA020001F000429D
:1034D00021F0004110EBD37021FA04F642EB060113
:1034E0005EEA430E08BF20EAD37070BDC4F10C043D
:1034F000C4F1200500FA04F320FA05F001FA04F201
:1035000040EA020001F0004110EBD37041F10001EC
:103510005EEA430E08BF20EAD37070BDC4F12005F7
:1035200000FA05F24EEA020E20FA04F301FA05F25F
:1035300043EA020321FA04F001F0004121FA04F207
:1035400020EA020000EBD3705EEA430E08BF20EAD7
:10355000D37070BD94F0000F0FD101F00046400011
:1035600041EB010111F4801F08BF013CF7D041EA93
:10357000060195F0000F18BF704703F00046520097
:1035800043EB030313F4801F08BF013DF7D043EA68
:103590000603704794EA0C0F0CEA135518BF95EA1E
:1035A0000C0F0CD050EA410618BF52EA4306D1D1A5
:1035B00081EA030101F000414FF0000070BD50EAC4
:1035C000410606BF1046194652EA430619D094EA4E
:1035D0000C0F02D150EA013613D195EA0C0F05D138
:1035E00052EA03361CBF104619460AD181EA03018C
:1035F00001F0004141F0FE4141F470014FF0000044
:1036000070BD41F0FE4141F4780170BD70B54FF0DE
:10361000FF0C4CF4E06C1CEA11541DBF1CEA13555E
:1036200094EA0C0F95EA0C0F00F0A7F8A4EB050440
:1036300081EA030E52EA03354FEA013100F0888037
:103640004FEA03334FF0805545EA131343EA126300
:103650004FEA022245EA111545EA10654FEA0026B5
:103660000EF000419D4208BF964244F1FD0404F56E
:10367000407402D25B084FEA3202B61A65EB0305CA
:103680005B084FEA32024FF480104FF4002CB6EB87
:10369000020E75EB030E22BFB61A754640EA0C0007
:1036A0005B084FEA3202B6EB020E75EB030E22BF47
:1036B000B61A754640EA5C005B084FEA3202B6EB88
:1036C000020E75EB030E22BFB61A754640EA9C0047
:1036D0005B084FEA3202B6EB020E75EB030E22BF17
:1036E000B61A754640EADC0055EA060E18D04FEAD5
:1036F000051545EA16754FEA06164FEAC30343EA75
:1037000052734FEAC2025FEA1C1CC0D111F4801F41
:103710000BD141EA00014FF000004FF0004CB6E73A
:1037200011F4801F04BF01430020B4F1FD0C88BFD9
:10373000BCF5E06F3FF6AFAEB5EB030C04BFB6EBE4
:10374000020C5FEA500C50F1000041EB045170BDD7
:103750000EF0004E4EEA113114EB5C04C2BFD4EB04
:103760000C0541EA045170BD41F480114FF0000E88
:10377000013C90E645EA060E8DE60CEA135594EA04
:103780000C0F08BF95EA0C0F3FF43BAF94EA0C0F07
:103790000AD150EA01347FF434AF95EA0C0F7FF47C
:1037A00025AF104619462CE795EA0C0F06D152EAD0
:1037B00003353FF4FDAE1046194622E750EA4106B4
:1037C00018BF52EA43067FF4C5AE50EA41047FF4C5
:1037D0000DAF52EA43057FF4EBAE12E74FF0FF3C2A
:1037E00006E000BF4FF0010C02E000BF4FF0010CFB
:1037F0004DF804CD4FEA410C7FEA6C5C4FEA430C74
:1038000018BF7FEA6C5C1BD001B050EA410C0CBFC2
:1038100052EA430C91EA030F02BF90EA020F002024
:10382000704710F1000F91EA030F58BF994208BF8B
:1038300090422CBFD8176FEAE37040F00100704748
:103840004FEA410C7FEA6C5C02D150EA013C07D19F
:103850004FEA430C7FEA6C5CD6D152EA033CD3D0EA
:103860005DF8040B704700BF8446104662468C46E4
:103870001946634600E000BF01B5FFF7B7FF002817
:1038800048BF10F1000F01BD4DF808EDFFF7F4FF40
:103890000CBF012000205DF808FB00BF4DF808EDCB
:1038A000FFF7EAFF34BF012000205DF808FB00BFEE
:1038B0004DF808EDFFF7E0FF94BF012000205DF810
:1038C00008FB00BF4DF808EDFFF7CEFF94BF0120C5
:1038D00000205DF808FB00BF4DF808EDFFF7C4FFBE
:1038E00034BF012000205DF808FB00BF4FEA410211
:1038F00012F5001215D211D56FF47873B3EB625242
:1039000012D94FEAC12343F0004343EA505311F068
:10391000004F23FA02F018BF404270474FF00000FA
:10392000704750EA013005D111F0004008BF6FF038
:10393000004070474FF00000704700BF7BB972B97C
:103940000029BEBF00204FF0004106E008BF00285C
:103950001CBF6FF000414FF0FF3000F053B882B051
:10396000EC462DE9005000F01DF8DDF804E002B04F
:103970000CBC704753B94AB9002908BF00281CBFC6
:103980004FF0FF314FF0FF3000F03CB882B0EC4612
:103990002DE9005000F01EF8DDF804E002B00CBC88
:1039A000704700BF2DE9F041069C154606460F46BC
:1039B000984600F029F805FB01F300FB0838A5FB49
:1039C0000023B21A434467EB0303C4E90023BDE8B4
:1039D000F08100BF2DE9F041069C904606460F4657
:1039E0001D4600F05FF900FB05F5A0FB082308FB6E
:1039F0000155B21A2B4467EB0303C4E90023BDE869
:103A0000F08100BF704700BF00292DE9F043C0F2EC
:103A1000A6800026002BC0F29C80884694469E46D5
:103A2000154604460F46002B3DD18A4259D9B2FAB9
:103A300082F33BB1C3F120029F4020FA02F29D4085
:103A400017439C40290C220CB7FBF1FEA8B201FBE6
:103A50001E7742EA074700FB0EF3BB420AD97F19E3
:103A60000EF1FF3280F00581BB4240F20281AEF1DF
:103A7000020E2F44FF1AA4B2B7FBF1F301FB137738
:103A800044EA074700FB03F0B84208D97F1903F165
:103A9000FF3280F0F080B84240F2ED80023B43EA12
:103AA0000E43002203E08B420FD900221346341C40
:103AB00018BF012460424FF0000565EB45015840F6
:103AC000514000196941BDE8F083B3FA83F2002A3E
:103AD00040F086808B4202D3844500F2DB800123D4
:103AE000E5E712B90123B3FBF2F5B5FA85F000283A
:103AF0003BD1781B4FEA154E1FFA85FC0122B0FB23
:103B0000FEF8210C0EFB180741EA07470CFB08F3EF
:103B1000BB4207D97F1908F1FF3102D2BB4200F244
:103B2000BD808846FF1AA4B2B7FBFEF30EFB1377E5
:103B300044EA07470CFB03FCBC4507D97F1903F196
:103B4000FF3102D2BC4500F2A7800B4643EA08438E
:103B5000ADE752426FEA060663EB43035DE740427E
:103B600061EB41014FF0FF3654E7C0F1200224FA27
:103B700002F107FA00F385404FEA154ED74019438A
:103B8000B7FBFEF20B0C0EFB12771FFA85FC43EA23
:103B900007430CFB02F79F4204FA00F407D95B19B4
:103BA00002F1FF3074D29F4272D9023A2B44DF1BDC
:103BB00089B2B7FBFEF80EFB187341EA03430CFB16
:103BC00008F79F4208D95B1908F1FF315CD29F4288
:103BD0005AD9A8F102082B44D81B48EA02428EE7C2
:103BE000C2F120032CFA03F10EFA02FE20FA03F7C9
:103BF00041EA0E0E08FA02F028FA03F14FEA1E45D8
:103C00003843B1FBF5F8030C05FB18111FFA8EF7CA
:103C100043EA014107FB08F38B420CFA02FC09D985
:103C200011EB0E0108F1FF3930D28B422ED9A8F1E9
:103C300002087144C91A80B2B1FBF5F305FB1311F8
:103C400040EA014107FB03F78F4208D911EB0E014F
:103C500003F1FF3016D28F4214D9023B714443EA7C
:103C60000843C91BA3FB0C89494509D305D0002291
:103C70001DE79646FEE6134611E794404445F6D20A
:103C8000013BF4E70346EAE78846A5E7C846D1E7E3
:103C900002468CE713460AE7023B57E7A8F1020801
:103CA0002F443FE72DE9F041002B44D18A421546CD
:103CB00004464FD9B2FA82F70E464FB1C7F120033E
:103CC000B94020FA03F602FA07F50E4300FA07F4AA
:103CD0004FEA154E230CB6FBFEF0AFB20EFB10619F
:103CE00043EA014307FB00F1994209D95B1900F14E
:103CF000FF3280F0EC80994240F2E98002382B4498
:103D00005A1AA4B2B2FBFEF30EFB132244EA02429B
:103D100007FB03F7974208D9521903F1FF3180F0EE
:103D2000D880974240F2D580023B43EA004000260B
:103D30003146BDE8F0818B4247D8B3FA83F6002EB6
:103D400048D18B4202D3824200F2CD80012031461D
:103D5000BDE8F08112B90125B5FBF2F5B5FA85F899
:103D6000B8F1000F77D14A1B4FEA154EAFB20126CA
:103D7000B2FBFEF0230C0EFB102143EA014107FBCE
:103D800000F38B4207D9491900F1FF3202D28B426E
:103D900000F2BA801046C91AA4B2B1FBFEF30EFBC2
:103DA000131144EA014407FB03F7A74208D9641939
:103DB00003F1FF3280F08F80A74240F28C80023BFB
:103DC00043EA00403146BDE8F081002630463146E6
:103DD000BDE8F081C6F1200422FA04F5B3402B437C
:103DE00020FA04FC01FA06F721FA04F54FEA134E13
:103DF0004CEA0707B5FBFEF8390C0EFB18551FFA05
:103E000083FC41EA05450CFB08F1A94202FA06F2DF
:103E100004D9ED1808F1FF3467D3A0466D1ABFB27C
:103E2000B5FBFEF40EFB145547EA05410CFB04FC00
:103E30008C4504D9C91804F1FF355CD32C4644EAFB
:103E40000844CCEB0101A4FB0223994248D344D09F
:103E5000204600266CE7C8F1200401FA08F305FAB1
:103E600008F520FA04F7E1404FEA154E1F43B1FB75
:103E7000FEF63A0C0EFB16111FFA85FC42EA0143CE
:103E80000CFB06F29A4200FA08F407D95B1906F116
:103E9000FF3137D29A4235D9023E2B449B1ABFB22A
:103EA000B3FBFEF00EFB103347EA03430CFB00F1BB
:103EB000994207D95B1900F1FF3221D299421FD9EB
:103EC00002382B445A1A40EA0646674650E7104625
:103ED00016E70B4629E7134672E7B0409042B7D287
:103EE000601E002624E7304622E7A94295D9A8F1B2
:103EF00002081D4492E78C45A0D9023C19449EE774
:103F00001046DFE70E46C9E70238294443E700BF01
:103F1000014B1868704700BF9019002010B5431E70
:103F20000A44914204D011F8014B03F8014FF8E71D
:103F300010BD0000F8B500BFF8BC08BC9E46704735
:103F4000F8B500BFF8BC08BC9E46704743000000AF
:103F500030190020341C00205C1C0020FFFFFFFFF4
:103F600003FF00000000004000000000003000409F
:103F7000030000004142434445464748494A4B4CF0
:103F80004D4E4F505152535455565758595A6162DD
:103F9000636465666768696A6B6C6D6E6F70717279
:103FA000737475767778797A3031323334353637C1
:103FB0003839212324252628292A2B2C2E2F3A3B39
:103FC0003C3D3E3F405B5D5E5F607B7C7D7E2200D2
:103FD00001000007AAFE0100737172740000000066
:043FE00000000000DD
:083FE40078B4FF7F010000002A
:103FEC0000000000000000000000000000000000C5
:103FFC0000000000000000000000000000000000B5
:10400C004C3F020000000000000000000000000017
:10401C000000000000000000000000000000000094
:10402C000000000000000000000000000000000084
:10403C000000000000000000000000000000000074
:10404C00301900200104000010EE037275752E76F5
:10405C006900000000000000000000007275752E61
:10406C007669230000000000000000000090D003DF
:10407C000100000025F4010001F401000000000023
:0400000320002A614E
:00000001FF
