:020000021000EC
:10F00000000001208D260200B5260200B72602006E
:10F01000B9260200BB260200BD2602000000000047
:10F02000000000000000000000000000BF260200F9
:10F03000C126020000000000C3260200C52602000F
:10F04000FD130200C7260200C7260200C9170200EE
:10F05000C7260200C7260200C7260200C7260200F4
:10F06000C7260200C7260200C7260200C7260200E4
:10F07000C7260200C7260200C7260200C7260200D4
:10F08000C72602003D1A0200C7260200C72602005A
:10F09000011B0200C72602000D260200C72602003F
:10F0A000C7260200C7260200C7260200C7260200A4
:10F0B000C7260200C7260200000000000000000072
:10F0C000C7260200C7260200C7260200C726020084
:10F0D000C7260200C7260200C72602000000000063
:10F0E0000000000000000000000000000000000020
:10F0F0000000000000000000000000000000000010
:10F1000000000000000000000000000000000000FF
:10F1100000000000000000000000000000000000EF
:10F4000010B5054C237833B9044B13B10448AFF35E
:10F4100000800123237010BDC819002000000000E7
:10F4200028300200084B10B51BB108480849AFF35B
:10F4300000800848036803B910BD074B002BFBD0C0
:10F44000BDE81040184700BF00000000283002004F
:10F45000CC190020C419002000000000154B002B1F
:10F4600008BF134B9D46A3F5803A00218B460F46FB
:10F470001348144A121A00F065F80F4B002B00D005
:10F4800098470E4B002B00D0984700200021040025
:10F490000D000D48002802D00C48AFF3008000F0AA
:10F4A0002BF82000290001F0E9F900F011F800BF65
:10F4B0000000080000000120000000000000000023
:10F4C000C8190020EC1D0020000000000000000012
:10F4D00008B5074B044613B10021AFF30080054B7C
:10F4E0001868836A03B19847204600F033F800BFDC
:10F4F00000000000B82F020070B50E4B0E4CE41A4D
:10F50000A41000251E46A54204D056F82530984781
:10F510000135F8E703F042FD084C094BE41AA4104A
:10F5200000251E46A54204D056F8253098470135DF
:10F53000F8E770BDBC190020BC190020C0190020DC
:10F54000BC19002002440346934202D003F8011B79
:10F55000FAE77047FEE700BF002070474FF0804396
:10F56000012210B5C3F8782501F04CF8044608B123
:10F5700002F044FF201C18BF012010BD30B583B03D
:10F580000C460190154608200A211A4A02F068F933
:10F5900068BB00201121184A184B02F091FD18BBDE
:10F5A0002A4601A8012102F06FFED0B94FF40043B2
:10F5B0004FF4FA700021E3FB04014FF47A72002348
:10F5C00003F012FA019C01460022204602F06EFE72
:10F5D000044608B102F012FF201C18BF012003B03E
:10F5E00030BD02F00BFFE1E702F008FFD8E702F0C0
:10F5F00005FFCEE7E4190020941A0020211A02002A
:10F600004FF0A04310B403224FF400344FF4002114
:10F61000C3F84427C3F80845C3F84C27C3F80815B6
:10F6200000205DF8044B70474FF0A043024AC3F836
:10F6300034270020704700BF0C000300002110B5E4
:10F640000A46042000F042FE044600F0B7F808B174
:10F65000012010BD201C18BF012010BDF0B54FF0D7
:10F66000A0444FF40032504BC4F80C251F684F4E95
:10F67000DFF83CE1DFF83CC145000023002D4BD012
:10F68000D4F80425D14301F4003102F40032C4F867
:10F6900008157146C4F80C2500BF00BF00BF00BFAD
:10F6A00000BF00BF00BF00BFB7422FD000BF00BFE8
:10F6B00000BF00BF00BF00BF00BF00BF00BF00BF52
:10F6C00000BF00BF00BF00BF00BF00BF00BF00BF42
:10F6D00000BF00BF00BF00BF00BF00BF00BF00BF32
:10F6E00000BF00BF00BF00BF00BF00BF00BF00BF22
:10F6F00000BF00BF00BF00BF00BF00BF00BF00BF12
:10F7000000BF00BF00BF00BF00BF00BF0139C3D1B1
:10F710000133DBB2AB42B3DB634600BF00BF00BFC7
:10F7200000BF00BF00BF00BF00BFB7422FD000BF67
:10F7300000BF00BF00BF00BF00BF00BF00BF00BFD1
:10F7400000BF00BF00BF00BF00BF00BF00BF00BFC1
:10F7500000BF00BF00BF00BF00BF00BF00BF00BFB1
:10F7600000BF00BF00BF00BF00BF00BF00BF00BFA1
:10F7700000BF00BF00BF00BF00BF00BF00BF00BF91
:10F7800000BF00BF00BF00BF00BF00BF00BF013B04
:10F79000C3D100287FF471AF4FF0A0434FF4003283
:10F7A000C3F80825F0BD00BFB81900200024F400FC
:10F7B00090D00300C0C62D00704700BF70B582B066
:10F7C00000F022FEB0B10024D023684601AA022135
:10F7D0008DF80030ADF804408DF8014000F01AFEBD
:10F7E0009DF80530054D602B2C7018BF082007D000
:10F7F00002B070BD00F0C4FDE5E700BFA41D00200D
:10F80000012319460448054A2B7002F03DFD0028EB
:10F8100040F02A8204E000BFBC2F0200B9F70100CB
:10F8200000248823022101AA68468DF80030ADF833
:10F8300004408DF8014000F0EDFD9DF80560AE82BA
:10F840008923022101AA68468DF800308DF8014015
:10F85000ADF8044000F0DEFD9DF80520AB8A8DF880
:10F86000014043EA02238A26022101AA6846AB82AC
:10F870008DF80060ADF8044000F0CCFD9DF8056007
:10F88000EE828B23022101AA68468DF800308DF8A4
:10F890000140ADF8044000F0BDFD9DF80520EB8A65
:10F8A0008DF8014043EA02238C26022101AA684612
:10F8B000EB828DF80060ADF8044000F0ABFD9DF8E0
:10F8C00005602E838D23022101AA68468DF8003041
:10F8D0008DF80140ADF8044000F09CFD9DF8052036
:10F8E0002B8B8DF8014043EA02238E26022101AAC8
:10F8F00068462B838DF80060ADF8044000F08AFD67
:10F900009DF805606E838F23022101AA68468DF859
:10F9100000308DF80140ADF8044000F07BFD9DF80B
:10F9200005206B8B8DF8014043EA022390260221CB
:10F9300001AA68466B838DF80060ADF8044000F0C2
:10F9400069FD9DF80560AE839123022101AA6846F6
:10F950008DF800308DF80140ADF8044000F05AFDFC
:10F960009DF80520AB8B8DF8014043EA02239226D7
:10F97000022101AA6846AB838DF80060ADF804400F
:10F9800000F048FD9DF80560EE839323022101AA53
:10F9900068468DF800308DF80140ADF8044000F065
:10F9A00039FD9DF80520EB8B8DF8014043EA0223D9
:10F9B0009426022101AA6846EB838DF80060ADF819
:10F9C000044000F027FD9DF805602E849523022158
:10F9D00001AA68468DF800308DF80140ADF804406A
:10F9E00000F018FD9DF805202B8C8DF8014043EAAE
:10F9F00002239626022101AA68462B848DF8006016
:10FA0000ADF8044000F006FD9DF805606E84972374
:10FA1000022101AA68468DF800308DF80140ADF84A
:10FA2000044000F0F7FC9DF805206B8C8DF8014038
:10FA300043EA02239826022101AA68466B848DF8C6
:10FA40000060ADF8044000F0E5FC9DF80560AE8470
:10FA50009923022101AA68468DF800308DF80140F3
:10FA6000ADF8044000F0D6FC9DF80520AB8C8DF875
:10FA7000014043EA02239A26022101AA6846AB8488
:10FA80008DF80060ADF8044000F0C4FC9DF80560FE
:10FA9000EE849B23022101AA68468DF800308DF880
:10FAA0000140ADF8044000F0B5FC9DF80520EB8C5A
:10FAB0008DF8014043EA02239C26022101AA6846F0
:10FAC000EB848DF80060ADF8044000F0A3FC9DF8D5
:10FAD00005602E859D23022101AA68468DF800301D
:10FAE0008DF80140ADF8044000F094FC9DF805202D
:10FAF0002B8D8DF8014043EA02239E26022101AAA4
:10FB000068462B858DF80060ADF8044000F082FC5B
:10FB10009DF805606E859F23022101AA68468DF835
:10FB200000308DF80140ADF8044000F073FC9DF802
:10FB300005206B8D8DF8014043EA0223A1260221A6
:10FB400001AA68466B858DF80060ADF8044000F0AE
:10FB500061FC9DF8056085F82C60E123022101AA73
:10FB600068468DF800308DF80140ADF8044000F093
:10FB700051FC9DF80560EE85E223022101AA68464A
:10FB80008DF800308DF80140ADF8044000F042FCE3
:10FB90009DF80520EB8D8DF8014043EA0223E32612
:10FBA000022101AA6846EB858DF80060ADF804409B
:10FBB00000F030FC9DF8056085F83060E4230221F8
:10FBC00001AA68468DF800308DF80140ADF8044078
:10FBD00000F020FC9DF805308DF801401B01E52662
:10FBE000022101AA68466B868DF80060ADF80440DA
:10FBF00000F010FC9DF805306A8E8DF8006003F06F
:10FC00000F031343022101AA68466B868DF8014059
:10FC1000ADF8044000F0FEFB9DF805308DF8014082
:10FC20001B09E626022101AA6846AB868DF8006012
:10FC3000ADF8044000F0EEFB9DF80510AB8E8DF89A
:10FC4000014043EA0113684601AAE7260221AB8678
:10FC5000ADF804408DF8006000F0DCFB9DF8053045
:10FC600085F836302046C3E502F0C8FBD8E500BF72
:10FC700010B582B000248DF801007223684602217D
:10FC800001AAADF804408DF8003000F0C3FBA0429B
:10FC900014BF1020204602B010BD00BF30B583B0A5
:10FCA0000024054601AAF42368460221ADF8044069
:10FCB0008DF801408DF8003000F0ACFB9DF8053068
:10FCC000ADF8044003F01F0343EA4513684601AA58
:10FCD000742402218DF801308DF8004000F09AFB69
:10FCE000002814BF1020002003B030BD30B583B011
:10FCF0000024054601AAF42368460221ADF8044019
:10FD00008DF801408DF8003000F084FB9DF805303F
:10FD1000ADF8044023F01C0343EA8503684601AABA
:10FD2000742402218DF801308DF8004000F072FB40
:10FD3000002814BF1020002003B030BDF0B585B0FE
:10FD40000DF107050DF10F07F72400266846022183
:10FD500001AA8DF80040ADF804608DF8016000F054
:10FD600059FB9DF8053005F8013F0134BD42E4B26E
:10FD7000ECD19DF80D109DF80A209DF80CE09DF83F
:10FD800009309DF80B709DF80E609DF80F409DF8AE
:10FD9000085009481209090941EA0E1142EA031301
:10FDA00043EA053341EA073204EB062182604160F1
:10FDB000C360002005B0F0BDA41D002070B582B066
:10FDC0000646F423002501AA684602218DF800307A
:10FDD000ADF804508DF8015000F01CFB9DF8053083
:10FDE000012E03F0FC0346EA030427D01ED3032EA2
:10FDF00002D0102002B070BD2A461A484FF40041CC
:10FE000002F054FAB8B900257423684601AA022109
:10FE10008DF80140ADF804508DF8003000F0FAFA8A
:10FE2000A8420CBF2846102002B070BD0D4802F059
:10FE300095FA0028E7D002F0E1FAE4E7FFF77EFF49
:10FE40007423684601AA0221ADF804508DF80140E0
:10FE50008DF8003000F0DEFA00280CBF00201020E2
:10FE600002B070BD2C1C002030B40E4CA568A08AD6
:10FE7000B4F91810B4F91630C0EB251202FB02F2E7
:10FE800012134000C0EBE50001FB02F203FB00F09F
:10FE9000921302EBE02303EB830080302361001216
:10FEA00030BC7047A41D00202DE9F04F784C266926
:10FEB000628CB4F91C00E368B4F824C087B0F7176B
:10FEC000B6F5FA3647F1FF370292B4F91E200593D2
:10FED000A6FB06AB06FB07F30BEB430BC117D317CF
:10FEE0000AFB03FE06FB01F500FB075502FB0BEEC8
:10FEF000A6FB0001AAFB0223734429444FEA1228FF
:10FF000048EA03684FEA232902030B0312EB0802B5
:10FF100043EA1053B4F81A8043EB0903003243F567
:10FF20000043A2FB080108FB03114B100093CB1701
:10FF30000193DDE9002352EA0305218C00F0A38040
:10FF4000BDF908804FEAE87906FB09F0A6FB082313
:10FF500008FB0700C518CDE902230395DDE902235C
:10FF60000FFA8CF60598F717C0F580150AFB07FE07
:10FF70004FEA434906FB0BEE49EAD239AAFB066772
:10FF80000AB2AA4602994FEAE57BCDE902AB4FEAF5
:10FF90004148039B16EB080677444FF0000047EBFF
:10FFA00009074FEAC57A80194FEAC2014FEAC37BBD
:10FFB0004BEA550B7941BAEB00006BEB010110EBFA
:10FFC000000841EB010918EB000849EB01094FEA71
:10FFD00089174FEA881647EA986718EB060849EB35
:10FFE00007094FEA89054FEA880645EA987516EB36
:10FFF000000845EB01094FEA88064FEA8905801998
:020000022000DC
:1000000045EA9875DDE90023694102F0D1FCB4F9B5
:100010002A20B4F928804E13450B45EAC14502FB5E
:1000200006F7D31705FB0377A2FB05233B4405FB2B
:1000300003F34FEAE87906FB0236A5FB022300FB37
:1000400009F5334408FB0155560EA0FB0889A94465
:1000500046EAC3164FEAD84A80194FEA63674AEA6C
:10006000493A79414FEAE94B1AEB000AB4F92620E4
:100070004BEB010B4FEA1A2040EA0B6012011044CF
:1000800007B0BDE8F08F002007B0BDE8F08F00BFDB
:10009000A41D0020F0B51F48056990F8302090F9A4
:1000A0003640B0F932E04368B0F93470B0F92E1040
:1000B00090F82C60A5F5963502FB05F204FB05F0DF
:1000C000D21202F50044821204FB02F24FEA0E50F3
:1000D0009212C0EB833302F5001207FB153301FBCC
:1000E00002F203F5804302F500529213DB1302FB88
:1000F00003F3D81300FB00F0C01106FB00F0A3EBE4
:10010000201020EAE070B0F1C85FA8BF4FF0C850DF
:100110000013F0BDA41D002030B585B0002300936E
:10012000ADF804308DF806300293ADF80C308DF840
:100130000E300324E8256846072102AA8DF80050F6
:1001400000F09EF9012804F1FF3304D113F0FF04FD
:10015000F1D105B030BD0028FBD10DF10901062217
:10016000064802F00FFF064B064A1B68012111707A
:10017000002BEED0984705B030BD00BF741C0020A6
:100180004C1C0020501C00202DE9F0414A4B4B4AEA
:100190001B7805460021180182B0C6B21170042DEB
:1001A0004ED8DFE805F0646C755B030000273B4622
:1001B000002120228DF80530ADF800108DF80420C4
:1001C000032401A802216A4600F05AF9012804F12B
:1001D000FF346AD114F0FF04F3D14FF0100800226D
:1001E00023238DF80560ADF800208DF8043003243A
:1001F00001A802216A4600F043F9012804F1FF3307
:100200004ED113F0FF04F3D110242D4B44EA08041F
:100210001D70C7B14FF400434FF4FA700021E3FBA7
:1002200007014FF47A72002302F0DEFB0022014640
:10023000244802F03BF858B9204602B0BDE8F081EE
:100240001F4B10241D701F4802F088F80028F3D0BF
:1002500002F0D4F8204602B0BDE8F08101271A4A26
:1002600007FA03F3137046F008069723A0E7042269
:10027000154902FA03F30B700A27572398E7042263
:10028000114902FA03F30B704FF47A7717238FE7C3
:1002900010220D4902FA03F30B7001278F2387E721
:1002A00000280CBF00241024AFE700280CBF4FF03B
:1002B00000084FF0100892E7511C0020501C00204D
:1002C00091190020541C002090190020F0B5244BF7
:1002D00087B007460E461A6000F096F848B32148EA
:1002E000214A012101F0D0FF30BB00238DF80430FA
:1002F0000293ADF80C308DF80E300493ADF8143045
:100300008DF816300324CF2502A8022104AA8DF807
:10031000085000F0B5F8012804F1FF3316D113F0AE
:10032000FF04F1D19DF80430332B08D0102007B022
:10033000F0BD00F025F8D2E702F060F8D5E73846C6
:10034000FFF722FF094B1E7007B0F0BD0028E9D16E
:1003500001A80DF11101012202F014FEE2E700BF35
:100360004C1C0020C02F020019010200511C00206B
:100370003EDF7047014B01221A707047DC1D0020E0
:100380002DE9F0471B4B0FCB84B04FF0A0444FF04A
:10039000080E03274FF480764FF01D0A4FF01C091A
:1003A0004FF019084FF0804C8DE80F008DF800A039
:1003B0008DF802908DF80180CDF808C06946C4F828
:1003C00018E50D48C4F80C770C4AC4F808E5C4F8E1
:1003D0001865C4F82077C4F8086501F0BDF808B1C5
:1003E00002F00CF80649074A01230B70137004B0A1
:1003F000BDE8F087C42F0200D42F0200750302006D
:10040000DC1D00207A1C0020014B1878704700BFCB
:100410007A1C002058B352B3F0B5174C237883B040
:1004200013B34FF0A0460D46134608270022227052
:100430000146C6F80C752A461048009501F020F9CF
:1004400038B101F0DBFF237833B9FFF791FF0028C3
:10045000F7D12378002BF8D04FF0A04308220020DA
:10046000C3F8082503B0F0BD012003B0F0BD024B76
:1004700001201B78704700BFDC1D0020D42F020034
:1004800040B33AB3F0B5174C237883B0FBB14FF0CB
:10049000A0460D4613464FF4807700222270014695
:1004A000C6F80C752A4600950F4801F0E9F802E0FD
:1004B000FFF75EFF90B92378002BF9D04FF0A043EF
:1004C0004FF480720020C3F8082503B0F0BD01206E
:1004D00003B0F0BD034B01201B78704701F08EFF85
:1004E000E9E700BFDC1D0020D42F02002DE9F04712
:1004F00092B00C460746164601A83F49412298464D
:1005000002F040FD002C6ED0002319460225012088
:1005100033E00DF1480AD64401F1010A1EF844EC1B
:1005200006F801E0D04541D90DF1480EF44484426B
:100530001CF844CC06F80AC001F1020E59D9F04566
:1005400034D90DF1480CE14401F1030C19F8441CB5
:1005500006F80E10AC424AD9C44527D212A90A4463
:100560000CF1010112F8442C06F80C2003339C42D4
:1005700000F1030005F103051CD98442FA5C88BF31
:1005800017F800E04FEA024288BF02EB0E22AC42AD
:1005900084BF17F805E0724488454FEA924EC2F3D3
:1005A000053CC2F3851902F03F02B2D8012012B017
:1005B000BDE8F087114BA3FB04235B0803EB430367
:1005C000E31A0BD08845F1D92220022B705401F197
:1005D00001020AD09045E9D9B05402314145E5D233
:1005E00000207054E3E72146F8E71146F6E761463C
:1005F000BCE7F446AEE700BFDC2F0200ABAAAAAA14
:1006000077DF704710B5104B1049186888B050223A
:1006100000900023684601F0ADFF90B9002001AAC8
:10062000014602F00BF848B901A802F01FF8044691
:1006300008B101F0E3FE204608B010BD01F0DEFE77
:10064000F2E701F0DBFEE9E7203002007C1C00202D
:1006500010B50420FFF7D4FF044608B101F0CEFE28
:10066000204610BD73DF7047F0B5714A714C95B0EC
:100670000346106801901025EE200322257060705B
:10068000A270002950D004F10B06B34234BF002001
:10069000012003F10802E51CAA428CBF024640F08B
:1006A00001020A2994BF002202F00102002A7BD035
:1006B00043EA0502520777D1A1F10800C0080130D2
:1006C0005A681F68C4F803700128C4F807204FEA6D
:1006D000C00205D09D68DF68C4F80F70C4F80B50E5
:1006E000914221D0A51813F83000E870501C8142C7
:1006F0001ADD185C2871901C814215DD185C687148
:10070000D01C814210DD185CA871101D81420BDDE8
:10071000185CE871501D814206DD0632185C2872B3
:10072000914201DD9B5C6B72CD1C4FF6AA630021E8
:100730003C2205A8ADF80C500494ADF80830FEF743
:1007400001FF00220123062601AD02AC05A81146D7
:100750008DF814208DF81760ADF824308DF84030F6
:100760000A950F9400F01AFC08B101F047FE324CD4
:10077000324D002110222046FEF7E4FE2A780023A5
:1007800003204FF448712070618163602372A3815C
:100790000AB115B0F0BD2046FFF764FF002844D130
:1007A00001232B7015B0F0BD1A78E2700129214A9F
:1007B000BAD0587810710229B6D0987850710329B0
:1007C000B2D0D87890710429AED01879D0710529AB
:1007D000AAD0587910720629A6D0987950720729A4
:1007E000A2D0D879907208299ED0187AD07209299F
:1007F0009AD0587A10730A2996D09A7A62730B2984
:100800000C4A91D0D87A90730C298DD0187BD07374
:100810000D2989D0587B10740E2985D0987B50748F
:100820000F2981D0DB7B93747EE701F0E7FDB7E70A
:100830002430020094190020D01C0020CC1C002081
:1008400032DF70473EDF704708B5094B1B784BB16C
:10085000084B1B680B2B01D9FFF7F2FF064B012257
:100860001A7008BD034A136801331360F2E700BF32
:10087000011D0020201D00201C1D00202DE9F04F2F
:1008800083B0FEF7BDFE4FF0A0424FF40033C2F834
:100890000C350446FEF760FE2044C4B2FEF7C4FEE9
:1008A0002044C4B2FEF75AFE04440420FFF7D0FEF1
:1008B00041F28831754A7648764F774E774DDFF8AA
:1008C000F881FEF75BFE5FFA84FB58445FFA80FB19
:1008D000FEF7B4FE5844C0B2FEF7C0FE4FF0A0428F
:1008E0004FF0010B4FF40033C2F80835584687F833
:1008F00000B0FFF7BDF95846FFF7D0F95846FFF7AB
:10090000F5F95846FFF75AFA4FF0A0424FF400238A
:10091000634C86F800B0C2F80C353378E3B901F0C7
:1009200035F84FF0A043D3F81025920444BF4FF49C
:100930000022C3F80825FFF785FF002840F09680C5
:100940003B78002BE9D04FF0A0434FF40022C3F8CE
:100950000C253378002BE2D04F4B4FF0000B83F87F
:1009600000B0FFF781FA8146FFF79EFA8246FFF753
:1009700091FB0223D9452B707BDB5B464FEA1A21A2
:1009800001F57251303189B2A8FB01E24FEA092921
:100990004FF0640C520988FB09AE0CFB12124FEAAF
:1009A000E979C9EB6E198A1A92B209F4FE49400A34
:1009B00000F0FC0E4FF0000C49EA0303100A6146F8
:1009C0004FEA132AAA808DF805204FF002098DF80E
:1009D000040010223348CDF800C085F801E08DF8FE
:1009E00001E06B808DF802A08DF80090FEF7AAFD63
:1009F00006212C4A08236846FFF778FD72212E2233
:100A000075234FF02F0C4FF0230E2170E270254913
:100A10002548637008224FF0760A4FF06909A370E9
:100A200084F806C084F807E084F804A084F80590F0
:100A300002F0A8FA0120FFF7C1F91C4B6A781B7875
:100A40009A4205D1154B5A88194B1B889A4215D0EA
:100A500013481021FFF708FE144869780170144903
:100A60006A880A80134AAB88138058E701F0C6FCF5
:100A700066E7C9F100094FF400437FE7074B9A8806
:100A80000C4B1B889A42E3D149E700BF490802009A
:100A9000E01C0020011D00201C1D0020041D002062
:100AA000A81900200C1D0020B0190020001D0020F6
:100AB000021D0020241D00201F85EB516DDF7047B3
:100AC00072DF704779DF70477DDF704765DF704701
:100AD000F0B50488012C83B007D0148804F1020E0D
:100AE0009E4505D90C2003B0F0BD072003B0F0BD32
:100AF0000578012D04D1457802352544AB42F1D368
:100B0000023B0F461C1B02A9A4B2054621F8024D68
:100B100007EB0E001646FFF7D7FF0028E3D12B782E
:100B2000022B17D0012B11D023460821FE2BD9D838
:100B30003288581CB8543288013292B23280B9548B
:100B400032880132134433800020CCE76B789C421A
:100B5000EBD2E9E7BDF806309C42E5D30921E5E791
:100B60002DE9F04F85B083460E9D00882C880194B6
:100B7000BDF83C9000284ED000278A46164698467D
:100B80003C4604E0BBF800300134A34226DDDBF82C
:100B9000043053F8240003900DF10B0103A8002248
:100BA000FFF794FF18BB9DF80B30B342EAD10FB3A7
:100BB0002A8893194B4519DC424403A80DF10B0117
:100BC0000127FFF783FF90B92B889DF80B20134472
:100BD0002B80BBF800300134A342D8DCDFB12B8876
:100BE000019A013B9B1A9BB2FF2B12D90C2005B036
:100BF000BDE8F08F2B885A1C334402334B4592B228
:100C0000F4DC2A8008F802A02A88013292B22A80F5
:100C1000D2E708F80230002005B0BDE8F08F00BF31
:100C20002DE9F04700231788138090F82D3086B007
:100C3000144605460E46002B40F0C880AA78002ACC
:100C400040F0F080EA78002A2CD1696899B1DA1C6A
:100C5000BA42097822D80222F254238801339BB287
:100C60000A222380F254238801339BB22380F1545B
:100C70002388013323802B89002B40F0F7802B8AB7
:100C8000002B40F00C812B8B002B40F021812B6A34
:100C9000002B5CD02288911DB94218D90C2006B0D7
:100CA000BDE8F087D91CB942F8D80221F154238855
:100CB00001339BB201212380F15423880B449BB262
:100CC0002380F25423880B449BB22380BDE719880C
:100CD000052940F2C9806FF4486801EB080080B232
:100CE0004FF27D3E704540F2BF805888052840F2A3
:100CF000BB806FF4486C84441FFA8CFCF44540F2CE
:100D0000B3804FF6FF7E714504D0704502D081421A
:100D100000F2AA800521B1542288013292B2122138
:100D20002280B1542288013292B222801988B154B3
:100D30003244090A51702288023292B222805B88C2
:100D4000B35432441B0A53702388023323806B6AE6
:100D5000002B2BD0998820880A1D0244BA429DD8C6
:100D60008A1CFE2A9AD8033131542288013292B269
:100D7000FF212280B1542288013292B22280198848
:100D8000B1543244090A51702088023080B2208068
:100D90009A885AB199680393002965D0304402F0CB
:100DA000F1F8039B22889B881344238095F82C300C
:100DB000002B40F0A680287800283FF470AF28462A
:100DC000314622463B46FFF783FE68E7082F7FF651
:100DD00065AF04A8FFF772FE00287FF460AF238898
:100DE0000822F254238801339BB21B222380F25441
:100DF0002088013080B22080062230440DF111019C
:100E000002F0C0F823889DF8102006339BB212F040
:100E1000FE0218BF01222380F254238801339BB2C3
:100E200023800BE70433BB423FF638AF04A8FFF73B
:100E300049FE00287FF433AF2388BDF8102003213A
:100E4000F154238801339BB219212380F154238864
:100E500001339BB2F1182380100AF25448702388A2
:100E600002339BB22380EDE6072018E705F108085E
:100E700002218DE8900040460A463346FFF770FE97
:100E800000287FF40CAF8DE8900040460621102228
:100E90003346FFF765FE00287FF401AFEFE605F16A
:100EA00010088DE890004046032102223346FFF7E8
:100EB00057FE00287FF4F3AE8DE8900040460721EE
:100EC00010223346FFF74CFE00287FF4E8AEDAE646
:100ED00005F118088DE8900040461421022233469F
:100EE000FFF73EFE00287FF4DAAE8DE89000404622
:100EF000152110223346FFF733FE00287FF4CFAED2
:100F0000C5E6D5F82880B8F1000FADD0B8F80420B8
:100F10000232FE2A3FF6C2AE23884FF000094FF09E
:100F2000160A0132F254238801339BB2238006F85B
:100F300003A0238801339BB22380B8F80020F25429
:100F40003344120A5A70238802339BB22380B8F8C4
:100F50000410F0180A4661B1D8F808301946002B81
:100F600082D002F00FF8B8F80430228813449BB204
:100F7000238009F1010995F82C205FFA89F94A4587
:100F800009EB49087FF617AFAA6A02EB8808B8F8A0
:100F900004200232FE2AC4D980E600BF2DE9F047C2
:100FA00094B01F230D46ADF80E30044600285AD0E9
:100FB000C278530753D590F82D300021ADF80C10AE
:100FC000002B6BD18378002B40F0AB8018460321B7
:100FD00014AE5F1C0233304416FA87F716FA83F614
:100FE0004FF0020E8BB2012100F840ECADF80C304E
:100FF00007F8401C06F8402C6268B2B1D91C1F29C2
:10100000167828D814AF581C9A1C17FA80F03B4465
:1010100017FA82F24FF0020E0A2703F840ECADF8FF
:101020000C1000F8407C02F8406C2389002B40F043
:101030008581238A002B40F09F81238B002B40F079
:10104000B981236A002B00F0D880BDF80C20911DD7
:101050001F2940F28F800C2014B0BDE8F0870720D4
:1010600014B0BDE8F087ADF80C00002D00F004814D
:10107000EB78002BF3D128460CA90DF10E02FFF7F7
:10108000CFFD0028ECD19DF80E300CAA20469DF82B
:101090000C10FFF715FD14B0BDE8F0870CAF384613
:1010A000FFF70CFD0028DBD1BDF80C3014AA03F1CA
:1010B000010C12FA8CFC03F1020E13441FFA8EFE8F
:1010C00004AE4FF008094FF01B0803F8409C0DF1E7
:1010D0003101062206EB0E000CF8408CADF80CE056
:1010E00001F050FFBDF80C209DF83010931D11F059
:1010F000FE019BB240F07C8114A8034403F8401C1D
:10110000D31DA2789BB2ADF80C30002A40F01181BB
:10111000E278002A3FF470AFD91C1F2918469AD8EC
:1011200056E70CAF3846FFF7CDFC002898D1BDF844
:101130000C30BDF83070E278991C0DF1500E581C3F
:1011400089B204AE0EEB03091EFA80F0043306EBFD
:10115000010E4FF0030A4FF019089BB24FEA172C0B
:1011600009F840ACADF80C3000F8408C77548EF89C
:1011700001C0CEE7188805287FF671AF6FF4486C80
:1011800000EB0C06B6B24FF27D37BE427FF667AF7A
:101190005E88052E7FF663AF6FF4486EB6441FFA83
:1011A0008EFEBE457FF65BAF4FF6FF77B84204D0A8
:1011B000BE4202D0B0423FF652AF14A8561C10FAFD
:1011C00086F600EB020E901C80B212274FF0050C41
:1011D0000EF840CCADF80C0006F8407C1F88ADF846
:1011E0000C1004AE3118375404323F0A4F7092B2DB
:1011F0005B88B35432441B0A5370676A9FB3B88844
:10120000BDF80C30811C9A1C56181F2E3FF623AFD8
:10121000FE293FF620AF14AE591C06EB030E16FA5A
:1012200081F192B20330FF260EF8400CADF80C208D
:1012300001F8406C398804AEB018B154090A417005
:101240000433BA8898B2ADF80C0062B1B9680029CD
:101250003FF405AF304401F095FEBDF80C30BA887C
:101260001344ADF80C3094F82C3053B904AE237805
:10127000002B53D13446F8E62B46ADF80E502A46E3
:1012800004E7A76A002F3FF4EAAEB9880231FE29CD
:101290003FF6E1AE9E46BDF80C304FF0000804AEBC
:1012A0004FF0160914AA581C02EB030C12FA80F036
:1012B0009A1C92B201310CF8401CADF80C2000F8D9
:1012C000409C3988B1543244090A51700433B988BA
:1012D0009BB20A46F018ADF80C3079B1BB681946DC
:1012E000002B3FF4BCAE01F04DFEBDF80C30BA88C7
:1012F00094F82CE013449BB2ADF80C3008F10108CF
:101300005FFA88F8F04508EB4802B0D2A76A07EB0D
:101310008207B9880231FE29C4D99CE620463146AD
:1013200003AA1F23FFF7D4FB00287FF499AE3446AD
:101330009BE604331F2B3FF68EAEF3E603AA04F1BF
:10134000080704AE4FF01F0802218DE8040138465B
:1013500033460A46FFF704FC00287FF481AE03AB56
:101360008DE808013846334606211022FFF7F8FBC6
:1013700000287FF475AE5CE603AA04F1100704AE02
:101380004FF01F088DE8040138463346032102223E
:10139000FFF7E6FB00287FF463AE03AB8DE808019E
:1013A0003846334607211022FFF7DAFB00287FF486
:1013B00057AE42E603AA04F1180704AE4FF01F0827
:1013C0008DE804013846334614210222FFF7C8FB9A
:1013D00000287FF445AE03AB8DE80801384633465C
:1013E00015211022FFF7BCFB00287FF439AE28E658
:1013F00014A90B44012103F8401C81E610B51D4BD4
:101400001A6882B0F2B91C4B1A680AB902B010BD52
:1014100000221A601B6801934FF080430222174C90
:101420000199C3F8082323690122A270002BEDD093
:101430001A6822615B68012098472369002BF7D165
:1014400002B010BD00221A601B6800934FF0804369
:1014500001220A4C0099C3F80823A3686270002B8C
:10146000D1D01A68A2605B6800209847A368002B5F
:10147000F7D1C8E70001004004010040281D00200A
:1014800000B1704710B5064CA3683BB11A68A26062
:101490005B6800209847A368002BF7D110BD00BF00
:1014A000281D002010B582B002A80023144C00F8BB
:1014B000013D00F0B3FF237893B9124A6360E36003
:1014C0001068A36010F00100236114D001F04CF803
:1014D00020B94FF080430122C3F81825012323705F
:1014E000E3689DF8070001330122E360A27000F079
:1014F000BDFF02B010BD062100F006F8E6E700BF10
:10150000281D002000E100E0002810B418DB00F1E5
:10151000604303F561434901C9B283F80013C3B2C4
:101520004009800000F1604000F5614003F01F02B7
:1015300001239340C0F8803103605DF8044B70478D
:10154000C3B2044A03F00F0449012244C9B2117620
:10155000E6E700BFFCEC00E0F8B54479474D6401D4
:101560002B191B7E0BB10820F8BD2A510B7B0F787D
:10157000012B4FF0A0464FF0010303FA07F394BF8D
:10158000C6F80C35C6F808350E784FF0A04706F5BA
:10159000E076012347F826304E78FF2E64D006F51A
:1015A000E07EB3404FF0030CC7F80C3547F82EC06F
:1015B0008F78FF2F55D007F5E07E4FF0A0434FF016
:1015C000000C43F82EC0CB78FF2B0FD04FF0010E4C
:1015D0004FF0A04C0EFA03F3CCF80835CB7803F5A6
:1015E000E0734FF0030E4CF823E0CB7890F805E061
:1015F00005EB4E1E8EF81A30036891F800E0C3F830
:1016000008E5C3F80C65C3F810758E68C3F8246547
:101610004E7B0F7B003618BF0126022F27D0032FE9
:101620001CD0012F01D146F00206C3F8546546795B
:101630004F7905EB4616F776E2B104260122C3F88E
:101640000463C3F8002590F904000979FFF75CFFF3
:101650002C440122002022766076F8BD46F0060672
:10166000E3E74FF0FF37AEE74FF0FF36A0E746F075
:101670000406DAE70122C3F80025E9E73C1D002053
:101680002DE9F04145794F4E6D01741984B0677EA4
:101690009DF828E018341FB1112004B0BDE8F08196
:1016A00077591FB14FF0010C84F801C006EB050813
:1016B000C8F8103098F81D3098F81AC0C8F808100B
:1016C00003F0FE036FF34103BCF1FF0F88F80C2019
:1016D00088F814E088F81D3006D001234FF0A044AC
:1016E00003FA0CF3C4F80C35006804230024C0F896
:1016F0000833C0F808417319D0F808C1CDF80CC000
:101700001833DDF80CC01C718AB9DB78C0F81C35C1
:10171000BEF1010F03D97319DB7EC0F81C357FB110
:101720000423C0F80433002004B0BDE8F0810B7836
:10173000C0F81C35012AEBD94B78C0F81C35EEE710
:10174000731919461A7FD0F80831002BFBD0C0F866
:101750000871D0F808310293029B0E7DD0F818353D
:101760009642DBB201F118048DF8073003D90B69FA
:101770009DF807509D5422790D7B0132D2B2531C43
:10178000AB42227111D30E7DB34214D3AA42DAD3F5
:10179000B242D8D3A278FF2A11D001234FF0A04142
:1017A0009340C1F80835002077E78A68D35CC0F819
:1017B0001C350A7FC7E7E378C0F81C35F9E700203D
:1017C0006BE700BF3C1D002030B5224B224A0021B0
:1017D000C3F8081183B0D3F8081101910199107D65
:1017E000D3F81815137FC9B298428DF8031004D9A5
:1017F00011699DF80300C854137F147B1648013308
:10180000DBB2591CA14213771DD3057DA94214D325
:10181000A34216D3AB4214D3817EFF2905D0012306
:101820004FF0A0408B40C0F8083500235376137169
:101830000A481368984703B030BD064BC27EC3F810
:101840001C2503B030BD8268024B525CC3F81C25D6
:1018500003B030BD003000403C1D0020401D002082
:1018600012F0030301D0072070472DE9F0414C1C12
:101870000546DFF83C800B480B4F0C4EDFF834C0B8
:10188000DFF834E088F80030E400A4B214440370B8
:101890003D803180CCF80040CEF800201846BDE8ED
:1018A000F08100BF661D0020641D0020681D00201F
:1018B000671D0020601D00205C1D00202DE9F04701
:1018C0002C4D2B888B4282B00C4603D2092002B0EB
:1018D000BDE8F087064602A84FF0000800F8018D29
:1018E000174600F09BFD244B244A254819781378AD
:1018F0000088DBB2834238BF0133C9B238BF5FFA18
:1019000083F841451FD092F800801378DFF8789073
:10191000DBB283423ABF0133DBB200235FFA88F8BF
:101920009DF80700137000F0A1FDD9F800300FFA00
:1019300088F24FEAC20A43F83270534406B144B900
:1019400000209880C3E79DF8070000F08FFD042079
:10195000BDE70C4B28881B68314600FB0830224647
:1019600001F010FBD9F800309A440020AAF8044096
:10197000ADE700BF641D0020661D0020671D00202C
:10198000681D0020601D00205C1D00202DE9F0472F
:10199000174F184C3A7823789A4226D0DFF85C909B
:1019A000DFF85C80144EDFF85CA03B78D9F80020AB
:1019B0003088D8F80050DBB20FFA83FC02EBCC0180
:1019C00000FB0350898852F83C3098473B78BAF8BE
:1019D0000020DBB29A4203F101038CBFDBB200238B
:1019E0003B703A7823789A42DFD1BDE8F08700BF98
:1019F000661D0020671D0020641D00205C1D002066
:101A0000601D0020681D0020082910B5044602D082
:101A1000002000F0F3FC23686068BDE81040184720
:101A200000B583B08DE80300034A68460821FFF73C
:101A300045FF03B05DF804FB091A02002DE9F041EF
:101A4000274A284B0025C2F84051C2F84451C2F839
:101A50004851C2F84C51C2F80051C2F804511B68F9
:101A60001BB32149D2F804250C68204F141B1A68B7
:101A700024F07F44A242A84609D8197CDE69A41A42
:101A80001544A1B91EB133461A68A242F5D9184BC4
:101A900018491A780B789A421BD01749174A41F80F
:101AA00023504FF48013C2F80031BDE8F081D3F821
:101AB00014C083F810803A689B69604619462AB1C1
:101AC00090470028DED000F099FCDBE71846E0479D
:101AD000D8E7531CDBB2022B08BF00230B70DCE7F6
:101AE00000100140701D00206C1D0020741D00209E
:101AF000781D0020791D0020841D002000E100E0F9
:101B00002DE9F04F884A8949137809788848994225
:101B100087B0D0F8009000F014820133DBB2022BC2
:101B200008BF00231370834A52F82370804A07EBE2
:101B3000090323F07F4313604FF0010B7E4BCDF878
:101B40000C90D3F800807D4B19785B7801931E468A
:101B50007A4B5C6893F802E0794B93F800A0744BE1
:101B60001B680293424643460020BC46B14217D050
:101B700001EB4105013114F83570C9B2714508BF58
:101B80000021022F04EBC50576D0032FEED1002BE8
:101B9000ECD0DA6918741346002AFAD1B142E7D1C1
:101BA0006749029881F800A06149DDF80C9008604F
:101BB000614967460A60BBF1000F40F0A281B8EBB3
:101BC000030218BF0122059203935D461E46584B3F
:101BD000DFF87091D3F800C0574BD3F800A0574BF3
:101BE000D3F804B093F800E09B780293544B1B7831
:101BF000049300274FF0010835B36968A8682C46A4
:101C0000ED69CCEB010222F07F424A4556D8131809
:101C100023606760A76084F81080E761002E7FD0A2
:101C2000316899425CD2304603E0116899425ED235
:101C30001046C2695B1A002AF7D12360E26133467D
:101C4000C4611E46002DD8D1019B9E457CD00EEB71
:101C50004E020BEBC2030EF1010E1BF8322002996B
:101C60005C685FFA8EFE8E4508BF4FF0000E012AB9
:101C700044D033461E46E5E7D5F80490002B3FF4E8
:101C800075AF4B4500F038811F4600E02F46FD69D7
:101C9000002D3FF46BAFA945F8D1B946A9452F46B1
:101CA00000F02A81FD693F68C9F81C50002D3FF4FF
:101CB0005DAF2B683B442B60134657E7C1EB0C012B
:101CC00021F07F41814202D2431A2360A1E72760BD
:101CD0006760A76084F81080E7610EB33168002365
:101CE000CB1A33602346E661A2461E46AAE7C91A0C
:101CF00011602360E2613346C461A2E7227C002ABE
:101D0000B7D199686160D868A0601A69E2605B69C0
:101D1000A361049B002B3FF474AF6560294670E714
:101D20002346A2461E468DE7781D0020791D00201F
:101D30006C1D0020841D0020701D00207C1D0020D3
:101D40007A1D0020FEFF7F00854B83F800E0854B65
:101D5000C3F800A0039BB34200F0C480002E00F043
:101D60001181814C814BD4F804051B68804DD6F855
:101D700000C02978C21A22F07F420332002952D1D2
:101D80007C4FDFF8F491DFF8F4814FF480314FF4A9
:101D9000003E0126C4F84413C4F80413C7F880E1D8
:101DA000C7F800E026602F21D9F8004000BF00BF2F
:101DB00000BF00BF00BF00BF00BF00BF44452FD021
:101DC00000BF00BF00BF00BF00BF00BF00BF00BF1B
:101DD00000BF00BF00BF00BF00BF00BF00BF00BF0B
:101DE00000BF00BF00BF00BF00BF00BF00BF00BFFB
:101DF00000BF00BF00BF00BF00BF00BF00BF00BFEB
:101E000000BF00BF00BF00BF00BF00BF00BF00BFDA
:101E100000BF00BF00BF00BF00BF00BF00BF00BFCA
:101E20000139C3D12E7062452CBF9A1803EB0C0206
:101E30004D4922F07F43C1F84035D1F80425121AEC
:101E40001B1A22F07F4223F07F4303329A424DD97E
:101E5000D1F80435484AC1F84035126847492F2364
:101E600000BF00BF00BF00BF00BF00BF00BF00BF7A
:101E70008A422FD000BF00BF00BF00BF00BF00BF1D
:101E800000BF00BF00BF00BF00BF00BF00BF00BF5A
:101E900000BF00BF00BF00BF00BF00BF00BF00BF4A
:101EA00000BF00BF00BF00BF00BF00BF00BF00BF3A
:101EB00000BF00BF00BF00BF00BF00BF00BF00BF2A
:101EC00000BF00BF00BF00BF00BF00BF00BF00BF1A
:101ED00000BF00BF013BC3D1264B4FF40032C3F813
:101EE000002103E0059B002B7FF438AF244A002338
:101EF000137007B0BDE8F08FDA6942B313464F465E
:101F0000D0E6002528462C46A3B11968B9421BD853
:101F1000DA681C607F1A0844D9693AB100EB0906F7
:101F200026F07F46DD619A605E601D460B460A46DC
:101F3000002BEAD10B49039301230A600593039E0A
:101F400045E60027BB46F9E5C91B1960F2E7064BD9
:101F500001259D604F4613460292AA46A2E600BFA5
:101F60007C1D0020701D0020001001406C1D002011
:101F70008C1D002000E100E0B81900200024F400CE
:101F80007A1D0020484A494B494D4A484FF4803158
:101F90004FF400370124C3F88070C2F848132F2390
:101FA000C2F80813546029681D4600BF00BF00BF77
:101FB00000BF00BF00BF00BF00BF81422FD000BFE5
:101FC00000BF00BF00BF00BF00BF00BF00BF00BF19
:101FD00000BF00BF00BF00BF00BF00BF00BF00BF09
:101FE00000BF00BF00BF00BF00BF00BF00BF00BFF9
:101FF00000BF00BF00BF00BF00BF00BF00BF00BFE9
:1020000000BF00BF00BF00BF00BF00BF00BF00BFD8
:1020100000BF00BF00BF00BF00BF00BF00BF013D49
:10202000C3D19460244A166000BF00BF00BF00BF48
:1020300000BF00BF00BF00BF81422FD000BF00BF64
:1020400000BF00BF00BF00BF00BF00BF00BF00BF98
:1020500000BF00BF00BF00BF00BF00BF00BF00BF88
:1020600000BF00BF00BF00BF00BF00BF00BF00BF78
:1020700000BF00BF00BF00BF00BF00BF00BF00BF68
:1020800000BF00BF00BF00BF00BF00BF00BF00BF58
:1020900000BF00BF00BF00BF00BF00BF013BC3D1F6
:1020A000064B1E7022E700BF0010014000E100E077
:1020B000B81900200024F4006C1D00208C1D0020A5
:1020C0002DE9F04F12F0030402D00720BDE8F08F95
:1020D000002AFAD0614D624EDFF88CC1DFF88C81A6
:1020E0004FF4803E4FF400374FF00109C6F880707E
:1020F000C5F848E32F27C5F808E3C5F80490DCF8D5
:1021000000C0BE4600BF00BF00BF00BF00BF00BF91
:1021100000BF00BFC4452FD000BF00BF00BF00BF3D
:1021200000BF00BF00BF00BF00BF00BF00BF00BFB7
:1021300000BF00BF00BF00BF00BF00BF00BF00BFA7
:1021400000BF00BF00BF00BF00BF00BF00BF00BF97
:1021500000BF00BF00BF00BF00BF00BF00BF00BF87
:1021600000BF00BF00BF00BF00BF00BF00BF00BF77
:1021700000BF00BF00BF00BFBEF1010EC2D1DFF83B
:10218000F0E0C5F80890CEF8004000BF00BF00BFE7
:1021900000BF00BF00BF00BF00BFC4452FD000BFBD
:1021A00000BF00BF00BF00BF00BF00BF00BF00BF37
:1021B00000BF00BF00BF00BF00BF00BF00BF00BF27
:1021C00000BF00BF00BF00BF00BF00BF00BF00BF17
:1021D00000BF00BF00BF00BF00BF00BF00BF00BF07
:1021E00000BF00BF00BF00BF00BF00BF00BF00BFF7
:1021F00000BF00BF00BF00BF00BF00BF00BF013F66
:10220000C3D1DFF870C0DFF870B0164FDFF86CA0F4
:10221000DFF86C90DFF86C808CF80040CBF8003071
:102220004FF4801CE023B9703C707C70CAF8004009
:1022300089F8004088F80040C6F880C186F8143359
:10224000C6F800C0C5F8080586F81133D5F804357E
:10225000CEF800307A602046BDE8F08F00100140D3
:1022600000E100E07C1D0020B81900200024F400EB
:102270006C1D00208C1D0020741D0020701D00208E
:10228000781D0020791D0020074B5B6823B12AB11F
:1022900020B10368187C18B10820704707207047E8
:1022A00059745A61704700BF7C1D00202DE9F0432E
:1022B000274C636883B033B128B1042907D80720BD
:1022C00003B0BDE8F083082003B0BDE8F0834369A4
:1022D000002BF8D0054602A86B7C0026012B00F8E5
:1022E000016D0CBF8946B14690460F4600F096F846
:1022F0006378A07821785A1CD2B2904208BF324647
:1023000091421FD003EB43036068DB00C11819D072
:102310004FF0010E00F803E00E4B4D60D3F804358A
:102320008B609DF80700CF60C1F81090C1F8148051
:10233000627000F09BF8084B4FF480123046C3F8EF
:102340000021C1E79DF8070000F090F80420BBE7EA
:102350007C1D00200010014000E100E0F0B51C4DA4
:102360006B6883B053B348B343693BB3044602A8D8
:10237000002600F8016D267400F050F86B78A878FC
:1023800029785A1CD2B2904208BF3246914218D0E6
:1023900003EB43036968DB00CF1812D00220C85456
:1023A0007C609DF807006A7000F060F8094B4FF4FC
:1023B00080123046C3F8002103B0F0BD082003B0FE
:1023C000F0BD9DF8070000F051F80420F7E700BFCA
:1023D0007C1D002000E100E0BFF34F8F0549064B54
:1023E000CA6802F4E0621343CB60BFF34F8F00BFB3
:1023F000FDE700BF00ED00E00400FA0500B585B080
:1024000000230390194644F2010001AAADF80430FC
:102410000293FFF7E1FF05B05DF804FBF0B4EFF3C2
:10242000108472B60E4B9A68B2B90E4901259D60B0
:10243000D1F880700C4D2E463D401D60C1F8806083
:10244000D1F884505D604FF0FF33C1F884300270E2
:1024500004B962B6F0BC704701230370F8E700BF0F
:10246000E01D002000E100E0FC06FFBC094B9A687B
:1024700072B168B910B4EFF3108272B606491C68E5
:102480000C605C684C60986002B962B65DF8044B01
:10249000704700BFE01D002000E100E048DF70470A
:1024A00010DF704760DF704761DF7047FFF794BF50
:1024B0002DE9F047DFF8A890264EDFF8A880264FD8
:1024C000D9F80040B4FA84F482B0002564097DB9DB
:1024D0003378DFF880A063B901A8FFF7DFFF052894
:1024E0000AD018B3FFF78AFF4CB101240025EFE7AB
:1024F000CCB102B0BDE8F087002CFAD101259AF8E2
:102500000030002BF5D102A93C68B8F8003021F862
:10251000043D2046FFF7C8FF052816D080B1FFF71D
:102520006DFF0024D3E7DFF82CA0E8E70198FEF761
:10253000A7FF0A4B1B68002BD6D001989847D3E71A
:102540002046D9F800309847EBE7002DCDD002B0F7
:10255000BDE8F0878D1D0020941D0020981D0020EF
:102560009C1D0020901D0020014B1878704700BF73
:102570008E1D002011B111F0030F01D0072070470C
:10258000F8B51B4F1B4E1C4D1C4C396032802B6024
:102590002368DB0708D50125C4F880501849FFF7E8
:1025A0007FFF30B12560F8BD1549FFF779FF00B115
:1025B000F8BD144B01221A70FEF774FF0F4A92F80F
:1025C00016335B09991E052909D8043B012B06D94E
:1025D0000D4B986830B94FF480031360F8BD42F298
:1025E0000200F8BD1A6842F480021A600020F8BDAB
:1025F000941D0020901D0020A01D002000E100E09F
:10260000AD2402008E1D0020E01D002008B5094BFE
:102610001B6833B1984700B908BDBDE80840FFF713
:10262000EDBE054B1B78002BF6D0BDE80840FFF748
:102630003FBF00BFA01D00208E1D002070B51446B6
:1026400005460E46104600211C22FCF77BFF227D2A
:102650002672002363F30002012165722275A361D3
:10266000218005B1A172002070BD00BF00B583B00C
:10267000054B019302A9019B41F8083DFFF712FFAA
:10268000019B03B05DF804FB301900200649074A9E
:10269000074B9B1A03DD043BC858D050FBDC00F00D
:1026A00013F8FCF7DBFE0000343002003019002084
:1026B000C8190020FEE7FEE7FEE7FEE7FEE7FEE7BB
:1026C000FEE7FEE7FEE7FEE7F0B5A44B1B78062B1E
:1026D0001AD0A34AD2F8883043F47003C2F8883085
:1026E000BFF34F8FBFF36F8F4FF01023D3F800224B
:1026F000002AC0F20281D3F80432002BC0F2FD8020
:10270000984B994A1A60F0BD984B1B681E07E0D1A0
:10271000974B1B6803F0F003302B62D0944B1B687F
:1027200003F0F002302A4BD003F0E003402B47D0F7
:102730008F4B1B6803F0F003302B00F0CF808C4BE5
:102740001B6803F0F002302A28D003F0E003402B8E
:1027500024D0874B1B6803F0F003302B00F0B080CF
:10276000834B1B6803F0F003302B00F09080804B0C
:102770001B6803F0F003502B37D07D4B1B6803F030
:10278000F002302A03D003F0E003402BA1D1794BB3
:10279000794A1B6803F04F0313609AE76F4B1B786D
:1027A0004FF080420021062BC2F80C11C2F8101124
:1027B000C2F838158DD16D4B1B68180789D1C8E751
:1027C0006E4B664A1B6812786D49C3F34233062A82
:1027D0000B607FF47EAF654B1B681D077FF479AFFC
:1027E000A6E7684B684A1A6098E74FF08052674B3B
:1027F000D2F80414C3F82015D2F80814C3F824152D
:10280000D2F80C14C3F82815D2F81014C3F82C15FC
:10281000D2F81414C3F83015D2F81814C3F83415CC
:10282000D2F81C14C3F84015D2F82014C3F844158C
:10283000D2F82414C3F84815D2F82814C3F84C155C
:10284000D2F82C14C3F85015D2F83014C3F854152C
:10285000D2F83414C3F86015D2F83814C3F86415EC
:10286000D2F83C14C3F86815D2F84014C3F86C15BC
:10287000D2F84424C3F87025384B1B78062B7FF41C
:1028800028AF3A4B1B681B077FF423AF75E7334B28
:102890003F4F1A783F4D4048404B4FF0050E012600
:1028A00000243F21062AC7F800E02E60046019606A
:1028B0007FF40FAF2D4B1B681A077FF40AAF56E762
:1028C000264B374A1B780321062B11607FF401AF9A
:1028D000264B1B6819077FF4FCAE41E7314A1F49BC
:1028E000D368097823F080730629D360C4D11F4BC5
:1028F0001B681C077FF4EDAE21E72B4B0122C3F8C8
:102900000425D3F80024002AFBD04FF01023152211
:102910002549C3F80022D1F80034002BFBD04FF03A
:10292000102315222049C3F80422D1F800241E4B9D
:10293000002AFAD00022C3F80425D3F80024002A84
:10294000FBD0BFF34F8F0649184BCA6802F4E06210
:102950001343CB60BFF34F8F00BFFDE7E00F00F0E4
:1029600000ED00E0B81900200090D003E40F00F063
:10297000E80F00F058020010E40E0040440200107E
:102980003C05004074C007400DF0ADBA00C00040E7
:10299000105600408856004018560040145600401B
:1029A000A0050040F0ED00E000E001400400FA0561
:1029B0007BB972B90029BEBF00204FF0004106E08C
:1029C00008BF00281CBF6FF000414FF0FF3000F03F
:1029D00053B882B0EC462DE9005000F01DF8DDF848
:1029E00004E002B00CBC704753B94AB9002908BFD3
:1029F00000281CBF4FF0FF314FF0FF3000F03CB813
:102A000082B0EC462DE9005000F01EF8DDF804E03D
:102A100002B00CBC704700BF2DE9F041069C154682
:102A200006460F46984600F029F805FB01F300FB27
:102A30000838A5FB0023B21A434467EB0303C4E93B
:102A40000023BDE8F08100BF2DE9F041069C9046CF
:102A500006460F461D4600F05FF900FB05F5A0FB9A
:102A6000082308FB0155B21A2B4467EB0303C4E9A2
:102A70000023BDE8F08100BF704700BF00292DE9A9
:102A8000F043C0F2A6800026002BC0F29C8088464E
:102A900094469E46154604460F46002B3DD18A4279
:102AA00059D9B2FA82F33BB1C3F120029F4020FA18
:102AB00002F29D4017439C40290C220CB7FBF1FE0B
:102AC000A8B201FB1E7742EA074700FB0EF3BB42A8
:102AD0000AD97F190EF1FF3280F00581BB4240F226
:102AE0000281AEF1020E2F44FF1AA4B2B7FBF1F33C
:102AF00001FB137744EA074700FB03F0B84208D90B
:102B00007F1903F1FF3280F0F080B84240F2ED808F
:102B1000023B43EA0E43002203E08B420FD900221E
:102B20001346341C18BF012460424FF0000565EBCA
:102B300045015840514000196941BDE8F083B3FA9E
:102B400083F2002A40F086808B4202D3844500F253
:102B5000DB800123E5E712B90123B3FBF2F5B5FAF7
:102B600085F000283BD1781B4FEA154E1FFA85FCF3
:102B70000122B0FBFEF8210C0EFB180741EA0747C3
:102B80000CFB08F3BB4207D97F1908F1FF3102D2D1
:102B9000BB4200F2BD808846FF1AA4B2B7FBFEF329
:102BA0000EFB137744EA07470CFB03FCBC4507D92F
:102BB0007F1903F1FF3102D2BC4500F2A7800B461A
:102BC00043EA0843ADE752426FEA060663EB43036C
:102BD0005DE7404261EB41014FF0FF3654E7C0F141
:102BE000200224FA02F107FA00F385404FEA154E5D
:102BF000D7401943B7FBFEF20B0C0EFB12771FFAFE
:102C000085FC43EA07430CFB02F79F4204FA00F4F9
:102C100007D95B1902F1FF3074D29F4272D9023A90
:102C20002B44DF1B89B2B7FBFEF80EFB187341EA99
:102C300003430CFB08F79F4208D95B1908F1FF31E9
:102C40005CD29F425AD9A8F102082B44D81B48EA0B
:102C500002428EE7C2F120032CFA03F10EFA02FEC3
:102C600020FA03F741EA0E0E08FA02F028FA03F1FF
:102C70004FEA1E453843B1FBF5F8030C05FB18116C
:102C80001FFA8EF743EA014107FB08F38B420CFA67
:102C900002FC09D911EB0E0108F1FF3930D28B4249
:102CA0002ED9A8F102087144C91A80B2B1FBF5F31C
:102CB00005FB131140EA014107FB03F78F4208D9D6
:102CC00011EB0E0103F1FF3016D28F4214D9023BF3
:102CD000714443EA0843C91BA3FB0C89494509D346
:102CE00005D000221DE79646FEE6134611E7944004
:102CF0004445F6D2013BF4E70346EAE78846A5E7F8
:102D0000C846D1E702468CE713460AE7023B57E77D
:102D1000A8F102082F443FE72DE9F041002B44D1F0
:102D20008A42154604464FD9B2FA82F70E464FB191
:102D3000C7F12003B94020FA03F602FA07F50E4363
:102D400000FA07F44FEA154E230CB6FBFEF0AFB2C3
:102D50000EFB106143EA014307FB00F1994209D9D8
:102D60005B1900F1FF3280F0EC80994240F2E9807B
:102D700002382B445A1AA4B2B2FBFEF30EFB132204
:102D800044EA024207FB03F7974208D9521903F1BC
:102D9000FF3180F0D880974240F2D580023B43EA71
:102DA000004000263146BDE8F0818B4247D8B3FA97
:102DB00083F6002E48D18B4202D3824200F2CD80AE
:102DC00001203146BDE8F08112B90125B5FBF2F5CD
:102DD000B5FA85F8B8F1000F77D14A1B4FEA154EC6
:102DE000AFB20126B2FBFEF0230C0EFB102143EA2A
:102DF000014107FB00F38B4207D9491900F1FF326B
:102E000002D28B4200F2BA801046C91AA4B2B1FBBA
:102E1000FEF30EFB131144EA014407FB03F7A7423C
:102E200008D9641903F1FF3280F08F80A74240F285
:102E30008C80023B43EA00403146BDE8F081002629
:102E400030463146BDE8F081C6F1200422FA04F58F
:102E5000B3402B4320FA04FC01FA06F721FA04F5EB
:102E60004FEA134E4CEA0707B5FBFEF8390C0EFB90
:102E700018551FFA83FC41EA05450CFB08F1A942ED
:102E800002FA06F204D9ED1808F1FF3467D3A04620
:102E90006D1ABFB2B5FBFEF40EFB145547EA0541AF
:102EA0000CFB04FC8C4504D9C91804F1FF355CD334
:102EB0002C4644EA0844CCEB0101A4FB02239942CE
:102EC00048D344D0204600266CE7C8F1200401FA1C
:102ED00008F305FA08F520FA04F7E1404FEA154E29
:102EE0001F43B1FBFEF63A0C0EFB16111FFA85FCD0
:102EF00042EA01430CFB06F29A4200FA08F407D9B1
:102F00005B1906F1FF3137D29A4235D9023E2B4484
:102F10009B1ABFB2B3FBFEF00EFB103347EA03432C
:102F20000CFB00F1994207D95B1900F1FF3221D265
:102F300099421FD902382B445A1A40EA064667467E
:102F400050E7104616E70B4629E7134672E7B040F4
:102F50009042B7D2601E002624E7304622E7A942FD
:102F600095D9A8F102081D4492E78C45A0D9023CEE
:102F700019449EE71046DFE70E46C9E702382944A8
:102F800043E700BF10B5431E0A44914204D011F834
:102F9000014B03F8014FF8E710BD0000F8B500BF82
:102FA000F8BC08BC9E467047F8B500BFF8BC08BC2A
:102FB0009E46704743000000301900202C1C002062
:102FC000541C0020FFFFFFFF03FF00000000004033
:102FD0000000000000300040030000004142434474
:102FE00045464748494A4B4C4D4E4F505152535419
:102FF00055565758595A6162636465666768696ACD
:103000006B6C6D6E6F707172737475767778797A98
:10301000303132333435363738392D5F0000000017
:0C30200001000007AAFE010000000000F3
:08302C0030C4FF7F0100000029
:10303400000000000000000000000000000000008C
:10304400000000000000000000000000000000007C
:10305400B42F020000000000000000000000000087
:10306400000000000000000000000000000000005C
:10307400000000000000000000000000000000004C
:10308400000000000000000000000000000000003C
:103094000104000010EE037275752E76692F00008E
:1030A40000000000000000007275752E76692F2361
:1030B40000000000000000000090D00325F401008F
:0830C40001F40100000000000E
:040000032000268D26
:00000001FF
