:020000021000EC
:10F0000000000120651F02008D1F02008F1F0200FB
:10F01000911F0200931F0200951F020000000000D4
:10F02000000000000000000000000000971F020028
:10F03000991F0200000000009B1F02009D1F02009C
:10F04000950102009F1F0200CD0802009F1F0200D1
:10F050009F1F02009F1F0200E50502009F1F020084
:10F060009F1F02009F1F02009F1F02009F1F0200A0
:10F070009F1F02009F1F02009F1F02009F1F020090
:10F080009F1F020079F701009F1F02009F1F0200CF
:10F090003DF801009F1F0200C12302009F1F0200D4
:10F0A0009F1F02009F1F02009F1F02009F1F020060
:10F0B0009F1F02009F1F02000000000000000000D0
:10F0C0009F1F02009F1F02009F1F02009F1F020040
:10F0D0009F1F02009F1F02009F1F020000000000F0
:10F0E0000000000000000000000000000000000020
:10F0F0000000000000000000000000000000000010
:10F1000000000000000000000000000000000000FF
:10F1100000000000000000000000000000000000EF
:10F4000010B5054C237833B9044B13B10448AFF35E
:10F4100000800123237010BDB819002000000000F7
:10F42000A4240200084B10B51BB108480849AFF3EB
:10F4300000800848036803B910BD074B002BFBD0C0
:10F44000BDE81040184700BF00000000A4240200DF
:10F45000BC190020B419002000000000154B002B3F
:10F4600008BF134B9D46A3F5803A00218B460F46FB
:10F470001348144A121A00F065F80F4B002B00D005
:10F4800098470E4B002B00D0984700200021040025
:10F490000D000D48002802D00C48AFF3008000F0AA
:10F4A0002BF82000290002F049F800F011F800BF05
:10F4B0000000080000000120000000000000000023
:10F4C000B8190020381C00200000000000000000D7
:10F4D00008B5074B044613B10021AFF30080054B7C
:10F4E0001868836A03B19847204600F033F800BFDC
:10F4F000000000007424020070B50E4B0E4CE41A9C
:10F50000A41000251E46A54204D056F82530984781
:10F510000135F8E702F0A0FF084C094BE41AA410EB
:10F5200000251E46A54204D056F8253098470135DF
:10F53000F8E770BDAC190020AC190020B01900200C
:10F54000AC19002002440346934202D003F8011B89
:10F55000FAE77047FEE700BF2DE9F84F234B1A7812
:10F560008AB3DFF88CB0DFF88C80DFF88C90002451
:10F570004FF0010A03E00134E4B2944223D226B2F0
:10F58000D8F80050DBF8003015F836000AFA00F120
:10F59000194205EBC607EED0154A23EA01031360B2
:10F5A00001F016F815F83650D9F800300AFA05F1CE
:10F5B0000B4000FA05F18B4207D00C4B01341A784E
:10F5C000E4B29442DBD3BDE8F88F79787B68A1F18F
:10F5D0000101B1FA81F14909002BEED0091A284640
:10F5E000B1FA81F149099847E7E700BFDC1900202B
:10F5F000041A0020D8190020001A002070B5064611
:10F60000114800F049FD40B9104D01242B68B44069
:10F610001C4203D023EA04042C6070BD304600F085
:10F62000D7FF0B4E326860B122432B680949326024
:10F630001C432C60044809680022BDE8704000F0BB
:10F64000D3BC22EA0402F0E7E0190020041A0020EB
:10F65000001A0020D4190020F0B5042A85B01746FE
:10F6600002D8072005B0F0BD0191054600F07AFEF2
:10F670000199002830D01C4CDFF888E01B481C4A58
:10F680001C4B256000264C1E07608EF8001016608B
:10F690001E60E4B2032709B918E01C4623B205EB4B
:10F6A000C30215F833009378134A8DF80D3003A97F
:10F6B0008DF80C708DF80E608DF80F6000F05CFE18
:10F6C000631E0028CED1DBB2002CE6D10B4A0C48D9
:10F6D000002100F077FCC5E7019100F001FE0199DF
:10F6E0000028C8D0BEE700BFD8190020D4190020D8
:10F6F000001A0020041A0020FDF5010059F5010050
:10F7000078240200DC19002070B5084D2B785BB11D
:10F71000074E00243368012113F8340000F0F6FE90
:10F720002B780134A342F5D8002070BDDC190020ED
:10F73000D819002000B585B000230390194644F283
:10F74000010001AAADF80430029300F003F805B0FF
:10F750005DF804FBBFF34F8F0549064BCA6802F4FE
:10F76000E0621343CB60BFF34F8F00BFFDE700BFE4
:10F7700000ED00E00400FA052DE9F041274A284B8E
:10F780000025C2F84051C2F84451C2F84851C2F8AD
:10F790004C51C2F80051C2F804511B681BB32149F7
:10F7A000D2F804250C68204F141B1A6824F07F44FB
:10F7B000A242A84609D8197CDE69A41A1544A1B949
:10F7C0001EB133461A68A242F5D9184B18491A7867
:10F7D0000B789A421BD01749174A41F823504FF42F
:10F7E0008013C2F80031BDE8F081D3F814C083F86B
:10F7F00010803A689B69604619462AB190470028F4
:10F80000DED0FFF797FFDBE71846E047D8E7531C49
:10F81000DBB2022B08BF00230B70DCE700100140B5
:10F820000C1A0020081A0020101A0020141A0020B8
:10F83000151A0020201A002000E100E02DE9F04F09
:10F84000884A8949137809788848994287B0D0F85E
:10F85000009000F014820133DBB2022B08BF0023BA
:10F860001370834A52F82370804A07EB090323F090
:10F870007F4313604FF0010B7E4BCDF80C90D3F813
:10F8800000807D4B19785B7801931E467A4B5C684B
:10F8900093F802E0794B93F800A0744B1B68029335
:10F8A000424643460020BC46B14217D001EB410519
:10F8B000013114F83570C9B2714508BF0021022F1B
:10F8C00004EBC50576D0032FEED1002BECD0DA691E
:10F8D00018741346002AFAD1B142E7D16749029859
:10F8E00081F800A06149DDF80C9008606149674625
:10F8F0000A60BBF1000F40F0A281B8EB030218BF11
:10F900000122059203935D461E46584BDFF8709125
:10F91000D3F800C0574BD3F800A0574BD3F804B02E
:10F9200093F800E09B780293544B1B7804930027D4
:10F930004FF0010835B36968A8682C46ED69CCEB37
:10F94000010222F07F424A4556D8131823606760AF
:10F95000A76084F81080E761002E7FD0316899425B
:10F960005CD2304603E0116899425ED21046C2690B
:10F970005B1A002AF7D12360E2613346C4611E4658
:10F98000002DD8D1019B9E457CD00EEB4E020BEB97
:10F99000C2030EF1010E1BF8322002995C685FFA77
:10F9A0008EFE8E4508BF4FF0000E012A44D033462C
:10F9B0001E46E5E7D5F80490002B3FF475AF4B45A4
:10F9C00000F038811F4600E02F46FD69002D3FF40E
:10F9D0006BAFA945F8D1B946A9452F4600F02A8159
:10F9E000FD693F68C9F81C50002D3FF45DAF2B68DE
:10F9F0003B442B60134657E7C1EB0C0121F07F41DC
:10FA0000814202D2431A2360A1E727606760A760A2
:10FA100084F81080E7610EB331680023CB1A33609D
:10FA20002346E661A2461E46AAE7C91A1160236072
:10FA3000E2613346C461A2E7227C002AB7D199680B
:10FA40006160D868A0601A69E2605B69A361049B89
:10FA5000002B3FF474AF6560294670E72346A24649
:10FA60001E468DE7141A0020151A0020081A0020DF
:10FA7000201A00200C1A0020181A0020161A002044
:10FA8000FEFF7F00854B83F800E0854BC3F800A0A4
:10FA9000039BB34200F0C480002E00F01181814C22
:10FAA000814BD4F804051B68804DD6F800C0297836
:10FAB000C21A22F07F420332002952D17C4FDFF874
:10FAC000F491DFF8F4814FF480314FF4003E0126C9
:10FAD000C4F84413C4F80413C7F880E1C7F800E081
:10FAE00026602F21D9F8004000BF00BF00BF00BF33
:10FAF00000BF00BF00BF00BF44452FD000BF00BF04
:10FB000000BF00BF00BF00BF00BF00BF00BF00BFFD
:10FB100000BF00BF00BF00BF00BF00BF00BF00BFED
:10FB200000BF00BF00BF00BF00BF00BF00BF00BFDD
:10FB300000BF00BF00BF00BF00BF00BF00BF00BFCD
:10FB400000BF00BF00BF00BF00BF00BF00BF00BFBD
:10FB500000BF00BF00BF00BF00BF00BF0139C3D15D
:10FB60002E7062452CBF9A1803EB0C024D4922F00F
:10FB70007F43C1F84035D1F80425121A1B1A22F030
:10FB80007F4223F07F4303329A424DD9D1F80435A6
:10FB9000484AC1F84035126847492F2300BF00BFCB
:10FBA00000BF00BF00BF00BF00BF00BF8A422FD010
:10FBB00000BF00BF00BF00BF00BF00BF00BF00BF4D
:10FBC00000BF00BF00BF00BF00BF00BF00BF00BF3D
:10FBD00000BF00BF00BF00BF00BF00BF00BF00BF2D
:10FBE00000BF00BF00BF00BF00BF00BF00BF00BF1D
:10FBF00000BF00BF00BF00BF00BF00BF00BF00BF0D
:10FC000000BF00BF00BF00BF00BF00BF00BF00BFFC
:10FC1000013BC3D1264B4FF40032C3F8002103E06F
:10FC2000059B002B7FF438AF244A0023137007B0E4
:10FC3000BDE8F08FDA6942B313464F46D0E600259F
:10FC400028462C46A3B11968B9421BD8DA681C6053
:10FC50007F1A0844D9693AB100EB090626F07F46BD
:10FC6000DD619A605E601D460B460A46002BEAD1B4
:10FC70000B49039301230A600593039E45E6002781
:10FC8000BB46F9E5C91B1960F2E7064B01259D60EB
:10FC90004F4613460292AA46A2E600BF181A002059
:10FCA0000C1A002000100140081A0020281A002019
:10FCB00000E100E0A81900200024F400161A00203A
:10FCC000484A494B494D4A484FF480314FF4003778
:10FCD0000124C3F88070C2F848132F23C2F8081318
:10FCE000546029681D4600BF00BF00BF00BF00BFB1
:10FCF00000BF00BF00BF81422FD000BF00BF00BFC8
:10FD000000BF00BF00BF00BF00BF00BF00BF00BFFB
:10FD100000BF00BF00BF00BF00BF00BF00BF00BFEB
:10FD200000BF00BF00BF00BF00BF00BF00BF00BFDB
:10FD300000BF00BF00BF00BF00BF00BF00BF00BFCB
:10FD400000BF00BF00BF00BF00BF00BF00BF00BFBB
:10FD500000BF00BF00BF00BF00BF013DC3D1946022
:10FD6000244A166000BF00BF00BF00BF00BF00BF35
:10FD700000BF00BF81422FD000BF00BF00BF00BF47
:10FD800000BF00BF00BF00BF00BF00BF00BF00BF7B
:10FD900000BF00BF00BF00BF00BF00BF00BF00BF6B
:10FDA00000BF00BF00BF00BF00BF00BF00BF00BF5B
:10FDB00000BF00BF00BF00BF00BF00BF00BF00BF4B
:10FDC00000BF00BF00BF00BF00BF00BF00BF00BF3B
:10FDD00000BF00BF00BF00BF013BC3D1064B1E7078
:10FDE00022E700BF0010014000E100E0A819002058
:10FDF0000024F400081A0020281A00202DE9F04FF2
:10FE000012F0030402D00720BDE8F08F002AFAD0D8
:10FE1000614D624EDFF88CC1DFF88C814FF4803E7B
:10FE20004FF400374FF00109C6F88070C5F848E379
:10FE30002F27C5F808E3C5F80490DCF800C0BE46DB
:10FE400000BF00BF00BF00BF00BF00BF00BF00BFBA
:10FE5000C4452FD000BF00BF00BF00BF00BF00BF20
:10FE600000BF00BF00BF00BF00BF00BF00BF00BF9A
:10FE700000BF00BF00BF00BF00BF00BF00BF00BF8A
:10FE800000BF00BF00BF00BF00BF00BF00BF00BF7A
:10FE900000BF00BF00BF00BF00BF00BF00BF00BF6A
:10FEA00000BF00BF00BF00BF00BF00BF00BF00BF5A
:10FEB00000BF00BFBEF1010EC2D1DFF8F0E0C5F80F
:10FEC0000890CEF8004000BF00BF00BF00BF00BFD9
:10FED00000BF00BF00BFC4452FD000BF00BF00BFA0
:10FEE00000BF00BF00BF00BF00BF00BF00BF00BF1A
:10FEF00000BF00BF00BF00BF00BF00BF00BF00BF0A
:10FF000000BF00BF00BF00BF00BF00BF00BF00BFF9
:10FF100000BF00BF00BF00BF00BF00BF00BF00BFE9
:10FF200000BF00BF00BF00BF00BF00BF00BF00BFD9
:10FF300000BF00BF00BF00BF00BF013FC3D1DFF85B
:10FF400070C0DFF870B0164FDFF86CA0DFF86C906F
:10FF5000DFF86C808CF80040CBF800304FF4801C48
:10FF6000C023B9703C707C70CAF8004089F800402A
:10FF700088F80040C6F880C186F81433C6F800C07F
:10FF8000C5F8080586F81133D5F80435CEF80030E9
:10FF90007A602046BDE8F08F0010014000E100E0EB
:10FFA000181A0020A81900200024F400081A0020C4
:10FFB000281A0020101A00200C1A0020141A002001
:10FFC000151A0020074B5B6823B12AB120B10368E2
:10FFD000187C18B1082070470720704759745A617F
:10FFE000704700BF181A00202DE9F043274C6368C2
:10FFF00083B033B128B1042907D8072003B0BDE886
:020000022000DC
:10000000F083082003B0BDE8F0834369002BF8D0EB
:10001000054602A86B7C0026012B00F8016D0CBF81
:100020008946B14690460F4600F074F86378A07890
:1000300021785A1CD2B2904208BF324691421FD05A
:1000400003EB43036068DB00C11819D04FF0010EC9
:1000500000F803E00E4B4D60D3F804358B609DF83B
:100060000700CF60C1F81090C1F81480627000F0F2
:1000700079F8084B4FF480123046C3F80021C1E7ED
:100080009DF8070000F06EF80420BBE7181A002066
:100090000010014000E100E0F0B51C4D6B6883B03A
:1000A00053B348B343693BB3044602A8002600F8A3
:1000B000016D267400F02EF86B78A87829785A1C08
:1000C000D2B2904208BF3246914218D003EB4303AC
:1000D0006968DB00CF1812D00220C8547C609DF8FC
:1000E00007006A7000F03EF8094B4FF4801230466A
:1000F000C3F8002103B0F0BD082003B0F0BD9DF8A7
:10010000070000F02FF80420F7E700BF181A0020BE
:1001100000E100E0F0B4EFF3108472B60E4B9A6881
:10012000B2B90E4901259D60D1F880700C4D2E4664
:100130003D401D60C1F88060D1F884505D604FF093
:10014000FF33C1F88430027004B962B6F0BC704766
:1001500001230370F8E700BF2C1C002000E100E041
:10016000FC06FFBC094B9A6872B168B910B4EFF392
:10017000108272B606491C680C605C684C6098601E
:1001800002B962B65DF8044B704700BF2C1C00201A
:1001900000E100E010B51D4B1A6882B0F2B91C4BAB
:1001A0001A680AB902B010BD00221A601B680193D8
:1001B0004FF080430222174C0199C3F808232369AA
:1001C0000122A270002BEDD01A6822615B68012029
:1001D00098472369002BF7D102B010BD00221A60A6
:1001E0001B6800934FF0804301220A4C0099C3F82A
:1001F0000823A3686270002BD1D01A68A2605B68E4
:1002000000209847A368002BF7D1C8E70001004001
:10021000040100402C1A002000B1704710B5064CB4
:10022000A3683BB11A68A2605B6800209847A36886
:10023000002BF7D110BD00BF2C1A002010B582B0E2
:1002400002A80023114C00F8013DFFF763FF23785B
:100250008BB9184606216360A3602361E36000F058
:1002600017F802F05BF820B94FF080430122C3F881
:10027000182501232370E3689DF80700013301224C
:10028000E360A270FFF76EFF02B010BD2C1A0020D1
:10029000002810B418DB00F1604303F56143490105
:1002A000C9B283F80013C3B24009800000F1604076
:1002B00000F5614003F01F0201239340C0F8803134
:1002C00003605DF8044B7047C3B2044A03F00F04A7
:1002D00049012244C9B21176E6E700BFFCEC00E018
:1002E00030B51D4C94F8545083B015B1082003B0BC
:1002F00030BD06204FF0FF330146FF2223636363C6
:10030000A363E36323646364A364E36423606360BF
:10031000A360E36023616361A361E361236284F806
:1003200050306362A36284F85230E36284F8533041
:1003300084F85120FFF7ACFF084B094A1D601B6889
:10034000019301984FF000430121284684F854108E
:10035000C2F8043303B030BD401A00207C61004075
:1003600000600040034B93F85400003018BF012098
:10037000704700BF401A0020F0B5634C251895F96E
:100380003030002B01DB0820F0BD91F803E09446EB
:10039000BEF1000F56D02368013300F0AD8008266F
:1003A00000256B1C584F54F82320013251D0AB1C50
:1003B0009E4245D957F8232001324AD0EB1C9E4279
:1003C0003ED957F82320013243D02B1D9E4237D906
:1003D00057F8232001323CD06B1D9E4230D957F88C
:1003E0002370013735D0AB1D9E4229D954F8232004
:1003F000454F01322DD0EB1D9E4221D957F82320C5
:10040000013226D005F108039E4219D957F823205E
:1004100001321ED005F109039E4211D957F823205D
:10042000013216D005F10A039E4209D957F823700C
:1004300001370ED00B35AE4202D9E36A013307D043
:100440000420F0BD236A01334ED00C260825A8E70E
:100450000B232618DDB244F823C086F83050BEF1D5
:10046000000F02D1234483F848008B78ABB94A7857
:100470004FF0A04600F5E073920046F82320CB78B9
:10048000ABB96AB2083A1444097894F8502042EAA9
:10049000811284F850201846F0BD830003F1A04378
:1004A000D3F8002722F00202C3F80027E7E76BB277
:1004B0009B0003F1804303F5C0430A78D3F810157D
:1004C00021F4473121F44071C3F8101512040002E1
:1004D00002F44031D3F8104500F4F8520A432243A5
:1004E000C3F810250020F0BD082685F8306033469B
:1004F000C4F820C03546B5E7002385F83030C4F88D
:1005000000C01D46B1E700BF401A0020F0B42E4DD8
:100510002E1882B096F8302053B2072B1CDD2B44E6
:1005200093F848309B09032B40D0012B0CBF4FF4AC
:1005300000314FF44031800000F1A040D0F8002796
:1005400022F44032C0F80027D0F800370B43C0F83F
:10055000003702B0F0BC7047072AFAD8980000F1C3
:10056000804000F5C04003F140029200D0F81045F1
:1005700092B202F18042002744F0010402F5C04229
:10058000C0F810450197019817600029E1D096F94D
:10059000302055F82220002ADBD001220B4902FA34
:1005A00003F3C1F8043302B0F0BC70474FF0A0422F
:1005B0000123D2F810258340134214BF4FF4403179
:1005C0004FF40031B7E700BF401A00200060004040
:1005D0004FF0A043D3F8103523FA00F000F00100EB
:1005E000704700BF2DE9F04FAB4B1A68012A83B06A
:1005F00000F0B5800026A94B1A68012A00F0C180DE
:10060000A74B1A68012A00F0CE80A64B1A68012A6F
:1006100000F0DB80A44B1A68012A00F0E880A34BAD
:100620001A68012A00F0F580A14B1A68012A00F02F
:100630000281A04B1A68012A00F00F819E4B1A68B4
:10064000012A00F01C814FF0000816F0FF0F1AD0AD
:100650009A4F01250024A30003F18043354203F59E
:10066000C0434FEA45050BD0D3F8100557F82420B6
:10067000D3F81015C0F30420C1F3014102B1904733
:100680000134082CE7D1002E02DB03B0BDE8F08F67
:100690008B4D4FF0FF36A5F153074FF0000A894C00
:1006A0004FF0000914F8011FFF2920D0C9B221F032
:1006B000C00026FA00F3DB0719D53B18890993F926
:1006C000303057F823204AB34FF0010E03290EFAB9
:1006D00000FE29D0830003F1A0431EEA080FD3F8DF
:1006E00000C7CCF3014C10D1BCF1030F1FD0AC42BA
:1006F000D8D1B9F1000FC8D04FF0A043D3F81035CE
:100700009845C2D098465646C9E7BCF1020FEED1D3
:10071000032911D0002AEAD09047E8E70329E6D15F
:100720004FF0010E0EFA00FE4AEA0E0AD2E7032944
:10073000F0D14FF4003B01E04FF4403BD3F800C749
:100740002CF4403CC3F800C7D3F800E709F10109D5
:100750004BEA0E0E5FFA89F9C3F800E7DAE75A4967
:10076000D1F8041311F001063FF445AF00211960E0
:100770001B680093009B494B16461A68012A7FF4B8
:100780003FAF514AD2F8042392077FF539AF0022D8
:100790001A601B680093009B414B1A68012A46F0BF
:1007A00002067FF432AF484AD2F8042357077FF598
:1007B0002CAF00221A601B680093009B394B1A680B
:1007C000012A46F004067FF425AF3F4AD2F80423FD
:1007D00015077FF51FAF00221A601B680093009B6E
:1007E000314B1A68012A46F008067FF418AF364AE2
:1007F000D2F80423D4067FF512AF00221A601B68DA
:100800000093009B294B1A68012A46F010067FF4DA
:100810000BAF2D4AD2F8042390067FF505AF0022D6
:100820001A601B680093009B214B1A68012A46F04E
:1008300020067FF4FEAE244AD2F8042351067FF549
:10084000F8AE00221A601B680093009B194B1A68CF
:10085000012A46F040067FF4F1AE1B4AD2F8042389
:1008600012067FF5EBAE00221A601B680093009B16
:10087000114B1A68012A46F080067FF4E4AE00228C
:100880001A601B6801934FF0A043019AD3F81085BA
:1008900046F00046D9E600BF006100400461004018
:1008A000086100400C61004010610040146100408C
:1008B000186100401C6100407C610040401A00202B
:1008C000931A00208F1A002000600040F0B59B4C66
:1008D000237F8FB0002B75D1994AD2F80413890574
:1008E00048D4974BD3F80423520704D5D3F80821F2
:1008F000002A40F0CA80924BD3F81C21C2B1A28AD0
:10090000A07D8E4992B282424FF00002C3F81C21B2
:1009100080F0A980D3F81C210692069A888A8A8AD8
:100920008D6880B20132285C92B28A82C3F81C05BD
:10093000834BD3F84421DAB10022C3F84421D3F821
:100940004411A27E04910499002A40F08980E27D3E
:100950007A4B6AB10022587ED968DA7501228DF887
:1009600030000B918DF828200AA893E806009047E4
:100970000FB0F0BDD2F824110029B2D0C2F8243152
:10098000D2F82411A37E07914FF401710798C2F8A1
:1009900008130BB901235360694A02238DF82830EC
:1009A000D2F88034C2F88034E07DE2680D930023F1
:1009B0008DF83000E375237621680B9263680AA8EE
:1009C000984798E75E4BD3F82421002A40F09380A3
:1009D000D3F8101161B1C3F81021D3F810110391AD
:1009E0000399D3F83C15E07DC9B2884200F0AA8093
:1009F000534BD3F84421B2B10022C3F84421D3F8B9
:100A00004411E07D019101994C4960B1D3F83C3526
:100A1000C8688DF830300123CA750B908DF82830E6
:100A20000AA80AC99847464BD3F82021002A9FD02C
:100A30000022C3F82021D3F82011A07D0091009955
:100A40003E49002894D0D3F84C058B688DF83000CF
:100A50008A750B938DF828200AC90AA8984787E75A
:100A600001221A6073E7D3F81C310593059B002817
:100A70003FF45EAF8B688DF830008A750B938DF86C
:100A800028200AC90AA8984752E7E17D2B4A002985
:100A900070D00021C3F80811D3F808110891089903
:100AA000D068517ED3F818354354537ED17D01333D
:100AB000DBB25376627E214B8A427FF41CAF1A7EF2
:100AC000002A6DD19B7E13B91D4B01225A601C4A2E
:100AD000E06863684FF40171C2F80813627E8DF814
:100AE0003020002501220B902168E5758DF8282023
:100AF0000AA89847FFE60022C3F82421D3F824115E
:100B0000029102218DF828100299D3F88014C3F8BD
:100B100080140D91D3F83C15E368E27522768DF8C8
:100B200030100B93216863680AA89847044BD3F8E8
:100B30004421002A3FF477AF5EE700BF981A0020F7
:100B400000200040217EF1B1D3F80072E17527F05A
:100B50002001E6682569C3F8001201238DF83000F2
:100B60008DF82830227621680B96E56063680AA824
:100B700098473DE7C3F80811D3F808210992099A6C
:100B8000D3F8183596E7E268E17501238DF8300057
:100B90008DF828300B9294E80A000AA8984727E7B6
:100BA000DE685D7E1869DA7501210022D8601A7648
:100BB0005A768DF828100B968DF8305093E8060081
:100BC0000AA8904797E600BF4FF0A042D2F804353C
:100BD000D94301F4002103F40023C2F80815C2F838
:100BE0000C3570470D282DE9F047044603D0002846
:100BF00033D0BDE8F0870025012911D020D3022988
:100C0000F7D11F4B03EB45031D446E78002EF0D047
:100C10001C4B1B68002BECD03046BDE8F047184752
:100C2000DFF85C806F007B1908EB030218F80360A3
:100C30005378A3B92F444744134BBA785A55E5E784
:100C40001248FFF729FA0E4B0F4A03EB45032B44DA
:100C5000565D9B789E42CCD1D8E70125CCE70C4B62
:100C6000DFF830901968094801EB810149004A46D4
:100C7000FFF7BAF90028DDD189F80040DAE700BFB4
:100C8000341B0020EC1A0020E41A0020F01A002087
:100C9000E81A0020D81A0020C84B1B68DB0700D4D4
:100CA000704770B5C64B1C78172C22D8DFE814F0BB
:100CB000680075007500AE00D500F5001A013D0111
:100CC0003900220039002200180050015001500163
:100CD000500150014E0058009E0078011800180085
:100CE0004FF0A0434FF420210022C3F80C15C3F8A5
:100CF000082570BD4FF0A042B24CD2F80435B2487E
:100D0000D94301F4002103F40023C2F80815C2F806
:100D10000C352168002201EB8101BDE87040FFF72E
:100D200063B94FF0A042A74CD2F80435A648D94386
:100D300001F4002103F40023C2F80815C2F80C35B1
:100D400021680022BDE87040FFF74EB94FF0A04384
:100D50004FF420210022C3F80815C3F80C2570BDFC
:100D60004FF0A04300224FF400204FF40031C3F8AD
:100D70000805C3F80C25C3F80C15C3F8082570BD89
:100D8000924B1B684FF0A042DB4303F42023002169
:100D9000C2F80835C2F80C1570BD8C4A12684FF0C5
:100DA000A040D24302F400220025C0F80825C0F874
:100DB0000C55D0F8042582F4202212F4003200F001
:100DC0003681022C4FF40032C0F808250CBF1221E6
:100DD0002821C0F80C557B4A1C7012687A4802FB27
:100DE00001F1BDE870400022FFF7FEB84FF0A043CC
:100DF00000224FF400304FF40021C3F80805C3F877
:100E00000C25C3F80C15C3F8082570BD6F4A12688D
:100E10004FF0A040D24302F400220024C0F808257D
:100E2000C0F80C45D0F8042582F4202212F40032D8
:100E300000F0F5804FF40032C0F808250821C0F812
:100E40000C45604A6048126803241C7002FB01F1E3
:100E5000BDE870400022FFF7C7B85C4A12684FF047
:100E6000A040D24302F400220024C0F80825C0F8B4
:100E70000C45D0F8042582F4202212F4003200F050
:100E8000BF804FF40032C0F808252821C0F80C4577
:100E90004C4A4D4812680424D7E74C4A12684FF078
:100EA000A041D24302F400220020C1F80825C1F875
:100EB0000C05D1F8042582F4202212F4003200F04F
:100EC000A7804FF40032C1F80825C1F80C053D4A4F
:100ED0003D48116805241C7049000022BDE870409F
:100EE000FFF782B8394A12684FF0A041D24302F4AA
:100EF00000220020C1F80825C1F80C05D1F804250E
:100F000082F4202212F4003273D04FF40032C1F880
:100F10000825C1F80C052B4A2B48116806241C70C3
:100F20000022BDE87040FFF75FB8284B1B684FF008
:100F3000A042DB43002103F400234FF40030C2F849
:100F40000835C2F80C15C2F80C05C2F8081570BDBA
:100F50001F48FFF7A1F8D4F1110402463CD0002845
:100F60003AD11A4E4FF40023012C336010D0C8251B
:100F7000184B14491648096805FB04F4A3FB044305
:100F80005B0901FB03F1FFF72FF8336803F420231B
:100F90004FF0A0420021C2F80C35C2F8081570BD10
:100FA0004FF0A04300224FF42021C3F80825C3F8D6
:100FB0000C25C3F80C15C3F8082570BDE01A0020F5
:100FC000101B0020E81A0020B81A0020DC1A0020AC
:100FD000141B00201F85EB511A4A13684FF0A040E4
:100FE000002103F42023C0F80835C0F80C15116067
:100FF00070BD4FF40030C1F80C05C1F808258AE730
:101000004FF40031C0F80C150421C0F808253FE763
:101010004FF40030C1F80C05C1F8082557E74FF42C
:101020000031C0F80C150221C0F8082509E74FF47B
:101030000031022CC0F80C150CBF02210421C0F8AD
:101040000825C8E6DC1A002003780D2B01D06BB10F
:1010500070470023064A02EB4302134458780028E5
:10106000F6D0044B1B68002BF2D018470123F1E7A0
:10107000341B0020EC1A0020F8B5C04B1A6812F09F
:10108000010201D11046F8BD0446172800F2EC8198
:10109000DFE810F03B014B014B017A00A200CA00CF
:1010A000F00056002F0018002F00180015017E01D7
:1010B0007E017E017E017E01A60123012F014400F5
:1010C0006D006D004FF0A042AD4CD2F80435AD4834
:1010D000D94301F4002103F40023C2F80815C2F833
:1010E0000C352168002201EB8101BDE8F840FEF7D4
:1010F0007BBF4FF0A042A24CD2F80435A148D9439F
:1011000001F4002103F40023C2F80815C2F80C35DD
:1011100021680022BDE8F840FEF766BF4FF0A0430B
:1011200000219948C3F808154FF420251524C3F869
:101130000C150A46C3F80C55C3F808150470A1E74E
:10114000924B914C1B684FF0A041DB43002003F40D
:1011500000234FF400360725C1F808350246C1F8D0
:101160000C05C1F80C65C1F8080525708AE74FF039
:10117000A04385484FF420220021C3F80C25C3F872
:1011800008150A4604707DE7804B1B684FF0A042AB
:10119000DB4303F400230020C2F80835C2F80C0535
:1011A000D2F8043583F4202313F4003300F0458192
:1011B0004FF40033C2F808350821C2F80C05704A14
:1011C000714B12686F4803241C7002FB01F1BDE8EB
:1011D000F8400022FEF708BF6C4B1B684FF0A0429E
:1011E000DB4303F400230020C2F80835C2F80C05E5
:1011F000D2F8043583F4202313F4003300F0258162
:101200004FF40033C2F808352821C2F80C055C4AB7
:101210005D4B12685B4804241C7002FB01F1BDE8C1
:10122000F8400022FEF7E0BE584B1B684FF0A0428A
:10123000DB4303F400230021C2F80835C2F80C1583
:10124000D2F8043583F4202313F4003300F0058131
:101250004FF40033C2F80835C2F80C15484A4A4B1F
:101260001168484805241C7049000022BDE8F84078
:10127000FEF7BABE454B1B684FF0A042DB4303F4B8
:1012800000230021C2F80835C2F80C15D2F8043545
:1012900083F4202313F4003300F0BD804FF40033B7
:1012A000C2F80835C2F80C15374B354A3548116875
:1012B00006241C700022BDE8F840FEF795BE4FF0F2
:1012C000A04331484FF4202200210C24C3F80C2500
:1012D000C3F808150A460470D4E64FF0A0434FF453
:1012E00000222948C3F8082500214FF400351324B3
:1012F0001DE74FF0A0434FF400322348C3F8082500
:1013000000214FF40025142411E7204B1E4C1B68CC
:101310004FF0A040DB43002103F42023C0F8083540
:101320000A46C0F80C152170ACE6184B1B684FF04C
:10133000A042DB4303F400230020C2F80835C2F8C2
:101340000C05D2F8043583F4202313F4003369D05C
:10135000022C4FF40033C2F808350CBF12212821AB
:10136000C2F80C05064B084A1B68147003FB01F118
:1013700004480022BDE8F840FEF736BEE01A00201F
:10138000E81A0020B81A0020101B0020DC1A0020E8
:101390003648FEF781FED4F1110402462ED068BB18
:1013A000334E4FF40023012C336011D0314B324FB8
:1013B00019682E48C82505FB04F3A7FB03435B0906
:1013C00001FB03F1FEF710FE3368024603F420230D
:1013D0004FF0A0410020C1F80C35C1F8080551E6D6
:1013E0004FF0A04325484FF4202200211224C3F8D7
:1013F0000825C3F80C150A46047043E61C490B681F
:101400004FF0A044002003F42023C4F80835C4F8AA
:101410000C05086036E64FF40031C2F80C15C2F82E
:10142000083541E74FF40031022CC2F80C150CBF0F
:1014300002210421C2F8083594E74FF40031C2F8C4
:101440000C150221C2F80835B9E64FF40031C2F894
:101450000C150421C2F80835D9E64FF40031C2F862
:101460000C15C2F80835F9E600220BE6141B002023
:10147000DC1A0020E81A00201F85EB51101B002009
:10148000F8B5214D214E224B2860044610F0020091
:1014900031601A601BD01F4B1F480D270E260F25E9
:1014A0004A081F700321DE709D71FEF7D5F8F0B178
:1014B000E3070BD54FF0A0434FF420220021C3F8DF
:1014C0000825C3F80C15C3F8182510B1F8BDE207BC
:1014D000F0D41248124A0021FEF774FD0028F5D11D
:1014E0001048114A0121BDE8F840FEF76BBDFEF738
:1014F0000BF90028DCD101460C4A0D48FEF762FDCD
:10150000E107E2D5D6E700BFE01A0020E81A002084
:10151000EC1A0020341B00207C24020094240200DA
:10152000990C020098240200C90B02004910020025
:101530009C24020073DF70473EDF704730B5002007
:1015400093B003460521324AFEF758FC08B1FEF776
:10155000F1F8012040F6CD410022FFF791FF08B1DC
:10156000FEF7E8F82B4B2C491868019001AC204697
:101570005022002300F0D8FE08B1FEF7DBF800206F
:1015800004AA014600F034FF08B1FEF7D3F804A81E
:1015900000F046FF08B1FEF7CDF85923ADF804304E
:1015A0000021172338221D4DADF8083004A80395FB
:1015B000FDF7C8FF0023042204A819460D948DF8F6
:1015C00010308DF8132000F09DFA08B1FEF7B2F844
:1015D000134C002110222046FDF7B4FF0023032105
:1015E000A02220462170628163602372A381FFF7ED
:1015F000A1FF08B1FEF79EF80220FFF73DFD18B9E4
:10160000FFF79AFF0028FBD0FEF794F8F8E700BF39
:10161000401B0020A0240200B81B002090190020CD
:10162000081C00206DDF704772DF704779DF70475C
:101630007DDF704765DF7047F0B50488012C83B00B
:1016400007D0148804F1020E9E4505D90C2003B082
:10165000F0BD072003B0F0BD0578012D04D1457819
:1016600002352544AB42F1D3023B0F461C1B02A9B5
:10167000A4B2054621F8024D07EB0E001646FFF70F
:10168000D7FF0028E3D12B78022B17D0012B11D0E4
:1016900023460821FE2BD9D83288581CB8543288EA
:1016A000013292B23280B95432880132134433800D
:1016B0000020CCE76B789C42EBD2E9E7BDF806301E
:1016C0009C42E5D30921E5E72DE9F04F85B083463B
:1016D0000E9D00882C880194BDF83C9000284ED0C7
:1016E00000278A46164698463C4604E0BBF8003080
:1016F0000134A34226DDDBF8043053F824000390C4
:101700000DF10B0103A80022FFF794FF18BB9DF811
:101710000B30B342EAD10FB32A8893194B4519DC39
:10172000424403A80DF10B010127FFF783FF90B995
:101730002B889DF80B2013442B80BBF8003001341C
:10174000A342D8DCDFB12B88019A013B9B1A9BB2E4
:10175000FF2B12D90C2005B0BDE8F08F2B885A1C46
:10176000334402334B4592B2F4DC2A8008F802A0DD
:101770002A88013292B22A80D2E708F8023000208B
:1017800005B0BDE8F08F00BF2DE9F04700231788B2
:10179000138090F82D3086B0144605460E46002B77
:1017A00040F0C880AA78002A40F0F080EA78002A49
:1017B0002CD1696899B1DA1CBA42097822D8022280
:1017C000F254238801339BB20A222380F2542388E7
:1017D00001339BB22380F1542388013323802B896A
:1017E000002B40F0F7802B8A002B40F00C812B8BD4
:1017F000002B40F021812B6A002B5CD02288911DA8
:10180000B94218D90C2006B0BDE8F087D91CB942FE
:10181000F8D80221F154238801339BB2012123809F
:10182000F15423880B449BB22380F25423880B4449
:101830009BB22380BDE71988052940F2C9806FF467
:10184000486801EB080080B24FF27D3E704540F2DF
:10185000BF805888052840F2BB806FF4486C8444F0
:101860001FFA8CFCF44540F2B3804FF6FF7E7145C1
:1018700004D0704502D0814200F2AA800521B15403
:101880002288013292B212212280B1542288013280
:1018900092B222801988B1543244090A51702288C8
:1018A000023292B222805B88B35432441B0A5370D6
:1018B0002388023323806B6A002B2BD099882088E1
:1018C0000A1D0244BA429DD88A1CFE2A9AD80331C6
:1018D00031542288013292B2FF212280B1542288F1
:1018E000013292B222801988B1543244090A5170EF
:1018F0002088023080B220809A885AB19968039378
:10190000002965D0304400F09BFD039B22889B8812
:101910001344238095F82C30002B40F0A6802878C3
:1019200000283FF470AF2846314622463B46FFF779
:1019300083FE68E7082F7FF665AF04A8FFF772FE05
:1019400000287FF460AF23880822F25423880133F3
:101950009BB21B222380F2542088013080B2208069
:10196000062230440DF1110100F06AFD23889DF834
:10197000102006339BB212F0FE0218BF0122238012
:10198000F254238801339BB223800BE70433BB421C
:101990003FF638AF04A8FFF749FE00287FF433AFC5
:1019A0002388BDF810200321F154238801339BB212
:1019B00019212380F154238801339BB2F11823802D
:1019C000100AF2544870238802339BB22380EDE65C
:1019D000072018E705F1080802218DE8900040462D
:1019E0000A463346FFF770FE00287FF40CAF8DE8FF
:1019F00090004046062110223346FFF765FE00287E
:101A00007FF401AFEFE605F110088DE89000404645
:101A1000032102223346FFF757FE00287FF4F3AE7E
:101A20008DE890004046072110223346FFF74CFE18
:101A300000287FF4E8AEDAE605F118088DE890009A
:101A40004046142102223346FFF73EFE00287FF471
:101A5000DAAE8DE890004046152110223346FFF79C
:101A600033FE00287FF4CFAEC5E6D5F82880B8F164
:101A7000000FADD0B8F804200232FE2A3FF6C2AE05
:101A800023884FF000094FF0160A0132F2542388E0
:101A900001339BB2238006F803A0238801339BB255
:101AA0002380B8F80020F2543344120A5A70238875
:101AB00002339BB22380B8F80410F0180A4661B1D3
:101AC000D8F808301946002B82D000F0B9FCB8F8DD
:101AD0000430228813449BB2238009F1010995F850
:101AE0002C205FFA89F94A4509EB49087FF617AFC0
:101AF000AA6A02EB8808B8F804200232FE2AC4D988
:101B000080E600BF2DE9F04794B01F230D46ADF8E5
:101B10000E30044600285AD0C278530753D590F8A7
:101B20002D300021ADF80C10002B6BD18378002BE9
:101B300040F0AB801846032114AE5F1C02333044E2
:101B400016FA87F716FA83F64FF0020E8BB20121D0
:101B500000F840ECADF80C3007F8401C06F8402CBB
:101B60006268B2B1D91C1F29167828D814AF581C46
:101B70009A1C17FA80F03B4417FA82F24FF0020EDB
:101B80000A2703F840ECADF80C1000F8407C02F88E
:101B9000406C2389002B40F08581238A002B40F084
:101BA0009F81238B002B40F0B981236A002B00F02A
:101BB000D880BDF80C20911D1F2940F28F800C2089
:101BC00014B0BDE8F087072014B0BDE8F087ADF889
:101BD0000C00002D00F00481EB78002BF3D1284697
:101BE0000CA90DF10E02FFF7CFFD0028ECD19DF8F6
:101BF0000E300CAA20469DF80C10FFF715FD14B00E
:101C0000BDE8F0870CAF3846FFF70CFD0028DBD1AC
:101C1000BDF80C3014AA03F1010C12FA8CFC03F18C
:101C2000020E13441FFA8EFE04AE4FF008094FF067
:101C30001B0803F8409C0DF13101062206EB0E0053
:101C40000CF8408CADF80CE000F0FAFBBDF80C206D
:101C50009DF83010931D11F0FE019BB240F07C8185
:101C600014A8034403F8401CD31DA2789BB2ADF81E
:101C70000C30002A40F01181E278002A3FF470AF66
:101C8000D91C1F2918469AD856E70CAF3846FFF7DB
:101C9000CDFC002898D1BDF80C30BDF83070E2784A
:101CA000991C0DF1500E581C89B204AE0EEB0309BD
:101CB0001EFA80F0043306EB010E4FF0030A4FF0DA
:101CC00019089BB24FEA172C09F840ACADF80C305C
:101CD00000F8408C77548EF801C0CEE718880528AC
:101CE0007FF671AF6FF4486C00EB0C06B6B24FF2A2
:101CF0007D37BE427FF667AF5E88052E7FF663AF05
:101D00006FF4486EB6441FFA8EFEBE457FF65BAF99
:101D10004FF6FF77B84204D0BE4202D0B0423FF641
:101D200052AF14A8561C10FA86F600EB020E901C57
:101D300080B212274FF0050C0EF840CCADF80C0025
:101D400006F8407C1F88ADF80C1004AE31183754EB
:101D500004323F0A4F7092B25B88B35432441B0A7C
:101D60005370676A9FB3B888BDF80C30811C9A1C09
:101D700056181F2E3FF623AFFE293FF620AF14AEB4
:101D8000591C06EB030E16FA81F192B20330FF26BE
:101D90000EF8400CADF80C2001F8406C398804AE08
:101DA000B018B154090A41700433BA8898B2ADF83A
:101DB0000C0062B1B96800293FF405AF304400F06F
:101DC0003FFBBDF80C30BA881344ADF80C3094F8E2
:101DD0002C3053B904AE2378002B53D13446F8E6A7
:101DE0002B46ADF80E502A4604E7A76A002F3FF4B1
:101DF000EAAEB9880231FE293FF6E1AE9E46BDF853
:101E00000C304FF0000804AE4FF0160914AA581C0D
:101E100002EB030C12FA80F09A1C92B201310CF81A
:101E2000401CADF80C2000F8409C3988B154324475
:101E3000090A51700433B9889BB20A46F018ADF80C
:101E40000C3079B1BB681946002B3FF4BCAE00F0F2
:101E5000F7FABDF80C30BA8894F82CE013449BB222
:101E6000ADF80C3008F101085FFA88F8F04508EB8E
:101E70004802B0D2A76A07EB8207B9880231FE296F
:101E8000C4D99CE62046314603AA1F23FFF7D4FBA2
:101E900000287FF499AE34469BE604331F2B3FF6AF
:101EA0008EAEF3E603AA04F1080704AE4FF01F0854
:101EB00002218DE80401384633460A46FFF704FC48
:101EC00000287FF481AE03AB8DE808013846334625
:101ED00006211022FFF7F8FB00287FF475AE5CE6C0
:101EE00003AA04F1100704AE4FF01F088DE80401A7
:101EF0003846334603210222FFF7E6FB00287FF431
:101F000063AE03AB8DE80801384633460721102243
:101F1000FFF7DAFB00287FF457AE42E603AA04F18C
:101F2000180704AE4FF01F088DE804013846334609
:101F300014210222FFF7C8FB00287FF445AE03AB53
:101F40008DE808013846334615211022FFF7BCFB07
:101F500000287FF439AE28E614A90B44012103F8C8
:101F6000401C81E60649074A074B9B1A03DD043BE8
:101F7000C858D050FBDC00F013F8FDF76FFA0000F2
:101F8000B024020030190020B8190020FEE7FEE757
:101F9000FEE7FEE7FEE7FEE7FEE7FEE7FEE7FEE719
:101FA000F0B5984B1B78062B1AD0974AD2F8883098
:101FB00043F47003C2F88830BFF34F8FBFF36F8FC5
:101FC0004FF01023D3F80022002AC0F2EA80D3F8A1
:101FD0000432002BC0F2E5808C4B8D4A1A60F0BDB4
:101FE0008C4B1B681D07E0D18B4B1B6803F0F00383
:101FF000302B00F0D280884B1B6803F0F002302AAF
:102000006FD003F0E003402B6BD0834B1B6803F0D1
:10201000F003302B00F0B1807F4B1B6803F0F0021F
:10202000302A6FD003F0E003402B6BD07A4B1B6853
:1020300003F0F003302B00F09280774B1B6803F025
:10204000F003302B72D0744B1B6803F0F003502B5D
:10205000ABD14FF08052714BD2F80414C3F8201565
:10206000D2F80814C3F82415D2F80C14C3F82815B4
:10207000D2F81014C3F82C15D2F81414C3F8301584
:10208000D2F81814C3F83415D2F81C14C3F840154C
:10209000D2F82014C3F84415D2F82414C3F8481514
:1020A000D2F82814C3F84C15D2F82C14C3F85015E4
:1020B000D2F83014C3F85415D2F83414C3F86015AC
:1020C000D2F83814C3F86415D2F83C14C3F8681574
:1020D000D2F84014C3F86C15D2F84424C3F8702524
:1020E00063E74F4B474A1B6812784E49C3F34233AC
:1020F000062A0B607FF459AF464B1B681C077FF420
:1021000054AF82E73F4B1B784FF080420021062BF3
:10211000C2F80C11C2F81011C2F838157FF445AF9F
:102120003C4B1B6819077FF440AF7FE7354B3E4FB0
:102130001A783E4D3E483F4B4FF0050E01260024D5
:102140003F21062AC7F800E02E60046019607FF482
:102150002CAF304B1B681B077FF427AF73E7294B6D
:10216000354A1B780321062B11607FF41EAF294BE3
:102170001B681A077FF419AF5FE7304A2149D3681B
:10218000097823F080730629D3607FF40EAF214BCA
:102190001B6818077FF409AF3EE7294B294A1A60EC
:1021A00029E7294B0122C3F80425D3F80024002A8B
:1021B000FBD04FF0102315222349C3F80022D1F899
:1021C0000034002BFBD04FF0102315221E49C3F81A
:1021D0000422D1F800241C4B002AFAD00022C3F8B4
:1021E0000425D3F80024002AFBD0BFF34F8F064903
:1021F000164BCA6802F4E0621343CB60BFF34F8F03
:1022000000BFFDE7E00F00F000ED00E0A81900209E
:102210000090D003E40F00F0E80F00F000C0004091
:10222000440200103C050040105600408856004013
:102230001856004014560040A0050040F0ED00E0A4
:1022400074C007400DF0ADBA00E001400400FA058B
:1022500048DF704710DF704760DF704761DF70470D
:10226000FDF778BA2DE9F047DFF8A890264EDFF8A1
:10227000A880264FD9F80040B4FA84F482B0002533
:1022800064097DB93378DFF880A063B901A8FFF74E
:10229000DFFF05280AD018B3FDF74CFA4CB1012432
:1022A0000025EFE7CCB102B0BDE8F087002CFAD1F1
:1022B00001259AF80030002BF5D102A93C68B8F846
:1022C000003021F8043D2046FFF7C8FF052816D04E
:1022D00080B1FDF72FFA0024D3E7DFF82CA0E8E760
:1022E0000198FDF799FF0A4B1B68002BD6D0019887
:1022F0009847D3E72046D9F800309847EBE7002D00
:10230000CDD002B0BDE8F087181C00201C1C0020B6
:10231000201C0020241C00201A1C0020014B1878CF
:10232000704700BF191C002011B111F0030F01D03C
:1023300007207047F8B51B4F1B4E1C4D1C4C3960D5
:1023400032802B602368DB0708D50125C4F8805054
:102350001849FFF77FFF30B12560F8BD1549FFF739
:1023600079FF00B1F8BD144B01221A70FDF766FF2A
:102370000F4A92F816335B09991E052909D8043BC8
:10238000012B06D90D4B986830B94FF480031360C8
:10239000F8BD42F20200F8BD1A6842F480021A60E9
:1023A0000020F8BD1C1C00201A1C0020281C002046
:1023B00000E100E061220200191C00202C1C00201A
:1023C00008B5094B1B6833B1984700B908BDBDE893
:1023D0000840FDF7AFB9054B1B78002BF6D0BDE8E0
:1023E0000840FFF73FBF00BF281C0020191C002039
:1023F00070B5144605460E46104600211C22FDF716
:10240000A1F8227D2672002363F300020121657288
:102410002275A361218005B1A172002070BD00BFAB
:1024200000B583B0054B019302A9019B41F8083D1B
:10243000FFF712FF019B03B05DF804FB3019002089
:1024400010B5431E0A44914204D011F8014B03F821
:10245000014FF8E710BD0000F8B500BFF8BC08BC9C
:102460009E467047F8B500BFF8BC08BC9E46704752
:102470004300000030190020E01900200D00030087
:10248000E50B02000D000300E50B02000D00030048
:10249000E50B0200B81A0020141B0020F01A0020DF
:0824A00001000007000000002C
:0824A800B4CFFF7F010000002A
:1024B000000000000000000000000000000000001C
:1024C000000000000000000000000000000000000C
:1024D0007024020000000000000000000000000066
:1024E00000000000000000000000000000000000EC
:1024F00000000000000000000000000000000000DC
:1025000000000000000000000000000000000000CB
:1025100002150112233445566778899AABBCCDDE8B
:10252000EFF001020304C3000090D00325F4010082
:0825300001F4010000000000AD
:0400000320001F6555
:00000001FF
