:020000021000EC
:10C0000000000120490702007107020073070200C7
:10C0100075070200770702007907020000000000A0
:10C020000000000000000000000000007B0702008C
:10C030007D070200000000007F0702008107020068
:10C04000830702008307020059D8010089DD01003F
:10C05000830702008307020089D4010083070200DE
:10C0600083070200830702008307020083070200A0
:10C070008307020083070200830702008307020090
:10C0800083070200ADC80100830702008307020096
:10C0900071C9010083070200C1F701008307020094
:10C0A0008307020083070200830702008307020060
:10C0B0008307020083070200000000000000000068
:10C0C0008307020083070200830702008307020040
:10C0D00083070200830702008307020000000000BC
:10C0E0000000000000000000000000000000000050
:10C0F0000000000000000000000000000000000040
:10C10000000000000000000000000000000000002F
:10C11000000000000000000000000000000000001F
:10C4000010B5054C237833B9044B13B10448AFF38E
:10C4100000800123237010BDF818002000000000E8
:10C42000F41E0200084B10B51BB108480849AFF3D1
:10C4300000800848036803B910BD074B002BFBD0F0
:10C44000BDE81040184700BF00000000F41E0200C5
:10C45000FC180020F418002000000000154B002BF1
:10C4600008BF134B9D46A3F5803A00218B460F462B
:10C470001348144A121A00F065F80F4B002B00D035
:10C4800098470E4B002B00D0984700200021040055
:10C490000D000D48002802D00C48AFF3008000F0DA
:10C4A0002BF82000290003F0DBF900F011F800BFA1
:10C4B0000000080000000120000000000000000053
:10C4C000F8180020241D00200000000000000000DB
:10C4D00008B5074B044613B10021AFF30080054BAC
:10C4E0001868836A03B19847204600F033F800BF0C
:10C4F00000000000B01D020070B50E4B0E4CE41A97
:10C50000A41000251E46A54204D056F825309847B1
:10C510000135F8E705F03EFC084C094BE41AA4107D
:10C5200000251E46A54204D056F82530984701350F
:10C53000F8E770BDEC180020EC180020F01800207F
:10C54000EC18002002440346934202D003F8011B7A
:10C55000FAE77047FEE700BF2DE9F84F234B1A7842
:10C560008AB3DFF88CB0DFF88C80DFF88C90002481
:10C570004FF0010A03E00134E4B2944223D226B220
:10C58000D8F80050DBF8003015F836000AFA00F150
:10C59000194205EBC607EED0154A23EA01031360E2
:10C5A00000F068FF15F83650D9F800300AFA05F1A6
:10C5B0000B4000FA05F18B4207D00C4B01341A787E
:10C5C000E4B29442DBD3BDE8F88F79787B68A1F1BF
:10C5D0000101B1FA81F14909002BEED0091A284670
:10C5E000B1FA81F149099847E7E700BF1C1900201B
:10C5F00044190020181900204019002070B5064683
:10C60000114800F001FD40B9104D01242B68B440E1
:10C610001C4203D023EA04042C6070BD304600F0B5
:10C6200029FF0B4E326860B122432B680949326002
:10C630001C432C60044809680022BDE8704000F0EB
:10C6400079BC22EA0402F0E72019002044190020F6
:10C650004019002014190020F0B5042A85B01746AF
:10C6600002D8072005B0F0BD0191054600F0CCFDD1
:10C670000199002830D01C4CDFF888E01B481C4A88
:10C680001C4B256000264C1E07608EF800101660BB
:10C690001E60E4B2032709B918E01C4623B205EB7B
:10C6A000C30215F833009378134A8DF80D3003A9AF
:10C6B0008DF80C708DF80E608DF80F6000F0AEFDF7
:10C6C000631E0028CED1DBB2002CE6D10B4A0C4809
:10C6D000002100F01DFCC5E7019100F05DFD01990E
:10C6E0000028C8D0BEE700BF181900201419002088
:10C6F0004019002044190020FDC5010059C5010062
:10C70000B41D02001C19002070B5084D2B785BB1D8
:10C71000074E00243368012113F8340000F048FE6E
:10C720002B780134A342F5D8002070BD1C190020DD
:10C730001819002000B585B000230390194644F273
:10C74000010001AAADF80430029300F003F805B02F
:10C750005DF804FBBFF34F8F0549064BCA6802F42E
:10C76000E0621343CB60BFF34F8F00BFFDE700BF14
:10C7700000ED00E00400FA05484B494830B40121BF
:10C780004FF480344FF400352F22C0F88050C3F8A6
:10C7900048431046C3F808435960013800BF00BF42
:10C7A00000BF00BF00BF00BF00BF00BF00BF00BF91
:10C7B00000BF00BF00BF00BF00BF00BF00BF00BF81
:10C7C00000BF00BF00BF00BF00BF00BF00BF00BF71
:10C7D00000BF00BF00BF00BF00BF00BF00BF00BF61
:10C7E00000BF00BF00BF00BF00BF00BF00BF00BF51
:10C7F00000BF00BF00BF00BF00BF00BF00BF00BF41
:10C8000000BF00BF00BF00BF00BF00BF00BF00BF30
:10C81000C3D1244C9960002310462360013800BF27
:10C8200000BF00BF00BF00BF00BF00BF00BF00BF10
:10C8300000BF00BF00BF00BF00BF00BF00BF00BF00
:10C8400000BF00BF00BF00BF00BF00BF00BF00BFF0
:10C8500000BF00BF00BF00BF00BF00BF00BF00BFE0
:10C8600000BF00BF00BF00BF00BF00BF00BF00BFD0
:10C8700000BF00BF00BF00BF00BF00BF00BF00BFC0
:10C8800000BF00BF00BF00BF00BF00BF00BF00BFB0
:10C8900000BFC3D1044A137030BC70470010014080
:10C8A00000E100E048190020681900202DE9F0415E
:10C8B000274A284B0025C2F84051C2F84451C2F81B
:10C8C0004851C2F84C51C2F80051C2F804511B68DB
:10C8D0001BB32149D2F804250C68204F141B1A6899
:10C8E00024F07F44A242A84609D8197CDE69A41A24
:10C8F0001544A1B91EB133461A68A242F5D9184BA6
:10C9000018491A780B789A421BD01749174A41F8F0
:10C9100023504FF48013C2F80031BDE8F081D3F802
:10C9200014C083F810803A689B69604619462AB1A2
:10C9300090470028DED0FFF7FDFEDBE71846E04712
:10C94000D8E7531CDBB2022B08BF00230B70DCE7D7
:10C95000001001404C1900204819002050190020F7
:10C960005C1900205D1900206019002000E100E042
:10C970002DE9F04FA34AA44913780978A34887B05A
:10C9800000680190994200F061810133DBB2022B13
:10C9900008BF002313709E4A52F823C0019B9B4A94
:10C9A000634423F07F43136001230393994B9A4A16
:10C9B00093F800B0994B1268D3F800A0984B0592F9
:10C9C0001B780293914B1B680493D84600251146AF
:10C9D00008F1FF385FFA88F8B8F1FF0F4DD00FFA71
:10C9E00088F30AEBC3041AF833006778BE46704533
:10C9F000EED000EB4006636894F8029013F83670AE
:10CA00000130C0B2814508BF0020022F03EBC603EE
:10CA10000DD0032FEBD10AB9E9E71A46D369157493
:10CA2000002BFAD119461A4694F801E0DFE75F6857
:10CA3000002ADCD0974217D0164600E01E46F36964
:10CA4000002BD4D09F42F9D1B742334600F0EC809E
:10CA5000FE693F68DE61002EE6D033683B443360F8
:10CA600094F801E00A46C2E7D36917461946002B3D
:10CA700000F0E0801A463B46EAE713460A4668495A
:10CA80009DF80800087061490498086062490293A3
:10CA90000A6003991846002940F0DD80059B1B1AA7
:10CAA00018BF012303930D465C4B029E1B68059340
:10CAB000564BDFF87081D3F800E0574BD3F8009065
:10CAC000574B1B78049300274FF0010C30460BF1B5
:10CAD000FF3B5FFA8BFBBBF1FF0F00F08380059BF0
:10CAE00003EBCB04019455B36A68A9682B46ED6942
:10CAF000CEEB020626F07F4646453ED8314419600B
:10CB00005F609F6083F810C0DF61002866D0066810
:10CB10008E4244D28246019C03E016688E4245D282
:10CB20009246DAF81C20891B002AF6D10194DA61BA
:10CB3000024619601046CAF81C30002DD4D1019A63
:10CB4000137852789A42C2D0019E5A1C96F802A0DD
:10CB50007168D2B292453446327008BF224603EB68
:10CB6000430308BF157011F8332001EBC306012AF7
:10CB700073681FD002461046DFE7C2EB0E0222F0B8
:10CB80007F428A4202D2891A1960B9E71F605F604A
:10CB90009F6083F810C0DF6100B306680021711A3E
:10CBA0001A4601609946D8611046C6E7761A019484
:10CBB0001660BCE793F810A0BAF1000FDAD1B268A2
:10CBC0005A60F16899603469DC60049C76699E6102
:10CBD000002C8DD0C3F804A0524689E71A46994626
:10CBE0001046AAE70C4BC3F80090029B834206460E
:10CBF00052D1039B002B4FD1094A0023137007B079
:10CC0000BDE8F08F5C1900205D1900204819002054
:10CC100060190020541900204C19002058190020D8
:10CC20005E190020FEFF7F00D36937461946002BAE
:10CC30007FF420AF03F1804303F5883301220126FE
:10CC40009A600A4604913B46029601E74FF0000CB9
:10CC5000CDF80CC0AAE6002528462C46B3B11968C9
:10CC6000614500F2D880DE681C60C1EB0C0C084402
:10CC7000D9693EB1019ADD61821822F07F429E603F
:10CC80005A601D460B460A46002BE8D164490293C0
:10CC900001230A60039307E7002E00F0B980614981
:10CCA000614BD1F804451B68604DD6F800802878A8
:10CCB000E21A22F07F42033200285BD042452CBFAB
:10CCC0009A1803EB0802574922F07F43C1F8403518
:10CCD000D1F80425121B1B1B22F07F4223F07F4357
:10CCE00003329A4288D9D1F80435C1F840352F2053
:10CCF000013800BF00BF00BF00BF00BF00BF00BFC2
:10CD000000BF00BF00BF00BF00BF00BF00BF00BF2B
:10CD100000BF00BF00BF00BF00BF00BF00BF00BF1B
:10CD200000BF00BF00BF00BF00BF00BF00BF00BF0B
:10CD300000BF00BF00BF00BF00BF00BF00BF00BFFB
:10CD400000BF00BF00BF00BF00BF00BF00BF00BFEB
:10CD500000BF00BF00BF00BF00BF00BF00BF00BFDB
:10CD600000BF00BF00BFC3D1314B4FF40032C3F846
:10CD7000002141E72E4F4FF4803C4FF4003E012646
:10CD8000C1F844C32F20C1F804C3C7F880E1C7F835
:10CD900000E00E60013800BF00BF00BF00BF00BF51
:10CDA00000BF00BF00BF00BF00BF00BF00BF00BF8B
:10CDB00000BF00BF00BF00BF00BF00BF00BF00BF7B
:10CDC00000BF00BF00BF00BF00BF00BF00BF00BF6B
:10CDD00000BF00BF00BF00BF00BF00BF00BF00BF5B
:10CDE00000BF00BF00BF00BF00BF00BF00BF00BF4B
:10CDF00000BF00BF00BF00BF00BF00BF00BF00BF3B
:10CE000000BF00BF00BF00BF00BFC3D12E7055E7F9
:10CE1000FFF7B2FCF0E6CCEB0101196036E700BF8A
:10CE20004C1900200010014048190020681900200A
:10CE300000E100E02DE9F04F12F0030485B003D0CB
:10CE4000072005B0BDE8F08F002A49D08DE80F001B
:10CE5000FFF792FC0199029ADFF8A0B0917001EB04
:10CE6000410502F11807ED007E1991729174039B40
:10CE70001E49DFF88CA0DFF88090DFF88880DFF8AB
:10CE800088C0DFF888E0D66035445561CBF80030C3
:10CE90004FF48016C0230325147054705760147229
:10CEA000547214745474C9F800208AF80050C8F8F9
:10CEB00000408CF800408EF800400D4FC1F88061B2
:10CEC00081F814330E600098C7F8080581F8113313
:10CED000084AD7F804351360204605B0BDE8F08F46
:10CEE000054B07201A6005B0BDE8F08F00E100E0B7
:10CEF0000010014048190020581900205019002046
:10CF0000541900204C1900205C1900205D190020E4
:10CF1000074B1B6823B12AB120B10368187C18B1F4
:10CF2000082070470720704759745A61704700BF46
:10CF300058190020304B1B6823B118B1042903D8BD
:10CF40000720704708207047F0B54469002C4DD089
:10CF5000447C012C0CBF0E460026EFF30584C4F37D
:10CF6000080494B1103C65B2002D38DB05F1604433
:10CF700004F5614494F800436409E4B2022C39D00A
:10CF8000062C0CBF0824102400E0102423445C78F5
:10CF900093F802E01F78651CEDB2AE4508BF00258E
:10CFA000AF4225D004EB4404D3F804E0E4001EEBC8
:10CFB00004071DD04FF0010C0EF804C0DFF844E068
:10CFC00078600E4CDEF80405B8604FF4801EF960FE
:10CFD0003E617A615D70C4F800E10020F0BD084D4B
:10CFE00004F00F0425442C7E6409C6E70820F0BD38
:10CFF0000420F0BD0024C9E75819002000E100E03A
:10D00000FCEC00E000100140264B1A68F2B1034628
:10D01000E0B14169D1B10021F0B50174EFF30581B0
:10D02000C1F30801A1B1103948B2002833DB00F187
:10D03000604101F5614191F800134909C9B2022923
:10D0400027D006290CBF0821102102E008207047D4
:10D0500010210A445178957810784C1CE4B2A5420E
:10D0600008BF0024A04212D001EB41015068C90062
:10D0700010EB010E0BD00C4D022747544FF48016D5
:10D08000CEF804305470C5F800610020F0BD0420D3
:10D09000F0BD0021DDE7054801F00F010844017EE5
:10D0A0004909CBE75819002000E100E0FCEC00E062
:10D0B00082B00190019B002B43D0019B013B019367
:10D0C00040F2E730013800BF00BF00BF00BF00BF23
:10D0D00000BF00BF00BF00BF00BF00BF00BF00BF58
:10D0E00000BF00BF00BF00BF00BF00BF00BF00BF48
:10D0F00000BF00BF00BF00BF00BF00BF00BF00BF38
:10D1000000BF00BF00BF00BF00BF00BF00BF00BF27
:10D1100000BF00BF00BF00BF00BF00BF00BF00BF17
:10D1200000BF00BF00BF00BF00BF00BF00BF00BF07
:10D1300000BF00BF00BF00BF00BFC3D1019B002BD9
:10D14000BBD102B0704700BF002810B418DB00F15B
:10D15000604303F561434901C9B283F80013C3B2C8
:10D160004009800000F1604000F5614003F01F02BB
:10D1700001239340C0F8803103605DF8044B704791
:10D18000C3B2044A03F00F0449012244C9B2117624
:10D19000E6E700BFFCEC00E038B5194C94F85450B9
:10D1A0000DB1082038BD4FF0FF3306200146FF22A5
:10D1B00023636363A363E36323646364A364E3643B
:10D1C00023606360A360E36023616361A361E36143
:10D1D000236284F850306362A36284F85230E362C1
:10D1E00084F8533084F85120FFF7AEFF054A4FF022
:10D1F00000410123C2F8041384F85430284638BD96
:10D200006C19002000600040034B93F8540000307C
:10D2100018BF0120704700BF6C190020F0B5634CA7
:10D22000251895F93030002B01DB0820F0BD91F86E
:10D2300003E09446BEF1000F56D02368013300F09E
:10D24000AD80082600256B1C584F54F8232001326E
:10D2500051D0AB1C9E4245D957F8232001324AD009
:10D26000EB1C9E423ED957F82320013243D02B1DA0
:10D270009E4237D957F8232001323CD06B1D9E4285
:10D2800030D957F82370013735D0AB1D9E4229D9CC
:10D2900054F82320454F01322DD0EB1D9E4221D959
:10D2A00057F82320013226D005F108039E4219D9F0
:10D2B00057F8232001321ED005F109039E4211D9EF
:10D2C00057F82320013216D005F10A039E4209D9EE
:10D2D00057F8237001370ED00B35AE4202D9E36AFE
:10D2E000013307D00420F0BD236A01334ED00C2651
:10D2F0000825A8E70B232618DDB244F823C086F8DA
:10D300003050BEF1000F02D1234483F848008B78DF
:10D31000ABB94A784FF0A04600F5E073920046F8AA
:10D320002320CB78ABB96AB2083A1444097894F850
:10D33000502042EA811284F850201846F0BD830044
:10D3400003F1A043D3F8002722F00202C3F800271C
:10D35000E7E76BB29B0003F1804303F5C0430A7813
:10D36000D3F8101521F4473121F44071C3F810159A
:10D370001204000202F44031D3F8104500F4F852D0
:10D380000A432243C3F810250020F0BD082685F883
:10D3900030603346C4F820C03546B5E7002385F831
:10D3A0003030C4F800C01D46B1E700BF6C19002042
:10D3B000F0B42E4D2E1882B096F8302053B2072BC1
:10D3C0001CDD2B4493F848309B09032B40D0012BE4
:10D3D0000CBF4FF400314FF44031800000F1A04009
:10D3E000D0F8002722F44032C0F80027D0F80037E8
:10D3F0000B43C0F8003702B0F0BC7047072AFAD8D8
:10D40000980000F1804000F5C04003F14002920016
:10D41000D0F8104592B202F18042002744F0010496
:10D4200002F5C042C0F81045019701981760002925
:10D43000E1D096F9302055F82220002ADBD00122D5
:10D440000B4902FA03F3C1F8043302B0F0BC704791
:10D450004FF0A0420123D2F810258340134214BF9D
:10D460004FF440314FF40031B7E700BF6C19002092
:10D47000006000404FF0A043D3F8103523FA00F0CD
:10D4800000F00100704700BF2DE9F04FA94B1A686A
:10D49000012A83B000F0B2800024A74B1A68012A49
:10D4A00000F0BE80A54B1A68012A00F0CB80A44B87
:10D4B0001A68012A00F0D880A24B1A68012A00F0ED
:10D4C000E580A14B1A68012A00F0F2809F4B1A6890
:10D4D000012A00F0FF809E4B1A68012A00F00C819F
:10D4E0009C4B1A68012A00F019814FF0000814F0D3
:10D4F000FF0F17D0E20700F13581A30700F141814A
:10D50000670700F14D81260700F15981E50600F11A
:10D510006581A00600F17181610600F17D8122061E
:10D5200000F18981002C02DB03B0BDE8F08F8A4D49
:10D530004FF0FF36A5F153074FF0000A874C4FF02C
:10D54000000914F8011FFF2920D0C9B221F0C00042
:10D5500026FA00F3DB0719D53B18890993F9303017
:10D5600057F823204AB34FF0010E03290EFA00FEAC
:10D5700029D0830003F1A0431EEA080FD3F800C7A7
:10D58000CCF3014C10D1BCF1030F1FD0AC42D8D169
:10D59000B9F1000FC8D04FF0A043D3F8103598452B
:10D5A000C2D098465646C9E7BCF1020FEED1032916
:10D5B00011D0002AEAD09047E8E70329E6D14FF0DE
:10D5C000010E0EFA00FE4AEA0E0AD2E70329F0D154
:10D5D0004FF4003B01E04FF4403BD3F800C72CF47C
:10D5E000403CC3F800C7D3F800E709F101094BEA52
:10D5F0000E0E5FFA89F9C3F800E7DAE75849D1F867
:10D60000041311F001043FF448AF002119601B68B6
:10D610000093009B484B14461A68012A7FF442AFDE
:10D620004F4AD2F8042391077FF53CAF00221A60DD
:10D630001B680093009B414B1A68012A44F00204C6
:10D640007FF435AF464AD2F8042352077FF52FAF57
:10D6500000221A601B680093009B394B1A68012A4C
:10D6600044F004047FF428AF3D4AD2F8042317079E
:10D670007FF522AF00221A601B680093009B314B9C
:10D680001A68012A44F008047FF41BAF344AD2F828
:10D690000423D6067FF515AF00221A601B6800939D
:10D6A000009B294B1A68012A44F010047FF40EAF46
:10D6B0002B4AD2F8042395067FF508AF00221A60A2
:10D6C0001B680093009B214B1A68012A44F0200438
:10D6D0007FF401AF224AD2F8042350067FF5FBAE57
:10D6E00000221A601B680093009B194B1A68012ADC
:10D6F00044F040047FF4F4AE194AD2F80423110632
:10D700007FF5EEAE00221A601B680093009B114B60
:10D710001A68012A44F080047FF4E7AE00221A6000
:10D720001B6801934FF0A043019AD3F8108544F091
:10D730000044DCE6006100400461004008610040F4
:10D740000C6100401061004014610040186100400D
:10D750001C6100407C610040BF190020BB19002003
:10D76000006000403A4B3B4AD3F81005D3F810153F
:10D770001368C0F30420C1F301419847A3077FF564
:10D78000BFAE334B334AD3F81405D3F8141553689E
:10D79000C0F30420C1F30141984767077FF5B3AE9A
:10D7A0002B4B2C4AD3F81805D3F818159368C0F3FF
:10D7B0000420C1F30141984726077FF5A7AE244B0B
:10D7C000244AD3F81C05D3F81C15D368C0F30420F1
:10D7D000C1F301419847E5067FF59BAE1C4B1D4AFE
:10D7E000D3F82005D3F820151369C0F30420C1F342
:10D7F00001419847A0067FF58FAE154B154AD3F827
:10D800002405D3F824155369C1F30141C0F3042062
:10D81000984761067FF583AE0D4B0E4AD3F8280575
:10D82000D3F828159369C0F30420C1F30141984748
:10D8300022067FF577AE064B064AD3F82C05D3F8BF
:10D840002C15D369C0F30420C1F30141984769E660
:10D85000006000406C190020F0B59C4C237F85B01F
:10D86000002B74D19A4AD2F80413890548D4984BF6
:10D87000D3F80423520710D5964A116869B1E17DA7
:10D880009248002940F008811160D3F81835627E73
:10D89000E17D8E4B914200F0E3808F4B1A68A2B17C
:10D8A000A28AA17D894892B291424FF000021A608B
:10D8B00040F29280828A838A8568854992B20133D8
:10D8C000AA5C9BB28382C1F81C25844B1A68AAB15A
:10D8D000A27E00211960002A79D1E27D7B4B6AB1DA
:10D8E0005A7ED9688DF808200020012201918DF818
:10D8F0000020D87593E806006846904705B0F0BD53
:10D90000774908680028B2D0A07E0B604FF40173FD
:10D91000C2F8083328B903F1804303F5F05301221C
:10D920001A606B4A02238DF80030D2F88034C2F8B6
:10D930008034E07DE26803938DF8080000230192B3
:10D9400021686268E375684623769047A5E7644AD4
:10D950001368002B4FD1634A116839B15C481360DA
:10D96000D0F83C25E17DD2B2914260D05B4B1A6881
:10D97000A2B1E17D554800221A6079B1A3F5A273E6
:10D98000C168D3F83C358DF80830012301918DF83A
:10D990000030C27590E80A0068469847524B1A68F2
:10D9A000002AABD0A17D494800221A600029A5D0E9
:10D9B00047498368D1F84C158DF80810019382759A
:10D9C00090E80A008DF800206846984796E7A3F58E
:10D9D000A27301221A6080E700293FF476AF8368C2
:10D9E0008DF808100193827590E80A008DF80020E8
:10D9F0006846984769E700233549136002208DF88F
:10DA00000000D1F88024C1F880240392D1F83C159D
:10DA1000E2688DF80810019221686268E375684633
:10DA2000237690472D4B1A68002AB7D0A1E7277EAE
:10DA3000002F3DD0D0F80022E77522F02007E668DD
:10DA40002569C0F8007201208DF808108DF80000DB
:10DA50002376216801966846E5606368984785E704
:10DA60001A7E002A44D19B7E13B9204B01221A60F2
:10DA7000174AE06863684FF40171C2F80813627EC8
:10DA80008DF80820012201908DF8002021680022E5
:10DA90006846E275984700E700211160427ED3F89E
:10DAA0001855437EC1680133DBB28D544376EEE6F0
:10DAB000E2688DF8081001238DF80030019294E897
:10DAC0000A00E7756846984750E700BFC419002070
:10DAD00000200040082100401C210040442100405B
:10DAE000242100401021004020210040042000405B
:10DAF000D968587E019101218DF808008DF8001039
:10DB00001E69DA7593E8220000226846DE601A7604
:10DB10005A76A847C1E600BFF8B543794B4C5D0182
:10DB20006619367E0EB10820F8BD002900F0898004
:10DB300062510B7B0F78012B4FF0A0464FF0010391
:10DB400003FA07F394BFC6F80C35C6F808350E780B
:10DB50004FF0A04706F5E076012347F826304E78CF
:10DB6000FF2E64D006F5E07EB3404FF0030CC7F8FB
:10DB70000C3547F82EC08F78FF2F55D007F5E07E83
:10DB80004FF0A0434FF0000C43F82EC0CB78FF2B92
:10DB90000FD04FF0010E4FF0A04C0EFA03F3CCF86B
:10DBA0000835CB7803F5E0734FF0030E4CF823E013
:10DBB000CB7890F805E004EB4E1E8EF81A3003681F
:10DBC00091F800E0C3F808E5C3F80C65C3F81075D8
:10DBD0008E68C3F824654E7B0F7B003618BF012684
:10DBE000022F27D0032F1CD0012F01D146F00206AF
:10DBF000C3F8546546794F7904EB4616F776E2B1DF
:10DC000004260122C3F80463C3F8002590F9040038
:10DC10000979FFF799FA2C440122002022766076D8
:10DC2000F8BD46F00606E3E74FF0FF37AEE74FF0EA
:10DC3000FF36A0E746F00406DAE70122C3F8002524
:10DC4000E9E7034901EB031172E700BFE419002083
:10DC5000B81D02002DE9F04145794A4E6D01741955
:10DC600082B0677E9DF820E018341FB1112002B009
:10DC7000BDE8F08177591FB14FF0010C84F801C065
:10DC800006EB0508C8F8103098F81D3098F81AC04F
:10DC9000C8F8081003F0FE036FF34103BCF1FF0F57
:10DCA00088F80C2088F814E088F81D3006D001238D
:10DCB0004FF0A04403FA0CF3C4F80C357319006854
:10DCC000183300244FF0040CC0F808C31C71C0F8CE
:10DCD00008418AB9DB78C0F81C35BEF1010F03D9C1
:10DCE0007319DB7EC0F81C357FB10423C0F8043300
:10DCF000002002B0BDE8F0810B78C0F81C35012A85
:10DD0000EBD94B78C0F81C35EEE7731919461A7F2A
:10DD1000D0F80831002BFBD0C0F80871D0F81835C6
:10DD20000E7DDBB2964201F118048DF8073003D95D
:10DD30000B699DF807509D5422790D7B0132D2B2B8
:10DD4000531CAB42227111D30E7DB34214D3AA42AD
:10DD5000DED3B242DCD3A278FF2A11D001234FF0E8
:10DD6000A0419340C1F80835002080E78A68D35C61
:10DD7000C0F81C350A7FCBE7E378C0F81C35F9E71B
:10DD8000002074E7E419002030B5204B204A002120
:10DD9000C3F80811D3F81815107D137F83B0C9B2EA
:10DDA00098428DF8071004D911699DF80700C854EE
:10DDB000137F147B16480133DBB2591CA142137741
:10DDC0001DD3057DA94214D3A34216D3AB4214D36D
:10DDD000817EFF2905D001234FF0A0408B40C0F881
:10DDE00008350023537613710A481368984703B027
:10DDF00030BD064BC27EC3F81C2503B030BD82681F
:10DE0000024B525CC3F81C2503B030BD003000400B
:10DE1000E4190020E81900204FF0A042D2F80435A0
:10DE2000D94301F4002103F40023C2F80815C2F815
:10DE30000C3570470D282DE9F041044601D0BDE8AE
:10DE4000F08101290ED015D30229F8D1154B5D7848
:10DE5000002DF4D0144B1B68002BF0D02846BDE8F1
:10DE6000F04118470F4E737835786BB90F4BB27885
:10DE70001A70EDE70E48FFF7C7F80A4B0B4A9B787C
:10DE800015789D42DBD1E3E70A4B0B4F1968084830
:10DE900001EB810149003A46FFF74CF80028E5D133
:10DEA0003C70E3E7801A0020541A00207C1A0020FE
:10DEB000581A0020501A00204C1A0020C84B1B682A
:10DEC000DB0700D4704770B5C64B1C78172C22D8DE
:10DED000DFE814F0680075007500AE00D500F500AD
:10DEE0001A013D01390022003900220018005001BA
:10DEF00050015001500150014E0058009E00780121
:10DF0000180018004FF0A0434FF420210022C3F85E
:10DF10000C15C3F8082570BD4FF0A042B24CD2F8E2
:10DF20000435B248D94301F4002103F40023C2F8B8
:10DF30000815C2F80C352168002201EB8101BDE80B
:10DF40007040FEF7F7BF4FF0A042A74CD2F804355F
:10DF5000A648D94301F4002103F40023C2F80815B0
:10DF6000C2F80C3521680022BDE87040FEF7E2BF20
:10DF70004FF0A0434FF420210022C3F80815C3F846
:10DF80000C2570BD4FF0A04300224FF400204FF449
:10DF90000031C3F80805C3F80C25C3F80C15C3F805
:10DFA000082570BD924B1B684FF0A042DB4303F481
:10DFB00020230021C2F80835C2F80C1570BD8C4A28
:10DFC00012684FF0A040D24302F400220025C0F8AE
:10DFD0000825C0F80C55D0F8042582F4202212F44C
:10DFE000003200F03681022C4FF40032C0F80825D0
:10DFF0000CBF12212821C0F80C557B4A1C701268F6
:10E000007A4802FB01F1BDE870400022FEF792BFA2
:10E010004FF0A04300224FF400304FF40021C3F82A
:10E020000805C3F80C25C3F80C15C3F8082570BD06
:10E030006F4A12684FF0A040D24302F4002200243D
:10E04000C0F80825C0F80C45D0F8042582F4202239
:10E0500012F4003200F0F5804FF40032C0F80825C9
:10E060000821C0F80C45604A6048126803241C70FF
:10E0700002FB01F1BDE870400022FEF75BBF5C4A85
:10E0800012684FF0A040D24302F400220024C0F8EE
:10E090000825C0F80C45D0F8042582F4202212F49B
:10E0A000003200F0BF804FF40032C0F8082528216C
:10E0B000C0F80C454C4A4D4812680424D7E74C4A36
:10E0C00012684FF0A041D24302F400220020C1F8B0
:10E0D0000825C1F80C05D1F8042582F4202212F499
:10E0E000003200F0A7804FF40032C1F80825C1F8D3
:10E0F0000C053D4A3D48116805241C70490000226A
:10E10000BDE87040FEF716BF394A12684FF0A041D3
:10E11000D24302F400220020C1F80825C1F80C0502
:10E12000D1F8042582F4202212F4003273D04FF487
:10E130000032C1F80825C1F80C052B4A2B4811689C
:10E1400006241C700022BDE87040FEF7F3BE284B89
:10E150001B684FF0A042DB43002103F400234FF47F
:10E160000030C2F80835C2F80C15C2F80C05C2F828
:10E17000081570BD1F48FEF747FFD4F11104024691
:10E180003CD000283AD11A4E4FF40023012C3360C2
:10E1900010D0C825184B14491648096805FB04F42B
:10E1A000A3FB04435B0901FB03F1FEF7C3FE3368E5
:10E1B00003F420234FF0A0420021C2F80C35C2F82E
:10E1C000081570BD4FF0A04300224FF42021C3F882
:10E1D0000825C3F80C25C3F80C15C3F8082570BD35
:10E1E000281A0020781A0020501A0020041A002053
:10E1F000241A00202C1A00201F85EB511A4A13689C
:10E200004FF0A040002103F42023C0F80835C0F8E7
:10E210000C15116070BD4FF40030C1F80C05C1F849
:10E2200008258AE74FF40031C0F80C150421C0F826
:10E2300008253FE74FF40030C1F80C05C1F8082568
:10E2400057E74FF40031C0F80C150221C0F808253B
:10E2500009E74FF40031022CC0F80C150CBF022165
:10E260000421C0F80825C8E6241A002003780D2BE5
:10E2700000D07047044B58780028FAD0034B1B6835
:10E28000002BF6D0184700BF801A0020541A002037
:10E29000F8B5C04B1A6812F0010201D11046F8BD62
:10E2A0000446172800F2EC81DFE810F03B014B0137
:10E2B0004B017A00A200CA00F00056002F0018009F
:10E2C0002F00180015017E017E017E017E017E0176
:10E2D000A60123012F0144006D006D004FF0A04204
:10E2E000AD4CD2F80435AD48D94301F4002103F414
:10E2F0000023C2F80815C2F80C352168002201EB92
:10E300008101BDE8F840FEF715BE4FF0A042A24CD7
:10E31000D2F80435A148D94301F4002103F40023C5
:10E32000C2F80815C2F80C3521680022BDE8F84093
:10E33000FEF700BE4FF0A04300219948C3F808152E
:10E340004FF420251524C3F80C150A46C3F80C55C4
:10E35000C3F808150470A1E7924B914C1B684FF06D
:10E36000A041DB43002003F400234FF400360725CF
:10E37000C1F808350246C1F80C05C1F80C65C1F8B2
:10E38000080525708AE74FF0A04385484FF4202206
:10E390000021C3F80C25C3F808150A4604707DE770
:10E3A000804B1B684FF0A042DB4303F400230020A6
:10E3B000C2F80835C2F80C05D2F8043583F42023DE
:10E3C00013F4003300F045814FF40033C2F80835F0
:10E3D0000821C2F80C05704A714B12686F4803247B
:10E3E0001C7002FB01F1BDE8F8400022FEF7A2BD5F
:10E3F0006C4B1B684FF0A042DB4303F4002300206A
:10E40000C2F80835C2F80C05D2F8043583F420238D
:10E4100013F4003300F025814FF40033C2F80835BF
:10E420002821C2F80C055C4A5D4B12685B48042445
:10E430001C7002FB01F1BDE8F8400022FEF77ABD36
:10E44000584B1B684FF0A042DB4303F4002300212C
:10E45000C2F80835C2F80C15D2F8043583F420232D
:10E4600013F4003300F005814FF40033C2F808358F
:10E47000C2F80C15484A4A4B1168484805241C70DC
:10E4800049000022BDE8F840FEF754BD454B1B682B
:10E490004FF0A042DB4303F400230021C2F808350B
:10E4A000C2F80C15D2F8043583F4202313F400339A
:10E4B00000F0BD804FF40033C2F80835C2F80C15E7
:10E4C000374B354A3548116806241C700022BDE8D8
:10E4D000F840FEF72FBD4FF0A04331484FF4202203
:10E4E00000210C24C3F80C25C3F808150A46047053
:10E4F000D4E64FF0A0434FF400222948C3F8082582
:10E5000000214FF4003513241DE74FF0A0434FF4D2
:10E5100000322348C3F8082500214FF400251424B5
:10E5200011E7204B1E4C1B684FF0A040DB4300213D
:10E5300003F42023C0F808350A46C0F80C152170F2
:10E54000ACE6184B1B684FF0A042DB4303F40023FA
:10E550000020C2F80835C2F80C05D2F8043583F45F
:10E56000202313F4003369D0022C4FF40033C2F897
:10E5700008350CBF12212821C2F80C05064B084AA9
:10E580001B68147003FB01F104480022BDE8F84049
:10E59000FEF7D0BC281A0020501A0020041A0020D0
:10E5A000781A0020241A00203648FEF72DFDD4F1F9
:10E5B000110402462ED068BB334E4FF40023012CC9
:10E5C000336011D0314B324F19682E48C82505FBF6
:10E5D00004F3A7FB03435B0901FB03F1FEF7AAFC6D
:10E5E0003368024603F420234FF0A0410020C1F815
:10E5F0000C35C1F8080551E64FF0A04325484FF40B
:10E60000202200211224C3F80825C3F80C150A465D
:10E61000047043E61C490B684FF0A044002003F44B
:10E620002023C4F80835C4F80C05086036E64FF41A
:10E630000031C2F80C15C2F8083541E74FF400313B
:10E64000022CC2F80C150CBF02210421C2F80835B7
:10E6500094E74FF40031C2F80C150221C2F80835D6
:10E66000B9E64FF40031C2F80C150421C2F80835A0
:10E67000D9E64FF40031C2F80C15C2F80835F9E6B6
:10E6800000220BE62C1A0020241A0020501A002029
:10E690001F85EB51781A002070B51F4C1F4E204B80
:10E6A0002060054610F0020031601A600ED1EB07C1
:10E6B00017D41C481C4A0021FEF72AFCF0B91B485D
:10E6C0001B4A0121BDE87040FEF722BC194B1A48D5
:10E6D0000D244A081C700121FDF7BEFF80B1EA0736
:10E6E0000DD54FF0A0434FF420220021C3F8082598
:10E6F000C3F80C15C3F818250028DAD070BD70BD1A
:10E70000FEF702F80028EAD101460C4A0C48FEF751
:10E71000FFFBE907F0D5E4E7281A0020501A002093
:10E72000541A0020CC1D0200BDDE0100D81D0200DD
:10E7300019DE0100801A0020D01D02006DE20100E8
:10E74000C81D020071DF704772DF704779DF7047C4
:10E750007DDF704765DF7047F0B50488012C83B01A
:10E7600007D0148804F1020E9E4505D90C2003B091
:10E77000F0BD072003B0F0BD0578012D04D1457828
:10E7800002352544AB42F1D3023B0F461C1B02A9C4
:10E79000A4B2054621F8024D07EB0E001646FFF71E
:10E7A000D7FF0028E3D12B78022B17D0012B11D0F3
:10E7B00023460821FE2BD9D83288581CB8543288F9
:10E7C000013292B23280B95432880132134433801C
:10E7D0000020CCE76B789C42EBD2E9E7BDF806302D
:10E7E0009C42E5D30921E5E72DE9F04F85B083464A
:10E7F0000E9D00882C880194BDF83C9000284ED0D6
:10E8000000278A46164698463C4604E0BBF800308E
:10E810000134A34226DDDBF8043053F824000390D2
:10E820000DF10B0103A80022FFF794FF18BB9DF820
:10E830000B30B342EAD10FB32A8893194B4519DC48
:10E84000424403A80DF10B010127FFF783FF90B9A4
:10E850002B889DF80B2013442B80BBF8003001342B
:10E86000A342D8DCDFB12B88019A013B9B1A9BB2F3
:10E87000FF2B12D90C2005B0BDE8F08F2B885A1C55
:10E88000334402334B4592B2F4DC2A8008F802A0EC
:10E890002A88013292B22A80D2E708F8023000209A
:10E8A00005B0BDE8F08F00BF2DE9F04700231788C1
:10E8B0001380446B84B0BCB1022F247803D80C20A1
:10E8C00004B0BDE8F08702230B70138801339BB2BC
:10E8D00011251380CD54138801339BB21380CC547F
:10E8E00014880134A4B21480036B002B6FD004F1A0
:10E8F0001205BD42E3D811250D5514880134A4B288
:10E90000102514800D5514880134A4B21480DD7BC9
:10E910000D5514880134A4B214809D7B0D551488C4
:10E920000134A4B214805D7B0D5514880134A4B267
:10E9300014801D7B0D5514880134A4B21480DD7A37
:10E940000D5514880134A4B214809D7A0D55148895
:10E950000134A4B214805D7A0D5514880134A4B238
:10E9600014801D7A0D5514880134A4B21480DD7909
:10E970000D5514880134A4B214809D790D55148866
:10E980000134A4B214805D790D5514880134A4B209
:10E9900014801D790D5514880134A4B21480DD78DB
:10E9A0000D5514880134A4B214809D780D55148837
:10E9B0000134A4B214805D780D5514880134A4B2DA
:10E9C00014801B780B5514880134A4B2148090F87D
:10E9D0002E30002B5FD190F82D300D460646904624
:10E9E000002B71D1B378002B40F0A280F378D3B123
:10E9F000E21CBA423FF663AF02222A55B8F8002063
:10EA0000013292B20121A8F80020A954B8F80020E0
:10EA10000A4492B2A8F80020AB54B8F800400C4465
:10EA2000A4B2A8F800407268D2B1E31CBB421278CD
:10EA30003FF645AF02232B55B8F8003001339BB2A7
:10EA40000A21A8F80030E954B8F8003001339BB22D
:10EA5000A8F80030EA54B8F800300133A8F80030C4
:10EA60003389002B40F01181338A002B40F08F81D5
:10EA7000338B002B40F0A681336A002B00F0C58059
:10EA8000B8F80020911DB9423FF619AF1988052941
:10EA900077D8072014E7E51CBD423FF610AF0225EA
:10EAA0000D5514880134A4B21C2514800D5514880A
:10EAB0000134A4B2013B1480032BEAD8DFE813F041
:10EAC000610164015E0157010934BC423FF6F7AEB3
:10EAD00002A8FFF737FE00287FF4F2AEB8F8003046
:10EAE0000822EA54B8F8003001339BB21B22A8F880
:10EAF0000030EA54B8F80000013080B2A8F80000F5
:10EB0000062228440DF1090102F020FDB8F800307A
:10EB10009DF8082006339BB2A8F8003002B101220C
:10EB2000EA54B8F800400134A4B2A8F8004059E70C
:10EB30000434BC423FF6C3AE02A8FFF707FE00282C
:10EB40007FF4BEAEB8F80030BDF808200321E954C8
:10EB5000B8F8003001339BB21921A8F80030E9540D
:10EB6000B8F8003001339BB2E918A8F80030100A59
:10EB7000EA544870B8F800400234A4B2A8F8004043
:10EB800034E76FF4486C01EB0C0080B24FF27D3437
:10EB9000A0427FF67EAF588805287FF67AAF6FF4E3
:10EBA000486E86441FFA8EFEA6457FF672AF4FF67A
:10EBB000FF74A14204D0A04202D081423FF669AF67
:10EBC0000521A954B8F80020013292B21221A8F808
:10EBD0000020A954B8F80020013292B2A8F8002011
:10EBE0001988A9542A44090A5170B8F80020023241
:10EBF00092B2A8F800205B88AB542A441B0A5370D9
:10EC0000B8F800300233A8F80030746AACB3A288B8
:10EC1000B8F80010131D0B44BB423FF650AE931CD6
:10EC2000FE2B3FF64CAE03326A54B8F80030013385
:10EC30009BB2FF22A8F80030EA54B8F80030013344
:10EC40009BB2A8F800302288EA542B44120A5A706A
:10EC5000B8F80000023080B2A8F80000A28862B1C3
:10EC6000A16800293FF415AF284402F06FFCA38887
:10EC7000B8F800201344A8F8003096F82C30FBB9FF
:10EC80003378002B6CD118461AE606F108040221ED
:10EC9000CDF80080019720460A462B46FFF7A4FDD9
:10ECA00000287FF40DAECDF80080019720460621A4
:10ECB00010222B46FFF798FD00287FF401AED3E623
:10ECC000B46A002C3FF4E5AEA2880232FE2A3FF679
:10ECD000F6ADB8F800304FF000094FF0160A07E023
:10ECE000B46A04EB8104A2880232FE2A3FF6E7AD43
:10ECF0000132EA54B8F8003001339BB2A8F8003072
:10ED000005F803A0B8F8003001339BB2A8F8003032
:10ED10002288EA542B44120A5A70B8F800300233A1
:10ED20009BB2A8F80030A188E8180A4669B1A36828
:10ED30001946002B3FF4ADAE02F008FCA388B8F8EA
:10ED4000002013449BB2A8F8003009F1010996F89D
:10ED50002C205FFA89F94A4509EB4901C0D88FE7B1
:10ED60003046294642463B46FFF7F6FCA8E503231A
:10ED70000B5514880134A4B214802CE602230B55E1
:10ED8000F7E700230B55F4E701230B55F1E706F1F4
:10ED90001004CDF8008001972046032102222B4663
:10EDA000FFF722FD00287FF48BADCDF8008001979E
:10EDB0002046072110222B46FFF716FD00287FF47E
:10EDC0007FAD55E606F11804CDF800800197204686
:10EDD000142102222B46FFF707FD00287FF470ADB7
:10EDE000CDF8008001972046152110222B46FFF711
:10EDF000FBFC00287FF464AD3EE600BF2DE9F04344
:10EE000095B01F230D46ADF80E300446002800F0E3
:10EE10009F80C3785B0740F19780436B0022ADF879
:10EE20000C20002B00F06F811B788DF8123003222C
:10EE3000022011218DF810001346ADF80C208DF83A
:10EE4000111005200426216B002965D014AA134453
:10EE50001644112703F8407C102214AB06F8402C0E
:10EE60000344CA7B03F8402C14AB03448A7B03F8A9
:10EE70003F2C14AB03444A7B03F83E2C14AB0344F1
:10EE80000A7B03F83D2C14AB0344CA7A03F83C2CEC
:10EE900014AB03448A7A03F83B2C14AB03444A7A3C
:10EEA00003F83A2C14AB03440A7A03F8392C14AB58
:10EEB0000344CA7903F8382C14AB03448A7903F865
:10EEC000372C14AB03444A7903F8362C14AB0344B3
:10EED0000A7903F8352C14AB0344CA7803F8342CB0
:10EEE00014AB03448A7803F8332C00F10E0314AA00
:10EEF000ADF80C3013444E7803F8406C00F10F026B
:10EF000014AB1344ADF80C2000F11002097803F89B
:10EF1000401CADF80C2092B294F82E30002B40F03B
:10EF2000158294F82D30002B40F01F81A378002B20
:10EF300040F05281E378002B3AD0D11C1F2922D90E
:10EF40000C2015B0BDE8F083072015B0BDE8F083B4
:10EF5000ADF80C00002D00F0DA80EB78002BF3D137
:10EF600028460CA90DF10E02FFF79EFC0028ECD1FB
:10EF70009DF80E300CAA20469DF80C10FFF7E4FB1C
:10EF800015B0BDE8F083561C14AF901C17FA86F636
:10EF9000174414AA12FA80F04FF0020E8AB201212F
:10EFA00007F840ECADF80C2006F8401C00F8403C97
:10EFB0006368B3B1D11C1F291E78C1D814AF501C8F
:10EFC000931C17FA80F03A4417FA83F34FF0020EBD
:10EFD0000A2702F840ECADF80C1000F8407C03F86A
:10EFE000406C2389002B40F09780238A002B40F04F
:10EFF0001D81238B002B40F03781236A002B42D0E8
:10F00000BDF80C20911D1F299AD8188805289BD976
:10F010006FF4486C00EB0C06B6B24FF27D37BE427F
:10F0200092D95E88052E8FD96FF4486EB6441FFAC8
:10F030008EFEBE4588D94FF6FF77B84203D0BE4258
:10F0400001D0B04280D814A8561C10FA86F600EB06
:10F05000020E901C80B212274FF0050C0EF840CC27
:10F06000ADF80C0006F8407C1F88ADF80C1004AE1B
:10F070003118375404323F0A4F7092B25B88B35450
:10F0800032441B0A5370676A9FB3B888BDF80C30CE
:10F09000811C9A1C56181F2E3FF652AFFE293FF6D0
:10F0A0004FAF14AE591C06EB030E16FA81F192B263
:10F0B0000330FF260EF8400CADF80C2001F8406C30
:10F0C000398804AEB018B154090A41700433BA88C3
:10F0D00098B2ADF80C0062B1B96800293FF434AFC2
:10F0E000304402F033FABDF80C30BA881344ADF85E
:10F0F0000C3094F82C30002B40F0D48004AE2378F0
:10F1000043BB344626E71A46022001269BE62B46DF
:10F11000ADF80E502A462EE703AA04F1080704AE04
:10F120004FF01F0802218DE80401384633460A4695
:10F13000FFF75AFB00287FF408AF03AB8DE8080106
:10F140003846334606211022FFF74EFB00287FF495
:10F15000FCAE4AE72046314603AA1F23FFF7FCFA1C
:10F1600000287FF4F2AE3446F4E609321F2A3FF657
:10F17000E7AE0CA8FFF7E6FA00287FF4E6AEBDF88C
:10F180000C3014AA03F1010E12FA8EFE9F1C1344D8
:10F19000BFB24FF01B0C04AE4FF0080803F8408CD0
:10F1A0000DF131010622F0190EF840CCADF80C70CB
:10F1B00002F0CCF9BDF80C209DF83010931D9BB2E5
:10F1C000002940F0BD8014A8034403F8401C073216
:10F1D00092B2ADF80C20A9E604321F2A3FF6B0AE79
:10F1E0000CA8FFF7B3FA00287FF4AFAEBDF80C30DF
:10F1F000BDF83070991C14AA581C89B204AE02EBF9
:10F20000030812FA80F0043306EB010E9AB24FF0B5
:10F2100003094FF0190C3B0A08F8409CADF80C208C
:10F2200000F840CC77548EF8013083E603AA04F14D
:10F23000100704AE4FF01F088DE80401384633462E
:10F2400003210222FFF7D0FA00287FF47EAE03AB41
:10F250008DE808013846334607211022FFF7C4FA2B
:10F2600000287FF472AEC4E603AA04F1180704AEC6
:10F270004FF01F088DE8040138463346142102225E
:10F28000FFF7B2FA00287FF460AE03AB8DE8080107
:10F290003846334615211022FFF7A6FA00287FF4DE
:10F2A00054AEAAE6A76A002F3FF44EAEB9880231E9
:10F2B000FE293FF645AE9E46BDF80C304FF00008E3
:10F2C00004AE4FF0160914AA581C02EB030C12FAF4
:10F2D00080F09A1C92B201310CF8401CADF80C2061
:10F2E00000F8409C3988B1543244090A5170043303
:10F2F000B9889BB20A46F018ADF80C3079B1BB68FA
:10F300001946002B3FF420AE02F020F9BDF80C3076
:10F31000BA8894F82CE013449BB2ADF80C3008F195
:10F3200001085FFA88F8F04508EB4807BFF4E7AE3C
:10F33000A26A02EB8707B9880231FE29C3D9FFE52B
:10F3400014A90B44012103F8401C40E714A9501CE8
:10F3500014AE11FA80F04FF0020E16441C2702EB97
:10F360000E01013B06F840EC89B200F8407C032B0B
:10F370003FF6EAADDFE803F00218120C14AB1944B3
:10F38000002301F8403C033292B2ADF80C20C8E5EE
:10F3900014AB1944032301F8403CF4E714AB1944BF
:10F3A000022301F8403CEEE714AB1944012301F8B5
:10F3B000403CE8E7F0B5984B1B78062B1AD0974AEB
:10F3C000D2F8883043F47003C2F88830BFF34F8F0F
:10F3D000BFF36F8F4FF01023D3F80022002AC0F242
:10F3E000EA80D3F80432002BC0F2E5808C4B8D4AC2
:10F3F0001A60F0BD8C4B1B681D07E0D18B4B1B685E
:10F4000003F0F003302B00F0D280884B1B6803F030
:10F41000F002302A6FD003F0E003402B6BD0834B17
:10F420001B6803F0F003302B00F0B1807F4B1B68AA
:10F4300003F0F002302A6FD003F0E003402B6BD0D2
:10F440007A4B1B6803F0F003302B00F09280774B6F
:10F450001B6803F0F003302B72D0744B1B6803F071
:10F46000F003502BABD14FF08052714BD2F8041403
:10F47000C3F82015D2F80814C3F82415D2F80C14D8
:10F48000C3F82815D2F81014C3F82C15D2F81414A8
:10F49000C3F83015D2F81814C3F83415D2F81C1478
:10F4A000C3F84015D2F82014C3F84415D2F8241438
:10F4B000C3F84815D2F82814C3F84C15D2F82C1408
:10F4C000C3F85015D2F83014C3F85415D2F83414D8
:10F4D000C3F86015D2F83814C3F86415D2F83C1498
:10F4E000C3F86815D2F84014C3F86C15D2F8442458
:10F4F000C3F8702563E74F4B474A1B6812784E49A3
:10F50000C3F34233062A0B607FF459AF464B1B68A6
:10F510001C077FF454AF82E73F4B1B784FF08042CB
:10F520000021062BC2F80C11C2F81011C2F83815D0
:10F530007FF445AF3C4B1B6819077FF440AF7FE772
:10F54000354B3E4F1A783E4D3E483F4B4FF0050E2F
:10F55000012600243F21062AC7F800E02E6004603F
:10F5600019607FF42CAF304B1B681B077FF427AF6B
:10F5700073E7294B354A1B780321062B11607FF472
:10F580001EAF294B1B681A077FF419AF5FE7304A9B
:10F590002149D368097823F080730629D3607FF46A
:10F5A0000EAF214B1B6818077FF409AF3EE7294BCC
:10F5B000294A1A6029E7294B0122C3F80425D3F808
:10F5C0000024002AFBD04FF0102315222349C3F852
:10F5D0000022D1F80034002BFBD04FF0102315226D
:10F5E0001E49C3F80422D1F800241C4B002AFAD08B
:10F5F0000022C3F80425D3F80024002AFBD0BFF36F
:10F600004F8F0649164BCA6802F4E0621343CB6081
:10F61000BFF34F8F00BFFDE7E00F00F000ED00E00B
:10F62000D41800200090D003E40F00F0E80F00F0A1
:10F6300000C00040440200103C050040105600404D
:10F64000885600401856004014560040A00500405F
:10F65000F0ED00E074C007400DF0ADBA00E00140ED
:10F660000400FA0552DF704710DF704760DF704713
:10F6700061DF704708B5FDF76DF808BD2DE9F0436F
:10F68000DFF8B8802B4FDFF8B8902B4ED8F8005039
:10F690003C68B5FA85F5B4FA84F483B06D09640961
:10F6A0004DB11CB303B0BDE8F083D8F80030019829
:10F6B00098475CB1012401A8FFF7D4FF052826D0A4
:10F6C0000028F2D0FDF736F8002CF3D13468B9F8F1
:10F6D0000030ADF80430204601A9FFF7C9FF052826
:10F6E000E8D080B1FDF726F80024D9E73468B9F8EE
:10F6F0000030ADF80430204601A9FFF7B9FF052816
:10F70000D0D00028EED120463B689847ECE7002C8B
:10F71000C8D13468B9F80030ADF80430204601A9EA
:10F72000FFF7A6FF05284FF00105DAD103B0BDE8C9
:10F73000F08300BF901A0020881A00208C1A002045
:10F74000841A0020F8B50C4609B1A10701D00720A2
:10F75000F8BD144F144E154D15492B603C60328096
:10F76000FFF782FF034600B1F8BD124A124901209B
:10F77000107091F816235209901E052809D8043AF2
:10F78000012A06D90D4A906830B94FF480030B6006
:10F79000F8BD42F20200F8BD116841F48001116029
:10F7A0001846F8BD881A0020841A0020941A0020F8
:10F7B00075F60100831A002000E100E0E41C00203F
:10F7C00008B5094B1B6833B1984700B908BDBDE8BF
:10F7D0000840FCF7AFBF054B1B78002BF6D0BDE807
:10F7E0000840FFF74BBF00BF941A0020831A002087
:10F7F00070B5144605460E46104600211422FCF74B
:10F80000A1FE227B2672002363F3000201216572B0
:10F8100022732361218005B1A172002070BD00BF59
:10F8200082B0034B0193019B002002B0704700BFE0
:10F830007018002000B583B0054B019302A9019B0D
:10F8400041F8083DFFF712FF03B05DF804FB00BF6D
:10F850007018002073DF704748DF70470000000019
:10F860002DE9F04F2DED048BC7B0002164222DA8A7
:10F87000FCF768FE00F046FA4FF0A0434FF4002278
:10F880000325C3F818256420C3F84C57C3F80C258A
:10F89000FDF70EFC002401238DF831308DF8303057
:10F8A0008DF82F308DF82C500BAB8DF82E408DF845
:10F8B0002D4093E8030000F061FA2046234605211D
:10F8C000CB4AFDF7B7FA08B1FCF734FF012040F648
:10F8D000CD410022FEF7E0FE08B1FCF72BFFC54B3F
:10F8E000C54918681290482212A80023FFF72AFF82
:10F8F00008B1FCF71FFF00201FAA0146FFF778FFA1
:10F9000008B1FCF717FFBD48FFF78AFF08B1FCF705
:10F9100011FF1FA8FFF78EFF08B1FCF70BFF4FF098
:10F92000A04300244FF42022C3F80C25B448C3F8A8
:10F93000084500F083FEB34BB34D1868DFF8E4824E
:10F9400012941021F02203234FF0720E69262970C1
:10F950006A7023217522AB7076272E23139414949A
:10F96000159416941794189419941A941B941C9433
:10F970001D94ADF8784085F803E02E7269722A7103
:10F980006A71AB71AB72EB722B736B73AB73EB730E
:10F990002B746B74AB74EF710D90D8F80030119527
:10F9A0000A33214638224FF6AA661FA8ADF8403028
:10F9B000ADF83C60FCF7C6FD0123214606228DF818
:10F9C0007C40ADF88C300DAC8DF8A8301FA80FAB83
:10F9D00024948DF87F202993FFF710FA08B1FCF7E3
:10F9E000A9FE0021182289480C46FCF7ABFD874888
:10F9F0000326A02721461822067044600472448220
:10FA00000782FCF79FFD81480670446004720782FC
:10FA10004482FFF71FFF08B1FCF78CFE0220FEF7BF
:10FA200037FC08B1FCF786FEDFF8FCB10023CBF809
:10FA300000309A46FFF710FF08B1FCF77BFE4FF449
:10FA40007A709FED738AFDF733FBF0EE488AB0EED3
:10FA5000489A0A2400F094FD39EE009A00F010FC58
:10FA600078EE808A00F022FD642038EE008AFDF7EF
:10FA70001FFB013CEED1F2EE049AC9EE297A012374
:10FA80008DF8343088EE298A17EE900A78EE087ADD
:10FA9000FCEEE77ACDED047A9DF810408DF8354004
:10FAA00000F0D4FF00225B4BCDE9040101F022F805
:10FAB00001F032FAC8EEA97A1FFA80F9ADF8369053
:10FAC00017EE900A00F0C2FF47A3D3E900230646D1
:10FAD0000F4600F05BFE01F047FADBF80030ADF8AE
:10FAE0003A3080B2BAF1040FADF8380040F2D0805D
:10FAF000079B994503D1089B834200F0CE8018EE06
:10FB0000100A00F0A3FF9DED047B02468DED007B03
:10FB10000B46CDE9026740492DA801F023FDBDF851
:10FB20003640BDF83800BDF83A109DF835309DF8E4
:10FB300034200094019002912DA8384901F012FD63
:10FB40000021322212A8FCF7FDFC0DA9082212ABFD
:10FB50002B4800F07BFD12AA034611182848C8F86C
:10FB6000003000F0C1FDD8F80030002103440C2221
:10FB70002348C8F800301024FCF7E4FCF0200321EF
:10FB8000722275234FF02E0E2C706870A970EA70E7
:10FB90007627692623242248D8F800202B7112A941
:10FBA0006B7185F806E0EF712E726C7201F0CEFC7D
:10FBB000D8F80030092B5AD0124A0A3310680A903C
:10FBC0004FF6AA640021ADF8403038220E4B119355
:10FBD0001FA8ADF83C40FCF7B5FC0AA80022249011
:10FBE00024E000BFAFF3008000000000006AE8409E
:10FBF000F41A0020DC1D0200981A00207018002062
:10FC0000E41A0020E01D0200D8180020BC1C0020CF
:10FC10000000000000007040E41D0200141E0200FD
:10FC2000E2180020E01A0020F01A00200FA801239B
:10FC30000624299011461FA88DF87C208DF87F405E
:10FC4000ADF88C308DF8A830FFF7D8F808B1FCF784
:10FC500071FD002118221348FCF774FC11480023A1
:10FC60000321A022017043600372438202829DF847
:10FC700035300993BDF836300793BDF83830089316
:10FC80004FF0010ADBF800300133CBF80030D1E649
:10FC90000AF1010A5FFA8AFAF4E7099B9C427FF4B1
:10FCA0002EAFEFE7BC1C0020014B01221A707047F9
:10FCB000D41C0020F0B5114C83B04FF0A0460D4687
:10FCC0004FF0000E08271346014684F800E02A464C
:10FCD000C6F80C750A480095FDF7BCFF08B10AE0AC
:10FCE00020BF2378002BFBD04FF0A0430822C3F89D
:10FCF000082503B0F0BDFCF71DFDF2E7D41C002081
:10FD00005C1E02002DE9F047194B0FCB84B04FF079
:10FD1000A0444FF0080E03274FF480764FF01D0AE1
:10FD20004FF01C094FF019084FF0804C8DE80F0080
:10FD30008DF800A08DF802908DF80180CDF808C0F4
:10FD40006946C4F818E50B48C4F80C770A4AC4F8A9
:10FD500008E5C4F81865C4F82077C4F80865FDF70D
:10FD6000DBFE08B1FCF7E6FC04B0BDE8F08700BF9D
:10FD70004C1E02005C1E0200A9FC01002DE9F043AC
:10FD800085B004AD8DE8030000248922E84FADF86A
:10FD9000084005F8082D0098BDF80430386003AA23
:10FDA00028460221BB80ADF80C40FFF783FF2846B0
:10FDB00003AA882302219DF80D80ADF80840ADF814
:10FDC0000C408DF80830FFF775FF9DF80D30D94EC7
:10FDD000ADF8084003EB08234FF08B0E284603AA2A
:10FDE00002218DF808E03380ADF80C40FFF762FF88
:10FDF000284603AA8A2302219DF80D80ADF8084009
:10FE0000ADF80C408DF80830FFF754FF9DF80D3029
:10FE1000ADF8084003EB08234FF08D0E284603AAE7
:10FE200002218DF808E07380ADF80C40FFF742FF27
:10FE3000284603AA8C2302219DF80D80ADF80840C6
:10FE4000ADF80C408DF80830FFF734FF9DF80D3009
:10FE5000ADF8084003EB08234FF08F0E284603AAA5
:10FE600002218DF808E0B380ADF80C40FFF722FFC7
:10FE7000284603AA8E2302219DF80D80ADF8084084
:10FE8000ADF80C408DF80830FFF714FF9DF80D30E9
:10FE9000ADF8084003EB08234FF0910E284603AA63
:10FEA00002218DF808E0F380ADF80C40FFF702FF67
:10FEB000284603AA902302219DF80D80ADF8084042
:10FEC000ADF80C408DF80830FFF7F4FE9DF80D30CA
:10FED000ADF8084003EB08234FF0930E284603AA21
:10FEE00002218DF808E03381ADF80C40FFF7E2FE07
:10FEF000284603AA922302219DF80D80ADF8084000
:10FF0000ADF80C408DF80830FFF7D4FE9DF80D30A9
:10FF1000ADF8084003EB08234FF0950E284603AADE
:10FF200002218DF808E07381ADF80C40FFF7C2FEA6
:10FF3000284603AA942302219DF80D80ADF80840BD
:10FF4000ADF80C408DF80830FFF7B4FE9DF80D3089
:10FF5000ADF8084003EB08234FF0970E284603AA9C
:10FF600002218DF808E0B381ADF80C40FFF7A2FE46
:10FF7000284603AA962302219DF80D80ADF808407B
:10FF8000ADF80C408DF80830FFF794FE9DF80D3069
:10FF9000ADF8084003EB08234FF0990E284603AA5A
:10FFA00002218DF808E0F381ADF80C40FFF782FEE6
:10FFB000284603AA982302219DF80D80ADF8084039
:10FFC000ADF80C408DF80830FFF774FE9DF80D3049
:10FFD000ADF8084003EB08234FF09B0E284603AA18
:10FFE00002218DF808E03382ADF80C40FFF762FE85
:10FFF000284603AA9A2302219DF80D80ADF80840F7
:020000022000DC
:10000000ADF80C408DF80830FFF754FE9DF80D3028
:10001000ADF8084003EB08234FF09D0E284603AAD5
:1000200002218DF808E07382ADF80C40FFF742FE24
:10003000284603AA9C2302219DF80D80ADF80840B4
:10004000ADF80C408DF80830FFF734FE9DF80D3008
:10005000ADF8084003EB08234FF09F0E284603AA93
:1000600002218DF808E0B382ADF80C40FFF722FEC4
:10007000284603AA9E2302219DF80D80ADF8084072
:10008000ADF80C408DF80830FFF714FE9DF80D30E8
:10009000ADF8084003EB0823284603AA4FF0A10E51
:1000A0000221F3828DF808E0ADF80C40FFF702FE64
:1000B0009DF80DE086F818E0284603AAE223022105
:1000C000ADF80840ADF80C408DF80830FFF7F2FDB0
:1000D000284603AAE12302219DF80D80ADF80840CF
:1000E000ADF80C408DF80830FFF7E4FD9DF80D30B9
:1000F000ADF8084003EB0823284603AA4FF0E30EAF
:10010000022173838DF808E0ADF80C40FFF7D2FDB3
:100110009DF80DE086F81CE0E423284603AA02219E
:10012000ADF808404FF0E5098DF8083004E000BF55
:10013000F01C0020F81C0020ADF80C40FFF7BAFDC1
:10014000284603AA02219DF80D80ADF80840ADF8BD
:100150000C408DF80890FFF7ADFD9DF80D30ADF81F
:10016000084003F00F034FF0E60E03EB0813284698
:1001700003AA02218DF808E0F383ADF80C40FFF7E5
:1001800099FD9DF80D80ADF80840284603AA02218C
:100190008DF80890ADF80C40FFF78CFD9DF80D3000
:1001A000ADF808404FEA081808EB1318284603AAD0
:1001B000E7230221A6F820808DF808304FF074085C
:1001C000ADF80C40FFF776FD9DF80D30ADF8084016
:1001D00003AA2846022186F82230ADF80C408DF89B
:1001E0000880FFF767FDBB787A78ADF80C409B007C
:1001F00003F01C0343EA4213284603AA7526022192
:100200008DF809308DF80860FFF754FD7B79ADF863
:100210000C4003F00703284603AA722602218DF83A
:1002200009308DF80860FFF745FD3A783B79F97899
:100230008DF8088002F003029B0042EA411103F0AE
:100240001C030B4303AA284602218DF80930ADF8A0
:100250000C40FFF72FFD2846D02303AA0221ADF85A
:100260000840ADF80C408DF80830FFF723FD9DF8ED
:100270000D00603818BF012005B0BDE8F08300BF55
:100280002DE9F04F87B006AC4FF0000BF723ADF827
:1002900010B004F8083D05AA20460221ADF814B0BC
:1002A000FFF708FD9DF81550ADF810B02046F82373
:1002B00005AA022102958DF81030ADF814B0FFF7B1
:1002C000F9FC2046F9239DF81540ADF810B005AAB9
:1002D000022103948DF81030ADF814B0FFF7EAFC5A
:1002E0006F4BDFF8C4A11E68BAF90A20BAF90800FA
:1002F000BAF810C04FEAE679B6F5FA3649F1FF3799
:1003000006FB07F3A6FB068909EB4309D317C117C0
:1003100008FB03F400FB07FE02FB094406FB01EEA9
:10032000A8FB0223A0FB060123447144140A44EAFB
:1003300003641D1202030B03121943EA1053BAF8A7
:1003400006409DF815E06B41003243F50043A2FBE7
:10035000040104FB03114B100093CB170193DDE95B
:1003600000010143BAF80E30BAF80C4000F0938057
:1003700018B2039B029D4FEA1E1EC1174EEA031ED0
:1003800000FB07F30FFA8CF206FB0133A0FB06011A
:1003900019444EEA053ED317CEF5801E4F0408FBE4
:1003A00003F102FB091147EAD037A8FB02234604F8
:1003B0007046921924B20B444FEAE0714FEAC40927
:1003C0007B414FEACE7412EB0B024FEAC17543EB4F
:1003D000090345EA5E05A41A65EB0305261945EBFA
:1003E000050736196F41BB01B20143EA9663B6189F
:1003F0005F41BB00B20043EA9673161943EB050751
:10040000BB00B20043EA96731646A0191F4645EB9F
:100410000701DDE9002300F0C7FDBAF916204D13EE
:10042000440B44EAC14402FB05F6D31704FB036600
:10043000A2FB04233344BAF9146004FB03F305FB65
:100440000235F717A4FB022306FB01F42B4400FB43
:1004500007444FEA5268A6FB0067274448EAC318DE
:10046000F40C10EB08004FEA636944EA473441EBAF
:100470000901FD142418BAF912604D41200A40EA1E
:10048000056032011218120A07EE902AB8EEE70A48
:1004900007B0BDE8F08F9FED030A07B0BDE8F08F0D
:1004A0001C1D002000000000F81C00202DE9F04178
:1004B00082B002AD0024FD23ADF8004005F8083DF0
:1004C00001AA28460221ADF80440FFF7F3FB2846B5
:1004D00001AAFE230221ADF800409DF805608DF8C9
:1004E0000030ADF80440FFF7E5FB234B23481B68C1
:1004F000027F90F82280B0F91EE0B0F92050B0F9E8
:100500001A10047E9DF805C0A3F5963707FB02F28A
:1005100007FB08F3D21202F500409A1200FB02F228
:100520004CEA06234FEA0E509212C0EB833302F5D9
:10053000001207FB153301FB02F203F5804302F5BD
:1005400000529213DB1302FB03F3DA1302FB02F2F5
:10055000D21104FB02F2A3EB221323EAE373B3F1FB
:10056000C85FA8BF4FF0C8539B1500EE103AB8EE15
:10057000C00A02B0BDE8F0811C1D0020F81C00205C
:10058000F0B583B002AF0026FA23ADF8006007F89B
:10059000083D01AA38460221ADF80460FFF78AFB46
:1005A000FB23384601AA02219DF80550ADF80060F2
:1005B000ADF804608DF80030FFF77CFB384601AAE7
:1005C000FC2702219DF80540ADF80060ADF80460FD
:1005D0008DF80070FFF76EFB15489DF80510B0F917
:1005E0000220B0F90470DFED137A134E2D0345EAB3
:1005F0000414058844EA1111C5EB11106B00C3EB1C
:10060000D10300FB00F002FB03F3001307FB00F033
:10061000DB1203EBA03303EB83028032121200EEF5
:10062000102AB8EEC00A336080EE270A03B0F0BD8E
:10063000F81C00200000C8421C1D002000234FF0C1
:10064000FF32826003604360704700BF2DE9F04FC6
:10065000DFF88CC0DFF88CE00A4400274FF05B0A1B
:10066000914211D0466811F8014B0568B44006F17B
:1006700008082C43B8F10D0FC4F30C05046006D82C
:100680009142C0F80480EDD13846BDE8F08F582D76
:1006900021D9640B053EA5FB0E89C9EB050809EBC2
:1006A0005809AEFB05B8C8EB050B4FEA991908EBE2
:1006B0005B080AFB19554FEA981807F101091CF865
:1006C00005B01CF8085080E8500003F807B003F8A4
:1006D00009500237C4E7C4F30D05063EA40BDAE760
:1006E000641E02006981166830B403464068D8B1C0
:1006F0001D681348134CA0FB0502A81A02EB500218
:1007000090095B2202FB1052A25C0A7093E805007C
:10071000072A11D90A4AA2FB0052801A02EB5002A2
:1007200092090220A25C4A7000224FF0FF311A6049
:100730005A60996030BC70475A28EBD80120F3E723
:1007400069811668641E02000649074A074B9B1A16
:1007500003DD043BC858D050FBDCFEF72BFEFBF753
:100760007DFE0000001F020070180020F818002015
:10077000FEE7FEE7FEE7FEE7FEE7FEE7FEE7FEE751
:10078000FEE7FEE781F0004102E000BF83F0004396
:1007900030B54FEA41044FEA430594EA050F08BF1C
:1007A00090EA020F1FBF54EA000C55EA020C7FEAE0
:1007B000645C7FEA655C00F0E2804FEA5454D4EB5D
:1007C0005555B8BF6D420CDD2C4480EA020281EA27
:1007D000030382EA000083EA010180EA020281EA5F
:1007E0000303362D88BF30BD11F0004F4FEA0131B1
:1007F0004FF4801C4CEA113102D0404261EB4101C0
:1008000013F0004F4FEA03334CEA133302D0524245
:1008100063EB430394EA050F00F0A780A4F1010401
:10082000D5F1200E0DDB02FA0EFC22FA05F280183B
:1008300041F1000103FA0EF2801843FA05F3594121
:100840000EE0A5F120050EF1200E012A03FA0EFCA0
:1008500028BF4CF0020C43FA05F3C01851EBE371CA
:1008600001F0004507D54FF0000EDCF1000C7EEBE7
:1008700000006EEB0101B1F5801F1BD3B1F5001F25
:100880000CD349085FEA30004FEA3C0C04F1010444
:100890004FEA445212F5800F80F09A80BCF1004F6D
:1008A00008BF5FEA500C50F1000041EB045141EAEF
:1008B000050130BD5FEA4C0C404141EB010111F4F0
:1008C000801FA4F10104E9D191F0000F04BF01469B
:1008D0000020B1FA81F308BF2033A3F10B03B3F179
:1008E00020020CDA0C3208DD02F1140CC2F10C0209
:1008F00001FA0CF021FA02F10CE002F11402D8BF67
:10090000C2F1200C01FA02F120FA0CFCDCBF41EA32
:100910000C019040E41AA2BF01EB0451294330BD01
:100920006FEA04041F3C1CDA0C340EDC04F11404DE
:10093000C4F1200220FA04F001FA02F340EA0300B5
:1009400021FA04F345EA030130BDC4F10C04C4F1FB
:10095000200220FA02F001FA04F340EA03002946DB
:1009600030BD21FA04F0294630BD94F0000F83F425
:10097000801306BF81F480110134013D4EE77FEA08
:10098000645C18BF7FEA655C29D094EA050F08BF54
:1009900090EA020F05D054EA000C04BF1946104635
:1009A00030BD91EA030F1EBF0021002030BD5FEA79
:1009B000545C05D14000494128BF41F0004130BDA1
:1009C00014F580043CBF01F5801130BD01F00045F5
:1009D00045F0FE4141F470014FF0000030BD7FEA68
:1009E000645C1ABF194610467FEA655C1CBF0B4663
:1009F000024650EA013406BF52EA033591EA030F7A
:100A000041F4002130BD00BF90F0000F04BF002171
:100A1000704730B54FF4806404F132044FF00005A4
:100A20004FF0000150E700BF90F0000F04BF00211D
:100A3000704730B54FF4806404F1320410F0004583
:100A400048BF40424FF000013EE700BF42004FEA7E
:100A5000E2014FEA31014FEA02701FBF12F07F43FB
:100A600093F07F4F81F06051704792F0000F14BFF8
:100A700093F07F4F704730B54FF4607401F000453C
:100A800021F0004120E700BF50EA010208BF704793
:100A900030B54FF000050AE050EA010208BF704788
:100AA00030B511F0004502D5404261EB41014FF4F1
:100AB000806404F132045FEA915C3FF4DCAE4FF0F5
:100AC00003025FEADC0C18BF03325FEADC0C18BFDC
:100AD000033202EBDC02C2F1200300FA03FC20FA2D
:100AE00002F001FA03FE40EA0E0021FA02F114447A
:100AF000C1E600BF70B54FF0FF0C4CF4E06C1CEA8F
:100B000011541DBF1CEA135594EA0C0F95EA0C0F03
:100B100000F0DEF82C4481EA030621EA4C5123EA76
:100B20004C5350EA013518BF52EA033541F48011A5
:100B300043F4801338D0A0FB02CE4FF00005E1FB58
:100B400002E506F00042E0FB03E54FF00006E1FBA2
:100B500003569CF0000F18BF4EF0010EA4F1FF04E5
:100B6000B6F5007F64F5407404D25FEA4E0E6D4125
:100B700046EB060642EAC62141EA55514FEAC52036
:100B800040EA5E504FEACE2EB4F1FD0C88BFBCF5B2
:100B9000E06F1ED8BEF1004F08BF5FEA500E50F163
:100BA000000041EB045170BD06F0004646EA010129
:100BB00040EA020081EA0301B4EB5C04C2BFD4EB5B
:100BC0000C0541EA045170BD41F480114FF0000E54
:100BD000013C00F3AB8014F1360FDEBF002001F0C2
:100BE000004170BDC4F10004203C35DA0C341BDC3C
:100BF00004F11404C4F1200500FA05F320FA04F00E
:100C000001FA05F240EA020001F0004221F0004141
:100C100010EBD37021FA04F642EB06015EEA430EB4
:100C200008BF20EAD37070BDC4F10C04C4F12005E4
:100C300000FA04F320FA05F001FA04F240EA020097
:100C400001F0004110EBD37041F100015EEA430E68
:100C500008BF20EAD37070BDC4F1200500FA05F288
:100C60004EEA020E20FA04F301FA05F243EA020307
:100C700021FA04F001F0004121FA04F220EA020016
:100C800000EBD3705EEA430E08BF20EAD37070BD5C
:100C900094F0000F0FD101F00046400041EB01013C
:100CA00011F4801F08BF013CF7D041EA060195F01E
:100CB000000F18BF704703F00046520043EB0303D8
:100CC00013F4801F08BF013DF7D043EA06037047C5
:100CD00094EA0C0F0CEA135518BF95EA0C0F0CD0D0
:100CE00050EA410618BF52EA4306D1D181EA030116
:100CF00001F000414FF0000070BD50EA410606BF10
:100D00001046194652EA430619D094EA0C0F02D154
:100D100050EA013613D195EA0C0F05D152EA033699
:100D20001CBF104619460AD181EA030101F00041B7
:100D300041F0FE4141F470014FF0000070BD41F000
:100D4000FE4141F4780170BD70B54FF0FF0C4CF4DA
:100D5000E06C1CEA11541DBF1CEA135594EA0C0FF9
:100D600095EA0C0F00F0A7F8A4EB050481EA030E46
:100D700052EA03354FEA013100F088804FEA03332D
:100D80004FF0805545EA131343EA12634FEA0222FB
:100D900045EA111545EA10654FEA00260EF00041BC
:100DA0009D4208BF964244F1FD0404F5407402D20E
:100DB0005B084FEA3202B61A65EB03055B084FEA9F
:100DC00032024FF480104FF4002CB6EB020E75EB9C
:100DD000030E22BFB61A754640EA0C005B084FEAC4
:100DE0003202B6EB020E75EB030E22BFB61A754641
:100DF00040EA5C005B084FEA3202B6EB020E75EB8C
:100E0000030E22BFB61A754640EA9C005B084FEA03
:100E10003202B6EB020E75EB030E22BFB61A754610
:100E200040EADC0055EA060E18D04FEA051545EAFF
:100E300016754FEA06164FEAC30343EA52734FEAA8
:100E4000C2025FEA1C1CC0D111F4801F0BD141EA21
:100E500000014FF000004FF0004CB6E711F4801F86
:100E600004BF01430020B4F1FD0C88BFBCF5E06F66
:100E70003FF6AFAEB5EB030C04BFB6EB020C5FEA76
:100E8000500C50F1000041EB045170BD0EF0004ECB
:100E90004EEA113114EB5C04C2BFD4EB0C0541EAFD
:100EA000045170BD41F480114FF0000E013C90E6FA
:100EB00045EA060E8DE60CEA135594EA0C0F08BFBE
:100EC00095EA0C0F3FF43BAF94EA0C0F0AD150EABD
:100ED00001347FF434AF95EA0C0F7FF425AF104650
:100EE00019462CE795EA0C0F06D152EA03353FF478
:100EF000FDAE1046194622E750EA410618BF52EAF5
:100F000043067FF4C5AE50EA41047FF40DAF52EAC8
:100F100043057FF4EBAE12E74FEA410212F50012EF
:100F200015D211D56FF47873B3EB625212D94FEA30
:100F3000C12343F0004343EA505311F0004F23FA1A
:100F400002F018BF404270474FF00000704750EA6F
:100F5000013005D111F0004008BF6FF0004070472C
:100F60004FF00000704700BF4A0011D212F5001286
:100F700011D20DD56FF47873B3EB62520ED44FEAF1
:100F8000C12343F0004343EA505323FA02F0704771
:100F90004FF00000704750EA013002D14FF0FF30AF
:100FA00070474FF0000070477BB972B90029BEBF8F
:100FB00000204FF0004106E008BF00281CBF6FF082
:100FC00000414FF0FF3000F03BB882B0EC462DE915
:100FD000005000F005F8DDF804E002B00CBC7047EA
:100FE0002DE9F041069C154606460F46984600F04E
:100FF00029F805FB01F300FB0838A5FB0023B21A12
:10100000434467EB0303C4E90023BDE8F08100BF5C
:101010002DE9F041069C904606460F461D4600F01D
:101020005FF900FB05F5A0FB082308FB0155B21A88
:101030002B4467EB0303C4E90023BDE8F08100BF44
:10104000704700BF00292DE9F043C0F2A6800026BA
:10105000002BC0F29C80884694469E461546044666
:101060000F46002B3DD18A4259D9B2FA82F33BB1E7
:10107000C3F120029F4020FA02F29D4017439C409A
:10108000290C220CB7FBF1FEA8B201FB1E7742EA45
:10109000074700FB0EF3BB420AD97F190EF1FF325E
:1010A00080F00581BB4240F20281AEF1020E2F4476
:1010B000FF1AA4B2B7FBF1F301FB137744EA074729
:1010C00000FB03F0B84208D97F1903F1FF3280F02A
:1010D000F080B84240F2ED80023B43EA0E4300222A
:1010E00003E08B420FD900221346341C18BF0124A1
:1010F00060424FF0000565EB450158405140001932
:101100006941BDE8F083B3FA83F2002A40F086809B
:101110008B4202D3844500F2DB800123E5E712B95C
:101120000123B3FBF2F5B5FA85F000283BD1781B1B
:101130004FEA154E1FFA85FC0122B0FBFEF8210C88
:101140000EFB180741EA07470CFB08F3BB4207D91F
:101150007F1908F1FF3102D2BB4200F2BD80884600
:10116000FF1AA4B2B7FBFEF30EFB137744EA07475E
:101170000CFB03FCBC4507D97F1903F1FF3102D2F8
:10118000BC4500F2A7800B4643EA0843ADE7524254
:101190006FEA060663EB43035DE7404261EB410102
:1011A0004FF0FF3654E7C0F1200224FA02F107FAAB
:1011B00000F385404FEA154ED7401943B7FBFEF2C6
:1011C0000B0C0EFB12771FFA85FC43EA07430CFB5E
:1011D00002F79F4204FA00F407D95B1902F1FF30CD
:1011E00074D29F4272D9023A2B44DF1B89B2B7FBFB
:1011F000FEF80EFB187341EA03430CFB08F79F420D
:1012000008D95B1908F1FF315CD29F425AD9A8F185
:1012100002082B44D81B48EA02428EE7C2F12003A1
:101220002CFA03F10EFA02FE20FA03F741EA0E0E41
:1012300008FA02F028FA03F14FEA1E453843B1FBE1
:10124000F5F8030C05FB18111FFA8EF743EA01416C
:1012500007FB08F38B420CFA02FC09D911EB0E01D3
:1012600008F1FF3930D28B422ED9A8F1020871441F
:10127000C91A80B2B1FBF5F305FB131140EA014135
:1012800007FB03F78F4208D911EB0E0103F1FF3082
:1012900016D28F4214D9023B714443EA0843C91B5A
:1012A000A3FB0C89494509D305D000221DE79646CA
:1012B000FEE6134611E794404445F6D2013BF4E7BD
:1012C0000346EAE78846A5E7C846D1E702468CE729
:1012D00013460AE7023B57E7A8F102082F443FE70D
:1012E0002DE9F041002B44D18A42154604464FD9DE
:1012F000B2FA82F70E464FB1C7F12003B94020FA87
:1013000003F602FA07F50E4300FA07F44FEA154E0A
:10131000230CB6FBFEF0AFB20EFB106143EA0143B3
:1013200007FB00F1994209D95B1900F1FF3280F007
:10133000EC80994240F2E98002382B445A1AA4B258
:10134000B2FBFEF30EFB132244EA024207FB03F753
:10135000974208D9521903F1FF3180F0D8809742A3
:1013600040F2D580023B43EA004000263146BDE80A
:10137000F0818B4247D8B3FA83F6002E48D18B42D6
:1013800002D3824200F2CD8001203146BDE8F081D7
:1013900012B90125B5FBF2F5B5FA85F8B8F1000FE1
:1013A00077D14A1B4FEA154EAFB20126B2FBFEF0D1
:1013B000230C0EFB102143EA014107FB00F38B4293
:1013C00007D9491900F1FF3202D28B4200F2BA80EC
:1013D0001046C91AA4B2B1FBFEF30EFB131144EA86
:1013E000014407FB03F7A74208D9641903F1FF3250
:1013F00080F08F80A74240F28C80023B43EA00409D
:101400003146BDE8F081002630463146BDE8F08126
:10141000C6F1200422FA04F5B3402B4320FA04FC61
:1014200001FA06F721FA04F54FEA134E4CEA0707D2
:10143000B5FBFEF8390C0EFB18551FFA83FC41EA88
:1014400005450CFB08F1A94202FA06F204D9ED1891
:1014500008F1FF3467D3A0466D1ABFB2B5FBFEF4A6
:101460000EFB145547EA05410CFB04FC8C4504D9DE
:10147000C91804F1FF355CD32C4644EA0844CCEB90
:101480000101A4FB0223994248D344D02046002600
:101490006CE7C8F1200401FA08F305FA08F520FA10
:1014A00004F7E1404FEA154E1F43B1FBFEF63A0C3C
:1014B0000EFB16111FFA85FC42EA01430CFB06F2F3
:1014C0009A4200FA08F407D95B1906F1FF3137D2C6
:1014D0009A4235D9023E2B449B1ABFB2B3FBFEF0B1
:1014E0000EFB103347EA03430CFB00F1994207D986
:1014F0005B1900F1FF3221D299421FD902382B44E7
:101500005A1A40EA0646674650E7104616E70B4669
:1015100029E7134672E7B0409042B7D2601E00261A
:1015200024E7304622E7A94295D9A8F102081D44D4
:1015300092E78C45A0D9023C19449EE71046DFE7AC
:101540000E46C9E70238294443E700BF10B5431EE1
:101550000A44914204D011F8014B03F8014FF8E717
:1015600010BD00000EB400B59CB04FF40271ADF890
:1015700014106FF00041049107914FF6FF711DABFD
:10158000ADF81610084953F8042B0290069008682D
:10159000019302A900F064F8029B00221A701CB0AB
:1015A0005DF804EB03B07047D01800202DE9F04738
:1015B0008E68B34282460C469046994640D38A894B
:1015C00012F4906F3AD0256809696F1A6569022391
:1015D00005EB450595FBF3F57B1C4B449D4238BF5D
:1015E0001D4653050FD5294600F030FB064698B13D
:1015F00021693A46FFF7AAFFA38923F4906343F0D9
:101600008003A38113E02A4600F076FB064670B9FA
:101610005046216900F0D6FA0C23CAF80030A3899D
:1016200043F04003A3814FF0FF30BDE8F08726610F
:1016300065613E44ED1B2660A5604E46B14500D273
:101640004E4632462068414600F0A1FAA3689B1B33
:10165000A36023681E4426600020BDE8F0870000D8
:101660002DE9F0439DB0064603938B891C060D4679
:1016700090460CD50B6953B9402100F0E7FA286079
:10168000286110B90C233360CCE040236B61002348
:10169000099320238DF8293030238DF82A304346D2
:1016A0001C4613F8012B1AB9B4EB08090FD002E05D
:1016B000252AF5D1F8E73046294642464B46FFF742
:1016C00075FF013000F0A980099B4B4409932378F2
:1016D000002B00F0A28000234FF0FF320493079309
:1016E000059206938DF853301A9304F1010844468D
:1016F000DFF8489121784846052200F039FA08F1D0
:101700000108049B30B1C9EB000001228240134361
:101710000493ECE7D80644BF20228DF85320190724
:1017200044BF2B228DF8532022782A2A02D0079911
:1017300023460EE0039A111D12680391002ABBBFD5
:10174000524243F0020307920792B8BF0493013458
:101750000AE01C4601332278303A092A03D80A20CD
:1017600000FB0121F5E7079123782E2B1AD163782E
:101770002A2B0AD1039B1A1D1B680392002BB8BFAA
:101780004FF0FF33023405930CE0611C00220C463D
:1017900001312378303B092B03D80A2000FB0232A9
:1017A000F5E70592DFF8988021784046032200F0A3
:1017B000DFF938B1049AC8EB00004023834013439B
:1017C0000493013421781A488DF82810062204F178
:1017D000010800F0CDF988B1164B33B9039B0733EC
:1017E00023F007030833039313E003AB0093304661
:1017F00004A92A46104BAFF3008007E003AB009327
:10180000304604A92A460C4B00F092F8421C0746C9
:1018100003D0099B3B44099341E7AB895B0601D4A4
:10182000099801E04FF0FF301DB0BDE8F08300BF24
:10183000C91E020000000000AD150200BF1E02001C
:10184000C51E02002DE9F84391461F468A680B69C0
:10185000DDF820809342B8BF1346C9F8003091F8F4
:10186000432006460C4612B10133C9F80030236804
:10187000990642BFD9F800300233C9F80030256814
:1018800015F006051CD094F843302268003318BFC9
:10189000012392061FD5E1185A1C302081F843001D
:1018A000224494F8451082F84310023313E0304686
:1018B000394604F119020123C047013007D0013530
:1018C000E368D9F800209B1A9D42F0DBDBE74FF07C
:1018D000FF30BDE8F8833046394604F14302C04783
:1018E0000130F4D02268D9F80050E36802F0060213
:1018F000042A08BF5D1B2269A3680CBF25EAE575B1
:1019000000259342C4BF9B1AED184FF00009A9456A
:101910000ADA3046394604F11A020123C047013081
:10192000D5D009F10109F2E70020BDE8F8830000F5
:101930002DE9FF410C461746227E6E2A9846064640
:101940000A9B01F1430100F0AF8012D8632A23D033
:101950000AD8002A00F0BC80582A40F0CB8084F8D6
:101960004520DFF804E257E0642A1ED0692A1CD023
:10197000C0E0732A00F0B08009D86F2A2ED0702AF8
:1019800040F0B880226842F0200222603FE0752AD1
:1019900024D0782A3BD0ADE01A68111D1960136875
:1019A00084F8423004F14205A8E020681A6810F07B
:1019B000800F02D0101D186008E010F0400F02F1F7
:1019C0000400186002D0B2F9003000E01368002B68
:1019D0003EDA2D225B4284F8432039E020681A6801
:1019E00010F0800F02D0101D186007E010F0400FBB
:1019F00002F10400186001D0138800E01368227E11
:101A0000DFF864E16F2A0CBF08220A221CE078226A
:101A1000DFF858E184F845202268186812F0800F3A
:101A200000F104051D6003D1550601D5038800E0CF
:101A30000368D00744BF42F0200222601BB922682D
:101A400022F0200222601022002084F8430002E0ED
:101A5000DFF814E10A226568A560002DA2BF2068A6
:101A600020F00400206003B965B10D46B3FBF2F02D
:101A700002FB10331EF8033005F8013D0346002831
:101A8000F4D100E00D46082A0BD12368DA0708D507
:101A9000236962689A42DEBF302305F8013C05F1F4
:101AA000FF35491B21612EE025681A68606915F031
:101AB000800F03D0151D1D60136808E015F0400F5E
:101AC00002F104051D60136801D0188000E0186061
:101AD000002323610D4616E01A68111D1960156870
:101AE00062682846002100F043F808B1401B60609E
:101AF000636804E004F1420584F842200123236175
:101B0000002384F84330CDF800803046214603AAF4
:101B10003B46FFF797FE013002D14FF0FF301FE048
:101B2000304639462A462369C0470130F5D023683C
:101B30009B0705D4E068039B9842B8BF18460FE0A6
:101B40000025E368039A9B1A9D42F3DA3046394632
:101B500004F119020123C0470130DED00135F0E75E
:101B600004B0BDE8F08100BFD01E0200E11E0200FB
:101B700010B5C9B202449042034606D01C788C428C
:101B800000F10100F7D1184610BD002010BD8142C0
:101B900010B501EB020301D3421E0BE09842FBD2C9
:101BA0008118D21AD34204D013F8014D01F8014D27
:101BB000F8E710BD994204D011F8014B02F8014F2B
:101BC000F8E710BD30B500293DD051F8042C0B1FAB
:101BD0001D49002AB8BF9B180A680C4612B95A6002
:101BE0000B6030BD93420DD219685818904201BF66
:101BF0005A5852181A6042685A60236030BD9942A0
:101C000003D80A4651680029F9D1146815199D4274
:101C10000AD11B682344D0188842136013D1086886
:101C2000034413604B680DE002D90C23036030BD00
:101C30001C681819884204BF08684968596004BFC5
:101C400000191860536030BDDC1C002070B5CC1C3E
:101C500024F0030408340C2C38BF0C24002C064656
:101C600003DA0C233360002070BD8C42F9D3204A84
:101C7000136810461946A1B10A68121B0ED40B2A2C
:101C800003D90A608B188C501FE08B420DBF5A6835
:101C90004A685A60026018BF0B4616E00B46496856
:101CA000E9E7144D2B681BB9304600F04BF828606B
:101CB0003046214600F046F8421C0346D1D0C51CF0
:101CC00025F0030585420AD11C6003F10B001A1DA3
:101CD00020F00700821A0AD05142995070BD304658
:101CE000E91A00F02FF80130BBD02B46ECE770BDAD
:101CF000DC1C0020D81C0020F8B5074615460E460F
:101D000021B91146BDE8F840FFF7A0BF1AB9FFF7A7
:101D100059FF2846F8BD00F025F8A8420ED23846F3
:101D20002946FFF793FF044650B131462A46FFF794
:101D30000DFC38463146FFF745FF01E03046F8BD5F
:101D40002046F8BD38B5064C0023054608462360FA
:101D500000F012F8431C02D1236803B12B6038BD98
:101D6000201D002051F8040C0028BEBF091851F8AE
:101D7000043CC01804387047044A05491368002B16
:101D800008BF0B461844106018467047E01C00203E
:101D9000281D0020F8B500BFF8BC08BC9E4670475F
:101DA000F8B500BFF8BC08BC9E4670474300000071
