:1000000000000120AD1B0000D51B0000D71B000025
:10001000D91B0000DB1B0000DD1B000000000000FE
:10002000000000000000000000000000DF1B0000D6
:10003000E11B000000000000E31B0000E51B0000C6
:10004000BD090000E71B00005D0F0000E71B00007A
:10005000E71B00002D170000E71B0000E71B000056
:10006000E71B0000E71B0000E71B0000E71B000088
:10007000E71B0000E71B0000E71B0000E71B000078
:10008000E71B0000E71B0000E71B0000E71B000068
:10009000E71B0000E71B0000E71B0000E71B000058
:1000A000E71B0000E71B0000E71B0000E71B000048
:1000B000E71B0000E71B000000000000000000003C
:1000C000E71B0000E71B0000E71B0000E71B000028
:1000D000E71B0000E71B0000E71B0000000000001A
:1000E0000000000000000000000000000000000010
:1000F0000000000000000000000000000000000000
:1001000000000000000000000000000000000000EF
:1001100000000000000000000000000000000000DF
:1004000010B5054C237833B9044B13B10448AFF34E
:1004100000800123237010BD9C000020000000001C
:1004200060310000084B10B51BB108480849AFF314
:1004300000800848036803B910BD074B002BFBD0B0
:10044000BDE81040184700BF000000006031000008
:10045000A00000209800002000000000154B002B99
:1004600008BF134B9D46A3F5803A00218B460F46EB
:100470001348144A121A00F065F80F4B002B00D0F5
:1004800098470E4B002B00D0984700200021040015
:100490000D000D48002802D00C48AFF3008000F09A
:1004A0002BF82000290000F0D3FE00F011F800BF67
:1004B0000000080000000120000000000000000013
:1004C0009C000020D8040020000000000000000074
:1004D00008B5074B044613B10021AFF30080054B6C
:1004E0001868836A03B19847204600F033F800BFCC
:1004F00000000000042F000070B50E4B0E4CE41AF3
:10050000A41000251E46A54204D056F82530984771
:100510000135F8E702F0E8FC084C094BE41AA41096
:1005200000251E46A54204D056F8253098470135CF
:10053000F8E770BD9000002090000020940000209B
:100540009000002002440346934202D003F8011BAE
:10055000FAE77047FEE700BF00B585B000230390BF
:10056000194644F2010001AAADF80430029300F0EC
:1005700003F805B05DF804FBBFF34F8F0549064B48
:10058000CA6802F4E0621343CB60BFF34F8F00BF31
:10059000FDE700BF00ED00E00400FA0559B10AB91B
:1005A00009207047531E1A40FAD18260016083808F
:1005B000C260104670470E20704700BF10B48468B8
:1005C000C26803468088121B904203D204205DF863
:1005D000044B7047DA681C6802400020A154DA68B6
:1005E0000132DA605DF8044B704700BF0346806853
:1005F000DA6890420DD010B49A6898881C6802405E
:100600000020A25C0A709A6801329A605DF8044B7F
:1006100070470520704700BF72B6024A1368013365
:1006200013607047B8000020034A1368013B136051
:1006300003B962B6704700BFB80000200378022BF0
:1006400002D0012B00D070474068FFF785BF00BF84
:10065000F0B50F4C237889B013B1002009B0F0BD7C
:100660000C4B0D4A049293E8070001AB83E80700A6
:1006700001250A4F0A4A059518464FF4007604A949
:1006800006230697079600F093F8257009B0F0BD91
:10069000BC020020082F0000C0020020BC00002087
:1006A0003D0600000FB400B583B004A951F8040B57
:1006B000019101F025FD03B05DF804EB04B0704733
:1006C00070B5161E07DD0C468D1914F8010B00F0ED
:1006D000F1F8AC42F9D1304670BD00BF10B50C4600
:1006E000204600F0CBF80528FAD0012010BD00BF4D
:1006F00030B50478012C83B016D0022C30D00CB168
:1007000003B030BD25482649FFF770FF18B3234BCF
:100710009A68DB689A42F3D102A8032300F8083DE7
:10072000204B1B689847EBE743681F4D1978284614
:10073000FFF744FF08BBAA68EB689B1A012B24D083
:10074000A968EB68AA885B1A9A42D9D30121174895
:1007500000F0FCFAD4E70121114800F05BFAD6E77B
:10076000C3681248019301218DF8004000F0EEFAB1
:100770000C4B68461B689847C2E70A4B01908DF8FE
:1007800000401B6868469847DAE702AB054A03F861
:10079000080D126818469047D2E700BFD00200202B
:1007A000C4020020C8020020E0020020CC02002089
:1007B0002DE9F0472B4C88B022600C4600294AD026
:1007C000054609682848A2881F46FFF7E7FE10B1D2
:1007D00008B0BDE8F0872548A168A289FFF7DEFED2
:1007E0000028F5D1224E95F804A095F80590D5F88B
:1007F000088095F803C095F802E00FCE6C460FC450
:1008000096E80F001AF1000618BF0126B9F1000F93
:1008100084E80F0014BF0E2400242A786B78154951
:100820008DF81C7068468DF814608DF81540CDF871
:100830001880CDF808C0CDF80CE00192009300F0CC
:1008400021F90028C4D19DF81D3043B101210A4887
:1008500000F07CFABCE7072008B0BDE8F08700F0A4
:1008600063FBF3E7C8020020E0020020D002002072
:10087000142F0000F1060000CC02002010B50B4A36
:100880009168D36892885B1A9A42044605D0214643
:100890000648BDE81040FFF7A9BE0548012100F059
:1008A00055FA0028F3D0052010BD00BFE00200205B
:1008B000CC02002010B501460B48FFF77FFE04462E
:1008C00008B1204610BD00F039FA0028F9D10648D9
:1008D0000649FFF78BFE0028F3D104480121BDE84B
:1008E000104000F097B900BFD0020020C4020020E1
:1008F00070B50A4D2C7A0CB1852070BD4FF0804345
:1009000001262C602046C3F8186506216C602C6116
:10091000EC6000F08FF82E72204670BDF0020020CF
:1009200030B5134C83B005460020FFF775FE637A9F
:100930005BB115B16B680020984723680020013334
:100940002360FFF771FE03B030BD15B163682B6003
:1009500065602368002BF0D1064A13601368019389
:100960004FF0804301220199C3F804231A60E4E7A1
:10097000F00200200001004008B50020FFF74CFE07
:100980000C490B68013B0B600B6873B90A4B0122E1
:100990001A604FF08042D2F80C3403F00113B3F127
:1009A000011FF8D000234B724B600020BDE80840C7
:1009B000FFF73ABEF00200200400004010B51A4BC9
:1009C0001A6882B0A2B100221A601B6800934FF02F
:1009D00080430122154C0099C3F8082363686272B2
:1009E00033B10CCB0020626098476368002BF8D1CC
:1009F0000F4B1A68AAB100221A601B6801934FF0CE
:100A000080430222094C0199C3F80823236901227B
:100A1000A27233B10CCB0120226198472369002BCD
:100A2000F8D102B010BD00BF00010040F00200206C
:100A300004010040002810B418DB00F1604303F506
:100A400061434901C9B283F80013C3B24009800071
:100A500000F1604000F5614003F01F020123934064
:100A6000C0F8803103605DF8044B7047C3B2044A9C
:100A700003F00F0449012244C9B21176E6E700BF32
:100A8000FCEC00E0F8B5594CE37E0BB10820F8BD52
:100A9000574A002808BF104601250768467F267779
:100AA0004FF0A042BD40C2F80855056805F5E07555
:100AB0004FF0030E42F825E0456805F5E07542F871
:100AC0002530002E33D14B4B8569C3F82455077D63
:100AD000457D3D43C3F86C5590E8A000C3F80C5524
:100AE000C3F81475077D012F64D00369616023602A
:100AF00071B1017F002E48D13F4E404D3D4A4048E4
:100B0000002333602B60C2F804030220FFF792FF3A
:100B1000237F002B49D0374B0822C3F80025002043
:100B20000123E0752076A075A076E376F8BD314DFF
:100B30008769C5F8247590F814C0477D4CEA07070B
:100B4000C5F86C7590E88010C5F80C75C5F814C52B
:100B5000077D012FC9D1866806F5E07642F8263078
:100B6000C3689F40C2F80875C36803F5E07342F894
:100B700023E08368C268C5F80825C5F81035036905
:100B8000616023600029C3D0017FDFF884E01D4F3E
:100B90001D4E1A4D174A1D480023CEF800303B6009
:100BA00033602B60C2F80403AFE7124B0422C3F892
:100BB0000025B4E7856805F5E07542F82560C5684D
:100BC000AF40C2F80875C56805F5E07542F825E044
:100BD000C5688268C3F80855C3F8102503696160C9
:100BE0002360002994D0017F86E700BF0403002022
:100BF000342F0000002000401C2100404421004010
:100C00008000020020210040242100401003020047
:100C1000102100402DE9F001414A137F43B1030C3C
:100C20001B04B3F1005F0AD01020BDE8F00170474B
:100C3000937D002B2AD01120BDE8F0017047957DEF
:100C4000002DF8D1374E384C384B394F91754FF055
:100C5000010C9582906025601D60C6F84405C6F8B9
:100C60004815C7F800C0516829BB184600E023BBEF
:100C700021680368003318BF01230029F7D0002B37
:100C80000CBF00200F2000239375CEE7294C284D80
:100C90009382012623602E602360958A938A917542
:100CA000A9B2204E5768415C906001339BB2938299
:100CB000C6F81C151FB10020B7E70F20E3E7214657
:100CC0001546907D938A164C9BB2984205D818E041
:100CD000938A9BB2B3F5807F02D00B68002BF7D0CC
:100CE000938A9BB2B3F5807FECD00F60AC8AAB8A5D
:100CF000A868A4B20133005D9BB2AB82C6F81C05A4
:100D0000DFE7A38A9BB2B3F5807FD6D009490B6891
:100D1000002BFCD0084B012119600020B3E700BF75
:100D20000403002000200040202100405821004002
:100D3000082000401C2100400C200040024B987D00
:100D4000003018BF0120704704030020F0B56F4B3E
:100D50001A7F32B1040C2404B4F1005F4ED010208D
:100D6000F0BD5C6824B16A4D4FF40176C5F80863A4
:100D7000DD7D664EB5B9B27EF175F060757635767B
:100D80003AB96448644D62497468026001202A607F
:100D90000860002C55D05E4B4FF40172C3F8042359
:100DA0000020F0BD1D7E594E5DB1002C00F08C80FE
:100DB000574B002A3FD04FF40472C3F8042311208C
:100DC000F0BD30613176002AE3D0514A534E544C85
:100DD00035602560C2F83405C2F83815D2F8001223
:100DE00041F02001C2F800125A68002A6ED0484B28
:100DF0004FF40472C3F804230020F0BD5C6824B1F2
:100E0000434D4FF40476C5F80863DD7D3F4E002D59
:100E1000C8D13F4ADFF804E1414F75760124F175EE
:100E2000F0603576CEF800503D60C2F83405C2F867
:100E300038151460D8E74FF40172C3F80423112069
:100E4000F0BD374A334E344D304FDFF8C4E0146004
:100E50001446316828682268003118BF0121003229
:100E600018BF012230B9E2B90029F2D00022DA75A8
:100E70000320F0BD0029F9D1AAB9D97DB9B92960FB
:100E8000DEF818255A7ED97D20489142E1D8837E2C
:100E90000022C275002B33D01D4B01211960104672
:100EA000F0BD0029E2D10022DA750F20F0BD2A60E2
:100EB000787EDEF818157A7E02F1010CFA6811547A
:100EC0005FFA8CF27A76DDE71120F0BD134E144DF7
:100ED000104C02E061B9002AC8D130682968226844
:100EE000003118BF0121003218BF01220028F1D0C3
:100EF0000020D875002ABBD1814218BF0F20F0BD59
:100F0000084A012111601846F0BD00BF040300200B
:100F10000020004024210040082100401021004012
:100F20004421004004200040084B1A7F62B99A7E99
:100F300052B90749074810B4074C0A6001212260E2
:100F4000997601605DF8044B704700BF04030020F0
:100F5000242100400020004008210040F0B59C4CB6
:100F6000237F85B0002B74D19A4AD2F804138905E7
:100F700048D4984BD3F80423520710D5964A1168E9
:100F800069B1E17D9248002940F008811160D3F8F1
:100F90001835627EE17D8E4B914200F0E3808F4BED
:100FA0001A68A2B1A28AA17D894892B291424FF0FB
:100FB00000021A6040F29280828A838A856885499D
:100FC00092B20133AA5C9BB28382C1F81C25844B88
:100FD0001A68AAB1A27E00211960002A79D1E27DA7
:100FE0007B4B6AB15A7ED9688DF808200020012217
:100FF00001918DF80020D87593E806006846904767
:1010000005B0F0BD774908680028B2D0A07E0B601B
:101010004FF40173C2F8083328B903F1804303F594
:10102000F05301221A606B4A02238DF80030D2F887
:101030008034C2F88034E07DE26803938DF80800C4
:101040000023019221686268E37568462376904721
:10105000A5E7644A1368002B4FD1634A116839B180
:101060005C481360D0F83C25E17DD2B2914260D05B
:101070005B4B1A68A2B1E17D554800221A6079B134
:10108000A3F5A273C168D3F83C358DF8083001236D
:1010900001918DF80030C27590E80A0068469847C3
:1010A000524B1A68002AABD0A17D494800221A6031
:1010B0000029A5D047498368D1F84C158DF8081050
:1010C0000193827590E80A008DF8002068469847E1
:1010D00096E7A3F5A27301221A6080E700293FF486
:1010E00076AF83688DF808100193827590E80A0046
:1010F0008DF800206846984769E70023354913605A
:1011000002208DF80000D1F88024C1F880240392D9
:10111000D1F83C15E2688DF80810019221686268E8
:10112000E3756846237690472D4B1A68002AB7D09E
:10113000A1E7277E002F3DD0D0F80022E77522F0EE
:101140002007E6682569C0F8007201208DF80810B4
:101150008DF800002376216801966846E560636893
:10116000984785E71A7E002A44D19B7E13B9204B0D
:1011700001221A60174AE06863684FF40171C2F8EF
:101180000813627E8DF80820012201908DF800205E
:10119000216800226846E275984700E70021116047
:1011A000427ED3F81855437EC1680133DBB28D54BB
:1011B0004376EEE6E2688DF8081001238DF80030E2
:1011C000019294E80A00E7756846984750E700BF27
:1011D0000403002000200040082100401C210040A2
:1011E00044210040242100401021004020210040E3
:1011F00004200040D968587E019101218DF8080033
:101200008DF800101E69DA7593E822000022684606
:10121000DE601A765A76A847C1E600BF01290CD0D5
:10122000022909D14FF0A0434FF400310022C3F846
:101230000815C3F80C25704770474FF0A0434FF4D2
:1012400000310022C3F80C15C3F80825704700BF11
:1012500030B585B0FFF7FCF9002843D100234FF4E7
:1012600000314FF0A045032403E0D20748BF45F802
:1012700020400133202B41FA03F203F5E070F4D152
:101280004FF0A0434FF400310022C3F8081517486F
:10129000C3F80C25114600F025FE08B1FFF75CF9F4
:1012A00004AB4FF4807243F8042D012000931049E1
:1012B000104B0E2200F038FC88B90E48039900F05C
:1012C0004DFE28B1FFF748F900F0F2FE20B9FEE725
:1012D00000F0EEFE0028FAD0FFF73EF9F7E7FFF73F
:1012E0003BF9EAE7FFF738F9B8E700BF1D12000045
:1012F000542F0000D4030020F0B5984B1B78062B28
:101300001AD0974AD2F8883043F47003C2F8883074
:10131000BFF34F8FBFF36F8F4FF01023D3F800222E
:10132000002AC0F2EA80D3F80432002BC0F2E58034
:101330008C4B8D4A1A60F0BD8C4B1B681D07E0D1A9
:101340008B4B1B6803F0F003302B00F0D280884BEE
:101350001B6803F0F002302A6FD003F0E003402B4B
:101360006BD0834B1B6803F0F003302B00F0B1808F
:101370007F4B1B6803F0F002302A6FD003F0E003CC
:10138000402B6BD07A4B1B6803F0F003302B00F03E
:101390009280774B1B6803F0F003302B72D0744BB4
:1013A0001B6803F0F003502BABD14FF08052714B10
:1013B000D2F80414C3F82015D2F80814C3F8241581
:1013C000D2F80C14C3F82815D2F81014C3F82C1551
:1013D000D2F81414C3F83015D2F81814C3F8341521
:1013E000D2F81C14C3F84015D2F82014C3F84415E1
:1013F000D2F82414C3F84815D2F82814C3F84C15B1
:10140000D2F82C14C3F85015D2F83014C3F8541580
:10141000D2F83414C3F86015D2F83814C3F8641540
:10142000D2F83C14C3F86815D2F84014C3F86C1510
:10143000D2F84424C3F8702563E74F4B474A1B6832
:1014400012784E49C3F34233062A0B607FF459AF3A
:10145000464B1B681C077FF454AF82E73F4B1B7859
:101460004FF080420021062BC2F80C11C2F8101177
:10147000C2F838157FF445AF3C4B1B6819077FF461
:1014800040AF7FE7354B3E4F1A783E4D3E483F4BCD
:101490004FF0050E012600243F21062AC7F800E080
:1014A0002E60046019607FF42CAF304B1B681B0763
:1014B0007FF427AF73E7294B354A1B780321062BAE
:1014C00011607FF41EAF294B1B681A077FF419AF18
:1014D0005FE7304A2149D368097823F080730629F1
:1014E000D3607FF40EAF214B1B6818077FF409AF60
:1014F0003EE7294B294A1A6029E7294B0122C3F804
:101500000425D3F80024002AFBD04FF01023152225
:101510002349C3F80022D1F80034002BFBD04FF050
:10152000102315221E49C3F80422D1F800241C4BB5
:10153000002AFAD00022C3F80425D3F80024002A98
:10154000FBD0BFF34F8F0649164BCA6802F4E06226
:101550001343CB60BFF34F8F00BFFDE7E00F00F0F8
:1015600000ED00E0640000200090D003E40F00F0E4
:10157000E80F00F000C00040440200103C050040AD
:10158000105600408856004018560040145600403F
:10159000A0050040F0ED00E074C007400DF0ADBACA
:1015A00000E001400400FA0510B9024B01221A6064
:1015B000704700BF005000402DE9F04F344B354AD2
:1015C00018604FF080531160D3F85024D3F854348E
:1015D000314CDFF8D490D7B2C3F3072AC3F30748DE
:1015E0005FFA83FCC2F3072687F08800C2F3074244
:1015F0008AEA080185B04FEA136E42EA07458CEA91
:1016000001014FF0060B7040C4F804B35040C4F819
:1016100004938EEA01011BBA45EA06254FF0030B3D
:101620004FF044098DF807008DF806208DF808C0AA
:101630008DF80C108DF80BE08DF804708DF80560B6
:101640008DF809A08DF80A808DF80DB00A21C4F834
:10165000945501A8C4F89035C4F8A09500F000FD99
:101660000E4B0F4A5A6000221A60FFF741F90446F8
:101670000C48FFF717F834B1B4F1850018BF01200A
:1016800005B0BDE8F08F204605B0BDE8F08F00BF83
:101690004403002040030020005000403803002095
:1016A000A9150000642F00008000080070B5094BE8
:1016B000094A0A4820210D26C0250124C2F80464E5
:1016C000C3F8801183F8055319609460FEF7EAFFB0
:1016D000002070BD00E100E0005000407C2F0000C1
:1016E00009B902207047F0B50D4E0E4A002434604F
:1016F00083B036680196C90040F6F87503460D4080
:1017000010260121019F0848C2F81035C2F81C5567
:10171000C2F80463D160FEF7C5FF204603B0F0BDF8
:101720001051004000500040902F0000F0B59C4C3C
:10173000D4F804318BB023B1D4F80033990700F109
:10174000CF80974BD3F80821F2B1D3F800335B0771
:101750001AD5944B00221A601B680293029B012445
:101760009148FEF79FFF032C254600F00A81012CCB
:1017700000F0DD80022C07D18C4C237813B98C4803
:10178000FFF7CEF801232370854BD3F8182122B13F
:10179000D3F80023520600F18D80814BD3F810213D
:1017A0001AB1D3F80023D70668D47D4BD3F84C2167
:1017B0001AB1D3F8002316032ED4794CD4F828316B
:1017C00023B1D4F800335D0500F1A280744BD3F847
:1017D0001C21FAB1D3F8002314061BD5754AD3F89F
:1017E00004440021116012680992E007099A09D5A2
:1017F000714A107830B10120C3F804046F481170A9
:10180000FEF750FF34F0010140F0B780644B0D2229
:10181000C3F804240BB0F0BD694C6A486A4ADFF88B
:10182000C0E16A4E6A4D0021216024680594059C40
:101830000160006806900698116012680792012402
:101840000D2210274FF48860DDF81CC0C3F810E5A6
:10185000C3F81475DC61C3F80403C3F80C24C3F89F
:101860000424346802232B6024B15A4B0A461868BA
:101870000B46A0475848FEF715FF9EE75749584DBD
:10188000524800220A600968049101241021049E34
:10189000C3F80813C3F81055C3F81415DC610468C5
:1018A00024B14C4B032118681346A0474D48FEF75E
:1018B000F9FE7AE74349D3F82435494A0020086005
:1018C0000968039103991178302948D01378502B77
:1018D00061D0334B0122DA614348FEF7E3FE5CE757
:1018E000424B434800251D601B680193019BFEF796
:1018F000D9FED4F80831002B3DD0D4F800335A0774
:1019000039D5284B1D601B680293029B032427E7EF
:101910002D4BD4F80C14374800221A601B6808932A
:10192000089BFEF7BFFE0D23C4F80C344EE7284C8D
:101930001B4EB560FFF720F81C48244B00224FF4E3
:1019400088610270C6F808131E682560002E3FF4F7
:101950001BAF204B012118681346B04714E71B4901
:101960000C68002CB8D01B49C3F3C8030868023BBD
:101970000221A047B0E70224F5E61F48FEF792FED9
:1019800044E7074B124CD3F83C3422681A427FF4E8
:10199000F3AE0125CCE7084B01221A7099E700BF8E
:1019A0000050004008510040D42F000034030020B4
:1019B000380300201C510040480300205030000034
:1019C0004C51004018510040285100404403002071
:1019D00068000020400300201C300000105100402F
:1019E0002403002004300000EC2F000004510040CC
:1019F000B82F000034300000703000002DE9F043B3
:101A00008368076883B0804691463BB300250E4645
:101A1000043F2C46E4B9012B0CBFC0218021D9F82A
:101A200000305B1B019357F8040F324601AB00F006
:101A300029F8013448B9D8F80830019AA34215446E
:101A40001644E7D8C9F80050002003B0BDE8F08381
:101A5000611C99420CBF40210021E0E71D46F1E7DF
:101A600000238360704700BF83684268934201D3BC
:101A700004207047026842F82310836801338360B2
:101A8000002070472DE9F04107464478007A82B083
:101A900015461E4620443CB98B0600F1060407D0CB
:101AA000072002B0BDE8F0818B0600F10704F7D1F2
:101AB0003368A34203D2042002B0BDE8F08129704C
:101AC0003B78194329703B7A6B707B78EBB905F151
:101AD000060840463A7AF96800F006FB3B7A7A78C5
:101AE0009844CAB93368D7F810C0786902AA1B1B9A
:101AF00042F8043D4146E0470028D2D1019B1C44F6
:101B00001BBAC5F802303460CBE741F008012970F8
:101B1000AB7105F10708DCE74046796800F0E4FAAC
:101B20007B789844DEE700BF2DE9F04106460C467D
:101B30000E48069F15469846FFF792FF94B121463E
:101B400030462A4600F028F801460848FFF78CFF87
:101B500030B941463A460548BDE8F041FFF74EBF6F
:101B6000BDE8F0810720BDE8F08100BF6C000020D7
:101B700010B5047A13689C4201D3042010BD0346BB
:101B80000134146008461A7800F8012B59681A7A53
:101B900000F0AAFA002010BD024B187059601A72AA
:101BA0000148704750030020780000200649074A8A
:101BB000074B9B1A03DD043BC858D050FBDCFFF7F2
:101BC0009BFBFEF74BFC00006C3100000000002086
:101BD0009C000020FEE7FEE7FEE7FEE7FEE7FEE7EB
:101BE000FEE7FEE7FEE7FEE72DE9F047BA4C844248
:101BF00001D0BDE8F0870329FBD8DFE801F01F31F1
:101C000060022378B44C042B00F0FB80052BF0D14C
:101C100094F8682094F8693004219A422170E8D140
:101C200094F86A20002AE4D113466568A06803216D
:101C3000A847012384F86A30BDE8F0872378042B95
:101C4000D7D0052BD5D0032BD3D1042365682370BF
:101C50000022A068AC4613460121BDE8F04760476A
:101C60002378042B00F0CF80052B0CD104239B4A52
:101C70006568A06803EB4303134400229B7823703C
:101C800002211346A84794F86960002E00F0AD8049
:101C900000210D46022208200127013107FA02F334
:101CA0008E4243EA000300F0A280013AD8B2F4D594
:101CB0006319072283F8480001350020EDE7002B67
:101CC00097D0002A95D01178302992D1022B90D14B
:101CD0002178814B04298CD192F8018059694FEA0F
:101CE000880505228D421A70C0F08F809A69103ADB
:101CF000954200F28A80D8686D1A28441021FFF7B7
:101D0000EFFC4FEAD803C8EBC301B8F1030F01F1B0
:101D10000705714E94F8682010D91E444FF0010E4B
:101D200096F848000EFA05F710EA070504D020EAF5
:101D3000070086F8480075462A44D2B2063108F1F9
:101D4000010044BF0133072110F0FF0049D00328F0
:101D500010D904EB030E01279EF8480007FA01F69C
:101D600010EA060504D020EA06008EF848003D4639
:101D70002A44D2B24E1E002900F0A68008F10201CA
:101D800011F0FF012DD0032910D904EB030E012718
:101D90009EF8481007FA06F511EA050004D021EA7A
:101DA00005018EF8481038460244D2B2701E002E4B
:101DB00000F0878008F1030111F0FF0111D0032921
:101DC0000FD02344012693F8481006FA00F511EAD3
:101DD000050004D021EA050183F84810304602448A
:101DE000D2B284F86820BDE8F087354630462544F5
:101DF000002385F8480084F8683084F86A30BDE82C
:101E0000F087BDE8F087012331E7334E06F138074C
:101E1000384600211022FEF795FBD4F814904D456A
:101E20004DD27119C5EB09060F2E01F12401384678
:101E30004DD8324600F058F937444D46C6F11006E9
:101E4000A369254AAB4212D953691069D168EB1ACC
:101E5000C3EB0009B14528BFB146384619444A468C
:101E600000F042F9B6EB09064D444F4432D0E36925
:101E7000AB420ED95B1BB34228BF33469946384666
:101E80001A4600211D441F44FEF75CFBB6EB090611
:101E900020D0236AAB420BD95D1BB54228BF354623
:101EA00038462A46FF21FEF74DFB761B2F4411D002
:101EB000384632460021FEF745FB09481EE710264A
:101EC000BEE70133072075E70133072656E71022E6
:101ED00000F00AF9024811E75C030020903000008E
:101EE0009403002040B1F8B5194C2378042B01D09D
:101EF000052B03D10220F8BD04207047032BF9D035
:101F0000002BF7D103460D46012604F124001149A8
:101F100063600A22A5602670E12700F0E5F811262B
:101F2000FF230F227C2521460B4884F82E3084F8AD
:101F30002F3084F8307084F8316084F8325084F89F
:101F40003320FFF739FB003018BF0120F8BD00BF78
:101F50005C030020C0300000E91B0000B1F5777F72
:101F600001D903207047F0B43B4D2B78042B01D0EE
:101F7000052B02D10220F0BC7047032BFAD0002BB6
:101F8000F8D0012B58D10A23344A334E03EB4303D4
:101F900013449B782B70002853D00323FE2986F826
:101FA0003430F0603161CCB20B4442D90A0A86F871
:101FB000374086F83620FF24142204201844800875
:101FC00011444FF47C764FF4806385F86900A96171
:101FD00085F835406A61EE612B6238B300210E4608
:101FE000022208240127013107FA02F3814243EA61
:101FF000040311D0013ADCB2F5D5AB190722013147
:1020000083F8484081424FF0000407FA02F306F1DA
:10201000010643EA0403EDD12E44002086F848402F
:1020200085F8680085F86A00F0BC704706460446EB
:10203000F2E712220220C1E7022B08BF0D23A3D032
:1020400098E703230146F0603061044686F8343097
:1020500012220220B2E700BF5C0300209030000093
:1020600018B10A2901D0032070470F4A1378042BB6
:1020700011D0052B0FD0032B0DD0012B0BD110B598
:102080000446137002F124003CB121460A2200F0FC
:102090002BF8002010BD0220704704490A2200F0EE
:1020A00023F8204610BD00BF5C030020C0300000B4
:1020B00008B50C4A1378042B01D0052B01D102205E
:1020C00008BD032BFBD0002BF9D0012BF7D0022B3E
:1020D000F5D103231370FFF7E9FA003018BF012090
:1020E00008BD00BF5C03002010B5431E0A449142A6
:1020F00004D011F8014B03F8014FF8E710BD0000C0
:10210000094B70B51C6806460D4624B1A36913B986
:10211000204600F04BF82046A16832462B46BDE829
:10212000704000F049B900BF60000020014900F094
:10213000A7B800BF692C0000002310B50446036057
:102140004360836081814366C2810361436183612F
:1021500019465C300822FEF7F5F9054B6362054B22
:10216000A362054BE362054B2462236310BD00BFED
:1021700015290000372900006F290000932900006D
:1021800070B568234D1E5D430E4605F1740100F0E5
:1021900095F8044640B1002180E842000C30A06070
:1021A00005F16802FEF7CEF9204670BD836910B5CF
:1021B000044633BB8364C3640365124B124A1B6835
:1021C0008262984204BF0123836100F01FF86060BF
:1021D000204600F01BF8A060204600F017F804210C
:1021E000E06000226068FFF7A7FFA06809210122D4
:1021F000FFF7A2FFE06812210222FFF79DFF0123F3
:10220000A36110BD042F00002D210000F8B51B4B69
:102210001E68B369074613B93046FFF7C7FF483653
:10222000B4687368013B04D4B4F90C5075B16834D8
:10223000F8E733682BB938460421FFF7A1FF306077
:1022400008B13668ECE70C233B60F8BD4FF6FF732E
:10225000E3810123A38165662560A5606560256132
:102260006561A56104F15C0029460822FEF76AF960
:102270006563A563A564E5642046F8BD042F0000EE
:102280002DE9F8438046894600F14804002694B1C0
:10229000A5686768013F0CD4AB89012B07D9B5F954
:1022A0000E30013303D040462946C84706436835FF
:1022B000F0E72468EBE73046BDE8F88370B5CC1C46
:1022C00024F0030408340C2C38BF0C24002C0646E0
:1022D00003DA0C233360002070BD8C42F9D3204A0E
:1022E000136810461946A1B10A68121B0ED40B2AB6
:1022F00003D90A608B188C501FE08B420DBF5A68BF
:102300004A685A60026018BF0B4616E00B464968DF
:10231000E9E7144D2B681BB9304600F0EBFA286052
:102320003046214600F0E6FA421C0346D1D0C51CD7
:1023300025F0030585420AD11C6003F10B001A1D2C
:1023400020F00700821A0AD05142995070BD3046E1
:10235000E91A00F0CFFA0130BBD02B46ECE770BD94
:10236000CC030020C80300209368013B002B10B56C
:10237000936009DA9469A34202DBCBB20A2B03D142
:10238000BDE8104000F00ABB1368581C10601970BB
:10239000C8B210BDF8B506460F461446D518AC4273
:1023A00008D0304614F8011B3A46FFF7DDFF431C06
:1023B000F5D100E00020F8BD2DE9F0439DB00D46B9
:1023C00090460393064618B183690BB9FFF7EEFEFA
:1023D000754B9D4201D1756808E0744B9D4201D157
:1023E000B56803E0724B9D4208BFF568AB891C07D6
:1023F0000AD52B6943B10023099320238DF8293096
:1024000030238DF82A3041E03046294600F02CFB7D
:102410000028F0D04FF0FF30C2E0039A111D12687F
:102420000391002ABBBF524243F002030792079276
:10243000B8BF0493013423782E2B7BD0DFF8808142
:1024400021784046032200F099FC38B1049AC8EB89
:1024500000004023834013430493013421785548FE
:102460008DF82810062204F1010800F087FC0028EE
:1024700000F08580504B002B78D1039B073323F06D
:10248000070308330393099B3B44099343461C46C7
:1024900013F8012B1AB9B4EB08090ED002E0252A73
:1024A000F5D1F8E73046294642464B46FFF772FF22
:1024B000013070D0099B4B4409932378002B6AD0DC
:1024C00000234FF0FF3204930793059206938DF893
:1024D00053301A9304F101084446DFF8E89021785C
:1024E0004846052200F04AFC08F10108049B30B17F
:1024F000C9EB00000122824013430493ECE7D806A5
:1025000044BF20228DF85320190744BF2B228DF899
:10251000532022782A2A80D0079923461C4601336B
:102520002278303A092A03D80A2000FB0121F5E776
:10253000079180E763782A2B0AD1039B1A1D1B6839
:102540000392002BB8BF4FF0FF330234059375E7B9
:10255000611C00220C4601312378303B092B03D843
:102560000A2000FB0232F5E7059267E703AB009310
:10257000304604A92A46114BAFF3008007E003ABB5
:102580000093304604A92A460C4B00F093F8421CF5
:1025900007467FF478AFAB895B063FF53BAF099800
:1025A0001DB0BDE8F08300BFCC300000EC3000006F
:1025B0000C310000363100000000000095230000BF
:1025C000323100002C3100002DE9F84391461F46BE
:1025D0008A680B69DDF820809342B8BF1346C9F8BA
:1025E000003091F8432006460C4612B10133C9F879
:1025F00000302368990642BFD9F800300233C9F889
:102600000030256815F006051CD094F84330226888
:10261000003318BF012392061FD5E1185A1C302041
:1026200081F84300224494F8451082F843100233A5
:1026300013E03046394604F119020123C047013046
:1026400007D00135E368D9F800209B1A9D42F0DBE2
:10265000DBE74FF0FF30BDE8F8833046394604F140
:102660004302C0470130F4D02268D9F80050E36833
:1026700002F00602042A08BF5D1B2269A3680CBF92
:1026800025EAE57500259342C4BF9B1AED184FF06B
:102690000009A9450ADA3046394604F11A02012335
:1026A000C0470130D5D009F10109F2E70020BDE8AB
:1026B000F88300002DE9FF410C461746227E6E2A62
:1026C000984606460A9B01F1430100F0AF8012D8FC
:1026D000632A23D00AD8002A00F0BC80582A40F090
:1026E000CB8084F84520DFF804E257E0642A1ED04E
:1026F000692A1CD0C0E0732A00F0B08009D86F2A84
:102700002ED0702A40F0B880226842F02002226069
:102710003FE0752A24D0782A3BD0ADE01A68111D1D
:102720001960136884F8423004F14205A8E020687B
:102730001A6810F0800F02D0101D186008E010F029
:10274000400F02F10400186002D0B2F9003000E03E
:102750001368002B3EDA2D225B4284F8432039E0D7
:1027600020681A6810F0800F02D0101D186007E072
:1027700010F0400F02F10400186001D0138800E04F
:102780001368227EDFF864E16F2A0CBF08220A2258
:102790001CE07822DFF858E184F8452022681868A8
:1027A00012F0800F00F104051D6003D1550601D51C
:1027B000038800E00368D00744BF42F02002226093
:1027C0001BB9226822F0200222601022002084F827
:1027D000430002E0DFF814E10A226568A560002DDD
:1027E000A2BF206820F00400206003B965B10D4647
:1027F000B3FBF2F002FB10331EF8033005F8013D85
:1028000003460028F4D100E00D46082A0BD12368C6
:10281000DA0708D5236962689A42DEBF302305F8DB
:10282000013C05F1FF35491B21612EE025681A683E
:10283000606915F0800F03D0151D1D60136808E056
:1028400015F0400F02F104051D60136801D01880D7
:1028500000E01860002323610D4616E01A68111D80
:102860001960156862682846002100F087FA08B1EF
:10287000401B6060636804E004F1420584F8422074
:1028800001232361002384F84330CDF800803046D3
:10289000214603AA3B46FFF797FE013002D14FF0D5
:1028A000FF301FE0304639462A462369C0470130D1
:1028B000F5D023689B0705D4E068039B9842B8BF16
:1028C00018460FE00025E368039A9B1A9D42F3DA4D
:1028D0003046394604F119020123C0470130DED0E9
:1028E0000135F0E704B0BDE8F08100BF3D310000E4
:1028F0004E31000038B5064C0023054608462360DB
:1029000000F0E4FA431C02D1236803B12B6038BD08
:10291000D404002010B50C46B1F90E1000F082FA74
:102920000028ABBF636DA3891B1823F48053ACBF91
:102930006365A38110BD2DE9F0411D468B89DB0540
:1029400007460C46164605D5B1F90E1000220223A3
:1029500000F0B4F9A389B4F90E1023F48053A381D5
:10296000384632462B46BDE8F04100F06BB810B552
:102970000C46B1F90E1000F0A1F9431CA38915BF54
:10298000606523F4805343F48053A38118BFA3816F
:1029900010BDB1F90E1000F0D3B8000070B50D46AF
:1029A0001446064618B183690BB9FFF7FFFB224BAB
:1029B0009C4201D1746808E0204B9C4201D1B4686C
:1029C00003E01F4B9C4208BFF468A369A360A3897E
:1029D0001A0709D523693BB123682069181A63696E
:1029E0009842EDB20FDB08E03046214600F03CF89B
:1029F0000028F1D04FF0FF3070BD3046214600F086
:102A000033F90028F6D1A368013BA36023685A1C60
:102A100022601D7063690130984204D0A389DB07EE
:102A200007D50A2D05D13046214600F01DF90028B2
:102A3000E0D1284670BD00BFCC300000EC30000073
:102A40000C31000038B5074C0546002020600846D0
:102A500011461A46FDF734FE431C02D1236803B128
:102A60002B6038BDD4040020314B70B51D6806467C
:102A70000C4625B1AB6913B92846FFF797FB2D4BE0
:102A80009C4201D16C6808E02B4B9C4201D1AC68A0
:102A900003E02A4B9C4208BFEC68A3899AB2110755
:102AA0001DD4D50602D40922326038E0500712D571
:102AB000616B41B104F14403994202D0304600F009
:102AC0006DF900236363A38923F02403A38100230A
:102AD000636023692360A38943F00803A38123690A
:102AE0004BB9A38903F42073B3F5007F03D03046BC
:102AF000214600F0F5F8A38913F0010205D0002269
:102B0000A26062695242A26103E0990758BF6269FC
:102B1000A26022694AB903F0800080B230B143F06C
:102B20004003A3814FF0FF3070BD002070BD00BF97
:102B300060000020CC300000EC3000000C310000C0
:102B400038B5064C002305460846236000F09EF980
:102B5000431C02D1236803B12B6038BDD40400208C
:102B60008A892DE9F041054610070C4657D44B6879
:102B7000002B02DC0B6C002B18DDE66AB6B102F408
:102B80008052002392B22F682B600AB1626D10E070
:102B9000216A28460123B047411C024609D12B680F
:102BA0003BB11D2B01D0162B47D12F600020BDE873
:102BB000F081A3895B0705D56368D21A636B0BB1FB
:102BC000236CD21AE66A216A00232846B047461CC5
:102BD000A38905D12A681AB11D2A01D0162A19D154
:102BE00000226260D9042269226004D5421C01D10E
:102BF0002B6803B96065616B2F600029D6D004F1A2
:102C00004403994202D0284600F0C8F800206063CF
:102C1000BDE8F08143F04003A381BDE8F0810F6976
:102C2000002FC3D093070E6808BF4B690F6018BF11
:102C30000023C7EB06088B6012E0A38943F0400332
:102C4000A3814FF0FF30BDE8F0812846216AA66AD3
:102C50003A464346B0470028EFDD0744C0EB08087A
:102C6000B8F1000FF1DCA1E738B50B6905460C4659
:102C7000DBB118B183690BB9FFF798FA0C4B9C4292
:102C800001D16C6808E00B4B9C4201D1AC6803E0B9
:102C9000094B9C4208BFEC68B4F90C302BB12846B4
:102CA0002146BDE83840FFF75BBF002038BD00BFBC
:102CB000CC300000EC3000000C31000038B5074C7F
:102CC000054600202060084611461A4600F0F6F836
:102CD000431C02D1236803B12B6038BDD40400200B
:102CE000F0B58B899D0791B006460C4626D4B1F904
:102CF0000E10002909DAA38913F0800F4FF00005A8
:102D000014BF40274FF480670DE001AA00F09CF843
:102D10000028F0DB029D05F47045A5F500514D42F9
:102D20004D414FF4806730463946FFF7C7FA60B926
:102D3000A3899A051DD443F00203A38104F147033C
:102D4000236023610123636113E00B4BB362A3890A
:102D5000206043F08003A381206167614DB130465C
:102D6000B4F90E1000F082F818B1A38943F0010302
:102D7000A38111B0F0BD00BF2D21000010B5C9B274
:102D800002449042034606D01C788C4200F10100B8
:102D9000F7D1184610BD002010BD000030B5002945
:102DA0003DD051F8042C0B1F1D49002AB8BF9B18B9
:102DB0000A680C4612B95A600B6030BD93420DD2BE
:102DC00019685818904201BF5A5852181A60426840
:102DD0005A60236030BD994203D80A4651680029E1
:102DE000F9D1146815199D420AD11B682344D018E3
:102DF0008842136013D10868034413604B680DE0E8
:102E000002D90C23036030BD1C681819884204BF26
:102E100008684968596004BF00191860536030BDE4
:102E2000CC03002038B5074C05460020206008463A
:102E300011461A46FDF752FC431C02D1236803B128
:102E40002B6038BDD404002038B5074C002305465C
:102E500008461146236000F021F8431C02D1236884
:102E600003B12B6038BD00BFD404002038B5064C38
:102E7000002305460846236000F018F8431C02D1E1
:102E8000236803B12B6038BDD4040020024B5822C4
:102E90001A604FF0FF307047D4040020024B5822D4
:102EA0001A604FF0FF307047D4040020024B5822C4
:102EB0001A600020704700BFD4040020024B582243
:102EC0001A604FF0FF307047D4040020044A0549CF
:102ED0001368002B08BF0B46184410601846704753
:102EE000D0030020D8040020F8B500BFF8BC08BC0F
:102EF0009E467047F8B500BFF8BC08BC9E467047B8
:102F00004300000000000020080706050100000043
:102F100000E0D701060000000800000007000000E4
:102F20000500000000000000000000000000D601C5
:102F30000600000006000000080000000700000076
:102F40000500000000000000000000000000D601A5
:102F5000060000006E6F7264696373656D692E63AD
:102F60006F6D00005B4E46435F48414C5D3A2069FF
:102F70006E697469616C697A650D0A005B4E46433F
:102F80005F48414C5D3A2073746172740D0A000011
:102F90005B4E46435F48414C5D3A2073656E640D5D
:102FA0000A0000005B4E46435F48414C5D3A207387
:102FB000746F700D0A0000005B4E46435F48414C41
:102FC0005D3A206669656C64646574656374656404
:102FD0000D0A00005B4E46435F48414C5D3A206657
:102FE00069656C646C6F73740D0A00005B4E464338
:102FF0005F48414C5D3A2072785F66656E640D0AE9
:10300000000000005B4E46435F48414C5D3A20742F
:10301000785F66656E640D0A000000005B4E4643F3
:103020005F48414C5D3A2073656C65637465640D5F
:103030000A0000005B4E46435F48414C5D3A2072F7
:10304000786572726F72202830782578290D0A0011
:103050005B4E46435F48414C5D3A206572726F7229
:103060002028534C505F524551290D0A00000000A2
:103070005B4E46435F48414C5D3A206572726F7209
:10308000202830782578290D0A000000550000001E
:1030900004060504080304090205070405080305DE
:1030A00009020305040309020000010103010101F3
:1030B00002020403020A00020102020902000000E7
:1030C00000010203040506070809000000000000D3
:1030D00000000000000000000000000000000000F0
:1030E00000000000000000000000000000000000E0
:1030F00000000000000000000000000000000000D0
:1031000000000000000000000000000000000000BF
:1031100000000000000000000000000000000000AF
:10312000000000000000000000000000232D302BF4
:103130002000686C4C0065666745464700303132B8
:10314000333435363738394142434445460030310F
:10315000323334353637383961626364656600006E
:04316000000000006B
:08316400F8D2FF7F010000001A
:10316C0000000000CC300000EC3000000C310000FE
:10317C000000000000000000000000000000000043
:10318C00002F000000000000000000000000000004
:10319C000000000000000000000000000000000023
:1031AC000000000000000000000000000000000013
:1031BC000000000000000000000000000000000003
:1031CC00000000200090D003010000004C03002000
:1031DC0001000000000000000100000000000000E1
:1031EC00010000008C300000711B00005003002017
:0C31FC0025040000010400000000000099
:0400000300001BAD31
:00000001FF
