:1000000000800020411300007113000073130000F2
:100010007513000077130000791300000000000042
:100020000000000000000000000000007B13000042
:1000300000000000000000007D1300007F1300009E
:1000400081060000811300004907000081130000B1
:1000500081130000090F00008113000081130000CC
:100060008113000081130000811300008113000040
:100070008113000081130000811300008113000030
:100080008113000081130000811300008113000020
:100090008113000081130000811300008113000010
:1000A0008113000081130000811300008113000000
:1000B0008113000081130000000000000000000018
:1000C00081130000811300008113000081130000E0
:1000D00081130000811300000000000000000000F8
:1000E0000000000000000000000000000000000010
:1000F0000000000000000000000000000000000000
:1001000000000000000000000000000000000000EF
:1001100000000000000000000000000000000000DF
:1004000010B5054C237833B9044B13B10448AFF34E
:1004100000800123237010BD940000200000000024
:1004200068190000084B10B51BB108480849AFF324
:1004300000800848036803B910BD074B002BFBD0B0
:10044000BDE81040184700BF000000006819000018
:10045000980000209400002000000000154B002BA5
:1004600008BF134B9D46A3F5803A00218B460F46EB
:100470001348144A121A00F065F80F4B002B00D0F5
:1004800098470E4B002B00D0984700200021040015
:100490000D000D48002802D00C48AFF3008000F09A
:1004A0002BF82000290000F0C9FA00F011F800BF75
:1004B0000000080000800020000000000000000094
:1004C000940000208C0200200000000000000000CA
:1004D00008B5074B044613B10021AFF30080054B6C
:1004E0001868836A03B19847204600F033F800BFCC
:1004F00000000000B818000070B50E4B0E4CE41A56
:10050000A41000251E46A54204D056F82530984771
:100510000135F8E701F0C2F9084C094BE41AA410C0
:1005200000251E46A54204D056F8253098470135CF
:10053000F8E770BD8C0000208C00002090000020A7
:100540008C00002002440346934202D003F8011BB2
:10055000FAE77047FEE700BFBFF34F8F0449054B32
:10056000CA6802F4E0621343CB60BFF34F8FFEE72B
:1005700000ED00E00400FA0500B585B0002303900B
:10058000194644F2010001AAADF804300293FFF7C6
:10059000E3FF05B05DF804FB72B6024A136801334D
:1005A00013607047B0000020034A1368013B1360DA
:1005B00003B962B6704700BFB000002070B50A4DA5
:1005C0002C7A0CB1852070BD4FF0804301262C6041
:1005D0002046C3F8186503216C602C61EC6000F0C4
:1005E0008BF82E72204670BDB400002030B5124C3E
:1005F00083B00546FFF7D0FF637A53B115B16B683E
:1006000000209847236801332360FFF7CDFF03B034
:1006100030BD15B163682B6065602368002BF1D194
:10062000064A1360136801934FF080430122019939
:10063000C3F804231A60E5E7B4000020000100407D
:1006400008B5FFF7A9FF0C490B68013B0B600B686D
:1006500073B90A4B01221A604FF08042D2F80C3471
:1006600003F00113B3F1011FF8D000234B724B606C
:10067000BDE80840FFF798BFB40000200400004028
:1006800010B51A4B1A6882B0A2B100221A601B681A
:1006900000934FF080430122154C0099C3F80823C2
:1006A0006368627233B10CCB002062609847636864
:1006B000002BF8D10F4B1A68AAB100221A601B68F0
:1006C00001934FF080430222094C0199C3F808239B
:1006D00023690122A27233B10CCB01202261984719
:1006E0002369002BF8D102B010BD00BF000100400B
:1006F000B400002004010040002810B418DB00F111
:10070000604303F561434901C9B283F80013C3B2E2
:100710004009800000F1604000F5614003F01F02D5
:1007200001239340C0F8803103605DF8044B7047AB
:10073000C3B2044A03F00F0449012244C9B211763E
:10074000E6E700BFFCEC00E0F0B59C4C237F85B0F1
:10075000002B74D19A4AD2F80413890548D4984BD7
:10076000D3F80423520710D5964A116869B1E17D88
:100770009248002940F008811160D3F81835627E54
:10078000E17D8E4B914200F0E3808F4B1A68A2B15D
:10079000A28AA17D894892B291424FF000021A606C
:1007A00040F29280828A838A8568854992B20133B9
:1007B000AA5C9BB28382C1F81C25844B1A68AAB13B
:1007C000A27E00211960002A79D1E27D7B4B6AB1BB
:1007D0005A7ED9688DF808200020012201918DF8F9
:1007E0000020D87593E806006846904705B0F0BD34
:1007F000774908680028B2D0A07E0B604FF40173DF
:10080000C2F8083328B903F1804303F5F0530122FD
:100810001A606B4A02238DF80030D2F88034C2F897
:100820008034E07DE26803938DF808000023019294
:1008300021686268E375684623769047A5E7644AB5
:100840001368002B4FD1634A116839B15C481360BB
:10085000D0F83C25E17DD2B2914260D05B4B1A6862
:10086000A2B1E17D554800221A6079B1A3F5A273C7
:10087000C168D3F83C358DF80830012301918DF81B
:100880000030C27590E80A0068469847524B1A68D3
:10089000002AABD0A17D494800221A600029A5D0CA
:1008A00047498368D1F84C158DF80810019382757B
:1008B00090E80A008DF800206846984796E7A3F56F
:1008C000A27301221A6080E700293FF476AF8368A3
:1008D0008DF808100193827590E80A008DF80020C9
:1008E0006846984769E700233549136002208DF870
:1008F0000000D1F88024C1F880240392D1F83C157F
:10090000E2688DF80810019221686268E375684614
:10091000237690472D4B1A68002AB7D0A1E7277E8F
:10092000002F3DD0D0F80022E77522F02007E668BE
:100930002569C0F8007201208DF808108DF80000BC
:100940002376216801966846E5606368984785E7E5
:100950001A7E002A44D19B7E13B9204B01221A60D3
:10096000174AE06863684FF40171C2F80813627EA9
:100970008DF80820012201908DF8002021680022C6
:100980006846E275984700E700211160427ED3F87F
:100990001855437EC1680133DBB28D544376EEE6D1
:1009A000E2688DF8081001238DF80030019294E878
:1009B0000A00E7756846984750E700BFC800002066
:1009C00000200040082100401C210040442100403C
:1009D000242100401021004020210040042000403C
:1009E000D968587E019101218DF808008DF800101A
:1009F0001E69DA7593E8220000226846DE601A76E6
:100A00005A76A847C1E600BF01290CD0022909D1B6
:100A10004FF0A0434FF400310022C3F80815C3F88B
:100A20000C25704770474FF0A0434FF4003100226F
:100A3000C3F80C15C3F80825704700BF30B5002374
:100A400085B04FF400314FF0A045032403E0D207F6
:100A500048BF45F820400133202B41FA03F203F54B
:100A6000E070F4D14FF0A0434FF400310022C3F8FE
:100A700008151548C3F80C25114600F001FE08B111
:100A8000FFF77AFD04AB4FF4807243F8042D012088
:100A900000930E490E4B0E2200F010FC88B90C4852
:100AA000039900F029FE28B1FFF766FD00F0CEFEA5
:100AB00020B9FEE700F0CAFE0028FAD0FFF75CFD7F
:100AC000F7E7FFF759FDEAE7090A0000BC18000044
:100AD0008C0100209D4B1B78062B1AD09C4AD2F823
:100AE000883043F47003C2F88830BFF34F8FBFF3F0
:100AF0006F8F4FF01023D3F80022002AC0F2F68047
:100B0000D3F80032002BC0F2F180924B924A1A6067
:100B10007047924B1B681B07E0D1914B1B6803F099
:100B2000F003302B00F0B880402B00F0C080502B39
:100B300000F0CE808A4B1B6803F0F003302B00F0EE
:100B40009580874B1B6803F0F003302B70D0402B4F
:100B500079D0502B00F0C380814B1B6803F0F00369
:100B6000302B52D07E4B1B6803F0F003502BB5D1D5
:100B70007C4B1B6813F0F00FB0D14FF080527A4BD2
:100B8000D2F80414C3F82015D2F80814C3F82415B9
:100B9000D2F80C14C3F82815D2F81014C3F82C1589
:100BA000D2F81414C3F83015D2F81814C3F8341559
:100BB000D2F81C14C3F84015D2F82014C3F8441519
:100BC000D2F82414C3F84815D2F82814C3F84C15E9
:100BD000D2F82C14C3F85015D2F83014C3F85415B9
:100BE000D2F83414C3F86015D2F83814C3F8641579
:100BF000D2F83C14C3F86815D2F84014C3F86C1549
:100C0000D2F84424C3F8702568E7564B1B6813F0EC
:100C1000F00FA7D14D4B554A1B780321062B1160CD
:100C20007FF45CAF4D4B1B681B077FF457AF99E710
:100C30004C4B1B6813F0F00F0AD0484B1B681A0787
:100C40007FF44CAF88E7474B1B6813F0F00F83D15C
:100C50003E4A11784FF0804300220629C3F80C2148
:100C6000C3F81021C3F83825E7D037E73D4B1B68A0
:100C700013F0F00F7FF465AF3D4A3449D36809782B
:100C800023F080730629D3607FF428AF334B1B68B1
:100C900019077FF423AF54E7324B1B6813F0F00FB2
:100CA0000BD02E4B1B6818077FF418AF42E72D4B73
:100CB0001B6813F0F00F7FF43DAF2E4B234A1B68E7
:100CC00012782D49C3F34233062A0B60E9D005E7B9
:100CD000244B1B6813F0F00F7FF42CAFEDE7214B92
:100CE0001B6813F0F00F7FF437AFB1E7234B0122FD
:100CF000C3F80425D3F80024002AFBD04FF01023BA
:100D000015221E49C3F80022D1F80034002BFBD075
:100D10004FF0102315221949C3F80422D1F80024FA
:100D2000164B002AFAD00022C3F80425D3F8002479
:100D3000002AFBD0BFF34F8F0549114BCA6802F45C
:100D4000E0621343CB60BFF34F8FFEE7E00F00F08C
:100D500000ED00E0600000200090D003E40F00F000
:100D6000E80F00F0EC0F00F000C00040A0050040CC
:100D7000F0ED00E0440200103C05004000E00140BE
:100D80000400FA0510B9024B01221A60704700BF37
:100D9000005000402DE9F04F4FF08053384DD3F80C
:100DA0005024D3F85434374C28605FFA82FCC3F3E4
:100DB0000727C3F30746C2F3072EDDB2DFF8D09052
:100DC000DFF8D080C9F800108CF0880A87EA0600A6
:100DD00085B0C2F307421B0E68408EEA0A0A4FF044
:100DE000060BC4F804B383EA0009C4F8048382EA5A
:100DF0000A0A0A214FF0030801A88DF806208DF891
:100E000008508DF80B308DF804C08DF807A08DF8D0
:100E100005E08DF809708DF80A608DF80C908DF85A
:100E20000D8000F0EBFC9DF805209DF804309DF846
:100E300006101548154D4560120242EA03430B4364
:100E4000C4F894359DF809109DF808309DF80B20E2
:100E50009DF80A50090441EA0363134343EA05235A
:100E60004422C4F890350023C4F8A0250360FFF79E
:100E7000A5FB10B1853818BF012005B0BDE8F08F83
:100E80000801002000500040FC000020850D0000FB
:100E9000040100208000080030B4084B084A4F20AD
:100EA000202160250124C2F80404C3F8801183F8CE
:100EB000055319609460002030BC704700E100E0E9
:100EC0000050004009B90220704770B40C4D0D4A23
:100ED00000232B6083B02D680195019EC2F8100598
:100EE000C90040F6F8740C40102501211846C2F8DC
:100EF0001C45C2F80453D16003B070BC704700BFFA
:100F000010510040005000402DE9F041914BD3F8C2
:100F100004218AB0002A61D0D3F8002391075DD55F
:100F20008D4A0021116012680192019AD3F80821BC
:100F3000002A40F0D0800223032B1C4600F0FC80E6
:100F4000012B00F0E180022B07D1844C237813B9E8
:100F50008348FFF74BFB012323707E4BD3F8182106
:100F600022B1D3F80023520600F1A280794BD3F8C6
:100F700010211AB1D3F80023D7067ED4754BD3F8CD
:100F80004C211AB1D3F80023160344D4714BD3F883
:100F900028211AB1D3F80023550530D46D4BD3F86E
:100FA0001C21C2B1D3F80023140614D56D4AD3F81E
:100FB00004040021116012680992C007099A06D53D
:100FC000694A107818B10120C3F804041170614B0C
:100FD0004F22C3F804240AB0BDE8F0815D4BD3F87A
:100FE0000821002AB9D0D3F800335A07B5D55F4B92
:100FF00000221A601B680293029B01239CE75C4A53
:10100000D3F80C1400211160126808920D2208997F
:10101000C3F80C24C2E7574C5748554ADFF86CC157
:10102000564E574D0021216024680594059C0160AF
:101030000068069006981160126807924FF4886461
:101040004FF0100E01270D204F22DDF81C80C3F851
:1010500010C5C3F814E5DF61C3F80443C3F80C04FA
:10106000C3F80424346802232B60002C8ED0454B37
:101070000A4618680B46A04788E74349434D3F4856
:1010800000220A600968049101241021049EC3F81B
:101090000813C3F81055C3F81415DC610468002C5C
:1010A0003FF46CAF374B032118681346A04765E740
:1010B0003149D3F82435354A002008600968039186
:1010C00003991178302912D01378502B3ED0214B40
:1010D0000122DA614AE7D3F800335B077FF52BAFD3
:1010E000224B19601B680293029B032324E72349C8
:1010F0000C68002C3FF43AAF2249C3F3C8030868D8
:10110000023B0221A04731E71D4D144EFFF798FA2C
:10111000104B1A499C6000224FF488603270C3F86B
:1011200008030E682C60002E3FF417AF154B012109
:1011300018681346B04710E7064B114DD3F83C34FE
:101140002A681A427FF401AF0124DEE7064B012230
:101150001A70BCE70050004004510040F800002025
:10116000FC0000201C5100400C01002008510040F0
:10117000285100404C510040185100400801002007
:10118000640000200401002010510040E80000200D
:101190002DE9F0438368076883B0804691463BB3EE
:1011A00000250E46043F2C46E4B9012B0CBFC0219C
:1011B0008021D9F800305B1B019357F8040F3246A9
:1011C00001AB00F029F8013448B9D8F80830019A89
:1011D000A34215441644E7D8C9F80050002003B0D4
:1011E000BDE8F083611C99420CBF40210021E0E77B
:1011F0001D46F1E700238360704700BF83684268A3
:10120000934201D304207047026842F82310836898
:1012100001338360002070472DE9F0410746447890
:10122000007A82B015461E4620443CB98B0600F178
:10123000060407D0072002B0BDE8F0818B0600F15C
:101240000704F7D13368A34203D2042002B0BDE8FB
:10125000F08129703B78194329703B7A6B707B7859
:10126000EBB905F1060840463A7AF96800F00AFB46
:101270003B7A7A789844CAB93368D7F810C078694D
:1012800002AA1B1B42F8043D4146E0470028D2D188
:10129000019B1C441BBAC5F802303460CBE741F017
:1012A00008012970AB7105F10708DCE74046796851
:1012B00000F0E8FA7B789844DEE700BF2DE9F041C2
:1012C00006460C460E48069F15469846FFF792FFC5
:1012D00094B1214630462A4600F028F801460848D5
:1012E000FFF78CFF30B941463A460548BDE8F0416A
:1012F000FFF74EBFBDE8F0810720BDE8F08100BFD9
:101300006800002010B5047A13689C4201D30420C1
:1013100010BD03460134146008461A7800F8012B0A
:1013200059681A7A00F0AEFA002010BD024B18700E
:1013300059601A720148704714010020740000209F
:101340000649074A074B9B1A03DD043BC858D05097
:10135000FBDC054880470548004700007019000085
:101360000000002094000020D50A00005D04000069
:10137000FEE7FEE7FEE7FEE7FEE7FEE7FEE7FEE745
:10138000FEE700BF2DE9F047BA4C844201D0BDE82A
:10139000F0870329FBD8DFE801F01F3160022378D2
:1013A000B44C042B00F0FB80052BF0D194F868209E
:1013B00094F8693004219A422170E8D194F86A20A7
:1013C000002AE4D113466568A0680321A8470123D9
:1013D00084F86A30BDE8F0872378042BD7D0052B3A
:1013E000D5D0032BD3D10423656823700022A068D5
:1013F000AC4613460121BDE8F04760472378042B33
:1014000000F0CF80052B0CD104239B4A6568A068AF
:1014100003EB4303134400229B78237002211346FD
:10142000A84794F86960002E00F0AD8000210D46B9
:10143000022208200127013107FA02F38E4243EA13
:10144000000300F0A280013AD8B2F4D56319072254
:1014500083F8480001350020EDE7002B97D0002AE3
:1014600095D01178302992D1022B90D12178814BDF
:1014700004298CD192F8018059694FEA8805052228
:101480008D421A70C0F08F809A69103A954200F22E
:101490008A80D8686D1A28441021FFF713FD4FEA9F
:1014A000D803C8EBC301B8F1030F01F10705714E72
:1014B00094F8682010D91E444FF0010E96F84800A9
:1014C0000EFA05F710EA070504D020EA070086F8AF
:1014D000480075462A44D2B2063108F1010044BFE3
:1014E0000133072110F0FF0049D0032810D904EB85
:1014F000030E01279EF8480007FA01F610EA0605D8
:1015000004D020EA06008EF848003D462A44D2B2B4
:101510004E1E002900F0A68008F1020111F0FF0123
:101520002DD0032910D904EB030E01279EF8481093
:1015300007FA06F511EA050004D021EA05018EF844
:10154000481038460244D2B2701E002E00F0878048
:1015500008F1030111F0FF0111D003290FD023443A
:10156000012693F8481006FA00F511EA050004D0A8
:1015700021EA050183F8481030460244D2B284F8CB
:101580006820BDE8F087354630462544002385F8BD
:10159000480084F8683084F86A30BDE8F087BDE818
:1015A000F087012331E7334E06F138073846002132
:1015B0001022FEF7C7FFD4F814904D454DD2711993
:1015C000C5EB09060F2E01F1240138464DD83246ED
:1015D00000F058F937444D46C6F11006A369254A74
:1015E000AB4212D953691069D168EB1AC3EB0009F9
:1015F000B14528BFB146384619444A4600F042F981
:10160000B6EB09064D444F4432D0E369AB420ED9E4
:101610005B1BB34228BF3346994638461A46002121
:101620001D441F44FEF78EFFB6EB090620D0236A47
:10163000AB420BD95D1BB54228BF354638462A461A
:10164000FF21FEF77FFF761B2F4411D0384632462C
:101650000021FEF777FF09481EE71026BEE7013399
:10166000072075E70133072656E7102200F00AF934
:10167000024811E720010020CC180000580100208A
:1016800040B1F8B5194C2378042B01D0052B03D1B8
:101690000220F8BD04207047032BF9D0002BF7D1AE
:1016A00003460D46012604F12400114963600A2215
:1016B000A5602670E12700F0E5F81126FF230F2230
:1016C0007C2521460B4884F82E3084F82F3084F88E
:1016D000307084F8316084F8325084F83320FFF79A
:1016E00059FB003018BF0120F8BD00BF20010020C9
:1016F000FC18000085130000B1F5777F01D90320A5
:101700007047F0B43B4D2B78042B01D0052B02D150
:101710000220F0BC7047032BFAD0002BF8D0012B2D
:1017200058D10A23344A334E03EB430313449B78C6
:101730002B70002853D00323FE2986F83430F06044
:101740003161CCB20B4442D90A0A86F8374086F898
:101750003620FF24142204201844800811444FF43A
:101760007C764FF4806385F86900A96185F835407F
:101770006A61EE612B6238B300210E460222082412
:101780000127013107FA02F3814243EA040311D031
:10179000013ADCB2F5D5AB190722013183F8484094
:1017A00081424FF0000407FA02F306F1010643EA12
:1017B0000403EDD12E44002086F8484085F86800E7
:1017C00085F86A00F0BC704706460446F2E712222C
:1017D0000220C1E7022B08BF0D23A3D098E7032303
:1017E0000146F0603061044686F83430122202204F
:1017F000B2E700BF20010020CC18000018B10A2970
:1018000001D0032070470F4A1378042B11D0052B09
:101810000FD0032B0DD0012B0BD110B50446137044
:1018200002F124003CB121460A2200F02BF80020EE
:1018300010BD0220704704490A2200F023F8204618
:1018400010BD00BF20010020FC18000008B50C4AA4
:101850001378042B01D0052B01D1022008BD032BE6
:10186000FBD0002BF9D0012BF7D0022BF5D10323AD
:101870001370FFF711FB003018BF012008BD00BF37
:101880002001002010B5431E0A44914204D011F8F3
:10189000014B03F8014FF8E710BD0000F8B500BF99
:1018A000F8BC08BC9E467047F8B500BFF8BC08BC41
:1018B0009E46704743000000000000206E6F726477
:1018C000696373656D692E636F6D550004060504C9
:1018D00008030409020507040508030509020305B6
:1018E00004030902000001010301010102020403D3
:1018F000020A0002010202090200000000010203C4
:1019000004050607080900000000000000000000B0
:1019100000000000000000000000000000000000C7
:1019200000000000000000000000000000000000B7
:1019300000000000000000000000000000000000A7
:101940000000000000000000000000000000000097
:101950000000000000000000000000000000000087
:0819600000000000000000007F
:08196800F4EAFF7F010000001A
:1019700000000000081900002819000048190000A4
:101980000000000000000000000000000000000057
:10199000B41800000000000000000000000000007B
:1019A0000000000000000000000000000000000037
:1019B0000000000000000000000000000000000027
:1019C0000000000000000000000000000000000017
:1019D0000090D00301000000100100200100000071
:1019E00000000000010000000000000001000000F5
:1019F000CA1800000513000014010020250400008F
:041A000001040000DD
:0400000300001341A5
:00000001FF
