:0200000270008C
:10B00000807F00200DEC07003DEC07003FEC0700BF
:10B010000000000000000000000000000000000030
:10B020000000000000000000000000006DD90700D3
:10B03000000000000000000049EC07004BEC070096
:10B040004DEC07004DEC07004DEC07004DEC070000
:10B050004DEC07004DEC07004DEC07004DEC0700F0
:10B060004DEC07004DEC07004DEC07004DEC0700E0
:10B070004DEC07004DEC07004DEC07004DEC0700D0
:10B080004DEC0700A5B807004DEC07004DEC07009C
:10B0900065B907004DEC0700BDEB07004DEC07005C
:10B0A0004DEC07004DEC07004DEC07004DEC0700A0
:10B0B0004DEC07004DEC0700000000000000000010
:10B0C0004DEC07004DEC07004DEC07004DEC070080
:10B0D0004DEC07004DEC07000000000000000000F0
:10B0E0000000000000000000000000000000000060
:10B0F0000000000000000000000000000000000050
:10B10000000000000000000000000000000000003F
:10B11000000000000000000000000000000000002F
:10B40000154B002B08BF134B9D46A3F5803A002136
:10B410008B460F461348144A121A00F065F80F4B7A
:10B42000002B00D098470E4B002B00D098470020EF
:10B43000002104000D000D48002802D00C48AFF395
:10B44000008000F02BF82000290002F02DFB00F016
:10B4500011F800BF00000800807F002000000000FD
:10B46000000000006C2C0020803400200000000050
:10B470000000000008B5074B044613B10021AFF3EC
:10B480000080054B1868836A03B19847204600F096
:10B4900033F800BF00000000B4EC070070B50E4B9D
:10B4A0000E4CE41AA41000251E46A54204D056F8FE
:10B4B000253098470135F8E703F0EEFB084C094BBF
:10B4C000E41AA41000251E46A54204D056F82530E3
:10B4D00098470135F8E770BD6C2C00206C2C0020DB
:10B4E0006C2C00206C2C002002440346934202D0B6
:10B4F00003F8011BFAE77047FEE700BFBFF34F8F69
:10B500000449054BCA6802F4E0621343CB60BFF301
:10B510004F8FFEE700ED00E00400FA0536DF7047CC
:10B5200037DF704710B512F0030411D1094B1A60D0
:10B530004B1CDB009BB21A44074B1A60074B1C7074
:10B54000074B1C70074B1880074B1980204610BD15
:10B55000072010BD6C2C0020702C0020772C0020C0
:10B56000762C0020742C0020782C00202DE9F34745
:10B57000424E33888B4207460D46904677D30023D0
:10B580008DF807303E4B5B68C3F308039BB1103B5B
:10B590005AB2002AADBF02F1604303F00F03394AEB
:10B5A00003F56143B4BFD45C93F800436409E4B28B
:10B5B000012C01D10DE004240DF10700FFF7AEFFCF
:10B5C000022801D172B604E018B100210A46FFF743
:10B5D00095FF2D4B2D4A2E48197813780088DBB241
:10B5E000834238BF0133C9B234BFDBB200238B4280
:10B5F0000CD092F800901378DBB283423ABF01334B
:10B60000DBB20023012C137004D113E0012C30D0E5
:10B610004FF6FF7962B69DF80700FFF781FF30F023
:10B62000020303D000210A46FFF768FF4FF6FF73BD
:10B6300099451ED0DFF860A0DAF800304FEAC9045F
:10B640001A1943F839807FB175B1124B30881B68E5
:10B65000394600FB09302A4603F00AFBDAF80030CD
:10B660001C440020A58005E00020908002E0092015
:10B6700000E0042002B0BDE8F08700BF742C002079
:10B6800000ED00E014ED00E0762C0020772C002087
:10B69000782C0020702C00206C2C002038B511492B
:10B6A000114A0B7812789A421BD010480A780B780E
:10B6B0000088DBB2984286BF0133DBB200230B70F7
:10B6C0000B4B1D880B4B18680B4BD2B21B6811B289
:10B6D00003EBC10405FB020053F83130A188984701
:10B6E000DDE738BD762C0020772C0020782C002058
:10B6F000742C0020702C00206C2C00204378827861
:10B700000133934208BF0023027893421FBF0B60AE
:10B71000437803EB4302436814BF03EBC2000020ED
:10B7200070470000104B5B68C3F30803BBB1103BCC
:10B730005AB2002AABBF02F1604303F00F0303F5D6
:10B7400061430A4AACBF93F80033D35C5B09DBB2B8
:10B75000012B06D0032B0CBF0120022070470220D2
:10B7600070470020704700BF00ED00E014ED00E0DE
:10B77000494B4FF40032C3F8802003F1C04303F576
:10B780003C534FF48032C3F848230121C3F8082307
:10B790002F2259601046013800BF00BF00BF00BF14
:10B7A00000BF00BF00BF00BF00BF00BF00BF00BFA1
:10B7B00000BF00BF00BF00BF00BF00BF00BF00BF91
:10B7C00000BF00BF00BF00BF00BF00BF00BF00BF81
:10B7D00000BF00BF00BF00BF00BF00BF00BF00BF71
:10B7E00000BF00BF00BF00BF00BF00BF00BF00BF61
:10B7F00000BF00BF00BF00BF00BF00BF00BF00BF51
:10B8000000BF00BF00BF00BF00BF00BFC3D1996031
:10B81000224900230B601046013800BF00BF00BF63
:10B8200000BF00BF00BF00BF00BF00BF00BF00BF20
:10B8300000BF00BF00BF00BF00BF00BF00BF00BF10
:10B8400000BF00BF00BF00BF00BF00BF00BF00BF00
:10B8500000BF00BF00BF00BF00BF00BF00BF00BFF0
:10B8600000BF00BF00BF00BF00BF00BF00BF00BFE0
:10B8700000BF00BF00BF00BF00BF00BF00BF00BFD0
:10B8800000BF00BF00BF00BF00BF00BF00BFC3D1EB
:10B89000034A1370704700BF00E100E07C2C0020D9
:10B8A000A42C002070B5264A26490023C2F8403156
:10B8B000C2F84431C2F84831C2F84C31C2F8003104
:10B8C000C2F804310E68711C38D01F49D2F8042523
:10B8D0000C68141B24F07F441D461C4B1A6824235B
:10B8E00003FB06235A68944213D3A41A1544184A3A
:10B8F0001E6A126842B19869D969904738B100212F
:10B900000A46FFF7FBFD02E09A69D8699047731C6D
:10B91000E3D1104B104A197813788B4205D10133CB
:10B92000DBB2022B08BF0023137012780B4B43F8D5
:10B9300022500B4B4FF48012C3F8002170BD00BFA2
:10B9400000100140942C00207C2C0020842C00202E
:10B95000802C0020902C0020912C00209C2C00207A
:10B9600000E100E02DE9F04FAC48AD4AAD49036875
:10B97000097887B002931378994211D00133DBB272
:10B98000022B08BF002313701278A74B53F8221024
:10B99000029BCB1823F07F4303604FF0010801E0C6
:10B9A00000218846A14B1B680393A14B1B78019390
:10B9B000A04B1B680493A04B1C68036805939F4B26
:10B9C000019893F800B0039B0138C0B2FF285ED005
:10B9D00002B2049D05EBC20C15F832209CF8015010
:10B9E0009542F1D002EB4206DCF804509CF802E0EC
:10B9F00005EBC607013215F83650D2B2964508BF9E
:10BA00000022022D02D0032DE8D137E0D7F804A0A0
:10BA1000242505FB0A4595F81490B9F1000FDDD0F7
:10BA20001E469E46771C26D056454FF0240704D06C
:10BA300007FB0647B6463E6AF4E7B6450BD107FB5F
:10BA400003431B6A5E1C01BF7D4E0127B7600026C1
:10BA500004BFCB4605962F6AD5F80490242606FB32
:10BA60000E4EB7F1FF3FCEF820701FBF06FB074711
:10BA70007E684E447E6000262E75AFE75E1CADD01A
:10BA8000242505FB034300251D751B6AF6E76B4D56
:10BA90006648624F059A85F800B003603A60664ECA
:10BAA000AB46B8F1000F07D1039A9B1A18BF0123C8
:10BAB00002934FF0FF3433E0D6F800904FF0FF349C
:10BAC0004FF0000E5D1C28D0242202FB0392D2F816
:10BAD00004C0614504D2C1EB0C01036051601DE05C
:10BAE000D2F81080D2F820A0CCEB0101E6444FF050
:10BAF000000CC2F804C082F814C0B8F1000F0AD0DC
:10BB0000029D14620EEB050C2CF07F4CC2F808C0AD
:10BB1000C2F80C801C465346D4E70360012302930D
:10BB2000444AD0F800901268039236689BF80020CF
:10BB3000D7F800A004924A46019B591ECBB2FF2BB6
:10BB4000019300F0A6800399019801EBC007611CE6
:10BB500005D0242000FB04602146046A2AE03978DD
:10BB600078788842E8D001EB410E97F802C07868F7
:10BB70000131C9B28C45397004BF0021397000EB26
:10BB8000CE0510F83E0069680128E0D1242000FBB2
:10BB9000016090F814E0BEF1000FD8D1AB6883606B
:10BBA000EB68C3602B690361049B6D69C5610BB1D0
:10BBB000C0F808E08568DFF88CC0CAEB050E2EF0EF
:10BBC0007F4EE645D0F80CC002D80EEB0C0508E01D
:10BBD000C5EB0A0525F07F45AC458CBFC5EB0C05D0
:10BBE0000025456000258560C560012505754FF07D
:10BBF000FF350562AA424FF0240000FB016846D0E1
:10BC000000FB0260D8F80450D0F804E075451BD85A
:10BC1000C5EB0E054560C8F8202038E07C2C0020DC
:10BC2000902C0020912C00209C2C0020942C002093
:10BC3000882C00208C2C0020842C0020982C0020A4
:10BC400000100140FEFF7F00934610464FF0240E87
:10BC50000EFB006EDEF804C0654509D9DEF820E071
:10BC6000BEF1FF3FCCEB0505834607D07046EDE7FC
:10BC7000C5EB0C0CCEF804C086465846C8F80450F4
:10BC8000242505FB0060C8F820E001625FE70A4652
:10BC90005DE744494A450A6002D1029B002B7BD0F4
:10BCA000531C77D0404B414D1B682878242101FB61
:10BCB00002323F493F4BD1F804451B685768E21AEE
:10BCC00022F07F42033200284BD14FF48030C1F87C
:10BCD0004403C1F8040338484FF40036C0F88061CB
:10BCE000066001260E602F20013800BF00BF00BF94
:10BCF00000BF00BF00BF00BF00BF00BF00BF00BF4C
:10BD000000BF00BF00BF00BF00BF00BF00BF00BF3B
:10BD100000BF00BF00BF00BF00BF00BF00BF00BF2B
:10BD200000BF00BF00BF00BF00BF00BF00BF00BF1B
:10BD300000BF00BF00BF00BF00BF00BF00BF00BF0B
:10BD400000BF00BF00BF00BF00BF00BF00BF00BFFB
:10BD500000BF00BF00BF00BF00BF00BF00BFC3D116
:10BD60002E70BA422CBF9A18DA1922F07F43C1F81C
:10BD70004035D1F80425121B22F07F421B1B0332F1
:10BD800023F07F439A4207D90B4B4FF40032C3F89C
:10BD9000002101E0FFF7ECFC084B00221A7007B00D
:10BDA000BDE8F08F942C0020842C0020A42C0020CF
:10BDB000001001407C2C002000E100E0982C0020C5
:10BDC0002DE9F04113F0030607460D4690461C4648
:10BDD00050D1002B4ED0FFF7CBFC284B069A1A60AF
:10BDE000274B1D70274B21461C603346AB4201F1A7
:10BDF000240106DA002201F8242C01F8102C01336A
:10BE0000F4E7214A0321117005EBC5031F4A04EB37
:10BE10008303136003F1180008EB48028A400446CC
:10BE2000002158601970597083F802800833A342CA
:10BE30001044F5D1164B4FF0FF321A60154B1970B4
:10BE4000154B1970154B4FF480126020C3F88021F8
:10BE500083F814031A6002F18042A2F56F22C2F83F
:10BE6000087583F811030E4BD2F804251A600846B2
:10BE7000BDE8F0810720BDE8F08100BF802C0020E4
:10BE8000922C0020842C0020882C00208C2C002058
:10BE9000942C0020902C0020912C002000E100E048
:10BEA0007C2C0020F0B50E4B1C68ACB1B2B1A8B12F
:10BEB0000C4B1F780025BD420CDA264614F8243BB3
:10BEC00033B9012434707170B26105601846F0BD59
:10BED0000135F0E70420F0BD0820F0BD0720F0BDDB
:10BEE000842C0020922C00202DE9F7431F4B0D4697
:10BEF000196806469046002934D01D4B1B7898429D
:10BF00002ED2042D2CD924234343CA18CF5C012FF1
:10BF100028D15378012B0CBFA9464FF00009FFF739
:10BF200001FC144B1C6804EBC004204601A9FFF778
:10BF3000E5FB98B1104B07704660D3F80435836079
:10BF4000019BC560C0F81090C0F8148063700B4B63
:10BF50004FF48012C3F80021002004E0042002E026
:10BF6000072000E0082003B0BDE8F083842C002007
:10BF7000922C00208C2C00200010014000E100E0F9
:10BF800037B5154B1A6805461AB3144B1B789842FF
:10BF90001DD224234343D35C012B1AD1FFF7C2FBEC
:10BFA0000F4B1C6804EBC004204601A9FFF7A6FB59
:10BFB00058B102230370019B45606370094B4FF435
:10BFC0008012C3F80021002004E0042002E00720D2
:10BFD00000E0082003B030BD842C0020922C00200B
:10BFE0008C2C002000E100E0082910B5044604D0A4
:10BFF000002001460246FFF781FA23686068BDE829
:10C000001040184707B5054A8DE803006846082127
:10C01000FFF7ACFA03B05DF804FB00BFE9BF07000F
:10C0200048DF704711DF704713DF704708B5FFF72F
:10C03000F7FF18B100210A46FFF760FAFFF72EFB61
:10C04000024B1B78023B022BF1D808BDA52C002027
:10C05000074B1878012803D1012904BF0221197068
:10C0600022B1002110460A46FFF748BA704700BFC8
:10C07000A52C002008B50B481C2101F042FC18B18A
:10C0800000210A46FFF73AFA064807491C22002316
:10C0900001F024FC28B100210A46BDE80840FFF762
:10C0A0002DBA08BDA82C0020B02C002007B50368CD
:10C0B000013301D1002014E001A800F04FF9019BE9
:10C0C0001A78012AF6D1588830B145F208029968E9
:10C0D0001068002200F066F9019B5B881B1A584229
:10C0E000584103B05DF804FB84B02DE9F34108AC7E
:10C0F00084E80F009DF82040BDF82280099F0A9E29
:10C100000B9D01A800F02AF944B9384B0122FF2108
:10C11000A3F802809D601A70197142E0012C13D1BE
:10C12000324BF2192A449A60A5221A70FF221A7122
:10C130000C9AA3F80280DF601E615D619A612C4B4E
:10C140001C70FFF797FF4BE0032C0DD1019A274B92
:10C1500011781970518892689A60AA2259801A71D0
:10C16000DF601E615D611BE0022C1DD1019A1F4B37
:10C170001178A52903BF00225A809A6019700DBF5B
:10C18000FF22518892681A7018BF9A604FF0FF0220
:10C190001A714FF0000218BF5980DA601A615A61B3
:10C1A0000122134B1A70CCE7052C08D101F034F8AA
:10C1B00018B100210A46FFF7A1F903220EE0042C72
:10C1C00009D10A4B00229A605A80FF221A70019A04
:10C1D00012791A71B5E7062C02D10422044B1A70A9
:10C1E00002B0BDE8F04104B0704700BFB02C0020A1
:10C1F000A52C00201FB5002101A80C22FFF774F91F
:10C20000074B019301F034FB30B906494FF4FE238C
:10C2100001A84B6001F04EFB05B05DF804FB00BFC8
:10C2200051C00700A82C002010B500F031FA28B941
:10C2300000F01EFF0446FFF7F9FE204610BD000087
:10C2400010B5FFF7EFFE18B100210A46FFF756F9C7
:10C250000E4B1968002301229A400A4218BF0B486E
:10C2600003F1010318BFC0F88020202BF3D145F261
:10C2700008042068FFF7D8FE18B100210A46FFF72E
:10C280003DF92068BDE8104000F06EB800E100E024
:10C2900007B501A800F062F8019B1A78A52A05D01D
:10C2A0001879A0F1AA035842584100E0012003B0D8
:10C2B0005DF804FB10B500F00AFC50B1642001F0F9
:10C2C000C1F900F081FB48B100210A46FFF716F9D9
:10C2D00004E000F0DBFB0028F0D110BD00F0F7FB1C
:10C2E00018B100210A46FFF709F900F0B1FB044636
:10C2F00018B100210A46FFF701F9204610BD10B51C
:10C3000088B003AC204600211422FFF7EDF8022389
:10C310008DF80C300023009394E80F00FFF7E4FE43
:10C32000FFF784FE002008B010BD13B5044601A835
:10C3300000F014F8019B1A7822705A8862809A687B
:10C34000A2601A792271DA68E2601A6922615A6978
:10C3500062619B69A36102B010BD0000014B0360E4
:10C36000704700BF00F00700F0B50346186880F37F
:10C3700008885868FF2464B2EFF30585002D01D1C9
:10C38000A64600472546064621273FBAF0B40024BA
:10C39000002500260027F0B4F92040B2004700BF76
:10C3A000F0BD00BF0AB1138801E04FF6FF730144EE
:10C3B00088420ED010F8012B5BBA9BB25340C3F3F6
:10C3C0000312534083EA03339BB2DAB283EA421387
:10C3D000EEE71846704718DF704770470129F8B537
:10C3E0000D4614461F4602D003290CD01AE0124B0A
:10C3F0001B78052B16D1114B1B689BB111460420ED
:10C400003A4698470EE00C4E3378022B0AD10C4B7B
:10C410005B689847094B35701E681EB12846214657
:10C420003A46B04734B1002120460A46BDE8F840FC
:10C43000FFF764B8F8BD00BFD42C0020CC2C00203E
:10C44000FC2C002000B5084B89B001221A7005238E
:10C450008DF80C30079B009303AB0FCBFFF744FE26
:10C4600009B05DF804FB00BFE02C002000B589B0E6
:10C4700003238DF80C300A4B1B88ADF80E30094BA6
:10C480005A6804929A68DB680693079B00930592AA
:10C4900003AB0FCBFFF728FE002009B05DF804FBCB
:10C4A000D22C0020EC2C002000B589B001238DF89F
:10C4B0000C300B4B1B88ADF80E3045F208031A68A0
:10C4C000084B596804919968DB68069305910092BE
:10C4D00003AB0FCBFFF708FE002009B05DF804FBAB
:10C4E000D22C0020EC2C002010B588B003AC2046E4
:10C4F00000211422FEF7F8FF04238DF80C300023EE
:10C50000009394E80F00FFF7EFFD08B010BD0000A6
:10C5100008B50B4B0B4818600B4B02221A7045F202
:10C5200008031968C1F5F621490801F0EAF928B1B4
:10C5300000210A46BDE80840FEF7E0BF08BD00BF85
:10C540004C2D0020E42C0020D42C002008B5094BF1
:10C5500009481860094B02221A70094B196801F04A
:10C56000D0F928B100210A46BDE80840FEF7C6BF51
:10C5700008BD00BF4C2D0020D82C0020D42C00205A
:10C58000542D002030B5164C1648E16889B001F0F2
:10C59000B8F918B100210A46FEF7B0FF124B114856
:10C5A0005968E268002301F099F90546A0B903AC87
:10C5B000294614222046FEF797FF0C4B8DF80C50AD
:10C5C0001B88ADF80E30064BDB680693079B009383
:10C5D00094E80F00FFF788FD284609B030BD00BF82
:10C5E000EC2C0020D82C0020E42C0020D22C0020A1
:10C5F00038B50E4B1D78ADB90D4C2068FFF7C0FC67
:10C6000018B129462A46FEF779FF20684FF47011C9
:10C610000022FFF769FC044630B100210A46FEF70C
:10C620006DFF01E0082038BD204638BDE02C002019
:10C63000482D0020F0B585B005461F469608032317
:10C6400068460C468DE8280002910396FFF7C3FE6A
:10C65000E0B1B4F5405F11D8012368468DE82800A9
:10C6600002940396FFF7B7FE80B9032368468DE86E
:10C67000280002940396FFF7AEFE07E0E81BE11BDB
:10C680003A463B46FFF7D6FF0028E5D005B0F0BD9F
:10C69000F0B585B000210C2201A8FEF725FF1E4B46
:10C6A00001931E4B1E4D1F4F00261E701E4B01A8EE
:10C6B00029461E8001F0FEF8044608B13E7029E0CC
:10C6C00045F208031A686A6095E80300174A82E891
:10C6D00003001B681648C3F5F62103EB51035360B2
:10C6E0002146144AFFF7DEFB18B121462246FEF729
:10C6F00005FF0F4B4FF4701118680022FFF7F4FB91
:10C7000018B100210A46FEF7F9FE0B4B0020186015
:10C7100001233B7005B0F0BDDDC30700D02C002025
:10C72000D82C0020D42C0020D22C0020E42C002077
:10C73000482D002045C40700502D0020014B1860F3
:10C74000704700BFCC2C002038B54368264C0FCB77
:10C7500084E80F002078430701D585073CD1636842
:10C76000214A990738D191688D0735D1D26894074D
:10C7700032D10B4413441D4AB1F5804F1360154666
:10C780002CD845F2080210F0010F1268C2F5F6220B
:10C7900008D0934222D8164B164A1A60164A5A609D
:10C7A000164A0BE0B3EB520F18D8114B144A1A601B
:10C7B000144A5A6082074CBF134A144A9A60144BB9
:10C7C0001B78012B0CD1FFF713FF044650B9084B1F
:10C7D00028681B68984705E0062038BD0C2038BD46
:10C7E000082038BD204638BDEC2C0020542D0020F8
:10C7F000FC2C00204DC50700E9C40700A9C40700B0
:10C8000011C50700DBC307006DC4070085C507001D
:10C81000D42C0020F8B5064640B383689B0727D187
:10C82000154B1B78052B25D1144C4268144F2368F7
:10C8300095003A682B44934204D94FF0FF332360AC
:10C840000C20F8BDFFF7D4FEA8B90E4BB1681868EC
:10C8500023682A4601F042F868B920682A18386827
:10C860002260824214BF09200020F8BD0E20F8BDCE
:10C870001020F8BD0820F8BDD42C0020502D002039
:10C88000542D00204C2D002070B50B4B1C687CB93A
:10C890000A4E3378042B0BD1094D0A48297800F051
:10C8A00043F910B90523337003E02C70044600E00F
:10C8B0000824204670BD00BF502D0020D42C00203D
:10C8C000D02C0020082D0020F8B5144B1A78032A2C
:10C8D000074602D0042A02D018E004221A70104B36
:10C8E0001C689CB9FFF784FE90B90E4E7D683378C2
:10C8F000AD005A19402A0DD80B48B96818442A4689
:10C9000002F0B6F933781D44357004E0082402E0E3
:10C91000044600E009242046F8BD00BFD42C0020C6
:10C92000502D0020D02C0020082D002038B50D4CB3
:10C930002378052B14D10C4B0C4D1A682B689A42A6
:10C940000ED106232370FFF753FE50B9084B296818
:10C950001B68586800F02EF918B90723237038BDFA
:10C96000082038BDD42C0020502D0020542D00204C
:10C970004C2D002010B50A4B1B78072B0DD1094B0D
:10C980001868FFF7FDFA18B100210A46FEF7B6FD58
:10C99000054BBDE810409B681847082010BD00BF3C
:10C9A000D42C0020482D0020FC2C002000B589B09C
:10C9B00006238DF80C30079B009303AB0FCBFFF7DA
:10C9C00093FB09B05DF804FBF0B58DB005A8FFF747
:10C9D000ACFC089C002C38D00B9E04F54053B342AD
:10C9E00027D945F20803A6F540551B68A3424FEA34
:10C9F000550508D36A00901902F540512B46A21A3A
:10CA0000FFF718FE20E005F54053012701A8019724
:10CA1000029303930497FFF7DEFCA8B94FF4405349
:10CA200001A80197029303930497FFF7D4FC58B928
:10CA3000E0E701230193A4084FF4405301A80296B4
:10CA400003930494FFF7C7FC044620460DB0F0BDE5
:10CA500000B58DB005A8FFF768FC099898B1089A51
:10CA60003AB945F208031B68C3F5F62203EB5203FB
:10CA700001E00B9B134480080022039001A801925F
:10CA80000293FFF7A8FC0DB05DF804FB00B58DB074
:10CA900005A8FFF74AFC0998B0B1089A3AB945F2DF
:10CAA00008031B68C3F5F62203EB520301E00B9B5E
:10CAB000134403228008019204904FF4F62201A847
:10CAC00002920393FFF787FC0DB05DF804FB10B5ED
:10CAD0008CB005A8FFF729FC089A12B30B9802F551
:10CAE000405383420FD945F208031B68934217D382
:10CAF000A0F540535B085C00204404F54051121B34
:10CB0000FFF798FD0AE00323019303904FF440538D
:10CB1000920801A802930492FFF75DFC024600E030
:10CB20000E2210460CB010BD0B2910B5044601D8DA
:10CB3000092010BD038900EB43030A33C21A0A44DB
:10CB4000D2B21948012A0270F2D921448B42EFD89F
:10CB50001946164802F08CF8154B1A884FF6FF71EB
:10CB60008A4202D02188914219D15B884FF6FF7228
:10CB7000934202D062889A4211D134F8081F0023F0
:10CB80008B420CD234F8022F4FF6FE70824208D04E
:10CB900045F20C00013300888242F1D101E00B2004
:10CBA00010BD002010BD00BF622D0020582D0020B8
:10CBB0008010001008B50022FFF7F4FB044A5178FA
:10CBC000137843EA0123984214BF0B20002008BDCC
:10CBD000582D0020837842781B0443EA0223027810
:10CBE000C078134343EA0060704770DF704771DF1D
:10CBF000704773DF704774DF704776DF70477ADF06
:10CC000070477CDF70477FDF704782DF7047A7DFA8
:10CC10007047A8DF7047A9DF7047AADF704767DF5A
:10CC200070470C2813D8DFE800F014121212121209
:10CC300009120712120D0B000220704703207047E3
:10CC40000420704704290CBF0520062070470620E9
:10CC500070470120704700210A46FEF74FBC0021B3
:10CC60000A46FEF74BBC10B5044608460321FFF701
:10CC7000D8FF03210246204601F06EFD28B10021B5
:10CC80000A46BDE81040FEF739BC10BD30B5134B65
:10CC900091B09B798DF80630054641F23053002162
:10CCA00002A83822ADF80430FEF71EFC022300244F
:10CCB0008DF808300123ADF8103002A801AB2146F1
:10CCC0008DF80A408DF80B50059301F038FA18B131
:10CCD00021462246FEF712FC11B030BD782D00200F
:10CCE000032838B50C4615461CD004282AD149B172
:10CCF000154B18884FF6FF73984223D01321FFF786
:10CD00007CFF18E0104600F033FC18B121462246A3
:10CD1000FEF7F4FB0D4B1B68AB4213D10C4803210B
:10CD2000012206E008460121FFF77BFF0246084882
:10CD3000012101F011FD28B100210A46BDE838406B
:10CD4000FEF7DCBB38BD00BF602C0020682D002042
:10CD5000782D00202DE9F0472E4B1E788AB09A4698
:10CD6000002E54D12C4C314620461822FEF7BCFB35
:10CD70002A4B1D788DB3DFF8A8803146102202A817
:10CD800008F10709FEF7B0FB484602A9102201F09E
:10CD90005FFF0127054640B90520FFF777FF2770A1
:10CDA000C4F80480257225821FE001AB042006939D
:10CDB000CDF80090CDF804808DF81C708DF82470AB
:10CDC000CDF820D0FFF762FF0223237206ABE360A9
:10CDD000282326702382668208E00620FFF756FF8C
:10CDE0002823257065602572238265820A48FFF733
:10CDF00000FF18B100210A46FEF780FB4FF0A04368
:10CE00004FF40032C3F80C2501238AF800300AB031
:10CE1000BDE8F087642D0020F42D0020632D002054
:10CE2000AE2D0020F0B50446AFB001F06FFA864891
:10CE3000214601F0C5FC2388142B00F0C1801ED8C8
:10CE4000102B2CD008D8022B40F0FC807F4B002107
:10CE50001888FFF7E4FEEDE0112B31D0132B40F0E2
:10CE6000F1807B4B02AC9A79186899888DF81E2066
:10CE70000690DA1DADF81C101733264641E0512B01
:10CE800000F0888005D8182B00F0A980192B65D0F8
:10CE9000D8E0522B00F0A380552B53D0D2E04FF0B6
:10CEA000A0434FF40022C3F80C254FF40032C3F81E
:10CEB0000825664BA2881A80664B00221A70C1E0D2
:10CEC0008023ADF82030644B604C32221A604FF062
:10CED000A0434FF40022C3F8082520880EA908AA11
:10CEE0000123FFF79AFE18B100210A46FEF706FB60
:10CEF0005A4B1B780BB9FFF72DFF4FF6FF732380BA
:10CF0000A0E010685168254603C508329A422C46B5
:10CF1000F7D1534B0EAA03F1180715461868596844
:10CF2000144603C40833BB422246F7D11868474B66
:10CF3000206018884B4A0C96852108AB0B95FFF7AB
:10CF400062FE77E0A479002C7CD1404B1321188835
:10CF5000FFF753FE002875D021466DE0A379002B22
:10CF600070D13C4A13703C4B19680139196071B992
:10CF70000EAC20461422FEF7B7FA05238DF83830A0
:10CF8000129B009394E80F00FFF7AEF85AE0FFF70A
:10CF9000E1FE57E0A379002B54D0A27A043A022A8A
:10CFA00050D8022B18BF01238DF838304FF4C173CD
:10CFB000ADF83C30254B0EA91888FFF72AFE39E062
:10CFC000234AE589518DA08802F118038D420CBFD8
:10CFD0001946002107320023FFF717FE2AE01B4BFA
:10CFE0001C884FF6FF75AC422AD01F4B197820469B
:10CFF000E1B11E4908220123FFF70DFE0146D0B919
:10D0000020460A460223FFF706FEA0B920460C215F
:10D010002A46FFF7FCFD43F20203984212D008288B
:10D0200010D043F20403984204D10BE00A460B46A9
:10D03000FFF7F1FD30B100210A46FEF75FFA01E08B
:10D040000820F8E72FB0F0BD782D0020602C0020DC
:10D05000AE2D0020642D0020642C00200C2E00201A
:10D06000C62D0020A82D0020632D0020E22D0020D9
:10D070005D4A5E48002310B513705D4A13704FF08F
:10D08000A0430322C3F84427C3F84C274FF40032CF
:10D09000C3F808254FF4002288B0C3F8082501F032
:10D0A00079FD002840F09D805248FFF747FB00F0D3
:10D0B00023FA0446002840F094804F4800F068FCB2
:10D0C00018B94E4B01221A7015E001A8FFF78FFD29
:10D0D00018B121462246FEF711FA9DF805300020CE
:10D0E000013301A98DF80530FFF77FFD18B100214C
:10D0F0000A46FEF703FA9DF800304148012262F328
:10D10000030308AC62F3071304F8203D01F0BBFDF4
:10D110003B4982B22046FFF774FD18B100210A4650
:10D12000FEF7ECF901A800210822FEF7DDF90C2337
:10D13000ADF804301823ADF8063000244FF4C8735E
:10D1400001A8ADF80840ADF80A30FFF758FD18B156
:10D1500021462246FEF7D2F9002101A80C22FEF753
:10D16000C3F90623ADF80430264B02932648274B1B
:10D17000039301A901F02EF918B100210A46FEF728
:10D18000BDF901A800211C22FEF7AEF940F6CD43FF
:10D1900002934FF480430393032300248DF810304F
:10D1A00001A81B4B0194ADF812408DF81440069471
:10D1B000079301F06FF818B121462246FEF79EF959
:10D1C000144A1378032103F0FC0361F384036FF323
:10D1D000451313700723537010239370FFF7BAFDA4
:10D1E000002008B010BD00BF0C2E002025CE070087
:10D1F000742D0020E1CC0700AE2D0020632D00200F
:10D20000B8EC070085D20700782D002057CC070026
:10D210005FCC0700A82D002010B5174B01221A7013
:10D22000164B18884FF6FF73984208D01321FFF76A
:10D23000E4FCB8B100210A46FEF760F912E0104B99
:10D240001A781C4672B1FFF7D6FC18B100210A46C5
:10D25000FEF754F94FF0A0434FF40032C3F808250D
:10D260000023237001F04CF818B100210A46FEF7A4
:10D2700045F9002010BD00BF0C2E0020602C0020BE
:10D28000642D0020F0B50B7889B005460C46092BBB
:10D2900000F21F81DFE813F02B00320045000A0086
:10D2A0001300220006010E0149001401FFF73EFBA6
:10D2B0000421FFF7B6FC0421024628462EE0FFF7C2
:10D2C000ABFF18B100210A46FEF718F9FFF752FB31
:10D2D000002800F0FE80FFF769FBFAE0FFF79CFFF3
:10D2E0000028F8D000210A46FEF708F9F3E77A4B48
:10D2F00001221A708B681A78784B14E0764B02265C
:10D300001E708B681B78012B40F0E380FFF7BCFA9E
:10D310003146FFF786FC02462846314601F01CFAEA
:10D32000D2E06D4B03221A70D3E06B4B1E78022EB5
:10D330002ED0032E56D0012E40F0CB8004AF00211A
:10D3400010223846FEF7D0F8644B0C221B788DF87B
:10D35000103001A80021FEF7C7F8237902970322B5
:10D360000C2B0192D8D1A4682046FFF733FC05901E
:10D37000201DFFF72FFC069004F10800FFF72AFCA0
:10D38000079001A8FFF7E0F9002800F0A280BFE7AE
:10D390000B7913F0030212D0C2F1040600215818D1
:10D3A000C0B2A76801314FF0000EB14207F800E0AB
:10D3B000F5D10133C2F1030252FA83F32371012341
:10D3C0000493A3680693237904A89B080593FFF7A9
:10D3D0007BFA00287DD00221FFF723FC02210246C0
:10D3E00028469BE70879830703D028463146324612
:10D3F00094E73B4E0190314600F092F8014678B92F
:10D40000A168019A306801F033FC019800F0ECF853
:10D41000014628B901A9304600F0F4F8014608B1E8
:10D4200028463CE004230493019B9B08059304A831
:10D4300033680693FFF7EEF9074640B9294A217988
:10D4400013680B441360284B32681A6041E00928C6
:10D450001BD1244A217913681944244B11601B788D
:10D46000002B36D0224A1388013B9BB2138014460E
:10D470007BBB284601F034F918B100210A46FEF7BB
:10D480003DF81C4B1B88238023E0306800F070F8C7
:10D49000014610B12846FFF7E6FB28463946FFF75C
:10D4A000E2FB16E0114B01221A70124A8B8813809E
:10D4B0000F4A03E00D4A002313700E4A138008E060
:10D4C000084B196801F0D0F818B100210A46FEF7A0
:10D4D00015F809B0F0BD00BF742D0020AD2D00205F
:10D4E000702D0020F02D0020682D0020EC2D002054
:10D4F0006C2D0020EA2D0020064B074A00201870F2
:10D50000064B1A6008225A609860D860186158610A
:10D51000986170474C2F0020102E0020302F0020E3
:10D5200030B5E9B1114B5C6800220A60D4B1202803
:10D530001AD8D8681D680130013CD86018695C6051
:10D54000242404FB00540C60012101FA00F49969C1
:10D550000130214300F0070018619961104630BD89
:10D560000E2030BD042030BD0C2030BD302F0020F7
:10D57000F0B51C4B9A6892B35D691E68AA1A02F056
:10D5800007021146242404FB0164A0420ED10D467B
:10D59000012101FA05F099694140996100209F68D5
:10D5A000D3F818E0D3F804C039460BE0013101F09C
:10D5B0000701A942E6D11020F1E769B16A1C0139DF
:10D5C00002F00702012606FA02F20CEB070412EA47
:10D5D0000E0FA4EB0104F0D099605C60F0BD042054
:10D5E000F0BD00BF302F002005490B69013B03F05F
:10D5F00007020B68242101FB0233186200207047E8
:10D60000302F002030B5B0B1A9B10D4BDA68A2B10E
:10D61000013ADA609A681D6801329A605A692424D6
:10D6200004FB02540132046002F00702206A5A61CE
:10D630000860002030BD0E2030BD042030BD00BF8A
:10D64000302F002082B00190019B002B41D0019B24
:10D65000013B019340F2E730013800BF00BF00BF3B
:10D6600000BF00BF00BF00BF00BF00BF00BF00BFC2
:10D6700000BF00BF00BF00BF00BF00BF00BF00BFB2
:10D6800000BF00BF00BF00BF00BF00BF00BF00BFA2
:10D6900000BF00BF00BF00BF00BF00BF00BF00BF92
:10D6A00000BF00BF00BF00BF00BF00BF00BF00BF82
:10D6B00000BF00BF00BF00BF00BF00BF00BF00BF72
:10D6C00000BF00BF00BF00BF00BF00BF00BFC3D18D
:10D6D000BAE702B0704729DF704728DF70470000C3
:10D6E00037B50B46024608465C6850F80C5F09786F
:10D6F0000094034C5B6954F82540A04703B030BD4B
:10D700004430002038B5184C2378182202FB03421D
:10D7100002F108001379C568012B0DD0032B21D12C
:10D720004FF080531869114B80B2B5FBF0F51868C3
:10D730002844FFF7D2FF11E00C4B91691B689268F7
:10D7400040681B03D21AB2F5805F2844194418447C
:10D7500034BF92084FF48062FFF7BDFF18B9012370
:10D76000A37038BD0F2038BD502F0020503000204E
:10D7700070B5144D6E780A2E21D02C783444E4B262
:10D78000092C88BF0A3C4FF0180688BFE4B206FB9C
:10D79000045404F110062071A26103C9A360049B24
:10D7A000E360AB7886E803000BB1002003E0FFF7ED
:10D7B000A9FF1128F9D06B7801336B7070BD04207C
:10D7C00070BD00BF502F002038B5274B9A781D46FA
:10D7D000002A48D0002402289C7002D0032833D0AD
:10D7E00038BD1B782149182000FB03500A68806867
:10D7F0000132B0EB023F0A601BD86A780C60013A34
:10D800006A705A1CD2B2182404FB0354092A88BF38
:10D81000A3F10902211D00202A70FFF761FF2346B2
:10D82000002243F8082F022122719960DA60A26178
:10D830005A606B780C4CB3B1A378A3B9FFF762FFC1
:10D8400088B1112806D138BD1A78182101FB0231A0
:10D850000D2003E02378182101FB03410431BDE8CA
:10D860003840FFF73DBF38BD502F0020503000201A
:10D870000C4B00221A600C4B1A705A709A7003F10C
:10D88000F0020020022118719860196158619861B6
:10D89000D86018339342F4D1044B1860044B1860DD
:10D8A0005860704750300020502F00204C3000202E
:10D8B00044300020074A1368022B1FBF0B60591C1D
:10D8C0001160054A1DBF016842F8231000200420A2
:10D8D000704700BF4C3000204430002073B515461F
:10D8E000CA180A43920706460C4607D100933146F0
:10D8F00022462B460120FFF73BFF00E0102002B03C
:10D9000070BD13B5002204460B4600922146032049
:10D91000FFF72EFF02B010BD70B50D4600BB0968C1
:10D92000E1B1114CA14211D0631A3B2B0AD801F18D
:10D930003C03481E834209D013F801695A1A224455
:10D940005670F7E720463C2201F092F906483C2148
:10D950000022FEF727FD0023A08702E00E2300E04F
:10D9600001232B6070BD00BF807F0020074A6FF04D
:10D9700002039E4502D1EFF3098101E0EFF3088134
:10D980008869A0F102000078104700BF19D907008C
:10D9900038B50546A8B10D4C3C2120460022FEF7C3
:10D9A00001FDA38F83420ED1234604F13C0253F8BC
:10D9B000041B45F8041B9342F9D10130A0870020D5
:10D9C00038BD0E2038BD0B2038BD00BF807F002041
:10D9D00013DF704760DF704718DF704710B586B0FF
:10D9E0000446002102A81022FDF77EFD02230293C7
:10D9F0003CB102A8FFF7F0FF18B100210A46FDF77D
:10DA00007DFD4FF4F620FFF7E3FF18B100210A4631
:10DA1000FDF774FD08201449144B482201F098F8D2
:10DA200018B100210A46FDF769FD68460021082269
:10DA3000FDF75AFD9DF80030002443F001036846CD
:10DA400001948DF80030FFF7C5FF18B1214622463A
:10DA5000FDF754FD064801F0A7F818B100210A4669
:10DA6000FDF74CFD06B010BDA4310020FDEB070012
:10DA700075DA0700FFF7A8BE08B508201421054A8B
:10DA8000FDF750FD28B100210A46BDE80840FDF72A
:10DA900035BD08BD5430002003460A4601481946EA
:10DAA000FDF72CBDEFBEADDE73B54FF08043D3F86C
:10DAB0001C45A4F1B1025442544114B10022C3F8F0
:10DAC0001C254FF0A04340F20332C3F84C274FF41B
:10DAD0000022C3F80825444B1B68B3F5F62F04D089
:10DAE000002001460246FDF709FD4FF080531B69F7
:10DAF000B3F5805F04D0002001460246FDF7FEFC2E
:10DB00003A4B0093002003210522394BFEF758F9C8
:10DB100018B100210A46FDF7F1FC4FF0A046354B45
:10DB2000C6F83437FEF766FBFEF7B2FB84F001055A
:10DB3000E8B14FF40023C6F80C35FEF7BBFB18B173
:10DB400000210A46FDF7DAFC2846FFF747FFFFF7FA
:10DB500093FFFEF7D4FB18B100210A46FDF7CEFC77
:10DB60004FF0A0434FF40022C3F8082504E02846F4
:10DB7000FFF734FFFFF780FF4FF0A043D3F81035D5
:10DB80009B0400D56CB14FF0A0444FF40023C4F8BF
:10DB90000C35FEF749FB58B100210A46FDF7AEFCF3
:10DBA00006E045F208031868FEF780FA20B9EAE7B4
:10DBB0004FF40023C4F8083545F208042068FEF746
:10DBC00075FA28B1FEF764FB10B92068FEF738FB40
:10DBD000BFF34F8F0849094BCA6802F4E062134350
:10DBE000CB60BFF34F8FFEE71410001005C0070095
:10DBF000EC3100200C00030000ED00E00400FA0509
:10DC000071DF704772DF704779DF70477DDF7047E3
:10DC100065DF70472DE9F04F85B000240E9DBDF8FB
:10DC20003CA02E880191834690461F46A146BBF832
:10DC30000020914535DADBF8042052F829000390E2
:10DC40000DF10B0103A80022FFF7E2FF002835D1F8
:10DC50009DF80B20424521D12A88002C14BF0021B9
:10DC6000022102EB08000144514526DC44B901328F
:10DC700092B29DF804302A80BB542A8801322A804F
:10DC80002A8803A80DF10B013A44FFF7C1FFA8B998
:10DC90002A889DF80B100A442A80012409F1010901
:10DCA000C5E744B12A88013A921B92B2FF2A04D8F0
:10DCB000BA55002002E0204600E00C2005B0BDE887
:10DCC000F08F2DE9F341089DBDF8244000951746DB
:10DCD0000194022280461E46FFF79CFF50B9404641
:10DCE0003946102233460895099402B0BDE8F04148
:10DCF000FFF790BF02B0BDE8F0812DE9F0430023AB
:10DD000016881380436B85B007460D4614469BB1B9
:10DD1000022E1A7840F20D8202230B702388013301
:10DD20009BB211212380E954238801339BB22380C5
:10DD3000EA542388013323803A6B22B997F82E20C6
:10DD4000002A41D01CE0238803F11201B14200F205
:10DD5000F0811121E954238801339BB210212380E3
:10DD6000E9542388013323805318218813F8010DC7
:10DD700068542188934201F101012180F5D1DDE74A
:10DD80002388D91CB14200F2D4810221E9542388AE
:10DD900001339BB21C202380E854238801339BB2BB
:10DDA000013A2380032A00F2C681DFE802F0020470
:10DDB0000608002204E0012202E0E95401E0032207
:10DDC000EA5423880133238097F82D301BB9BB78A0
:10DDD000002B4CD02AE023880933B34200F2A981FA
:10DDE00002A8FFF70DFF002840F0A6812388082233
:10DDF000EA54238801339BB21B222380EA542088F3
:10DE0000013080B22080062228440DF1090100F083
:10DE10002FFF23889DF8082006339BB2238002B190
:10DE20000122EA54238801332380D0E72388043376
:10DE3000B34200F27E8102A8FFF7E6FE002840F020
:10DE40007B8123880322EA54238801339BB2192261
:10DE50002380EA542388BDF8082001339BB2E918D7
:10DE60002380EA54120A4A70238802332380FA7806
:10DE7000A2B12388D91CB14200F25B810221E9548E
:10DE8000238801339BB201212380E95423880B446A
:10DE90009BB22380EA5423880B4423807B68ABB178
:10DEA0001A782388D91CB14200F243810221E95437
:10DEB000238801339BB20A212380E954238801334C
:10DEC0009BB22380EA542388013323803B8913B912
:10DED0003B8AC3B10BE08DE8500007F10800022136
:10DEE00006222B46FFF7EDFE0028F1D024E18DE855
:10DEF000500007F11000032107222B46FFF7E1FE37
:10DF0000002840F019813B8B5BB18DE8500007F190
:10DF10001800142115222B46FFF7D3FE002840F0ED
:10DF20000B813A6A002A46D0B4F800E00EF10603ED
:10DF3000B34200F2FE801188052940F2FC806FF4A4
:10DF4000486C01EB0C039BB24FF27D3C634540F201
:10DF5000F2805388052B40F2EE806FF44860181869
:10DF600080B2604540F2E7804FF6FF70814204D0F6
:10DF7000834202D0994200F2DE80052305F80E307C
:10DF8000238801339BB212212380E9542388013373
:10DF90009BB223801188E954E818090A417023884C
:10DFA00002339BB223805288EA54E918120A4A705D
:10DFB000238802332380D7F82480B8F1000F31D0B2
:10DFC000B8F8043021881A1D0A44B24200F2B18028
:10DFD0009A1CFE2A00F2AD8003336B542388013370
:10DFE0009BB2FF222380EA54238801339BB2238013
:10DFF000B8F80020EA54E918120A4A702088023062
:10E0000080B22080B8F8042062B1D8F80810002946
:10E0100000F09180284400F02BFE2288B8F80430EC
:10E020001344238097F82C3023B93878002800F067
:10E0300083803FE0BB6A002B7DD04FF0000997F84A
:10E040002C205FFA89F39A42EFD90C20B96A00FBC1
:10E0500003F201EB0208B8F8043003F1020EBEF13E
:10E06000FE0F69D8208803332B54238801339BB2D9
:10E0700016202380E854238801339BB223808A5AD8
:10E08000EA54E918120A4A702088023080B22080CF
:10E09000B8F804205AB1D8F8081000294BD0284409
:10E0A00000F0E6FD2288B8F804301344238009F11B
:10E0B0000109C4E73B88012B3DD0228802F1020E02
:10E0C000B64536D8012804D17B7802331344B342D5
:10E0D0002FD8023EB61A04A9B6B221F8086D05EB96
:10E0E0000E00FFF793FD38BB3B78022B04D1BDF83F
:10E0F0000830B3420CD907E0012B05D17B78B3423D
:10E1000002D8ADF8083001E0ADF80860082100E061
:10E110000921BDF80820FE2A0BD823880132EA54D1
:10E12000238801339BB22380E95423881A44228038
:10E1300002E00C2000E0072005B0BDE8F08330B518
:10E1400093B01F230D46ADF80430ADF8063020B172
:10E15000C3785B0714D4072022E0ADF8040004461E
:10E160001DB1EB78002BF6D111E0ADF806502A4630
:10E1700020469DF804109DF80630FFF743FD0FE0A0
:10E1800002A901AAFFF7B9FD50B902ACE8E7284699
:10E190000AA90DF10602FFF7B0FD08B90AAAE7E7E0
:10E1A00013B030BD75DF704776DF70477ADF704798
:10E1B0007BDF704737B5154B18884FF6FF739842D1
:10E1C00022D0134A134D1378297B0133DBB29942D5
:10E1D00013702C4606D31049FFF7E4FFA0B1AB69DA
:10E1E0008BB911E0002313702B7C33B13B21FFF777
:10E1F000DBFF10B1AB6903B19847636923B102A893
:10E20000002200F8042D984703B030BD5834002098
:10E2100036340020383400205A34002073B5174BB0
:10E22000174A5B881188174C174D99420DD85288B0
:10E230009A420AD3636923B102A8012200F8042D8F
:10E24000984700232B7002B070BD2A782AB1636909
:10E25000002BF6D002A80022F0E70C48616806788F
:10E26000A3680B48002E18BF19460068FDF73CFE56
:10E270000028E6D0A369002BE2D1E2E72E3400208B
:10E280005A340020383400202C340020363400204A
:10E290005434002070B5054606460FCD114C0FC40E
:10E2A00095E80700104B84E8070000221A703268D6
:10E2B0000E489AB11368036053684360FFF776FF16
:10E2C00078B90B4B0B484FF6FF721A800A4B0B4A7A
:10E2D00000211970BDE87040FDF7E4BDFFF768FF4D
:10E2E000EEE770BD383400202C3400205A34002072
:10E2F000583400205434002036340020B5E10700A3
:10E30000014B1868FDF73CBE5434002010B503885B
:10E31000112B19D002D8102B05D010BD122B38D0DC
:10E32000502B20D010BD204B82881A801F4A50F8F5
:10E33000163F1360436853601D4B00221A701D4B3B
:10E34000DB89002B2FD12AE0174B4FF6FF721A8082
:10E35000174B00221A70184B1868FDF711FE10B306
:10E36000144B9B6911E0134CC288E3899A421AD17D
:10E37000C38B022B17D190F82030DB070FD40E4B44
:10E380001868FDF7FDFD70B1A36963B1BDE81040E9
:10E390001847064A50F8063F136043685360BDE8CB
:10E3A0001040FFF73BBF10BD583400202E34002032
:10E3B000363400203834002054340020A0DF704769
:10E3C000A2DF7047A5DF7047A6DF7047A8DF704760
:10E3D00063DF70472DE9F0470F4694B005460028EB
:10E3E00000F03681002900F033814B68002B00F0EB
:10E3F0002F814FF6FF730380994B04AA03F1100697
:10E40000964618685968144603C40833B342224636
:10E41000F7D114AE41F2305370460DF10A0126F8DF
:10E42000483DFFF7D5FF002840F014810120314618
:10E430002A1DFFF7C3FF0446002840F00C819DF819
:10E440000A30AB7121461C220DA8FDF74DF89DF84E
:10E4500034300E9443F004038DF8343001AEAB79C0
:10E460008DF80E30214641F232530322304610948B
:10E47000119412941394ADF80C30FDF735F89DF813
:10E48000043064F3030364F307138DF804309DF83C
:10E4900005304FF0010A6AF303036AF307138DF89E
:10E4A00005309DF806306AF3420364F3C30364F356
:10E4B0000413DBB243EA0A032146142208A88DF8AC
:10E4C00006300DF10C08FDF70FF84FF01409A8887D
:10E4D000ADF828400DA908AA05F10803ADF82A40B7
:10E4E0000C94CDF820800996ADF82C90FFF768FFCA
:10E4F0000446002840F0AF8021461C220DA8FCF7FE
:10E50000F3FF9DF834300E9443F018038DF8343047
:10E51000AB798DF80E30214641F23153032230465B
:10E520001094119412941394ADF80C30FCF7DCFFA6
:10E530009DF8043064F3030364F307138DF804308B
:10E540009DF805306AF303036AF307138DF805306D
:10E550009DF806306AF3420364F3C303DBB243F071
:10E56000110321464A4608A88DF80630FCF7BCFF87
:10E570001723ADF82C30A888ADF828400DA908AABB
:10E5800005F11003ADF82A400C94CDF820800996CF
:10E59000FFF716FF044600285DD121461C220DA876
:10E5A000FCF7A2FF9DF834300E9443F002038DF87F
:10E5B0003430AB798DF80E30214641F234530322CA
:10E5C00030461094119412941394ADF80C30FCF76B
:10E5D0008BFF9DF804306AF303036AF307138DF889
:10E5E00004309DF8053064F3030364F307138DF8DA
:10E5F00005309DF806306AF3420364F3C30364F305
:10E600000413DBB243EA0A0321464A4608A88DF800
:10E610000630FCF769FF0223ADF82830ADF82C3046
:10E62000A888ADF82A400DA908AA05F12003CDF865
:10E63000208009960C97FFF7C3FE044658B97B6803
:10E64000AB62BB6803B1EB62064B01221A7002E0B9
:10E650000E2400E00446204614B0BDE8F08700BF59
:10E66000C0EC07006234002070B5054686B070B378
:10E6700002884FF6FF739A422BD0174B1B7843B397
:10E68000164CC1F30720E1702071C1F30740090E59
:10E690000723102201266071A17102A80021637076
:10E6A000ADF806302270A670FCF71EFF2B8AADF87D
:10E6B00008300023ADF80C3028888DF80A600DF181
:10E6C000060302A904930594FFF77EFE02E00E20E4
:10E6D00000E0082006B070BD6234002063340020E2
:10E6E00030B5054687B068B302884FF6FF739A428B
:10E6F0002AD0174B1B783BB3164C11232370C1F360
:10E7000007236170A370C1F30743090EE370217101
:10E71000052302A800211022ADF80630FCF7E4FE24
:10E720002B8AADF8083001238DF80A300023ADF8AC
:10E730000C30288805940DF1060302A90493FFF715
:10E7400043FE02E00E2000E0082007B030BD00BF0D
:10E75000623400206334002030B5044687B030B303
:10E7600000884FF6FF73984223D0134B1B7803B3F6
:10E77000124D102369700321ADF80610AA7002A88B
:10E780001A4600212B70FCF7AFFE238AADF8083043
:10E7900001238DF80A300023ADF80C302088059550
:10E7A0000DF1060302A90493FFF70EFE02E00E200E
:10E7B00000E0082007B030BD623400206334002040
:10E7C00070B50D4688B00446002800F0B5800029D9
:10E7D00000F0B280826A002A00F0AE800B88112B14
:10E7E0001BD004D8102B40F0A7808B8817E0502B4B
:10E7F00002D0512B15D09FE0C9880389994240F07F
:10E800009B8008238DF81030203535F8023C8DF8B8
:10E810001430069504A990478EE04FF6FF732380CD
:10E820008AE08B79022B40F087800A89038A9A421A
:10E8300040F082808B7A043B022B7DD90226002196
:10E84000082201A88DF81060FCF74EFE00232088F6
:10E85000A18AADF8046001AAADF80630CDF808D061
:10E86000FFF7B0FD064618B1E36A2BB1984703E005
:10E870009DF80030DB0708D440F2FD132088ADF886
:10E88000143004A9FFF7A2FD52E0ADF8140004A96A
:10E890002088FFF79BFD00284AD195F822104B1ED7
:10E8A000072B41D8DFE803F0040E1D1F21233E256E
:10E8B0002B8C8DF80460012B02D82046012109E041
:10E8C000012309E02A8C01239A428DF8043003D8F1
:10E8D00020460221062229E023358DF808300395D1
:10E8E0001BE0022317E0032315E0042313E00523B4
:10E8F00011E02B8C022B02D82046082115E095F858
:10E90000242095F8233043EA0223ADF808300BB9F0
:10E91000072300E006238DF80430A36A204601A9EE
:10E92000984709E00923F6E720460322FFF714FF82
:10E9300010B1E36A03B1984708B070BD484B1B782B
:10E94000062B0ED1474B1B6819070AD1464B1B6893
:10E9500003F0F003302B04D1444B1B6813F0F00F8D
:10E960006CD03F4B1B78062B0ED13E4B1B681A0711
:10E970000AD13D4B1B6803F0F003302B04D13B4B15
:10E980001B6813F0F00F5FD0354B1B78062B0ED1B0
:10E99000344B1B681B070AD1334B1B6803F0F00391
:10E9A000302B04D1314B1B6813F0F00350D0304AA8
:10E9B000D2F8883043F47003C2F88830BFF34F8F29
:10E9C000BFF36F8F4FF01023D3F80022002A03DB30
:10E9D000D3F80032002B2DDA264B0122C3F8042590
:10E9E000D3F80024002AFBD04FF010221521C2F8E2
:10E9F0000012D3F80024002AFBD04FF01023152278
:10EA0000C3F804221B4BD3F80024002AFAD00022BA
:10EA1000C3F80425D3F80024002AFBD0BFF34F8F9E
:10EA20001349154BCA6802F4E0621343CB60BFF38D
:10EA30004F8FFEE7114B124A1A607047114AD36894
:10EA400023F08073D3608CE70F4B03221A609BE79F
:10EA50004FF08042C2F80C31C2F81031A7E700BF76
:10EA6000E00F00F0E40F00F0E80F00F0EC0F00F012
:10EA700000ED00E000E001400400FA05682C0020F1
:10EA80000090D003F0ED00E0A00500402EDF7047BD
:10EA900051DF704710DF704761DF704708B50846E7
:10EAA0001146FEF7F9FF08BD2DE9F341234B1B7812
:10EAB000002B3FD0224B234E1C683568B4FA84F4F7
:10EAC000B5FA85F564096D0998468DBB01A8FFF775
:10EAD000DFFF052809D020B100210A46FCF70EFD12
:10EAE00004E033680198984700E00125F4B9164B1B
:10EAF00002A91B8821F8043D144B1F683846FFF714
:10EB0000CBFF052804460BD028B100210A46FCF7AC
:10EB1000F5FC002405E0D8F800303846984700E0BE
:10EB20000124002DD2D0002CCFD003E015B9CDE7C1
:10EB3000002CDCD002B0BDE8F08100BF6A340020B8
:10EB400078340020743400206C34002070340020AD
:10EB500010B599B18C0711D1094C216009490A807F
:10EB6000094A0A491360FFF795FF40B9084B012293
:10EB70001A701620BDE81040FFF788BF072010BDAF
:10EB8000703400206C3400207C3400209DEA0700A3
:10EB90006A34002018B1034B1860002070470E2023
:10EBA000704700BF7834002018B1034B1860002074
:10EBB00070470E20704700BF7434002008B5084B22
:10EBC0001B683BB1984748B100210A46BDE80840A0
:10EBD000FCF794BCBDE80840FFF766BF08BD00BF66
:10EBE0007C34002008B521B1002001460246FCF724
:10EBF00085FCBDE80840FFF757BF00000020014634
:10EC0000014AFCF7B3BC00BFE5EB07000649074A21
:10EC1000074B9B1A03DD043BC858D050FBDC05486A
:10EC20008047054800470000D8EC0700002C002072
:10EC30006C2C00203DE9070001B40700FEE7FEE769
:10EC4000FEE7FEE7FEE7FEE7FEE7FEE7FEE7C0467B
:10EC500010B50A44441E914208D014F8013F0878C8
:10EC6000834201D0181A10BD0131F4E7002010BD15
:10EC700010B5431E0A44914204D011F8014B03F829
:10EC8000014FF8E710BD034613F8012B002AFBD112
:10EC9000181A013870470000F8B500BFF8BC08BC6E
:10ECA0009E467047F8B500BFF8BC08BC9E4670474A
:10ECB00043000000002C0020446675546172670018
:10ECC00023D1BCEA5F782315DEEF121200000000AA
:08ECD00030C7FF7F01000000C6
:10ECD800000000000000000000000000000000002C
:10ECE800000000000000000000000000000000001C
:10ECF800B0EC070000000000000000000000000069
:10ED080000000000000000000000000000000000FB
:10ED180000000000000000000000000000000000EB
:10ED280000000000000000000000000000000000DB
:0CED3800FFFF0000320000000090D0033C
:020000020000FC
:020000041000EA
:0410140000B0070021
:040000037000EC0D90
:00000001FF
