:0200000270008C
:10A00000807F002019DC070049DC07004BDC0700DB
:10A010004DDC07004FDC070051DC070000000000AA
:10A0200000000000000000000000000059C8070008
:10A03000000000000000000055DC070057DC0700AE
:10A0400059DC070059DC070059DC070059DC070020
:10A0500059DC070059DC070059DC070059DC070010
:10A0600059DC070059DC070059DC070059DC070000
:10A0700059DC070059DC070059DC070059DC0700F0
:10A0800059DC070015A9070059DC070059DC070057
:10A09000CDA9070059DC070085DB070059DC070064
:10A0A00059DC070059DC070059DC070059DC0700C0
:10A0B00059DC070059DC0700000000000000000028
:10A0C00059DC070059DC070059DC070059DC0700A0
:10A0D00059DC070059DC0700000000000000000008
:10A0E0000000000000000000000000000000000070
:10A0F0000000000000000000000000000000000060
:10A10000000000000000000000000000000000004F
:10A11000000000000000000000000000000000003F
:10A4000010B5054C237833B9044B13B10448AFF3AE
:10A4100000800123237010BD742C00200000000078
:10A42000E4DC0700084B10B51BB108480849AFF33E
:10A4300000800848036803B910BD074B002BFBD010
:10A44000BDE81040184700BF00000000E4DC070032
:10A45000782C0020742C002000000000154B002BED
:10A4600008BF134B9D46A3F5803A00218B460F464B
:10A470001348144A121A00F065F80F4B002B00D055
:10A4800098470E4B002B00D0984700200021040075
:10A490000D000D48002802D00C48AFF3008000F0FA
:10A4A0002BF82000290002F061FA00F011F800BF3B
:10A4B00000000800807F0020000000000000000075
:10A4C000742C0020A03400200000000000000000D8
:10A4D00008B5074B044613B10021AFF30080054BCC
:10A4E0001868836A03B19847204600F033F800BF2C
:10A4F00000000000C0DC070070B50E4B0E4CE41AE3
:10A50000A41000251E46A54204D056F825309847D1
:10A510000135F8E703F0C6FB084C094BE41AA41018
:10A5200000251E46A54204D056F82530984701352F
:10A53000F8E770BD6C2C00206C2C0020702C0020E3
:10A540006C2C002002440346934202D003F8011B06
:10A55000FAE77047FEE700BFBFF34F8F0449054B92
:10A56000CA6802F4E0621343CB60BFF34F8FFEE78B
:10A5700000ED00E00400FA051FB50021039001AAD8
:10A5800044F20100ADF804100291FFF7E5FF05B0B9
:10A590005DF804FB36DF704737DF704710B512F007
:10A5A000030411D1094B1A604B1CDB009BB21A4407
:10A5B000074B1A60074B1C70074B1C70074B188029
:10A5C000074B1980204610BD072010BD902C00209D
:10A5D000942C00209B2C00209A2C0020982C0020EA
:10A5E0009C2C00202DE9F347404E33888B420746D0
:10A5F0000D46904673D300238DF807303C4B5B68C3
:10A60000C3F308039BB1103B5AB2002AADBF02F15D
:10A61000604303F00F03374A03F56143B4BFD45CD2
:10A6200093F800436409E4B2012C01D10BE0042447
:10A630000DF10700FFF7AEFF022801D172B602E06C
:10A6400008B1FFF799FF2C4B2C4A2D481978137845
:10A650000088DBB2834238BF0133C9B234BFDBB2FA
:10A6600000238B420CD092F800901378DBB2834227
:10A670003ABF0133DBB20023012C137004D111E087
:10A68000012C2ED04FF6FF7962B69DF80700FFF738
:10A6900083FF30F0020301D0FFF76EFF4FF6FF7328
:10A6A00099451ED0DFF860A0DAF800304FEAC904FF
:10A6B0001A1943F839807FB175B1124B30881B6885
:10A6C000394600FB09302A4603F0D8FADAF80030A0
:10A6D0001C440020A58005E00020908002E00920B5
:10A6E00000E0042002B0BDE8F08700BF982C0020F5
:10A6F00000ED00E014ED00E09A2C00209B2C0020DF
:10A700009C2C0020942C0020902C002038B511495E
:10A71000114A0B7812789A421BD010480A780B78AD
:10A720000088DBB2984286BF0133DBB200230B7096
:10A730000B4B1D880B4B18680B4BD2B21B6811B228
:10A7400003EBC10405FB020053F83130A1889847A0
:10A75000DDE738BD9A2C00209B2C00209C2C00208B
:10A76000982C0020942C0020902C00204378827894
:10A770000133DBB29A4208BF002302789A421FBF1E
:10A780000B70437803EB4302436814BF03EBC20032
:10A7900000207047104B5B68C3F30803BBB1103B4C
:10A7A0005AB2002AABBF02F1604303F00F0303F576
:10A7B00061430A4AACBF93F80033D35C5B09DBB258
:10A7C000012B06D0032B0CBF012002207047022072
:10A7D00070470020704700BF00ED00E014ED00E07E
:10A7E000494B4FF40032C3F8802003F1C04303F516
:10A7F0003C534FF48032C3F848230121C3F80823A7
:10A800002F2259601046013800BF00BF00BF00BFB3
:10A8100000BF00BF00BF00BF00BF00BF00BF00BF40
:10A8200000BF00BF00BF00BF00BF00BF00BF00BF30
:10A8300000BF00BF00BF00BF00BF00BF00BF00BF20
:10A8400000BF00BF00BF00BF00BF00BF00BF00BF10
:10A8500000BF00BF00BF00BF00BF00BF00BF00BF00
:10A8600000BF00BF00BF00BF00BF00BF00BF00BFF0
:10A8700000BF00BF00BF00BF00BF00BFC3D19960D1
:10A88000224900230B601046013800BF00BF00BF03
:10A8900000BF00BF00BF00BF00BF00BF00BF00BFC0
:10A8A00000BF00BF00BF00BF00BF00BF00BF00BFB0
:10A8B00000BF00BF00BF00BF00BF00BF00BF00BFA0
:10A8C00000BF00BF00BF00BF00BF00BF00BF00BF90
:10A8D00000BF00BF00BF00BF00BF00BF00BF00BF80
:10A8E00000BF00BF00BF00BF00BF00BF00BF00BF70
:10A8F00000BF00BF00BF00BF00BF00BF00BFC3D18B
:10A90000034A1370704700BF00E100E0A02C002054
:10A91000C02C002070B52549254B0022C1F84021EC
:10A92000C1F84421C1F84821C1F84C21C1F80021E7
:10A93000C1F804211B68002B36D01E48D1F804153D
:10A9400004680C1B24F07F4415461A68944216D301
:10A95000A41A15441A7CDE6972B100221A74164AD0
:10A96000126832B158699969904728B1FFF704FE1F
:10A9700002E05A69986990470EB13346E5E70F4BFC
:10A980000F4A197813788B4205D10133DBB2022BC1
:10A9900008BF0023137012780A4B43F822500A4B69
:10A9A0004FF48012C3F8002170BD00BF00100140B9
:10A9B000A42C0020A02C0020A82C0020B42C0020C7
:10A9C000B52C0020B82C002000E100E02DE9F04F6C
:10A9D000884D894A89492B68097885B00293137894
:10A9E000994210D00133DBB2022B08BF0023137051
:10A9F0001278834B53F82210029BCB1823F07F432D
:10AA00002B60012001E0002108467E4BD5F800C0F4
:10AA1000D3F800907C4B1B7801937C4B019DD3F8BD
:10AA200000A07B4B1E784B46013DEDB2FF2D30D090
:10AA30002AB20AEBC20E1AF832209EF80170974231
:10AA4000F2D002EB4207DEF804409EF802B004EBBD
:10AA5000C708013214F83770D2B2934508BF0022FC
:10AA6000022F02D0032FE8D10DE0D8F804709B46E6
:10AA70009846B8F1000FE0D0B84500F09481C34685
:10AA8000D8F81C80F5E7002BD7D000271F74DB69AE
:10AA9000F9E75F4A574D16705A4EC5F800C033604B
:10AAA000AE4620B9B3EB090318BF01231EE0002016
:10AAB0008446CBB11D68A94203D2691A336019607C
:10AAC00013E0DF68D3F81C80491BAC4400251D60EF
:10AAD00047B1029CD8610CEB040525F07F455D6011
:10AAE0009F6018464346E4E7336001234749D6F8A0
:10AAF000009012780968DEF800A0039202914A469D
:10AB000001994C1EE1B2FF29019100F08580029964
:10AB1000019C01EBC407114610B10246C06923E055
:10AB20003A787D78954262D002EB420C97F8028029
:10AB30007E680132D2B290453A7008BF387006EB99
:10AB4000CC0516F83C606A68012E4ED1167C002EAA
:10AB50004BD1AC685460EC6894602C69D460039C61
:10AB60006D69956104B156605668DFF8A8C0CAEBFC
:10AB7000060525F07F456545D2F808C001D8654433
:10AB800008E0C6EB0A0525F07F45AC458CBFC5EB58
:10AB90000C0500251560012600255560956016748A
:10ABA000D5610029B7D016680D68AE4203D8AE1B38
:10ABB0000E60D161AFE78B460D46D5F80080464563
:10ABC00009D9D5F81CC0C8EB0606AB46BCF1000F8E
:10ABD00007D06546F1E7AC46C6EB0805CCF8005057
:10ABE0005D461660C2F81CC0EA610A4693E70A4651
:10ABF00086E700BFA02C0020B42C0020B52C00203C
:10AC0000B82C0020A42C0020AC2C0020B02C00205C
:10AC1000B62C0020FEFF7F006E494A450A6002D133
:10AC2000002B00F0BA80002A00F0B5806A49DEF8F7
:10AC30000030D1F80445694D17682878E21A22F0EF
:10AC40007F42033200284BD14FF48030C1F84403D7
:10AC5000C1F8040362484FF40036C0F88061066012
:10AC600001260E602F20013800BF00BF00BF00BFCB
:10AC700000BF00BF00BF00BF00BF00BF00BF00BFDC
:10AC800000BF00BF00BF00BF00BF00BF00BF00BFCC
:10AC900000BF00BF00BF00BF00BF00BF00BF00BFBC
:10ACA00000BF00BF00BF00BF00BF00BF00BF00BFAC
:10ACB00000BF00BF00BF00BF00BF00BF00BF00BF9C
:10ACC00000BF00BF00BF00BF00BF00BF00BF00BF8C
:10ACD00000BF00BF00BF00BF00BF00BFC3D12E70C8
:10ACE000BA422CBF9A18DA1922F07F43C1F84035D6
:10ACF000D1F804253848121B22F07F421B1B033277
:10AD000023F07F439A4248D9D0F80435C0F8403543
:10AD10002F20013800BF00BF00BF00BF00BF00BF31
:10AD200000BF00BF00BF00BF00BF00BF00BF00BF2B
:10AD300000BF00BF00BF00BF00BF00BF00BF00BF1B
:10AD400000BF00BF00BF00BF00BF00BF00BF00BF0B
:10AD500000BF00BF00BF00BF00BF00BF00BF00BFFB
:10AD600000BF00BF00BF00BF00BF00BF00BF00BFEB
:10AD700000BF00BF00BF00BF00BF00BF00BF00BFDB
:10AD800000BF00BF00BF00BFC3D1154B4FF400325E
:10AD9000C3F8002101E0FFF723FD124B00221A70D7
:10ADA00005B0BDE8F08FBB4507D1DB692BB9DFF8F3
:10ADB00028C00126CCF808609C46D7F80080FF69BF
:10ADC000CBF81C70002F3FF438AE3C68A044C7F8A5
:10ADD000008032E6A42C002000100140C02C00208E
:10ADE00000E100E0B62C00202DE9F0411E4693075B
:10ADF00080460F46144639D11E4D0AB92A6035E007
:10AE0000FFF7EEFC1C4A1D4B16602C60032204F178
:10AE1000180507EB47061A7096402946224600237C
:10AE2000556013705370977008328A423544F6D1DA
:10AE3000134A1360134A1370134A1370134A4FF4E2
:10AE400080116020C2F8801182F81403116001F1B2
:10AE50008041A1F56F21C1F8088582F811030C4AE1
:10AE6000D1F8041511601846BDE8F0810720BDE84F
:10AE7000F08100BFB02C0020A82C0020AC2C0020BA
:10AE8000A42C0020B42C0020B52C002000E100E010
:10AE9000A02C0020074B1B684BB132B128B10368CE
:10AEA000187C20B959745A617047072070470820F0
:10AEB000704700BFB02C00202DE9F3411B4B1C68EC
:10AEC00005460E4617466CB360B3042928D943697A
:10AED00043B3437C012B0CBF88464FF00008FFF7BB
:10AEE00059FC04EBC00420460DF10701FFF73EFCBE
:10AEF000A0B1012303700E4B4560D3F80435836085
:10AF00009DF80730C660C0F8108047616370094B38
:10AF10004FF48012C3F80021002004E0042002E076
:10AF2000072000E0082002B0BDE8F081B02C00202E
:10AF30000010014000E100E073B5124B1D680646A9
:10AF4000EDB1E0B14369D3B100240474FFF722FCF2
:10AF500005EBC00528460DF10701FFF707FC60B1BE
:10AF6000022303709DF8073046606B70064B4FF468
:10AF70008012C3F80021204602E0042000E00820EF
:10AF800002B070BDB02C002000E100E0082910B52F
:10AF9000044602D00020FFF7EFFA23686068BDE89E
:10AFA0001040184707B5054A8DE803006846082198
:10AFB000FFF718FB03B05DF804FB00BF8DAF07007F
:10AFC00048DF704711DF704713DF7047064B187872
:10AFD000012803D1012904BF0221197012B11046C2
:10AFE000FFF7CABA704700BFE02C002008B5FFF792
:10AFF000E7FF08B1FFF7C0FAFFF788FB024B1B78A9
:10B00000023B022BF3D808BDE02C002008B509480C
:10B010001C2101F0ECFB08B1FFF7AEFA0548064928
:10B020001C22002301F0D0FB18B1BDE80840FFF757
:10B03000A3BA08BDE42C0020C42C002007B5036887
:10B04000013301D1002014E001A800F043F9019B75
:10B050001A78012AF6D1588830B143F2080299686B
:10B060001068002200F05AF9019B5B881B1A5842B5
:10B07000584103B05DF804FB84B02DE9F34108ACFE
:10B0800084E80F009DF82040BDF82280099F0A9EA9
:10B090000B9D01A800F01EF944B9374B0122FF2196
:10B0A000A3F802809D601A70197142E0012C13D13F
:10B0B000314BF2192A449A60A5221A70FF221A71A4
:10B0C0000C9AA3F80280DF601E615D619A612B4BD0
:10B0D0001C70FFF79BFF49E0032C0DD1019A264B12
:10B0E00011781970518892689A60AA2259801A7151
:10B0F000DF601E615D611BE0022C1DD1019A1E4BB9
:10B100001178A52903BF00225A809A6019700DBFDB
:10B11000FF22518892681A7018BF9A604FF0FF02A0
:10B120001A714FF0000218BF5980DA601A615A6133
:10B130000122124B1A70CCE7052C06D100F0F0FF6B
:10B1400008B1FFF719FA03220EE0042C09D10A4BCB
:10B1500000229A605A80FF221A70019A12791A719D
:10B16000B7E7062C02D10422044B1A7002B0BDE8E6
:10B17000F04104B0704700BFC42C0020E02C002038
:10B180001FB5002101A80C22FFF7DCF9074B019342
:10B1900001F0E4FA30B906494FF4FE2301A84B60F0
:10B1A00001F0FEFA05B05DF804FB00BFCDAF07006B
:10B1B000E42C002010B500F01BFA28B900F0EAFEDC
:10B1C0000446FFF713FF204610BD000010B5FFF73F
:10B1D000F9FE08B1FFF7D0F90D4B196800230122E1
:10B1E0009A400A4218BF0A4803F1010318BFC0F889
:10B1F0008020202BF3D143F208042068FFF7E4FEFF
:10B2000008B1FFF7B9F92068BDE8104000F068B850
:10B2100000E100E007B501A800F05CF8019B1A7896
:10B22000A52A05D01879A0F1AA035842584100E098
:10B23000012003B05DF804FB10B500F0F0FB40B155
:10B24000642001F075F900F067FB38B1FFF794F95D
:10B2500004E000F0C3FB0028F2D110BD00F0DFFBDA
:10B2600008B1FFF789F900F09BFB044608B1FFF72E
:10B2700083F9204610BD10B588B003AC20460021EC
:10B280001422FFF75FF902238DF80C30002300939E
:10B2900094E80F00FFF7F0FEFFF7A8FE002008B0CB
:10B2A00010BD13B5044601A800F014F8019B1A78EC
:10B2B00022705A8862809A68A2601A792271DA68CC
:10B2C000E2601A6922615A6962619B69A36102B0F6
:10B2D00010BD0000014B0360704700BF00F0070085
:10B2E000F0B50346186880F308885868FF2464B2F4
:10B2F000EFF30585002D01D1A646004725460646F9
:10B3000021273FBAF0B40024002500260027F0B41E
:10B31000F92040B2004700BFF0BD00BF0AB113885A
:10B3200001E04FF6FF73014488420ED010F8012B64
:10B330005BBA9BB25340C3F30312534083EA033317
:10B340009BB2DAB283EA4213EEE71846704718DF81
:10B35000704770470129F8B50D4614461F4602D0C4
:10B3600003290CD01AE0114B1B78052B16D1104B7A
:10B370001B689BB1114604203A4698470EE00B4EDD
:10B380003378022B0AD10B4B5B689847084B35701A
:10B390001E681EB1284621463A46B04724B12046D1
:10B3A000BDE8F840FFF7E8B8F8BD00BFF42C002076
:10B3B000EC2C00203C2D002000B5084B89B0012268
:10B3C0001A7005238DF80C30079B009303AB0FCB4D
:10B3D000FFF752FE09B05DF804FB00BF002D00200E
:10B3E00000B589B003238DF80C300A4B1B88ADF8EB
:10B3F0000E30094B5A6804929A68DB680693079BE3
:10B400000093059203AB0FCBFFF736FE002009B087
:10B410005DF804FBF22C00202C2D002000B589B033
:10B4200001238DF80C300B4B1B88ADF80E3043F226
:10B4300008031A68084B596804919968DB680693F9
:10B440000591009203AB0FCBFFF716FE002009B069
:10B450005DF804FBF22C00202C2D002010B588B0E4
:10B4600003AC204600211422FFF76CF804238DF86A
:10B470000C300023009394E80F00FFF7FDFD08B0A7
:10B4800010BD000008B50A4B0A4818600A4B02229A
:10B490001A7043F208031968C1F5F421490801F054
:10B4A000A6F918B1BDE80840FFF766B808BD00BFAF
:10B4B000C82D0020042D0020F42C002008B5084BD6
:10B4C00008481860084B02221A70084B196801F0EE
:10B4D0008EF918B1BDE80840FFF74EB808BD00BFAF
:10B4E000C82D0020F82C0020F42C0020D02D0020A6
:10B4F00030B5154C1548E16889B001F078F908B10C
:10B50000FFF73AF8124B11485968E268002301F03E
:10B510005BF90546A0B903AC294614222046FFF783
:10B5200011F80C4B8DF80C501B88ADF80E30064B03
:10B53000DB680693079B009394E80F00FFF79CFDE0
:10B54000284609B030BD00BF2C2D0020F82C00206B
:10B55000042D0020F22C002010B50C4B1B7883B971
:10B560000B48FFF7E9FC08B1FFF706F808484FF46D
:10B5700070110022FFF7A0FC044620B1FEF7FCFF8B
:10B5800001E0082010BD204610BD00BF002D0020A6
:10B590000C2D0020F0B585B005461F469608032304
:10B5A00068460C468DE8280002910396FFF7CFFE0F
:10B5B000E0B1B4F5805F11D8012368468DE828001A
:10B5C00002940396FFF7C3FE80B9032368468DE813
:10B5D000280002940396FFF7BAFE07E0E81BE11B80
:10B5E0003A463B46FFF7D6FF0028E5D005B0F0BD50
:10B5F0007FB500210C2201A8FEF7A4FF1B4B01938D
:10B600001B4B1C4C1C4E00251D701C4B01A82146D9
:10B610001D8001F0C5F8034608B1357024E043F2FF
:10B620000802174D1168616094E8030085E8030083
:10B6300012681448C2F5F42102EB51026A601946FF
:10B64000114AFFF727FC08B1FEF796FF0F484FF4A9
:10B6500070110022FFF730FC08B1FEF78DFF0C4B94
:10B66000002018600123337004B070BD55B307008B
:10B67000F02C0020F82C0020F42C0020F22C0020CC
:10B68000042D0020C4DC0700B9B307000C2D0020F6
:10B69000CC2D0020014B1860704700BFEC2C00201F
:10B6A00038B54368264C0FCB84E80F002078430759
:10B6B00001D585073CD16368214A990738D1916843
:10B6C0008D0735D1D268940732D10B4413441D4AFB
:10B6D000B1F5A04F136015462CD843F2080210F0C4
:10B6E000010F1268C2F5F42208D0934222D8164BFB
:10B6F000164A1A60164A5A60164A0BE0B3EB520F0C
:10B7000018D8114B144A1A60144A5A6082074CBF69
:10B71000134A144A9A60144B1B78012B0CD1FFF783
:10B720001BFF044650B9084B28681B68984705E082
:10B73000062038BD0C2038BD082038BD204638BD55
:10B740002C2D0020D02D00203C2D0020BDB4070062
:10B750005DB407001DB4070085B4070053B30700AC
:10B76000E1B30700F1B40700F42C0020F8B5064659
:10B7700040B383689B0727D1154B1B78052B25D138
:10B78000144C4268144F236895003A682B44934246
:10B7900004D94FF0FF3323600C20F8BDFFF7DCFE27
:10B7A000A8B90E4BB168186823682A4601F00CF856
:10B7B00068B920682A1838682260824214BF0920BC
:10B7C0000020F8BD0E20F8BD1020F8BD0820F8BDFF
:10B7D000F42C0020CC2D0020D02D0020C82D0020DE
:10B7E00070B50B4B1C687CB90A4E3378042B0BD117
:10B7F000094D0A48297800F03FF910B90523337044
:10B8000003E02C70044600E00824204670BD00BF11
:10B81000CC2D0020F42C0020F02C0020482D0020FE
:10B82000F8B5144B1A78032A074602D0042A02D02E
:10B8300018E004221A70104B1C689CB9FFF78CFEAC
:10B8400090B90E4E7D683378AD005A19802A0DD814
:10B850000B48B96818442A4602F010FA33781D44A0
:10B86000357004E0082402E0044600E00924204684
:10B87000F8BD00BFF42C0020CC2D0020F02C0020BF
:10B88000482D002038B50D4C2378052B14D10C4BD6
:10B890000C4D1A682B689A420ED106232370FFF7CD
:10B8A0005BFE50B9084B29681B68586800F02AF9FC
:10B8B00018B90723237038BD082038BDF42C0020A8
:10B8C000CC2D0020D02D0020C82D002010B5084B15
:10B8D0001B78072B0AD10748FFF72EFB08B1FEF7AC
:10B8E0004BFE054BBDE810409B681847082010BD73
:10B8F000F42C00200C2D00203C2D002000B589B038
:10B9000006238DF80C30079B009303AB0FCBFFF79A
:10B91000B3FB09B05DF804FBF0B58DB005A8FFF7E7
:10B92000C0FC089C002C38D00B9E04F58053B34219
:10B9300027D943F20803A6F580551B68A3424FEAB6
:10B94000550508D36A00901902F580512B46A21ABA
:10B95000FFF720FE20E005F58053012701A801979D
:10B96000029303930497FFF7F2FCA8B94FF48053B6
:10B9700001A80197029303930497FFF7E8FC58B9D5
:10B98000E0E701230193A4084FF4805301A8029635
:10B9900003930494FFF7DBFC044620460DB0F0BD92
:10B9A00000B58DB005A8FFF77CFC099898B1089AFE
:10B9B0003AB943F208031B68C3F5F42203EB5203C0
:10B9C00001E00B9B134480080022039001A8019220
:10B9D0000293FFF7BCFC0DB05DF804FB00B58DB021
:10B9E00005A8FFF75EFC0998B0B1089A3AB943F28E
:10B9F00008031B68C3F5F42203EB520301E00B9B21
:10BA0000134403228008019204904FF4F42201A809
:10BA100002920393FFF79BFC0DB05DF804FB10B599
:10BA20008CB005A8FFF73DFC089A12B30B9802F5FD
:10BA3000805383420FD943F208031B68934217D304
:10BA4000A0F580535B085C00204404F58051121B74
:10BA5000FFF7A0FD0AE00323019303904FF4805306
:10BA6000920801A802930492FFF771FC024600E0DD
:10BA70000E2210460CB010BD0B2910B5044601D89B
:10BA8000092010BD038900EB43030A33C21A0A449C
:10BA9000D2B21948012A0270F2D921448B42EFD860
:10BAA0001946164802F0EAF8154B1A884FF6FF714E
:10BAB0008A4202D02188914219D15B884FF6FF72E9
:10BAC000934202D062889A4211D134F8081F0023B1
:10BAD0008B420CD234F8022F4FF6FE70824208D00F
:10BAE00043F20C00013300888242F1D101E00B20C7
:10BAF00010BD002010BD00BFDE2D0020D42D002081
:10BB00008010001008B50022FFF708FC044A5178A5
:10BB1000137843EA0123984214BF0B20002008BD8C
:10BB2000D42D0020837842781B0443EA0223027854
:10BB3000C078134343EA0060704770DF704771DFDD
:10BB4000704773DF704774DF704776DF70477ADFC6
:10BB500070477CDF70477FDF704782DF7047A7DF69
:10BB60007047A8DF7047A9DF7047AADF704767DF1B
:10BB700070470C2813D8DFE800F0141212121212CA
:10BB800009120712120D0B000220704703207047A4
:10BB90000420704704290CBF0520062070470620AA
:10BBA000704701207047FEF7E7BCFEF7E5BC10B513
:10BBB000044608460321FFF7DCFF03210246204626
:10BBC00001F01EFD18B1BDE81040FEF7D5BC10BD58
:10BBD00010B5124B90B09B798DF80630044641F2B7
:10BBE0003053002102A83822ADF80430FEF7AAFC39
:10BBF00002238DF8083001230021ADF8103002A88F
:10BC000001AB8DF80A108DF80B40059301F0EDF9AA
:10BC100008B1FEF7B1FC10B010BD00BFF42D00203C
:10BC2000032810B514461AD0042826D149B1134B65
:10BC300018884FF6FF7398421FD01321FFF785FF36
:10BC400016E0104600F00AFC08B1FEF795FC0C4B1C
:10BC50001B68A34211D10B480321012206E00846CC
:10BC60000121FFF786FF02460648012101F0C8FCCA
:10BC700018B1BDE81040FEF77FBC10BD602C00205D
:10BC8000E42D0020F42D00202DE9F0472D4B1E78E7
:10BC90008AB09A46002E52D12B4C314620461822AB
:10BCA000FEF750FC294B1D788DB3DFF8A480314698
:10BCB000102202A808F10709FEF744FC484602A931
:10BCC000102201F0CBFF0127054640B90520FFF700
:10BCD0007FFF2770C4F80480257225821FE001AB26
:10BCE00004200693CDF80090CDF804808DF81C70E8
:10BCF0008DF82470CDF820D0FFF76AFF022323725D
:10BD000006ABE360282326702382668208E00620C3
:10BD1000FFF75EFF28232570656025722382658208
:10BD20000948FFF70EFF08B1FEF726FC4FF0A043CD
:10BD30004FF40032C3F80C2501238AF800300AB012
:10BD4000BDE8F087E02D0020702E0020DF2D0020C0
:10BD50002A2E0020F0B50446AFB001F02DFA83483A
:10BD6000214601F081FC2388142B00F0BC801ED8F2
:10BD7000102B2CD008D8022B40F0F5807C4B0021F2
:10BD80001888FFF7F4FEE8E0112B31D0132B40F0B8
:10BD9000EA80784B02AC9A79186899888DF81E2051
:10BDA0000690DA1DADF81C10173326463FE0512BE4
:10BDB00000F0838005D8182B00F0A480192B60D0E8
:10BDC000D1E0522B00F09E80552B51D0CBE04FF0AC
:10BDD000A0434FF40022C3F80C254FF40032C3F8FF
:10BDE0000825634BA2881A80634B00221A70BAE0C0
:10BDF0008023ADF82030614B5D4C32221A604FF049
:10BE0000A0434FF40022C3F8082520880EA908AAF1
:10BE10000123FFF7AAFE08B1FEF7AEFB584B1B78D3
:10BE20000BB9FFF731FF4FF6FF7323809BE01068DB
:10BE30005168254603C508329A422C46F7D1514B2A
:10BE40000EAA03F11807154618685968144603C46A
:10BE50000833BB422246F7D11868454B206018884A
:10BE6000494A0C96852108AB0B95FFF774FE74E0E8
:10BE7000A379002B77D13E4B13211888FFF765FE7D
:10BE80006BE0A379002B6ED13B4A13703B4B1968D2
:10BE90000139196071B90EAC20461422FEF752FB2D
:10BEA00005238DF83830129B009394E80F00FFF7BC
:10BEB000E3F858E0FFF7E8FE55E0A379002B52D0F5
:10BEC000A27A043A022A4ED8022B18BF01238DF819
:10BED00038304FF4C173ADF83C30254B0EA91888AB
:10BEE000FFF73FFE39E0234AE589518DA08802F132
:10BEF00018038D420CBF1946002107320023FFF7BB
:10BF00002CFE2AE01A4B1C884FF6FF75AC4228D055
:10BF10001E4B19782046E1B11D4908220123FFF785
:10BF200022FE0146D0B920460A460223FFF71BFE37
:10BF3000A0B920460C212A46FFF711FE43F2020366
:10BF4000984210D008280ED043F20403984204D13E
:10BF500009E00A460B46FFF706FE20B1FEF70CFB90
:10BF600001E00820FAE72FB0F0BD00BFF42D00205B
:10BF7000602C00202A2E0020E02D0020642C0020C0
:10BF8000882E0020422E0020242E0020DF2D0020AD
:10BF90005E2E0020564A5748002310B51370564AAB
:10BFA00013704FF0A0430322C3F84427C3F84C2773
:10BFB0004FF40032C3F808254FF4002288B0C3F8CC
:10BFC000082501F0CBFD002840F090804B48FFF79A
:10BFD00061FB00F007FA002840F08880484800F034
:10BFE0004DFC18B9474B01221A7011E001A8FFF768
:10BFF000A6FD08B1FEF7C0FA9DF805300020013318
:10C0000001A98DF80530FFF798FD08B1FEF7B4FAE5
:10C010009DF800303C48012262F3030308AC62F350
:10C02000071304F8203D01F034FE374982B2204660
:10C03000FFF78FFD08B1FEF79FFA01A80021082243
:10C04000FEF780FA0C23ADF804301823ADF8063063
:10C050000023ADF8083001A84FF4C873ADF80A30DA
:10C06000FFF775FD08B1FEF787FA002101A80C2241
:10C07000FEF768FA0823ADF80430244B02932448F5
:10C08000244B039301A901F0F9F808B1FEF774FA03
:10C090001C2201A80021FEF755FA40F6CD420023EC
:10C0A00002924FF4804201930392ADF812300322C2
:10C0B0008DF81430069301A8174B8DF810200793C4
:10C0C00001F03EF808B1FEF757FA144A137803213D
:10C0D00003F0FC0361F384036FF34513137007232C
:10C0E000537010239370FFF7CFFD002008B010BDF0
:10C0F000882E002055BD0700F02D002021BC070030
:10C100002A2E0020DF2D0020C8DC070081C1070097
:10C11000F42D0020A7BB0700ABBB0700242E002096
:10C1200010B5144B01221A70134B18884FF6FF7389
:10C13000984206D01321FFF708FD98B1FEF71CFACC
:10C1400010E00E4B1A781C4662B1FFF7FCFC08B1F8
:10C15000FEF712FA4FF0A0434FF40032C3F808255F
:10C160000023237001F022F808B1FEF705FA002041
:10C1700010BD00BF882E0020602C0020E02D002084
:10C18000F0B50B7889B005460C46092B00F21781F3
:10C19000DFE813F027002E0041000A001300200002
:10C1A0000001080145000E01FFF76CFB0421FFF7B9
:10C1B000E0FC0421024628462AE0FFF7B1FF08B15F
:10C1C000FEF7DAF9FFF782FB002800F0F880FFF7AE
:10C1D00095FBF4E0FFF7A4FF0028F8D0FEF7CCF9B8
:10C1E000F5E7784B01221A704B681A78764B14E009
:10C1F000744B02261E704B681B78012B40F0DF80C9
:10C20000FFF7EEFA3146FFF7B4FC02462846314606
:10C2100001F0F6F9D0E06B4B03221A70CFE0694BC6
:10C220001E78022E2ED0032E56D0012E40F0C7804D
:10C2300004AF002110223846FEF784F9624B0C222D
:10C240001B788DF8103001A80021FEF77BF9237AC6
:10C25000029703220C2B0192D8D164682046FFF785
:10C2600061FC0590201DFFF75DFC069004F10800BD
:10C27000FFF758FC079001A8FFF712FA002800F01A
:10C280009E80BFE70B7A13F0030212D0C2F10406BE
:10C2900000215818C0B2676801314FF0000EB1425A
:10C2A00007F800E0F5D10133C2F1030252FA83F33B
:10C2B00023720123049363680693237A04A89B08DE
:10C2C0000593FFF7ADFA002879D00221FFF751FC62
:10C2D0000221024628469BE7087A830703D02846B6
:10C2E0003146324694E7394E0190314600F08EF8DF
:10C2F000014678B96168019A306801F0BFFC019885
:10C3000000F0E8F8014628B901A9304600F0F0F83D
:10C31000014608B128463AE004230493019B9B0898
:10C32000059304A833680693FFF720FA074640B93F
:10C33000274A217A13680B441360264B32681A602F
:10C340003DE0092819D1224A217A13681944224B69
:10C3500011601B78002B32D0204A1388013B9BB21E
:10C36000138014465BBB284601F00EF908B1FEF7B6
:10C3700003F91B4B1B88238021E0306800F06EF826
:10C38000014610B12846FFF712FC28463946FFF750
:10C390000EFC14E0104B01221A70114A8B88138096
:10C3A0000E4A03E00C4A002313700D4A138006E086
:10C3B000074B196801F0ACF808B1FEF7DDF809B0D9
:10C3C000F0BD00BFF02D0020292E0020EC2D002014
:10C3D0006C2E0020E42D0020682E0020E82D002087
:10C3E000662E0020064B074A00201870064B1A6084
:10C3F00008225A609860D860186158619861704747
:10C40000C82F00208C2E0020AC2F002030B5E9B1C1
:10C41000114B5C6800220A60D4B120281AD8D86871
:10C420001D680130013CD86018695C60242404FB5D
:10C4300000540C60012101FA00F499690130214394
:10C4400000F0070018619961104630BD0E2030BD24
:10C45000042030BD0C2030BDAC2F0020F0B51C4BAB
:10C460009A6892B35D691E68AA1A02F00702114623
:10C47000242404FB0164A0420ED10D46012101FADF
:10C4800005F099694140996100209F68D3F818E050
:10C49000D3F804C039460BE0013101F00701A9428D
:10C4A000E6D11020F1E769B16A1C013902F00702F8
:10C4B000012606FA02F20CEB070412EA0E0FA4EBB7
:10C4C0000104F0D099605C60F0BD0420F0BD00BFB5
:10C4D000AC2F002005490B69013B03F007020B68F4
:10C4E000242101FB0233186200207047AC2F00208A
:10C4F00030B5B0B1A9B10D4BDA68A2B1013ADA603A
:10C500009A681D6801329A605A69242404FB025417
:10C510000132046002F00702206A5A6108600020BC
:10C5200030BD0E2030BD042030BD00BFAC2F002038
:10C5300082B00190019B002B41D0019B013B0193F4
:10C5400040F2E730013800BF00BF00BF00BF00BFAE
:10C5500000BF00BF00BF00BF00BF00BF00BF00BFE3
:10C5600000BF00BF00BF00BF00BF00BF00BF00BFD3
:10C5700000BF00BF00BF00BF00BF00BF00BF00BFC3
:10C5800000BF00BF00BF00BF00BF00BF00BF00BFB3
:10C5900000BF00BF00BF00BF00BF00BF00BF00BFA3
:10C5A00000BF00BF00BF00BF00BF00BF00BF00BF93
:10C5B00000BF00BF00BF00BF00BFC3D1BAE702B0D9
:10C5C000704729DF704728DF7047000037B50B46FA
:10C5D000024608465C6850F80C5F09780094034CEA
:10C5E0005B6954F82540A04703B030BDC03000203F
:10C5F00038B5184C2378182202FB034202F10800D8
:10C600001379C568012B0DD0032B21D14FF0805336
:10C610001869114B80B2B5FBF0F518682844FFF794
:10C62000D2FF11E00C4B91691B68926840681B03B4
:10C63000D21AB2F5805F28441944184434BF9208D6
:10C640004FF48062FFF7BDFF18B90123A37038BD16
:10C650000F2038BDCC2F0020CC30002070B5144DF9
:10C660006E780A2E21D02C783444E4B2092C88BF8D
:10C670000A3C4FF0180688BFE4B206FB045404F1EC
:10C6800010062071A26103C9A360049BE360AB782C
:10C6900086E803000BB1002003E0FFF7A9FF112893
:10C6A000F9D06B7801336B7070BD042070BD00BF92
:10C6B000CC2F002038B5274B9A781D46002A48D049
:10C6C000002402289C7002D0032833D038BD1B7888
:10C6D0002149182000FB03500A6880680132B0EB42
:10C6E000023F0A601BD86A780C60013A6A705A1CD3
:10C6F000D2B2182404FB0354092A88BFA3F109020B
:10C70000211D00202A70FFF761FF2346002243F815
:10C71000082F022122719960DA60A2615A606B7859
:10C720000C4CB3B1A378A3B9FFF762FF88B111280D
:10C7300006D138BD1A78182101FB02310D2003E023
:10C740002378182101FB03410431BDE83840FFF78D
:10C750003DBF38BDCC2F0020CC3000200C4B002238
:10C760001A600C4B1A705A709A7003F1F002002094
:10C77000022118719860196158619861D860183366
:10C780009342F4D1044B1860044B18605860704712
:10C79000CC300020CC2F0020C8300020C03000203A
:10C7A000074A1368022B1FBF0B60591C1160054A12
:10C7B0001DBF016842F8231000200420704700BF0D
:10C7C000C8300020C030002073B51546CA180A438F
:10C7D000920706460C4607D10093314622462B4667
:10C7E0000120FFF73BFF00E0102002B070BD13B541
:10C7F000002204460B46009221460320FFF72EFF3D
:10C8000002B010BD70B50D4600BB0968E1B1114C16
:10C81000A14211D0631A3B2B0AD801F13C03481EF8
:10C82000834209D013F801695A1A22445670F7E777
:10C8300020463C2201F022FA06483C210022FEF765
:10C840006DFD0023A08702E00E2300E001232B6092
:10C8500070BD00BF807F0020074A6FF002039E4535
:10C8600002D1EFF3098101E0EFF308818869A0F1BB
:10C8700002000078104700BF05C8070038B505461C
:10C88000A8B10D4C3C2120460022FEF747FDA38FA6
:10C8900083420ED1234604F13C0253F8041B45F8B1
:10C8A000041B9342F9D10130A087002038BD0E202F
:10C8B00038BD0B2038BD00BF807F002013DF7047DC
:10C8C00018DF704710B58AB00446002101A8102275
:10C8D000FDF738FE022301932CB101A8FFF7F0FF0A
:10C8E00008B1FDF749FE4FF4F420FFF7E7FF08B168
:10C8F000FDF742FE08201249124B482201F00CF9C4
:10C9000008B1FDF739FE0120014605AA01F04CF9F6
:10C9100008B1FDF731FE9DF8203005A843F0010372
:10C920008DF8203001F058F908B1FDF725FE0648D2
:10C9300001F01EF908B1FDF71FFE0AB010BD00BFDF
:10C94000E833002009DC07004DC90700FFF7B2BE3D
:10C9500008B508201421044AFDF720FE18B1BDE8EF
:10C960000840FDF709BE08BD9832002070B54FF0B1
:10C970008043D3F81C45A4F1B1025442544114B190
:10C980000022C3F81C254FF0A0430322C3F844271C
:10C99000C3F84827C3F84C274FF42022C3F80825D2
:10C9A0003C4B1B68B3F5F42F02D00020FDF7E4FDEB
:10C9B0004FF080531B69B3F5805F02D00020FDF774
:10C9C000DBFD00200521344A344BFEF70DFA08B197
:10C9D000FDF7D2FD4FF0A046314BC6F83437FEF7D5
:10C9E000CFFBFEF717FC84F00105C8B14FF400231C
:10C9F000C6F80C35FEF720FC08B1FDF7BDFD284652
:10CA0000FFF760FFFFF7A4FFFEF735FC08B1FDF765
:10CA1000B3FD4FF0A0434FF40022C3F8082504E013
:10CA20002846FFF74FFFFFF793FF4FF0A043D3F8DF
:10CA300010359B0400D55CB14FF0A0444FF40025A5
:10CA4000C4F80C55FEF7B6FB48B1FDF795FD06E0BE
:10CA500043F208031868FEF7F1FA10B9ECE7C4F8DE
:10CA6000085543F208042068FEF7E8FA28B1FEF7FB
:10CA7000D1FB10B92068FEF7A9FBBFF34F8F09491E
:10CA8000094BCA6802F4E0621343CB60BFF34F8FD7
:10CA9000FEE700BF14100010D0300020A5AF070043
:10CAA0000C00030000ED00E00400FA0571DF7047A0
:10CAB00072DF704779DF70477DDF704765DF704751
:10CAC0002DE9F04F85B000240E9DBDF83CA02E88C6
:10CAD0000191834690461F46A146BBF80020914530
:10CAE00035DADBF8042052F8290003900DF10B0130
:10CAF00003A80022FFF7E2FF002835D19DF80B20A4
:10CB0000424521D12A88002C14BF0021022102EBCA
:10CB100008000144514526DC44B9013292B29DF827
:10CB200004302A80BB542A8801322A802A8803A82C
:10CB30000DF10B013A44FFF7C1FFA8B92A889DF80F
:10CB40000B100A442A80012409F10109C5E744B108
:10CB50002A88013A921B92B2FF2A04D8BA550020C3
:10CB600002E0204600E00C2005B0BDE8F08F2DE982
:10CB7000F341089DBDF82440009517460194022218
:10CB800080461E46FFF79CFF50B9404639461022AA
:10CB900033460895099402B0BDE8F041FFF790BF15
:10CBA00002B0BDE8F0812DE9F04300231688138020
:10CBB000436B85B007460D4614469BB1022E1A788A
:10CBC00040F20D8202230B70238801339BB21121A6
:10CBD0002380E954238801339BB22380EA542388BD
:10CBE000013323803A6B22B997F82E20002A41D0D6
:10CBF0001CE0238803F11201B14200F2F0811121FF
:10CC0000E954238801339BB210212380E9542388FF
:10CC1000013323805318218813F8010D68542188AB
:10CC2000934201F101012180F5D1DDE72388D91C70
:10CC3000B14200F2D4810221E954238801339BB22E
:10CC40001C202380E854238801339BB2013A2380BF
:10CC5000032A00F2C681DFE802F00204060800227F
:10CC600004E0012202E0E95401E00322EA542388AF
:10CC70000133238097F82D301BB9BB78002B4CD0A3
:10CC80002AE023880933B34200F2A98102A8FFF702
:10CC90000DFF002840F0A68123880822EA5423884B
:10CCA00001339BB21B222380EA542088013080B2DA
:10CCB0002080062228440DF1090100F0DFFF2388BF
:10CCC0009DF8082006339BB2238002B10122EA546A
:10CCD000238801332380D0E723880433B34200F252
:10CCE0007E8102A8FFF7E6FE002840F07B812388C2
:10CCF0000322EA54238801339BB219222380EA5489
:10CD00002388BDF8082001339BB2E9182380EA5438
:10CD1000120A4A70238802332380FA78A2B123884A
:10CD2000D91CB14200F25B810221E954238801330E
:10CD30009BB201212380E95423880B449BB22380BA
:10CD4000EA5423880B4423807B68ABB11A7823888C
:10CD5000D91CB14200F243810221E95423880133F6
:10CD60009BB20A212380E954238801339BB223809C
:10CD7000EA542388013323803B8913B93B8AC3B12A
:10CD80000BE08DE8500007F10800022106222B4637
:10CD9000FFF7EDFE0028F1D024E18DE8500007F107
:10CDA0001000032107222B46FFF7E1FE002840F088
:10CDB00019813B8B5BB18DE8500007F118001421FD
:10CDC00015222B46FFF7D3FE002840F00B813A6A6C
:10CDD000002A46D0B4F800E00EF10603B34200F298
:10CDE000FE801188052940F2FC806FF4486C01EB4D
:10CDF0000C039BB24FF27D3C634540F2F2805388B6
:10CE0000052B40F2EE806FF44860181880B2604540
:10CE100040F2E7804FF6FF70814204D0834202D097
:10CE2000994200F2DE80052305F80E302388013395
:10CE30009BB212212380E954238801339BB22380C3
:10CE40001188E954E818090A4170238802339BB21B
:10CE500023805288EA54E918120A4A702388023360
:10CE60002380D7F82480B8F1000F31D0B8F804300F
:10CE700021881A1D0A44B24200F2B1809A1CFE2A8F
:10CE800000F2AD8003336B54238801339BB2FF2241
:10CE90002380EA54238801339BB22380B8F8002012
:10CEA000EA54E918120A4A702088023080B22080C1
:10CEB000B8F8042062B1D8F80810002900F0918079
:10CEC000284400F0DBFE2288B8F8043013442380A5
:10CED00097F82C3023B93878002800F083803FE0A1
:10CEE000BB6A002B7DD04FF0000997F82C205FFA29
:10CEF00089F39A42EFD90C20B96A00FB03F201EBE7
:10CF00000208B8F8043003F1020EBEF1FE0F69D832
:10CF1000208803332B54238801339BB216202380AF
:10CF2000E854238801339BB223808A5AEA54E918D3
:10CF3000120A4A702088023080B22080B8F804209B
:10CF40005AB1D8F8081000294BD0284400F096FEBA
:10CF50002288B8F804301344238009F10109C4E79A
:10CF60003B88012B3DD0228802F1020EB64536D80F
:10CF7000012804D17B7802331344B3422FD8023EF8
:10CF8000B61A04A9B6B221F8086D05EB0E00FFF73A
:10CF900093FD38BB3B78022B04D1BDF80830B34277
:10CFA0000CD907E0012B05D17B78B34202D8ADF84C
:10CFB000083001E0ADF80860082100E00921BDF863
:10CFC0000820FE2A0BD823880132EA542388013333
:10CFD0009BB22380E95423881A44228002E00C206B
:10CFE00000E0072005B0BDE8F08330B593B01F2303
:10CFF0000D46ADF80430ADF8063020B1C3785B07BC
:10D0000014D4072022E0ADF8040004461DB1EB78EB
:10D01000002BF6D111E0ADF806502A4620469DF8C7
:10D0200004109DF80630FFF743FD0FE002A901AAA6
:10D03000FFF7B9FD50B902ACE8E728460AA90DF19F
:10D040000602FFF7B0FD08B90AAAE7E713B030BD42
:10D0500075DF704776DF70477ADF70477BDF704798
:10D0600037B5154B18884FF6FF73984222D0134AF4
:10D07000134D1378297B0133DBB2994213702C4690
:10D0800006D31049FFF7E4FFA0B1AB698BB911E0FB
:10D09000002313702B7C33B13B21FFF7DBFF10B172
:10D0A000AB6903B19847636923B102A8002200F875
:10D0B000042D984703B030BD783400203A34002066
:10D0C0003C3400207A34002073B5174B174A5B8834
:10D0D0001188174C174D99420DD852889A420AD39D
:10D0E000636923B102A8012200F8042D98470023A8
:10D0F0002B7002B070BD2A782AB16369002BF6D07C
:10D1000002A80022F0E70C4861680678A3680B4883
:10D11000002E18BF1946FDF7CFFE0028E7D0A369FF
:10D12000002BE3D1E3E700BF323400207A34002043
:10D130003C340020303400203A34002058340020A1
:10D1400070B5054606460FCD114C0FC495E8070093
:10D15000104B84E8070000221A7032680E489AB11A
:10D160001368036053684360FFF776FF78B90B4B91
:10D170000B484FF6FF721A800A4B0B4A00211970B8
:10D18000BDE87040FDF786BEFFF768FFEEE770BDB3
:10D190003C340020303400207A34002078340020E1
:10D1A000D0DC07003A34002061D007000148FDF7C9
:10D1B000C3BE00BF5834002010B50388112B18D00F
:10D1C00002D8102B05D010BD122B35D0502B1ED0FD
:10D1D00010BD1F4B82881A801E4A50F8163F1360FC
:10D1E000436853601C4B00221A701C4BDB896BBBDD
:10D1F00028E0174B1A484FF6FF721A80164B002290
:10D200001A70FDF799FE08B3144B9B6910E0134C9C
:10D21000C288E3899A4219D1C38B022B16D190F8A8
:10D220002030DB070ED40E48FDF786FE70B1A369EF
:10D2300063B1BDE810401847064A50F8063F136036
:10D2400043685360BDE81040FFF73EBF10BD00BF0C
:10D2500078340020323400203A3400203C3400205E
:10D2600058340020A0DF7047A2DF7047A5DF704769
:10D27000A6DF7047A8DF704763DF70472DE9F047EE
:10D280000F4694B00546002800F03681002900F0D2
:10D2900033814B68002B00F02F814FF6FF73038022
:10D2A000994B04AA03F1100696461868596814466B
:10D2B00003C40833B3422246F7D114AE41F23053CF
:10D2C00070460DF10A0126F8483DFFF7D5FF00280A
:10D2D00040F01481012031462A1DFFF7C3FF0446A8
:10D2E000002840F00C819DF80A30AB7121461C22C9
:10D2F0000DA8FDF727F99DF834300E9443F0040390
:10D300008DF8343001AEAB798DF80E30214641F204
:10D310003253032230461094119412941394ADF8B2
:10D320000C30FDF70FF99DF8043064F3030364F348
:10D3300007138DF804309DF805304FF0010A6AF3A9
:10D3400003036AF307138DF805309DF806306AF37E
:10D35000420364F3C30364F30413DBB243EA0A0336
:10D360002146142208A88DF806300DF10C08FDF7AF
:10D37000E9F84FF01409A888ADF828400DA908AACB
:10D3800005F10803ADF82A400C94CDF820800996E9
:10D39000ADF82C90FFF768FF0446002840F0AF80FE
:10D3A00021461C220DA8FDF7CDF89DF834300E94CF
:10D3B00043F018038DF83430AB798DF80E302146E8
:10D3C00041F2315303223046109411941294139475
:10D3D000ADF80C30FDF7B6F89DF8043064F30303A4
:10D3E00064F307138DF804309DF805306AF30303E6
:10D3F0006AF307138DF805309DF806306AF342038F
:10D4000064F3C303DBB243F0110321464A4608A884
:10D410008DF80630FDF796F81723ADF82C30A88864
:10D42000ADF828400DA908AA05F11003ADF82A406F
:10D430000C94CDF820800996FFF716FF04460028CB
:10D440005DD121461C220DA8FDF77CF89DF83430F3
:10D450000E9443F002038DF83430AB798DF80E3022
:10D46000214641F234530322304610941194129411
:10D470001394ADF80C30FDF765F89DF804306AF3AD
:10D4800003036AF307138DF804309DF8053064F345
:10D49000030364F307138DF805309DF806306AF333
:10D4A000420364F3C30364F30413DBB243EA0A03E5
:10D4B00021464A4608A88DF80630FDF743F80223B6
:10D4C000ADF82830ADF82C30A888ADF82A400DA969
:10D4D00008AA05F12003CDF8208009960C97FFF7E4
:10D4E000C3FE044658B97B68AB62BB6803B1EB620C
:10D4F000064B01221A7002E00E2400E0044620468A
:10D5000014B0BDE8F08700BFD4DC070082340020EF
:10D5100070B5054686B070B302884FF6FF739A4225
:10D520002BD0174B1B7843B3164CC1F30720E17087
:10D530002071C1F30740090E0723102201266071F4
:10D54000A17102A800216370ADF806302270A670A8
:10D55000FCF7F8FF2B8AADF808300023ADF80C304B
:10D5600028888DF80A600DF1060302A9049305943A
:10D57000FFF77EFE02E00E2000E0082006B070BD3E
:10D58000823400208334002030B5054687B068B36C
:10D5900002884FF6FF739A422AD0174B1B783BB391
:10D5A000164C11232370C1F307236170A370C1F3DC
:10D5B0000743090EE3702171052302A80021102200
:10D5C000ADF80630FCF7BEFF2B8AADF8083001231A
:10D5D0008DF80A300023ADF80C30288805940DF141
:10D5E000060302A90493FFF743FE02E00E2000E0C9
:10D5F000082007B030BD00BF8234002083340020F3
:10D6000030B5044687B030B300884FF6FF739842B8
:10D6100023D0134B1B7803B3124D102369700321E1
:10D62000ADF80610AA7002A81A4600212B70FCF76C
:10D6300089FF238AADF8083001238DF80A300023D2
:10D64000ADF80C30208805950DF1060302A904936E
:10D65000FFF70EFE02E00E2000E0082007B030BD0C
:10D66000823400208334002070B50D4688B0044613
:10D67000002800F0C580002900F0C280826A002ADC
:10D6800000F0BE800B88112B1BD004D8102B40F06B
:10D69000B7808B8817E0502B02D0512B15D0AFE00C
:10D6A000C9880389994240F0AB8008238DF8103077
:10D6B000203535F8023C8DF81830059504A99047BF
:10D6C0009EE04FF6FF7323809AE08B79022B40F0A7
:10D6D00097800A89038A9A4240F092808B7A043BB1
:10D6E000022B40F28D809DF8163043F001038DF837
:10D6F0001630CB8BADF818300B8CADF81A300226F3
:10D7000001F122030822002101A88DF8106007937F
:10D71000FCF718FF00232088A18AADF8046001AA55
:10D72000ADF80630CDF808D0FFF7A0FD064618B1D9
:10D73000E36A2BB1984703E09DF80030DB0708D47B
:10D7400040F2FD132088ADF8143004A9FFF792FDD4
:10D7500052E0ADF8140004A92088FFF78BFD0028E3
:10D760004AD195F822104B1E072B41D8DFE803F071
:10D77000040E1D1F21233E252B8C8DF80460012BE8
:10D7800002D82046012109E0012309E02A8C012367
:10D790009A428DF8043003D820460221062229E05F
:10D7A00023358DF80C3002951BE0022317E003238C
:10D7B00015E0042313E0052311E02B8C022B02D883
:10D7C0002046082115E095F8242095F8233043EAF7
:10D7D0000223ADF808300BB9072300E006238DF8CB
:10D7E0000430A36A204601A9984709E00923F6E717
:10D7F00020460322FFF704FF10B1E36A03B1984704
:10D8000008B070BD884B1B78062B19D1874B1B685D
:10D810001B0715D1864B1B6803F0F002302A0BD191
:10D82000844B1B6813F0F00F0AD1834B834A1B68AB
:10D83000C3F34233136003E003F0E003402BEFD067
:10D84000794B1B78062B0FD1784B1B6818070BD12F
:10D85000774B1B6803F0F003302B05D1754B1B6829
:10D8600013F0F00F00F08D806F4B1B78062B1BD14F
:10D870006E4B1B68190717D16D4B1B6803F0F00244
:10D88000302A0DD16B4B1B6813F0F0030CD14FF015
:10D890008042C2F80C31C2F81031C2F8383503E0CA
:10D8A00003F0E003402BEDD05F4B1B78062B0ED12D
:10D8B0005E4B1B681A070AD15D4B1B6803F0F0032F
:10D8C000302B04D15B4B1B6813F0F00F5FD0564B2D
:10D8D0001B78062B0ED1554B1B681B070AD1544BE6
:10D8E0001B6803F0F003502B04D1524B1B6813F05C
:10D8F000F00F50D0524AD2F8883043F47003C2F887
:10D900008830BFF34F8FBFF36F8F4FF01023D3F8E2
:10D910000022002A03DBD3F80032002B2DDA494B1A
:10D920000122C3F80425D3F80024002AFBD04FF0CD
:10D9300010221521C2F80012D3F80024002AFBD0CF
:10D940004FF010231522C3F804223E4BD3F80024D5
:10D95000002AFAD00022C3F80425D3F80024002AB4
:10D96000FBD0BFF34F8F3649374BCA6802F4E062F1
:10D970001343CB60BFF34F8FFEE7344B344A1A603A
:10D980007047344AD36823F08073D3606CE7324B1E
:10D9900003221A609BE74FF08052304BD2F80414F8
:10D9A000C3F82015D2F80814C3F82415D2F80C14C3
:10D9B000C3F82815D2F81014C3F82C15D2F8141493
:10D9C000C3F83015D2F81814C3F83415D2F81C1463
:10D9D000C3F84015D2F82014C3F84415D2F8241423
:10D9E000C3F84815D2F82814C3F84C15D2F82C14F3
:10D9F000C3F85015D2F83014C3F85415D2F83414C3
:10DA0000C3F86015D2F83814C3F86415D2F83C1482
:10DA1000C3F86815D2F84014C3F86C15D2F8442442
:10DA2000C3F8702566E700BFE00F00F0E40F00F0D8
:10DA3000E80F00F0EC0F00F0440200103C0500403D
:10DA400000ED00E000E001400400FA05682C002031
:10DA50000090D003F0ED00E0A005004000C00040C1
:10DA60002EDF704752DF704710DF704760DF70476E
:10DA700061DF7047FCF770BD2DE9F341214B1B7846
:10DA8000002B3BD0204B214E1C683568B4FA84F43F
:10DA9000B5FA85F564096D0998466DBB01A8FFF7D5
:10DAA000E1FF052807D010B1FCF766FD04E03368FC
:10DAB0000198984700E00125E4B9154B02A91B889D
:10DAC00021F8043D134B1F683846FFF7D1FF0528A6
:10DAD000044609D018B1FCF74FFD002405E0D8F842
:10DAE00000303846984700E00124002DD6D0002CA5
:10DAF000D3D003E015B9D1E7002CDED002B0BDE8E9
:10DB0000F08100BF8A340020983400209434002033
:10DB10008C3400209034002010B599B18C0711D1BD
:10DB2000094C216009490A80094A0A491360FFF734
:10DB30009BFF40B9084B01221A701620BDE8104027
:10DB4000FFF78EBF072010BD903400208C340020DA
:10DB50009C34002075DA07008A34002018B1034B8A
:10DB60001860002070470E20704700BF98340020D6
:10DB700018B1034B1860002070470E20704700BF9B
:10DB80009434002008B5074B1B682BB1984738B177
:10DB9000BDE80840FCF7F0BCBDE80840FFF76CBFEB
:10DBA00008BD00BF9C34002070B5144605460E46E3
:10DBB000104600211422FCF7C5FC227B26720021AE
:10DBC000012361F30002238021612273657205B194
:10DBD000A372002070BD000007B5054B019302A998
:10DBE000019B41F8083DFFF741FF03B05DF804FBDE
:10DBF000002C002008B511B10020FCF7BDFCBDE8E9
:10DC00000840FFF739BF000000200146014AFCF739
:10DC1000E9BC00BFF5DB07000649074A074B9B1A22
:10DC200003DD043BC858D050FBDC0548804705485D
:10DC300000470000ECDC0700002C0020742C0020C2
:10DC400005D807005DA40700FEE7FEE7FEE7FEE754
:10DC5000FEE7FEE7FEE7FEE7FEE700BF10B50A4479
:10DC6000441E914208D014F8013F0878834201D045
:10DC7000181A10BD0131F4E7002010BD10B5431E85
:10DC80000A44914204D011F8014B03F8014FF8E720
:10DC900010BD034613F8012B002AFBD1181A0138D6
:10DCA00070470000F8B500BFF8BC08BC9E4670473E
:10DCB000F8B500BFF8BC08BC9E46704743000000A2
:10DCC000002C00200C2D0020446675546172670002
:10DCD0005834002023D1BCEA5F782315DEEF1212FE
:04DCE0000000000040
:08DCE40078C7FF7F010000007A
:10DCEC000000000000000000000000000000000028
:10DCFC000000000000000000000000000000000018
:10DD0C00BCDC070000000000000000000000000068
:10DD1C0000000000000000000000000000000000F7
:10DD2C0000000000000000000000000000000000E7
:10DD3C0000000000000000000000000000000000D7
:10DD4C00FFFF0000320000000090D00325A4070064
:04DD5C0001A4070017
:020000020000FC
:020000041000EA
:0410140000A0070031
:0410180000E00700ED
:040000037000DC1994
:00000001FF
